{
  "contractName": "DARToken",
  "abi": [
    {
      "inputs": [
        {
          "internalType": "address payable",
          "name": "_owner",
          "type": "address"
        },
        {
          "internalType": "uint256",
          "name": "_fee",
          "type": "uint256"
        },
        {
          "internalType": "address",
          "name": "_proxyRegistryAddress",
          "type": "address"
        },
        {
          "internalType": "string",
          "name": "_baseUri",
          "type": "string"
        }
      ],
      "stateMutability": "nonpayable",
      "type": "constructor"
    },
    {
      "anonymous": false,
      "inputs": [
        {
          "indexed": true,
          "internalType": "address",
          "name": "owner",
          "type": "address"
        },
        {
          "indexed": true,
          "internalType": "address",
          "name": "approved",
          "type": "address"
        },
        {
          "indexed": true,
          "internalType": "uint256",
          "name": "tokenId",
          "type": "uint256"
        }
      ],
      "name": "Approval",
      "type": "event"
    },
    {
      "anonymous": false,
      "inputs": [
        {
          "indexed": true,
          "internalType": "address",
          "name": "owner",
          "type": "address"
        },
        {
          "indexed": true,
          "internalType": "address",
          "name": "operator",
          "type": "address"
        },
        {
          "indexed": false,
          "internalType": "bool",
          "name": "approved",
          "type": "bool"
        }
      ],
      "name": "ApprovalForAll",
      "type": "event"
    },
    {
      "anonymous": false,
      "inputs": [
        {
          "indexed": true,
          "internalType": "address",
          "name": "previousOwner",
          "type": "address"
        },
        {
          "indexed": true,
          "internalType": "address",
          "name": "newOwner",
          "type": "address"
        }
      ],
      "name": "OwnershipTransferred",
      "type": "event"
    },
    {
      "anonymous": false,
      "inputs": [
        {
          "indexed": true,
          "internalType": "address",
          "name": "from",
          "type": "address"
        },
        {
          "indexed": true,
          "internalType": "address",
          "name": "to",
          "type": "address"
        },
        {
          "indexed": true,
          "internalType": "uint256",
          "name": "tokenId",
          "type": "uint256"
        }
      ],
      "name": "Transfer",
      "type": "event"
    },
    {
      "inputs": [
        {
          "internalType": "address",
          "name": "to",
          "type": "address"
        },
        {
          "internalType": "uint256",
          "name": "tokenId",
          "type": "uint256"
        }
      ],
      "name": "approve",
      "outputs": [],
      "stateMutability": "nonpayable",
      "type": "function"
    },
    {
      "inputs": [
        {
          "internalType": "address",
          "name": "owner",
          "type": "address"
        }
      ],
      "name": "balanceOf",
      "outputs": [
        {
          "internalType": "uint256",
          "name": "",
          "type": "uint256"
        }
      ],
      "stateMutability": "view",
      "type": "function",
      "constant": true
    },
    {
      "inputs": [],
      "name": "baseURI",
      "outputs": [
        {
          "internalType": "string",
          "name": "",
          "type": "string"
        }
      ],
      "stateMutability": "view",
      "type": "function",
      "constant": true
    },
    {
      "inputs": [],
      "name": "fee",
      "outputs": [
        {
          "internalType": "uint256",
          "name": "",
          "type": "uint256"
        }
      ],
      "stateMutability": "view",
      "type": "function",
      "constant": true
    },
    {
      "inputs": [
        {
          "internalType": "uint256",
          "name": "tokenId",
          "type": "uint256"
        }
      ],
      "name": "getApproved",
      "outputs": [
        {
          "internalType": "address",
          "name": "",
          "type": "address"
        }
      ],
      "stateMutability": "view",
      "type": "function",
      "constant": true
    },
    {
      "inputs": [],
      "name": "name",
      "outputs": [
        {
          "internalType": "string",
          "name": "",
          "type": "string"
        }
      ],
      "stateMutability": "view",
      "type": "function",
      "constant": true
    },
    {
      "inputs": [],
      "name": "owner",
      "outputs": [
        {
          "internalType": "address",
          "name": "",
          "type": "address"
        }
      ],
      "stateMutability": "view",
      "type": "function",
      "constant": true
    },
    {
      "inputs": [
        {
          "internalType": "uint256",
          "name": "tokenId",
          "type": "uint256"
        }
      ],
      "name": "ownerOf",
      "outputs": [
        {
          "internalType": "address",
          "name": "",
          "type": "address"
        }
      ],
      "stateMutability": "view",
      "type": "function",
      "constant": true
    },
    {
      "inputs": [],
      "name": "renounceOwnership",
      "outputs": [],
      "stateMutability": "nonpayable",
      "type": "function"
    },
    {
      "inputs": [
        {
          "internalType": "address",
          "name": "from",
          "type": "address"
        },
        {
          "internalType": "address",
          "name": "to",
          "type": "address"
        },
        {
          "internalType": "uint256",
          "name": "tokenId",
          "type": "uint256"
        }
      ],
      "name": "safeTransferFrom",
      "outputs": [],
      "stateMutability": "nonpayable",
      "type": "function"
    },
    {
      "inputs": [
        {
          "internalType": "address",
          "name": "from",
          "type": "address"
        },
        {
          "internalType": "address",
          "name": "to",
          "type": "address"
        },
        {
          "internalType": "uint256",
          "name": "tokenId",
          "type": "uint256"
        },
        {
          "internalType": "bytes",
          "name": "_data",
          "type": "bytes"
        }
      ],
      "name": "safeTransferFrom",
      "outputs": [],
      "stateMutability": "nonpayable",
      "type": "function"
    },
    {
      "inputs": [
        {
          "internalType": "address",
          "name": "operator",
          "type": "address"
        },
        {
          "internalType": "bool",
          "name": "approved",
          "type": "bool"
        }
      ],
      "name": "setApprovalForAll",
      "outputs": [],
      "stateMutability": "nonpayable",
      "type": "function"
    },
    {
      "inputs": [
        {
          "internalType": "bytes4",
          "name": "interfaceId",
          "type": "bytes4"
        }
      ],
      "name": "supportsInterface",
      "outputs": [
        {
          "internalType": "bool",
          "name": "",
          "type": "bool"
        }
      ],
      "stateMutability": "view",
      "type": "function",
      "constant": true
    },
    {
      "inputs": [],
      "name": "symbol",
      "outputs": [
        {
          "internalType": "string",
          "name": "",
          "type": "string"
        }
      ],
      "stateMutability": "view",
      "type": "function",
      "constant": true
    },
    {
      "inputs": [
        {
          "internalType": "uint256",
          "name": "index",
          "type": "uint256"
        }
      ],
      "name": "tokenByIndex",
      "outputs": [
        {
          "internalType": "uint256",
          "name": "",
          "type": "uint256"
        }
      ],
      "stateMutability": "view",
      "type": "function",
      "constant": true
    },
    {
      "inputs": [
        {
          "internalType": "address",
          "name": "owner",
          "type": "address"
        },
        {
          "internalType": "uint256",
          "name": "index",
          "type": "uint256"
        }
      ],
      "name": "tokenOfOwnerByIndex",
      "outputs": [
        {
          "internalType": "uint256",
          "name": "",
          "type": "uint256"
        }
      ],
      "stateMutability": "view",
      "type": "function",
      "constant": true
    },
    {
      "inputs": [
        {
          "internalType": "uint256",
          "name": "tokenId",
          "type": "uint256"
        }
      ],
      "name": "tokenURI",
      "outputs": [
        {
          "internalType": "string",
          "name": "",
          "type": "string"
        }
      ],
      "stateMutability": "view",
      "type": "function",
      "constant": true
    },
    {
      "inputs": [],
      "name": "totalSupply",
      "outputs": [
        {
          "internalType": "uint256",
          "name": "",
          "type": "uint256"
        }
      ],
      "stateMutability": "view",
      "type": "function",
      "constant": true
    },
    {
      "inputs": [
        {
          "internalType": "address",
          "name": "from",
          "type": "address"
        },
        {
          "internalType": "address",
          "name": "to",
          "type": "address"
        },
        {
          "internalType": "uint256",
          "name": "tokenId",
          "type": "uint256"
        }
      ],
      "name": "transferFrom",
      "outputs": [],
      "stateMutability": "nonpayable",
      "type": "function"
    },
    {
      "inputs": [
        {
          "internalType": "address",
          "name": "newOwner",
          "type": "address"
        }
      ],
      "name": "transferOwnership",
      "outputs": [],
      "stateMutability": "nonpayable",
      "type": "function"
    },
    {
      "inputs": [],
      "name": "getDartsMeta",
      "outputs": [
        {
          "components": [
            {
              "internalType": "uint256",
              "name": "dartId",
              "type": "uint256"
            },
            {
              "internalType": "bytes32",
              "name": "name",
              "type": "bytes32"
            },
            {
              "internalType": "address",
              "name": "owner",
              "type": "address"
            },
            {
              "internalType": "uint256",
              "name": "createDate",
              "type": "uint256"
            }
          ],
          "internalType": "struct CustomStructs.MetaResp[]",
          "name": "",
          "type": "tuple[]"
        }
      ],
      "stateMutability": "view",
      "type": "function",
      "constant": true
    },
    {
      "inputs": [
        {
          "internalType": "uint256",
          "name": "_tokenId",
          "type": "uint256"
        }
      ],
      "name": "getDartMeta",
      "outputs": [
        {
          "components": [
            {
              "internalType": "uint256",
              "name": "dartId",
              "type": "uint256"
            },
            {
              "internalType": "bytes32",
              "name": "name",
              "type": "bytes32"
            },
            {
              "internalType": "address",
              "name": "owner",
              "type": "address"
            },
            {
              "internalType": "uint256",
              "name": "createDate",
              "type": "uint256"
            }
          ],
          "internalType": "struct CustomStructs.MetaResp",
          "name": "",
          "type": "tuple"
        }
      ],
      "stateMutability": "view",
      "type": "function",
      "constant": true
    },
    {
      "inputs": [
        {
          "internalType": "uint256",
          "name": "_tokenId",
          "type": "uint256"
        }
      ],
      "name": "getDartContent",
      "outputs": [
        {
          "components": [
            {
              "internalType": "uint8[]",
              "name": "rgbaArray",
              "type": "uint8[]"
            },
            {
              "components": [
                {
                  "internalType": "uint256",
                  "name": "height",
                  "type": "uint256"
                },
                {
                  "internalType": "uint256",
                  "name": "width",
                  "type": "uint256"
                }
              ],
              "internalType": "struct CustomStructs.Dimensions",
              "name": "dimensions",
              "type": "tuple"
            }
          ],
          "internalType": "struct CustomStructs.Content",
          "name": "",
          "type": "tuple"
        }
      ],
      "stateMutability": "view",
      "type": "function",
      "constant": true
    },
    {
      "inputs": [
        {
          "internalType": "uint8[]",
          "name": "_pixels",
          "type": "uint8[]"
        },
        {
          "components": [
            {
              "internalType": "uint256",
              "name": "height",
              "type": "uint256"
            },
            {
              "internalType": "uint256",
              "name": "width",
              "type": "uint256"
            }
          ],
          "internalType": "struct CustomStructs.Dimensions",
          "name": "_dimensions",
          "type": "tuple"
        },
        {
          "internalType": "bytes32",
          "name": "_name",
          "type": "bytes32"
        }
      ],
      "name": "createDart",
      "outputs": [],
      "stateMutability": "payable",
      "type": "function",
      "payable": true
    },
    {
      "inputs": [
        {
          "internalType": "address payable",
          "name": "_owner",
          "type": "address"
        }
      ],
      "name": "changeContactOwner",
      "outputs": [],
      "stateMutability": "nonpayable",
      "type": "function"
    },
    {
      "inputs": [
        {
          "internalType": "string",
          "name": "_uri",
          "type": "string"
        }
      ],
      "name": "changeBaseUri",
      "outputs": [],
      "stateMutability": "nonpayable",
      "type": "function"
    },
    {
      "inputs": [
        {
          "internalType": "address",
          "name": "owner",
          "type": "address"
        },
        {
          "internalType": "address",
          "name": "operator",
          "type": "address"
        }
      ],
      "name": "isApprovedForAll",
      "outputs": [
        {
          "internalType": "bool",
          "name": "",
          "type": "bool"
        }
      ],
      "stateMutability": "view",
      "type": "function",
      "constant": true
    }
  ],
  "bytecode": "0x60806040523480156200001157600080fd5b506040516200471038038062004710833981810160405281019062000037919062000510565b6040518060400160405280601081526020017f446563656e7472616c697a6564417274000000000000000000000000000000008152506040518060400160405280600381526020017f4452540000000000000000000000000000000000000000000000000000000000815250620000bb6301ffc9a760e01b6200028c60201b60201c565b8160069080519060200190620000d3929190620003b9565b508060079080519060200190620000ec929190620003b9565b50620001056380ac58cd60e01b6200028c60201b60201c565b6200011d635b5e139f60e01b6200028c60201b60201c565b6200013563780e9d6360e01b6200028c60201b60201c565b50506000620001496200039560201b60201c565b905080600a60006101000a81548173ffffffffffffffffffffffffffffffffffffffff021916908373ffffffffffffffffffffffffffffffffffffffff1602179055508073ffffffffffffffffffffffffffffffffffffffff16600073ffffffffffffffffffffffffffffffffffffffff167f8be0079c531659141344cd1fd0a4f28419497f9722a3daafe3b4186f6b6457e060405160405180910390a35083600b60006101000a81548173ffffffffffffffffffffffffffffffffffffffff021916908373ffffffffffffffffffffffffffffffffffffffff16021790555082600e8190555081600c60006101000a81548173ffffffffffffffffffffffffffffffffffffffff021916908373ffffffffffffffffffffffffffffffffffffffff16021790555062000282816200039d60201b60201c565b50505050620006d4565b63ffffffff60e01b817bffffffffffffffffffffffffffffffffffffffffffffffffffffffff1916141562000329576040517f08c379a000000000000000000000000000000000000000000000000000000000815260040180806020018281038252601c8152602001807f4552433136353a20696e76616c696420696e746572666163652069640000000081525060200191505060405180910390fd5b6001600080837bffffffffffffffffffffffffffffffffffffffffffffffffffffffff19167bffffffffffffffffffffffffffffffffffffffffffffffffffffffff1916815260200190815260200160002060006101000a81548160ff02191690831515021790555050565b600033905090565b8060099080519060200190620003b5929190620003b9565b5050565b828054600181600116156101000203166002900490600052602060002090601f016020900481019282620003f157600085556200043d565b82601f106200040c57805160ff19168380011785556200043d565b828001600101855582156200043d579182015b828111156200043c5782518255916020019190600101906200041f565b5b5090506200044c919062000450565b5090565b5b808211156200046b57600081600090555060010162000451565b5090565b600081519050620004808162000686565b92915050565b6000815190506200049781620006a0565b92915050565b600082601f830112620004af57600080fd5b8151620004c6620004c082620005c9565b62000595565b91508082526020830160208301858383011115620004e357600080fd5b620004f08382846200064e565b50505092915050565b6000815190506200050a81620006ba565b92915050565b600080600080608085870312156200052757600080fd5b6000620005378782880162000486565b94505060206200054a87828801620004f9565b93505060406200055d878288016200046f565b925050606085015167ffffffffffffffff8111156200057b57600080fd5b62000589878288016200049d565b91505092959194509250565b6000604051905081810181811067ffffffffffffffff82111715620005bf57620005be62000684565b5b8060405250919050565b600067ffffffffffffffff821115620005e757620005e662000684565b5b601f19601f8301169050602081019050919050565b6000620006098262000624565b9050919050565b60006200061d8262000624565b9050919050565b600073ffffffffffffffffffffffffffffffffffffffff82169050919050565b6000819050919050565b60005b838110156200066e57808201518184015260208101905062000651565b838111156200067e576000848401525b50505050565bfe5b6200069181620005fc565b81146200069d57600080fd5b50565b620006ab8162000610565b8114620006b757600080fd5b50565b620006c58162000644565b8114620006d157600080fd5b50565b61402c80620006e46000396000f3fe60806040526004361061019c5760003560e01c80636c0360eb116100ec578063b61075e51161008a578063c87b56dd11610064578063c87b56dd146105dd578063ddca3f431461061a578063e985e9c514610645578063f2fde38b146106825761019c565b8063b61075e51461056d578063b88d4fde14610598578063bad88d2f146105c15761019c565b80638da5cb5b116100c65780638da5cb5b146104c557806395d89b41146104f0578063a22cb4651461051b578063a62f204e146105445761019c565b80636c0360eb1461044657806370a0823114610471578063715018a6146104ae5761019c565b806318160ddd1161015957806342842e0e1161013357806342842e0e1461037a578063492d306b146103a35780634f6ccce7146103cc5780636352211e146104095761019c565b806318160ddd146102e957806323b872dd146103145780632f745c591461033d5761019c565b806301ffc9a7146101a157806306fdde03146101de578063081812fc14610209578063095ea7b3146102465780630fdf4d531461026f57806316cd3719146102ac575b600080fd5b3480156101ad57600080fd5b506101c860048036038101906101c3919061358a565b6106ab565b6040516101d591906139a7565b60405180910390f35b3480156101ea57600080fd5b506101f3610712565b60405161020091906139c2565b60405180910390f35b34801561021557600080fd5b50610230600480360381019061022b919061361d565b6107b4565b60405161023d919061396a565b60405180910390f35b34801561025257600080fd5b5061026d600480360381019061026891906134e7565b61084f565b005b34801561027b57600080fd5b506102966004803603810190610291919061361d565b610993565b6040516102a39190613a46565b60405180910390f35b3480156102b857600080fd5b506102d360048036038101906102ce919061361d565b610a26565b6040516102e09190613a24565b60405180910390f35b3480156102f557600080fd5b506102fe610af9565b60405161030b9190613a61565b60405180910390f35b34801561032057600080fd5b5061033b600480360381019061033691906133e1565b610b0a565b005b34801561034957600080fd5b50610364600480360381019061035f91906134e7565b610b80565b6040516103719190613a61565b60405180910390f35b34801561038657600080fd5b506103a1600480360381019061039c91906133e1565b610bdb565b005b3480156103af57600080fd5b506103ca60048036038101906103c591906135dc565b610bfb565b005b3480156103d857600080fd5b506103f360048036038101906103ee919061361d565b610c97565b6040516104009190613a61565b60405180910390f35b34801561041557600080fd5b50610430600480360381019061042b919061361d565b610cba565b60405161043d919061396a565b60405180910390f35b34801561045257600080fd5b5061045b610cf1565b60405161046891906139c2565b60405180910390f35b34801561047d57600080fd5b5061049860048036038101906104939190613353565b610d93565b6040516104a59190613a61565b60405180910390f35b3480156104ba57600080fd5b506104c3610e68565b005b3480156104d157600080fd5b506104da610fd8565b6040516104e7919061396a565b60405180910390f35b3480156104fc57600080fd5b50610505611002565b60405161051291906139c2565b60405180910390f35b34801561052757600080fd5b50610542600480360381019061053d91906134ab565b6110a4565b005b34801561055057600080fd5b5061056b6004803603810190610566919061337c565b61125a565b005b34801561057957600080fd5b5061058261132e565b60405161058f9190613985565b60405180910390f35b3480156105a457600080fd5b506105bf60048036038101906105ba9190613430565b611464565b005b6105db60048036038101906105d69190613523565b6114dc565b005b3480156105e957600080fd5b5061060460048036038101906105ff919061361d565b61167a565b60405161061191906139c2565b60405180910390f35b34801561062657600080fd5b5061062f61194b565b60405161063c9190613a61565b60405180910390f35b34801561065157600080fd5b5061066c600480360381019061066791906133a5565b611951565b60405161067991906139a7565b60405180910390f35b34801561068e57600080fd5b506106a960048036038101906106a49190613353565b611a53565b005b6000806000837bffffffffffffffffffffffffffffffffffffffffffffffffffffffff19167bffffffffffffffffffffffffffffffffffffffffffffffffffffffff1916815260200190815260200160002060009054906101000a900460ff169050919050565b606060068054600181600116156101000203166002900480601f0160208091040260200160405190810160405280929190818152602001828054600181600116156101000203166002900480156107aa5780601f1061077f576101008083540402835291602001916107aa565b820191906000526020600020905b81548152906001019060200180831161078d57829003601f168201915b5050505050905090565b60006107bf82611c48565b610814576040517f08c379a000000000000000000000000000000000000000000000000000000000815260040180806020018281038252602c815260200180613f21602c913960400191505060405180910390fd5b6004600083815260200190815260200160002060009054906101000a900473ffffffffffffffffffffffffffffffffffffffff169050919050565b600061085a82610cba565b90508073ffffffffffffffffffffffffffffffffffffffff168373ffffffffffffffffffffffffffffffffffffffff1614156108e1576040517f08c379a0000000000000000000000000000000000000000000000000000000008152600401808060200182810382526021815260200180613fa56021913960400191505060405180910390fd5b8073ffffffffffffffffffffffffffffffffffffffff16610900611c65565b73ffffffffffffffffffffffffffffffffffffffff16148061092f575061092e81610929611c65565b611c6d565b5b610984576040517f08c379a0000000000000000000000000000000000000000000000000000000008152600401808060200182810382526038815260200180613e746038913960400191505060405180910390fd5b61098e8383611d01565b505050565b61099b612f4a565b6109a3612f8b565b600f60008481526020019081526020016000206040518060400160405290816000820154815260200160018201548152505090506040518060800160405280848152602001826000015181526020016109fb85610cba565b73ffffffffffffffffffffffffffffffffffffffff1681526020018260200151815250915050919050565b610a2e612fa8565b6010600083815260200190815260200160002060405180604001604052908160008201805480602002602001604051908101604052809291908181526020018280548015610ac157602002820191906000526020600020906000905b82829054906101000a900460ff1660ff1681526020019060010190602082600001049283019260010382029150808411610a8a5790505b505050505081526020016001820160405180604001604052908160008201548152602001600182015481525050815250509050919050565b6000610b056002611dba565b905090565b610b1b610b15611c65565b82611dcf565b610b70576040517f08c379a0000000000000000000000000000000000000000000000000000000008152600401808060200182810382526031815260200180613fc66031913960400191505060405180910390fd5b610b7b838383611ec3565b505050565b6000610bd382600160008673ffffffffffffffffffffffffffffffffffffffff1673ffffffffffffffffffffffffffffffffffffffff16815260200190815260200160002061210690919063ffffffff16565b905092915050565b610bf683838360405180602001604052806000815250611464565b505050565b600b60009054906101000a900473ffffffffffffffffffffffffffffffffffffffff1673ffffffffffffffffffffffffffffffffffffffff163373ffffffffffffffffffffffffffffffffffffffff1614610c8b576040517f08c379a0000000000000000000000000000000000000000000000000000000008152600401610c82906139e4565b60405180910390fd5b610c9481612120565b50565b600080610cae83600261213a90919063ffffffff16565b50905080915050919050565b6000610cea82604051806060016040528060298152602001613ed66029913960026121669092919063ffffffff16565b9050919050565b606060098054600181600116156101000203166002900480601f016020809104026020016040519081016040528092919081815260200182805460018160011615610100020316600290048015610d895780601f10610d5e57610100808354040283529160200191610d89565b820191906000526020600020905b815481529060010190602001808311610d6c57829003601f168201915b5050505050905090565b60008073ffffffffffffffffffffffffffffffffffffffff168273ffffffffffffffffffffffffffffffffffffffff161415610e1a576040517f08c379a000000000000000000000000000000000000000000000000000000000815260040180806020018281038252602a815260200180613eac602a913960400191505060405180910390fd5b610e61600160008473ffffffffffffffffffffffffffffffffffffffff1673ffffffffffffffffffffffffffffffffffffffff168152602001908152602001600020612185565b9050919050565b610e70611c65565b73ffffffffffffffffffffffffffffffffffffffff16610e8e610fd8565b73ffffffffffffffffffffffffffffffffffffffff1614610f17576040517f08c379a00000000000000000000000000000000000000000000000000000000081526004018080602001828103825260208152602001807f4f776e61626c653a2063616c6c6572206973206e6f7420746865206f776e657281525060200191505060405180910390fd5b600073ffffffffffffffffffffffffffffffffffffffff16600a60009054906101000a900473ffffffffffffffffffffffffffffffffffffffff1673ffffffffffffffffffffffffffffffffffffffff167f8be0079c531659141344cd1fd0a4f28419497f9722a3daafe3b4186f6b6457e060405160405180910390a36000600a60006101000a81548173ffffffffffffffffffffffffffffffffffffffff021916908373ffffffffffffffffffffffffffffffffffffffff160217905550565b6000600a60009054906101000a900473ffffffffffffffffffffffffffffffffffffffff16905090565b606060078054600181600116156101000203166002900480601f01602080910402602001604051908101604052809291908181526020018280546001816001161561010002031660029004801561109a5780601f1061106f5761010080835404028352916020019161109a565b820191906000526020600020905b81548152906001019060200180831161107d57829003601f168201915b5050505050905090565b6110ac611c65565b73ffffffffffffffffffffffffffffffffffffffff168273ffffffffffffffffffffffffffffffffffffffff16141561114d576040517f08c379a00000000000000000000000000000000000000000000000000000000081526004018080602001828103825260198152602001807f4552433732313a20617070726f766520746f2063616c6c65720000000000000081525060200191505060405180910390fd5b806005600061115a611c65565b73ffffffffffffffffffffffffffffffffffffffff1673ffffffffffffffffffffffffffffffffffffffff16815260200190815260200160002060008473ffffffffffffffffffffffffffffffffffffffff1673ffffffffffffffffffffffffffffffffffffffff16815260200190815260200160002060006101000a81548160ff0219169083151502179055508173ffffffffffffffffffffffffffffffffffffffff16611207611c65565b73ffffffffffffffffffffffffffffffffffffffff167f17307eab39ab6107e8899845ad3d59bd9653f200f220920489ca2b5937696c318360405180821515815260200191505060405180910390a35050565b600b60009054906101000a900473ffffffffffffffffffffffffffffffffffffffff1673ffffffffffffffffffffffffffffffffffffffff163373ffffffffffffffffffffffffffffffffffffffff16146112ea576040517f08c379a00000000000000000000000000000000000000000000000000000000081526004016112e1906139e4565b60405180910390fd5b80600b60006101000a81548173ffffffffffffffffffffffffffffffffffffffff021916908373ffffffffffffffffffffffffffffffffffffffff16021790555050565b606080600d5467ffffffffffffffff8111801561134a57600080fd5b5060405190808252806020026020018201604052801561138457816020015b611371612f4a565b8152602001906001900390816113695790505b50905060005b600d548161ffff16101561145c576113a0612f8b565b600f60008361ffff1681526020019081526020016000206040518060400160405290816000820154815260200160018201548152505090506113e0612f4a565b60405180608001604052808461ffff1681526020018360000151815260200161140c8561ffff16610cba565b73ffffffffffffffffffffffffffffffffffffffff1681526020018360200151815250905080848461ffff168151811061144257fe5b60200260200101819052505050808060010191505061138a565b508091505090565b61147561146f611c65565b83611dcf565b6114ca576040517f08c379a0000000000000000000000000000000000000000000000000000000008152600401808060200182810382526031815260200180613fc66031913960400191505060405180910390fd5b6114d68484848461219a565b50505050565b343373ffffffffffffffffffffffffffffffffffffffff16311015611536576040517f08c379a000000000000000000000000000000000000000000000000000000000815260040161152d90613a04565b60405180910390fd5b61153e612fa8565b604051806040016040528085815260200184815250905061155d612f8b565b60405180604001604052808481526020014281525090508160106000600d54815260200190815260200160002060008201518160000190805190602001906115a6929190612fc8565b506020820151816001016000820151816000015560208201518160010155505090505080600f6000600d5481526020019081526020016000206000820151816000015560208201518160010155905050600b60009054906101000a900473ffffffffffffffffffffffffffffffffffffffff1673ffffffffffffffffffffffffffffffffffffffff166108fc349081150290604051600060405180830381858888f1935050505015801561165e573d6000803e3d6000fd5b5061166b33600d5461220c565b611673612400565b5050505050565b606061168582611c48565b6116da576040517f08c379a000000000000000000000000000000000000000000000000000000000815260040180806020018281038252602f815260200180613f76602f913960400191505060405180910390fd5b6060600860008481526020019081526020016000208054600181600116156101000203166002900480601f0160208091040260200160405190810160405280929190818152602001828054600181600116156101000203166002900480156117835780601f1061175857610100808354040283529160200191611783565b820191906000526020600020905b81548152906001019060200180831161176657829003601f168201915b505050505090506060611794610cf1565b90506000815114156117aa578192505050611946565b60008251111561187b5780826040516020018083805190602001908083835b602083106117ec57805182526020820191506020810190506020830392506117c9565b6001836020036101000a03801982511681845116808217855250505050505090500182805190602001908083835b6020831061183d578051825260208201915060208101905060208303925061181a565b6001836020036101000a0380198251168184511680821785525050505050509050019250505060405160208183030381529060405292505050611946565b8061188585612414565b6040516020018083805190602001908083835b602083106118bb5780518252602082019150602081019050602083039250611898565b6001836020036101000a03801982511681845116808217855250505050505090500182805190602001908083835b6020831061190c57805182526020820191506020810190506020830392506118e9565b6001836020036101000a03801982511681845116808217855250505050505090500192505050604051602081830303815290604052925050505b919050565b600e5481565b600080600c60009054906101000a900473ffffffffffffffffffffffffffffffffffffffff1690508273ffffffffffffffffffffffffffffffffffffffff168173ffffffffffffffffffffffffffffffffffffffff1663c4552791866040518263ffffffff1660e01b81526004016119c9919061396a565b60206040518083038186803b1580156119e157600080fd5b505afa1580156119f5573d6000803e3d6000fd5b505050506040513d601f19601f82011682018060405250810190611a1991906135b3565b73ffffffffffffffffffffffffffffffffffffffff161415611a3f576001915050611a4d565b611a498484611c6d565b9150505b92915050565b611a5b611c65565b73ffffffffffffffffffffffffffffffffffffffff16611a79610fd8565b73ffffffffffffffffffffffffffffffffffffffff1614611b02576040517f08c379a00000000000000000000000000000000000000000000000000000000081526004018080602001828103825260208152602001807f4f776e61626c653a2063616c6c6572206973206e6f7420746865206f776e657281525060200191505060405180910390fd5b600073ffffffffffffffffffffffffffffffffffffffff168173ffffffffffffffffffffffffffffffffffffffff161415611b88576040517f08c379a0000000000000000000000000000000000000000000000000000000008152600401808060200182810382526026815260200180613dd86026913960400191505060405180910390fd5b8073ffffffffffffffffffffffffffffffffffffffff16600a60009054906101000a900473ffffffffffffffffffffffffffffffffffffffff1673ffffffffffffffffffffffffffffffffffffffff167f8be0079c531659141344cd1fd0a4f28419497f9722a3daafe3b4186f6b6457e060405160405180910390a380600a60006101000a81548173ffffffffffffffffffffffffffffffffffffffff021916908373ffffffffffffffffffffffffffffffffffffffff16021790555050565b6000611c5e82600261255b90919063ffffffff16565b9050919050565b600033905090565b6000600560008473ffffffffffffffffffffffffffffffffffffffff1673ffffffffffffffffffffffffffffffffffffffff16815260200190815260200160002060008373ffffffffffffffffffffffffffffffffffffffff1673ffffffffffffffffffffffffffffffffffffffff16815260200190815260200160002060009054906101000a900460ff16905092915050565b816004600083815260200190815260200160002060006101000a81548173ffffffffffffffffffffffffffffffffffffffff021916908373ffffffffffffffffffffffffffffffffffffffff160217905550808273ffffffffffffffffffffffffffffffffffffffff16611d7483610cba565b73ffffffffffffffffffffffffffffffffffffffff167f8c5be1e5ebec7d5bd14f71427d1e84f3dd0314c0f7b2291e5b200ac8c7c3b92560405160405180910390a45050565b6000611dc882600001612575565b9050919050565b6000611dda82611c48565b611e2f576040517f08c379a000000000000000000000000000000000000000000000000000000000815260040180806020018281038252602c815260200180613e48602c913960400191505060405180910390fd5b6000611e3a83610cba565b90508073ffffffffffffffffffffffffffffffffffffffff168473ffffffffffffffffffffffffffffffffffffffff161480611ea957508373ffffffffffffffffffffffffffffffffffffffff16611e91846107b4565b73ffffffffffffffffffffffffffffffffffffffff16145b80611eba5750611eb98185611c6d565b5b91505092915050565b8273ffffffffffffffffffffffffffffffffffffffff16611ee382610cba565b73ffffffffffffffffffffffffffffffffffffffff1614611f4f576040517f08c379a0000000000000000000000000000000000000000000000000000000008152600401808060200182810382526029815260200180613f4d6029913960400191505060405180910390fd5b600073ffffffffffffffffffffffffffffffffffffffff168273ffffffffffffffffffffffffffffffffffffffff161415611fd5576040517f08c379a0000000000000000000000000000000000000000000000000000000008152600401808060200182810382526024815260200180613dfe6024913960400191505060405180910390fd5b611fe0838383612586565b611feb600082611d01565b61203c81600160008673ffffffffffffffffffffffffffffffffffffffff1673ffffffffffffffffffffffffffffffffffffffff16815260200190815260200160002061258b90919063ffffffff16565b5061208e81600160008573ffffffffffffffffffffffffffffffffffffffff1673ffffffffffffffffffffffffffffffffffffffff1681526020019081526020016000206125a590919063ffffffff16565b506120a5818360026125bf9092919063ffffffff16565b50808273ffffffffffffffffffffffffffffffffffffffff168473ffffffffffffffffffffffffffffffffffffffff167fddf252ad1be2c89b69c2b068fc378daa952ba7f163c4a11628f55a4df523b3ef60405160405180910390a4505050565b600061211583600001836125f4565b60001c905092915050565b806009908051906020019061213692919061306f565b5050565b60008060008061214d8660000186612677565b915091508160001c8160001c9350935050509250929050565b6000612179846000018460001b84612710565b60001c90509392505050565b600061219382600001612806565b9050919050565b6121a5848484611ec3565b6121b184848484612817565b612206576040517f08c379a0000000000000000000000000000000000000000000000000000000008152600401808060200182810382526032815260200180613da66032913960400191505060405180910390fd5b50505050565b600073ffffffffffffffffffffffffffffffffffffffff168273ffffffffffffffffffffffffffffffffffffffff1614156122af576040517f08c379a00000000000000000000000000000000000000000000000000000000081526004018080602001828103825260208152602001807f4552433732313a206d696e7420746f20746865207a65726f206164647265737381525060200191505060405180910390fd5b6122b881611c48565b1561232b576040517f08c379a000000000000000000000000000000000000000000000000000000000815260040180806020018281038252601c8152602001807f4552433732313a20746f6b656e20616c7265616479206d696e7465640000000081525060200191505060405180910390fd5b61233760008383612586565b61238881600160008573ffffffffffffffffffffffffffffffffffffffff1673ffffffffffffffffffffffffffffffffffffffff1681526020019081526020016000206125a590919063ffffffff16565b5061239f818360026125bf9092919063ffffffff16565b50808273ffffffffffffffffffffffffffffffffffffffff16600073ffffffffffffffffffffffffffffffffffffffff167fddf252ad1be2c89b69c2b068fc378daa952ba7f163c4a11628f55a4df523b3ef60405160405180910390a45050565b600d60008154809291906001019190505550565b6060600082141561245c576040518060400160405280600181526020017f30000000000000000000000000000000000000000000000000000000000000008152509050612556565b600082905060005b60008214612486578080600101915050600a828161247e57fe5b049150612464565b60608167ffffffffffffffff8111801561249f57600080fd5b506040519080825280601f01601f1916602001820160405280156124d25781602001600182028036833780820191505090505b50905060006001830390508593505b6000841461254e57600a84816124f357fe5b0660300160f81b8282806001900393508151811061250d57fe5b60200101907effffffffffffffffffffffffffffffffffffffffffffffffffffffffffffff1916908160001a905350600a848161254657fe5b0493506124e1565b819450505050505b919050565b600061256d836000018360001b612a30565b905092915050565b600081600001805490509050919050565b505050565b600061259d836000018360001b612a53565b905092915050565b60006125b7836000018360001b612b3b565b905092915050565b60006125eb846000018460001b8473ffffffffffffffffffffffffffffffffffffffff1660001b612bab565b90509392505050565b600081836000018054905011612655576040517f08c379a0000000000000000000000000000000000000000000000000000000008152600401808060200182810382526022815260200180613d846022913960400191505060405180910390fd5b82600001828154811061266457fe5b9060005260206000200154905092915050565b600080828460000180549050116126d9576040517f08c379a0000000000000000000000000000000000000000000000000000000008152600401808060200182810382526022815260200180613eff6022913960400191505060405180910390fd5b60008460000184815481106126ea57fe5b906000526020600020906002020190508060000154816001015492509250509250929050565b600080846001016000858152602001908152602001600020549050600081141583906127d7576040517f08c379a00000000000000000000000000000000000000000000000000000000081526004018080602001828103825283818151815260200191508051906020019080838360005b8381101561279c578082015181840152602081019050612781565b50505050905090810190601f1680156127c95780820380516001836020036101000a031916815260200191505b509250505060405180910390fd5b508460000160018203815481106127ea57fe5b9060005260206000209060020201600101549150509392505050565b600081600001805490509050919050565b60006128388473ffffffffffffffffffffffffffffffffffffffff16612c87565b6128455760019050612a28565b60606129af63150b7a0260e01b61285a611c65565b888787604051602401808573ffffffffffffffffffffffffffffffffffffffff1681526020018473ffffffffffffffffffffffffffffffffffffffff16815260200183815260200180602001828103825283818151815260200191508051906020019080838360005b838110156128de5780820151818401526020810190506128c3565b50505050905090810190601f16801561290b5780820380516001836020036101000a031916815260200191505b5095505050505050604051602081830303815290604052907bffffffffffffffffffffffffffffffffffffffffffffffffffffffff19166020820180517bffffffffffffffffffffffffffffffffffffffffffffffffffffffff8381831617835250505050604051806060016040528060328152602001613da6603291398773ffffffffffffffffffffffffffffffffffffffff16612c9a9092919063ffffffff16565b905060008180602001905160208110156129c857600080fd5b8101908080519060200190929190505050905063150b7a0260e01b7bffffffffffffffffffffffffffffffffffffffffffffffffffffffff1916817bffffffffffffffffffffffffffffffffffffffffffffffffffffffff191614925050505b949350505050565b600080836001016000848152602001908152602001600020541415905092915050565b60008083600101600084815260200190815260200160002054905060008114612b2f5760006001820390506000600186600001805490500390506000866000018281548110612a9e57fe5b9060005260206000200154905080876000018481548110612abb57fe5b9060005260206000200181905550600183018760010160008381526020019081526020016000208190555086600001805480612af357fe5b60019003818190600052602060002001600090559055866001016000878152602001908152602001600020600090556001945050505050612b35565b60009150505b92915050565b6000612b478383612cb2565b612ba0578260000182908060018154018082558091505060019003906000526020600020016000909190919091505582600001805490508360010160008481526020019081526020016000208190555060019050612ba5565b600090505b92915050565b6000808460010160008581526020019081526020016000205490506000811415612c5257846000016040518060400160405280868152602001858152509080600181540180825580915050600190039060005260206000209060020201600090919091909150600082015181600001556020820151816001015550508460000180549050856001016000868152602001908152602001600020819055506001915050612c80565b82856000016001830381548110612c6557fe5b90600052602060002090600202016001018190555060009150505b9392505050565b600080823b905060008111915050919050565b6060612ca98484600085612cd5565b90509392505050565b600080836001016000848152602001908152602001600020541415905092915050565b606082471015612d30576040517f08c379a0000000000000000000000000000000000000000000000000000000008152600401808060200182810382526026815260200180613e226026913960400191505060405180910390fd5b612d3985612c87565b612dab576040517f08c379a000000000000000000000000000000000000000000000000000000000815260040180806020018281038252601d8152602001807f416464726573733a2063616c6c20746f206e6f6e2d636f6e747261637400000081525060200191505060405180910390fd5b600060608673ffffffffffffffffffffffffffffffffffffffff1685876040518082805190602001908083835b60208310612dfb5780518252602082019150602081019050602083039250612dd8565b6001836020036101000a03801982511681845116808217855250505050505090500191505060006040518083038185875af1925050503d8060008114612e5d576040519150601f19603f3d011682016040523d82523d6000602084013e612e62565b606091505b5091509150612e72828286612e7e565b92505050949350505050565b60608315612e8e57829050612f43565b600083511115612ea15782518084602001fd5b816040517f08c379a00000000000000000000000000000000000000000000000000000000081526004018080602001828103825283818151815260200191508051906020019080838360005b83811015612f08578082015181840152602081019050612eed565b50505050905090810190601f168015612f355780820380516001836020036101000a031916815260200191505b509250505060405180910390fd5b9392505050565b60405180608001604052806000815260200160008019168152602001600073ffffffffffffffffffffffffffffffffffffffff168152602001600081525090565b604051806040016040528060008019168152602001600081525090565b604051806040016040528060608152602001612fc26130fd565b81525090565b82805482825590600052602060002090601f0160209004810192821561305e5791602002820160005b8382111561302f57835183826101000a81548160ff021916908360ff1602179055509260200192600101602081600001049283019260010302612ff1565b801561305c5782816101000a81549060ff021916905560010160208160000104928301926001030261302f565b505b50905061306b9190613117565b5090565b828054600181600116156101000203166002900490600052602060002090601f0160209004810192826130a557600085556130ec565b82601f106130be57805160ff19168380011785556130ec565b828001600101855582156130ec579182015b828111156130eb5782518255916020019190600101906130d0565b5b5090506130f99190613117565b5090565b604051806040016040528060008152602001600081525090565b5b80821115613130576000816000905550600101613118565b5090565b60008135905061314381613ccb565b92915050565b60008135905061315881613ce2565b92915050565b600082601f83011261316f57600080fd5b813561318261317d82613aad565b613a7c565b915081818352602084019350602081019050838560208402820111156131a757600080fd5b60005b838110156131d757816131bd888261333e565b8452602084019350602083019250506001810190506131aa565b5050505092915050565b6000813590506131f081613cf9565b92915050565b60008135905061320581613d10565b92915050565b60008135905061321a81613d27565b92915050565b600082601f83011261323157600080fd5b813561324461323f82613ad9565b613a7c565b9150808252602083016020830185838301111561326057600080fd5b61326b838284613c76565b50505092915050565b60008151905061328381613d3e565b92915050565b600082601f83011261329a57600080fd5b81356132ad6132a882613b09565b613a7c565b915080825260208301602083018583830111156132c957600080fd5b6132d4838284613c76565b50505092915050565b6000604082840312156132ef57600080fd5b6132f96040613a7c565b9050600061330984828501613329565b600083015250602061331d84828501613329565b60208301525092915050565b60008135905061333881613d55565b92915050565b60008135905061334d81613d6c565b92915050565b60006020828403121561336557600080fd5b600061337384828501613134565b91505092915050565b60006020828403121561338e57600080fd5b600061339c84828501613149565b91505092915050565b600080604083850312156133b857600080fd5b60006133c685828601613134565b92505060206133d785828601613134565b9150509250929050565b6000806000606084860312156133f657600080fd5b600061340486828701613134565b935050602061341586828701613134565b925050604061342686828701613329565b9150509250925092565b6000806000806080858703121561344657600080fd5b600061345487828801613134565b945050602061346587828801613134565b935050604061347687828801613329565b925050606085013567ffffffffffffffff81111561349357600080fd5b61349f87828801613220565b91505092959194509250565b600080604083850312156134be57600080fd5b60006134cc85828601613134565b92505060206134dd858286016131e1565b9150509250929050565b600080604083850312156134fa57600080fd5b600061350885828601613134565b925050602061351985828601613329565b9150509250929050565b60008060006080848603121561353857600080fd5b600084013567ffffffffffffffff81111561355257600080fd5b61355e8682870161315e565b935050602061356f868287016132dd565b9250506060613580868287016131f6565b9150509250925092565b60006020828403121561359c57600080fd5b60006135aa8482850161320b565b91505092915050565b6000602082840312156135c557600080fd5b60006135d384828501613274565b91505092915050565b6000602082840312156135ee57600080fd5b600082013567ffffffffffffffff81111561360857600080fd5b61361484828501613289565b91505092915050565b60006020828403121561362f57600080fd5b600061363d84828501613329565b91505092915050565b60006136528383613893565b60808301905092915050565b600061366a838361395b565b60208301905092915050565b61367f81613bc7565b82525050565b61368e81613bc7565b82525050565b600061369f82613b59565b6136a98185613b94565b93506136b483613b39565b8060005b838110156136e55781516136cc8882613646565b97506136d783613b7a565b9250506001810190506136b8565b5085935050505092915050565b60006136fd82613b64565b6137078185613ba5565b935061371283613b49565b8060005b8381101561374357815161372a888261365e565b975061373583613b87565b925050600181019050613716565b5085935050505092915050565b61375981613beb565b82525050565b61376881613bf7565b82525050565b600061377982613b6f565b6137838185613bb6565b9350613793818560208601613c85565b61379c81613cba565b840191505092915050565b60006137b4600a83613bb6565b91507f4f776e6572204f6e6c79000000000000000000000000000000000000000000006000830152602082019050919050565b60006137f4601083613bb6565b91507f4e6f7420656e6f7567682066756e6473000000000000000000000000000000006000830152602082019050919050565b6000606083016000830151848203600086015261384482826136f2565b91505060208301516138596020860182613864565b508091505092915050565b60408201600082015161387a600085018261393d565b50602082015161388d602085018261393d565b50505050565b6080820160008201516138a9600085018261393d565b5060208201516138bc602085018261375f565b5060408201516138cf6040850182613676565b5060608201516138e2606085018261393d565b50505050565b6080820160008201516138fe600085018261393d565b506020820151613911602085018261375f565b5060408201516139246040850182613676565b506060820151613937606085018261393d565b50505050565b61394681613c5f565b82525050565b61395581613c5f565b82525050565b61396481613c69565b82525050565b600060208201905061397f6000830184613685565b92915050565b6000602082019050818103600083015261399f8184613694565b905092915050565b60006020820190506139bc6000830184613750565b92915050565b600060208201905081810360008301526139dc818461376e565b905092915050565b600060208201905081810360008301526139fd816137a7565b9050919050565b60006020820190508181036000830152613a1d816137e7565b9050919050565b60006020820190508181036000830152613a3e8184613827565b905092915050565b6000608082019050613a5b60008301846138e8565b92915050565b6000602082019050613a76600083018461394c565b92915050565b6000604051905081810181811067ffffffffffffffff82111715613aa357613aa2613cb8565b5b8060405250919050565b600067ffffffffffffffff821115613ac857613ac7613cb8565b5b602082029050602081019050919050565b600067ffffffffffffffff821115613af457613af3613cb8565b5b601f19601f8301169050602081019050919050565b600067ffffffffffffffff821115613b2457613b23613cb8565b5b601f19601f8301169050602081019050919050565b6000819050602082019050919050565b6000819050602082019050919050565b600081519050919050565b600081519050919050565b600081519050919050565b6000602082019050919050565b6000602082019050919050565b600082825260208201905092915050565b600082825260208201905092915050565b600082825260208201905092915050565b6000613bd282613c3f565b9050919050565b6000613be482613c3f565b9050919050565b60008115159050919050565b6000819050919050565b60007fffffffff0000000000000000000000000000000000000000000000000000000082169050919050565b6000613c3882613bc7565b9050919050565b600073ffffffffffffffffffffffffffffffffffffffff82169050919050565b6000819050919050565b600060ff82169050919050565b82818337600083830152505050565b60005b83811015613ca3578082015181840152602081019050613c88565b83811115613cb2576000848401525b50505050565bfe5b6000601f19601f8301169050919050565b613cd481613bc7565b8114613cdf57600080fd5b50565b613ceb81613bd9565b8114613cf657600080fd5b50565b613d0281613beb565b8114613d0d57600080fd5b50565b613d1981613bf7565b8114613d2457600080fd5b50565b613d3081613c01565b8114613d3b57600080fd5b50565b613d4781613c2d565b8114613d5257600080fd5b50565b613d5e81613c5f565b8114613d6957600080fd5b50565b613d7581613c69565b8114613d8057600080fd5b5056fe456e756d657261626c655365743a20696e646578206f7574206f6620626f756e64734552433732313a207472616e7366657220746f206e6f6e20455243373231526563656976657220696d706c656d656e7465724f776e61626c653a206e6577206f776e657220697320746865207a65726f20616464726573734552433732313a207472616e7366657220746f20746865207a65726f2061646472657373416464726573733a20696e73756666696369656e742062616c616e636520666f722063616c6c4552433732313a206f70657261746f7220717565727920666f72206e6f6e6578697374656e7420746f6b656e4552433732313a20617070726f76652063616c6c6572206973206e6f74206f776e6572206e6f7220617070726f76656420666f7220616c6c4552433732313a2062616c616e636520717565727920666f7220746865207a65726f20616464726573734552433732313a206f776e657220717565727920666f72206e6f6e6578697374656e7420746f6b656e456e756d657261626c654d61703a20696e646578206f7574206f6620626f756e64734552433732313a20617070726f76656420717565727920666f72206e6f6e6578697374656e7420746f6b656e4552433732313a207472616e73666572206f6620746f6b656e2074686174206973206e6f74206f776e4552433732314d657461646174613a2055524920717565727920666f72206e6f6e6578697374656e7420746f6b656e4552433732313a20617070726f76616c20746f2063757272656e74206f776e65724552433732313a207472616e736665722063616c6c6572206973206e6f74206f776e6572206e6f7220617070726f766564a2646970667358221220c8a9bdfffdb10cfe2d8b2ab32bfcc4f974f95ce3bf610ce9d65d197129e1f8b764736f6c63430007040033",
  "immutableReferences": {},
  "source": "// SPDX-License-Identifier: MIT\npragma solidity 0.7.4;\npragma experimental ABIEncoderV2;\n\nimport { ERC721 } from \"@openzeppelin/contracts/token/ERC721/ERC721.sol\";\nimport { CustomStructs } from \"./utils/CustomStructs.sol\";\nimport { Ownable } from \"@openzeppelin/contracts/access/Ownable.sol\";\nimport { ProxyRegistry } from \"./ProxyRegistry.sol\";\n\ncontract DARToken is ERC721, Ownable {\n\n    address payable contractOwner;\n    address proxyRegistryAddress;\n    uint256 private _currentTokenID;\n    uint256 public fee;\n    mapping (uint256 => CustomStructs.Meta) dartMeta;\n    mapping (uint256 => CustomStructs.Content) dartContent;\n\n    constructor(address payable _owner, uint256 _fee, address _proxyRegistryAddress, string memory _baseUri) ERC721(\"DecentralizedArt\", \"DRT\") {\n        contractOwner = _owner;\n        fee = _fee;\n        proxyRegistryAddress = _proxyRegistryAddress;\n        _setBaseURI(_baseUri);\n    }\n\n    function getDartsMeta() public view returns(CustomStructs.MetaResp[] memory) {\n        CustomStructs.MetaResp[] memory _metas = new CustomStructs.MetaResp[](_currentTokenID);\n        for (uint16 i = 0; i < _currentTokenID; i++) {\n            CustomStructs.Meta memory _meta = dartMeta[i];\n            CustomStructs.MetaResp memory resp = CustomStructs.MetaResp({\n                dartId: i,\n                owner: ownerOf(i),\n                name: _meta.name,\n                createDate: _meta.createDate\n            });\n             _metas[i] = resp;\n        }\n        return _metas;\n    }\n\n    function getDartMeta(uint256 _tokenId) public view returns(CustomStructs.MetaResp memory) {\n        CustomStructs.Meta memory _meta = dartMeta[_tokenId];\n        return CustomStructs.MetaResp({\n            dartId: _tokenId,\n            owner: ownerOf(_tokenId),\n            name: _meta.name,\n            createDate: _meta.createDate\n        });\n    }\n\n    function getDartContent(uint256 _tokenId) public view returns(CustomStructs.Content memory) {\n        return dartContent[_tokenId];\n    }\n\n    function createDart(uint8[] memory _pixels, CustomStructs.Dimensions memory _dimensions, bytes32 _name) public payable { \n        require(msg.sender.balance >= msg.value, \"Not enough funds\");\n\n        CustomStructs.Content memory _content = CustomStructs.Content({\n            rgbaArray: _pixels,\n            dimensions: _dimensions\n        });\n\n        CustomStructs.Meta memory _meta = CustomStructs.Meta({\n            name: _name,\n            createDate: block.timestamp\n        });\n\n        dartContent[_currentTokenID] = _content;\n        dartMeta[_currentTokenID] = _meta;\n        contractOwner.transfer(msg.value);\n        _mint(msg.sender, _currentTokenID);\n        _incrementTokenId();\n    }\n\n    // Helpers\n    function _incrementTokenId() internal {\n        _currentTokenID++;\n    }\n\n    // Admin\n    function changeContactOwner(address payable _owner) public isContractOwner {\n        contractOwner = _owner;\n    }\n\n    function changeBaseUri(string memory _uri) public isContractOwner {\n        // API which is used to grab pixels from blockchain and then generate image\n       _setBaseURI(_uri);\n    }\n\n    // Modifiers\n    modifier isContractOwner() {\n        require(msg.sender == contractOwner, \"Owner Only\");\n        _;\n    }\n\n    // Overrides\n    function isApprovedForAll(address owner, address operator) public view override returns (bool) {\n        ProxyRegistry proxyRegistry = ProxyRegistry(proxyRegistryAddress);\n        if (address(proxyRegistry.proxies(owner)) == operator) {\n            return true;\n        }\n        return super.isApprovedForAll(owner, operator);\n    }\n}",
  "sourcePath": "/Users/matthewruddy/Desktop/Projects/DAPP/contracts/DARToken.sol",
  "compiler": {
    "name": "solc",
    "version": "0.7.4+commit.3f05b770.Emscripten.clang"
  },
  "schemaVersion": "3.3.4",
  "updatedAt": "2021-03-23T01:31:15.091Z",
  "networkType": "ethereum",
  "devdoc": {
    "kind": "dev",
    "methods": {
      "approve(address,uint256)": {
        "details": "See {IERC721-approve}."
      },
      "balanceOf(address)": {
        "details": "See {IERC721-balanceOf}."
      },
      "baseURI()": {
        "details": "Returns the base URI set via {_setBaseURI}. This will be automatically added as a prefix in {tokenURI} to each token's URI, or to the token ID if no specific URI is set for that token ID."
      },
      "getApproved(uint256)": {
        "details": "See {IERC721-getApproved}."
      },
      "isApprovedForAll(address,address)": {
        "details": "See {IERC721-isApprovedForAll}."
      },
      "name()": {
        "details": "See {IERC721Metadata-name}."
      },
      "owner()": {
        "details": "Returns the address of the current owner."
      },
      "ownerOf(uint256)": {
        "details": "See {IERC721-ownerOf}."
      },
      "renounceOwnership()": {
        "details": "Leaves the contract without owner. It will not be possible to call `onlyOwner` functions anymore. Can only be called by the current owner. NOTE: Renouncing ownership will leave the contract without an owner, thereby removing any functionality that is only available to the owner."
      },
      "safeTransferFrom(address,address,uint256)": {
        "details": "See {IERC721-safeTransferFrom}."
      },
      "safeTransferFrom(address,address,uint256,bytes)": {
        "details": "See {IERC721-safeTransferFrom}."
      },
      "setApprovalForAll(address,bool)": {
        "details": "See {IERC721-setApprovalForAll}."
      },
      "supportsInterface(bytes4)": {
        "details": "See {IERC165-supportsInterface}. Time complexity O(1), guaranteed to always use less than 30 000 gas."
      },
      "symbol()": {
        "details": "See {IERC721Metadata-symbol}."
      },
      "tokenByIndex(uint256)": {
        "details": "See {IERC721Enumerable-tokenByIndex}."
      },
      "tokenOfOwnerByIndex(address,uint256)": {
        "details": "See {IERC721Enumerable-tokenOfOwnerByIndex}."
      },
      "tokenURI(uint256)": {
        "details": "See {IERC721Metadata-tokenURI}."
      },
      "totalSupply()": {
        "details": "See {IERC721Enumerable-totalSupply}."
      },
      "transferFrom(address,address,uint256)": {
        "details": "See {IERC721-transferFrom}."
      },
      "transferOwnership(address)": {
        "details": "Transfers ownership of the contract to a new account (`newOwner`). Can only be called by the current owner."
      }
    },
    "version": 1
  },
  "userdoc": {
    "kind": "user",
    "methods": {},
    "version": 1
  }
}