{
  "contractName": "DARToken",
  "abi": [
    {
      "inputs": [
        {
          "internalType": "address payable",
          "name": "_owner",
          "type": "address"
        },
        {
          "internalType": "uint256",
          "name": "_fee",
          "type": "uint256"
        },
        {
          "internalType": "address",
          "name": "_proxyRegistryAddress",
          "type": "address"
        }
      ],
      "stateMutability": "nonpayable",
      "type": "constructor"
    },
    {
      "anonymous": false,
      "inputs": [
        {
          "indexed": true,
          "internalType": "address",
          "name": "owner",
          "type": "address"
        },
        {
          "indexed": true,
          "internalType": "address",
          "name": "approved",
          "type": "address"
        },
        {
          "indexed": true,
          "internalType": "uint256",
          "name": "tokenId",
          "type": "uint256"
        }
      ],
      "name": "Approval",
      "type": "event"
    },
    {
      "anonymous": false,
      "inputs": [
        {
          "indexed": true,
          "internalType": "address",
          "name": "owner",
          "type": "address"
        },
        {
          "indexed": true,
          "internalType": "address",
          "name": "operator",
          "type": "address"
        },
        {
          "indexed": false,
          "internalType": "bool",
          "name": "approved",
          "type": "bool"
        }
      ],
      "name": "ApprovalForAll",
      "type": "event"
    },
    {
      "anonymous": false,
      "inputs": [
        {
          "indexed": true,
          "internalType": "address",
          "name": "previousOwner",
          "type": "address"
        },
        {
          "indexed": true,
          "internalType": "address",
          "name": "newOwner",
          "type": "address"
        }
      ],
      "name": "OwnershipTransferred",
      "type": "event"
    },
    {
      "anonymous": false,
      "inputs": [
        {
          "indexed": true,
          "internalType": "address",
          "name": "from",
          "type": "address"
        },
        {
          "indexed": true,
          "internalType": "address",
          "name": "to",
          "type": "address"
        },
        {
          "indexed": true,
          "internalType": "uint256",
          "name": "tokenId",
          "type": "uint256"
        }
      ],
      "name": "Transfer",
      "type": "event"
    },
    {
      "inputs": [
        {
          "internalType": "address",
          "name": "to",
          "type": "address"
        },
        {
          "internalType": "uint256",
          "name": "tokenId",
          "type": "uint256"
        }
      ],
      "name": "approve",
      "outputs": [],
      "stateMutability": "nonpayable",
      "type": "function"
    },
    {
      "inputs": [
        {
          "internalType": "address",
          "name": "owner",
          "type": "address"
        }
      ],
      "name": "balanceOf",
      "outputs": [
        {
          "internalType": "uint256",
          "name": "",
          "type": "uint256"
        }
      ],
      "stateMutability": "view",
      "type": "function",
      "constant": true
    },
    {
      "inputs": [],
      "name": "baseURI",
      "outputs": [
        {
          "internalType": "string",
          "name": "",
          "type": "string"
        }
      ],
      "stateMutability": "view",
      "type": "function",
      "constant": true
    },
    {
      "inputs": [],
      "name": "fee",
      "outputs": [
        {
          "internalType": "uint256",
          "name": "",
          "type": "uint256"
        }
      ],
      "stateMutability": "view",
      "type": "function",
      "constant": true
    },
    {
      "inputs": [
        {
          "internalType": "uint256",
          "name": "tokenId",
          "type": "uint256"
        }
      ],
      "name": "getApproved",
      "outputs": [
        {
          "internalType": "address",
          "name": "",
          "type": "address"
        }
      ],
      "stateMutability": "view",
      "type": "function",
      "constant": true
    },
    {
      "inputs": [],
      "name": "maxPixelsPerExhibit",
      "outputs": [
        {
          "internalType": "uint256",
          "name": "",
          "type": "uint256"
        }
      ],
      "stateMutability": "view",
      "type": "function",
      "constant": true
    },
    {
      "inputs": [],
      "name": "name",
      "outputs": [
        {
          "internalType": "string",
          "name": "",
          "type": "string"
        }
      ],
      "stateMutability": "view",
      "type": "function",
      "constant": true
    },
    {
      "inputs": [],
      "name": "owner",
      "outputs": [
        {
          "internalType": "address",
          "name": "",
          "type": "address"
        }
      ],
      "stateMutability": "view",
      "type": "function",
      "constant": true
    },
    {
      "inputs": [
        {
          "internalType": "uint256",
          "name": "tokenId",
          "type": "uint256"
        }
      ],
      "name": "ownerOf",
      "outputs": [
        {
          "internalType": "address",
          "name": "",
          "type": "address"
        }
      ],
      "stateMutability": "view",
      "type": "function",
      "constant": true
    },
    {
      "inputs": [],
      "name": "renounceOwnership",
      "outputs": [],
      "stateMutability": "nonpayable",
      "type": "function"
    },
    {
      "inputs": [
        {
          "internalType": "address",
          "name": "from",
          "type": "address"
        },
        {
          "internalType": "address",
          "name": "to",
          "type": "address"
        },
        {
          "internalType": "uint256",
          "name": "tokenId",
          "type": "uint256"
        }
      ],
      "name": "safeTransferFrom",
      "outputs": [],
      "stateMutability": "nonpayable",
      "type": "function"
    },
    {
      "inputs": [
        {
          "internalType": "address",
          "name": "from",
          "type": "address"
        },
        {
          "internalType": "address",
          "name": "to",
          "type": "address"
        },
        {
          "internalType": "uint256",
          "name": "tokenId",
          "type": "uint256"
        },
        {
          "internalType": "bytes",
          "name": "_data",
          "type": "bytes"
        }
      ],
      "name": "safeTransferFrom",
      "outputs": [],
      "stateMutability": "nonpayable",
      "type": "function"
    },
    {
      "inputs": [
        {
          "internalType": "address",
          "name": "operator",
          "type": "address"
        },
        {
          "internalType": "bool",
          "name": "approved",
          "type": "bool"
        }
      ],
      "name": "setApprovalForAll",
      "outputs": [],
      "stateMutability": "nonpayable",
      "type": "function"
    },
    {
      "inputs": [
        {
          "internalType": "bytes4",
          "name": "interfaceId",
          "type": "bytes4"
        }
      ],
      "name": "supportsInterface",
      "outputs": [
        {
          "internalType": "bool",
          "name": "",
          "type": "bool"
        }
      ],
      "stateMutability": "view",
      "type": "function",
      "constant": true
    },
    {
      "inputs": [],
      "name": "symbol",
      "outputs": [
        {
          "internalType": "string",
          "name": "",
          "type": "string"
        }
      ],
      "stateMutability": "view",
      "type": "function",
      "constant": true
    },
    {
      "inputs": [
        {
          "internalType": "uint256",
          "name": "index",
          "type": "uint256"
        }
      ],
      "name": "tokenByIndex",
      "outputs": [
        {
          "internalType": "uint256",
          "name": "",
          "type": "uint256"
        }
      ],
      "stateMutability": "view",
      "type": "function",
      "constant": true
    },
    {
      "inputs": [
        {
          "internalType": "address",
          "name": "owner",
          "type": "address"
        },
        {
          "internalType": "uint256",
          "name": "index",
          "type": "uint256"
        }
      ],
      "name": "tokenOfOwnerByIndex",
      "outputs": [
        {
          "internalType": "uint256",
          "name": "",
          "type": "uint256"
        }
      ],
      "stateMutability": "view",
      "type": "function",
      "constant": true
    },
    {
      "inputs": [
        {
          "internalType": "uint256",
          "name": "tokenId",
          "type": "uint256"
        }
      ],
      "name": "tokenURI",
      "outputs": [
        {
          "internalType": "string",
          "name": "",
          "type": "string"
        }
      ],
      "stateMutability": "view",
      "type": "function",
      "constant": true
    },
    {
      "inputs": [],
      "name": "totalSupply",
      "outputs": [
        {
          "internalType": "uint256",
          "name": "",
          "type": "uint256"
        }
      ],
      "stateMutability": "view",
      "type": "function",
      "constant": true
    },
    {
      "inputs": [
        {
          "internalType": "address",
          "name": "from",
          "type": "address"
        },
        {
          "internalType": "address",
          "name": "to",
          "type": "address"
        },
        {
          "internalType": "uint256",
          "name": "tokenId",
          "type": "uint256"
        }
      ],
      "name": "transferFrom",
      "outputs": [],
      "stateMutability": "nonpayable",
      "type": "function"
    },
    {
      "inputs": [
        {
          "internalType": "address",
          "name": "newOwner",
          "type": "address"
        }
      ],
      "name": "transferOwnership",
      "outputs": [],
      "stateMutability": "nonpayable",
      "type": "function"
    },
    {
      "inputs": [],
      "name": "getDarts",
      "outputs": [
        {
          "components": [
            {
              "internalType": "uint256",
              "name": "dartId",
              "type": "uint256"
            },
            {
              "internalType": "bytes32",
              "name": "name",
              "type": "bytes32"
            },
            {
              "internalType": "address",
              "name": "owner",
              "type": "address"
            },
            {
              "internalType": "uint8[]",
              "name": "rgbaArray",
              "type": "uint8[]"
            },
            {
              "components": [
                {
                  "internalType": "uint256",
                  "name": "height",
                  "type": "uint256"
                },
                {
                  "internalType": "uint256",
                  "name": "width",
                  "type": "uint256"
                }
              ],
              "internalType": "struct CustomStructs.Dimensions",
              "name": "dimensions",
              "type": "tuple"
            }
          ],
          "internalType": "struct CustomStructs.DartResp[]",
          "name": "",
          "type": "tuple[]"
        }
      ],
      "stateMutability": "view",
      "type": "function",
      "constant": true
    },
    {
      "inputs": [
        {
          "internalType": "uint256",
          "name": "_tokenId",
          "type": "uint256"
        }
      ],
      "name": "getDart",
      "outputs": [
        {
          "components": [
            {
              "internalType": "uint256",
              "name": "dartId",
              "type": "uint256"
            },
            {
              "internalType": "bytes32",
              "name": "name",
              "type": "bytes32"
            },
            {
              "internalType": "address",
              "name": "owner",
              "type": "address"
            },
            {
              "internalType": "uint8[]",
              "name": "rgbaArray",
              "type": "uint8[]"
            },
            {
              "components": [
                {
                  "internalType": "uint256",
                  "name": "height",
                  "type": "uint256"
                },
                {
                  "internalType": "uint256",
                  "name": "width",
                  "type": "uint256"
                }
              ],
              "internalType": "struct CustomStructs.Dimensions",
              "name": "dimensions",
              "type": "tuple"
            }
          ],
          "internalType": "struct CustomStructs.DartResp",
          "name": "",
          "type": "tuple"
        }
      ],
      "stateMutability": "view",
      "type": "function",
      "constant": true
    },
    {
      "inputs": [
        {
          "internalType": "uint8[]",
          "name": "_pixels",
          "type": "uint8[]"
        },
        {
          "components": [
            {
              "internalType": "uint256",
              "name": "height",
              "type": "uint256"
            },
            {
              "internalType": "uint256",
              "name": "width",
              "type": "uint256"
            }
          ],
          "internalType": "struct CustomStructs.Dimensions",
          "name": "_dimensions",
          "type": "tuple"
        },
        {
          "internalType": "bytes32",
          "name": "_name",
          "type": "bytes32"
        }
      ],
      "name": "createDart",
      "outputs": [],
      "stateMutability": "payable",
      "type": "function",
      "payable": true
    },
    {
      "inputs": [
        {
          "internalType": "address payable",
          "name": "_owner",
          "type": "address"
        }
      ],
      "name": "changeContactOwner",
      "outputs": [],
      "stateMutability": "nonpayable",
      "type": "function"
    },
    {
      "inputs": [
        {
          "internalType": "uint16",
          "name": "_max",
          "type": "uint16"
        }
      ],
      "name": "changeMaxPixelsPerExhibit",
      "outputs": [],
      "stateMutability": "nonpayable",
      "type": "function"
    },
    {
      "inputs": [
        {
          "internalType": "address",
          "name": "owner",
          "type": "address"
        },
        {
          "internalType": "address",
          "name": "operator",
          "type": "address"
        }
      ],
      "name": "isApprovedForAll",
      "outputs": [
        {
          "internalType": "bool",
          "name": "",
          "type": "bool"
        }
      ],
      "stateMutability": "view",
      "type": "function",
      "constant": true
    }
  ],
  "bytecode": "0x60806040523480156200001157600080fd5b506040516200465138038062004651833981810160405281019062000037919062000486565b6040518060400160405280601081526020017f446563656e7472616c697a6564417274000000000000000000000000000000008152506040518060400160405280600381526020017f4452540000000000000000000000000000000000000000000000000000000000815250620000bb6301ffc9a760e01b6200027a60201b60201c565b8160069080519060200190620000d39291906200038b565b508060079080519060200190620000ec9291906200038b565b50620001056380ac58cd60e01b6200027a60201b60201c565b6200011d635b5e139f60e01b6200027a60201b60201c565b6200013563780e9d6360e01b6200027a60201b60201c565b50506000620001496200038360201b60201c565b905080600a60006101000a81548173ffffffffffffffffffffffffffffffffffffffff021916908373ffffffffffffffffffffffffffffffffffffffff1602179055508073ffffffffffffffffffffffffffffffffffffffff16600073ffffffffffffffffffffffffffffffffffffffff167f8be0079c531659141344cd1fd0a4f28419497f9722a3daafe3b4186f6b6457e060405160405180910390a35082600b60006101000a81548173ffffffffffffffffffffffffffffffffffffffff021916908373ffffffffffffffffffffffffffffffffffffffff16021790555081600f8190555080600c60006101000a81548173ffffffffffffffffffffffffffffffffffffffff021916908373ffffffffffffffffffffffffffffffffffffffff1602179055505050506200057c565b63ffffffff60e01b817bffffffffffffffffffffffffffffffffffffffffffffffffffffffff1916141562000317576040517f08c379a000000000000000000000000000000000000000000000000000000000815260040180806020018281038252601c8152602001807f4552433136353a20696e76616c696420696e746572666163652069640000000081525060200191505060405180910390fd5b6001600080837bffffffffffffffffffffffffffffffffffffffffffffffffffffffff19167bffffffffffffffffffffffffffffffffffffffffffffffffffffffff1916815260200190815260200160002060006101000a81548160ff02191690831515021790555050565b600033905090565b828054600181600116156101000203166002900490600052602060002090601f016020900481019282620003c357600085556200040f565b82601f10620003de57805160ff19168380011785556200040f565b828001600101855582156200040f579182015b828111156200040e578251825591602001919060010190620003f1565b5b5090506200041e919062000422565b5090565b5b808211156200043d57600081600090555060010162000423565b5090565b60008151905062000452816200052e565b92915050565b600081519050620004698162000548565b92915050565b600081519050620004808162000562565b92915050565b6000806000606084860312156200049c57600080fd5b6000620004ac8682870162000458565b9350506020620004bf868287016200046f565b9250506040620004d28682870162000441565b9150509250925092565b6000620004e98262000504565b9050919050565b6000620004fd8262000504565b9050919050565b600073ffffffffffffffffffffffffffffffffffffffff82169050919050565b6000819050919050565b6200053981620004dc565b81146200054557600080fd5b50565b6200055381620004f0565b81146200055f57600080fd5b50565b6200056d8162000524565b81146200057957600080fd5b50565b6140c5806200058c6000396000f3fe60806040526004361061019c5760003560e01c8063715018a6116100ec578063bad88d2f1161008a578063d659f6db11610064578063d659f6db146105dd578063ddca3f4314610608578063e985e9c514610633578063f2fde38b146106705761019c565b8063bad88d2f1461055b578063c3355a9f14610577578063c87b56dd146105a05761019c565b806395d89b41116100c657806395d89b41146104b5578063a22cb465146104e0578063a62f204e14610509578063b88d4fde146105325761019c565b8063715018a6146104485780638da5cb5b1461045f578063935cd9601461048a5761019c565b80632f745c59116101595780636352211e116101335780636352211e146103665780636360eeea146103a35780636c0360eb146103e057806370a082311461040b5761019c565b80632f745c59146102c357806342842e0e146103005780634f6ccce7146103295761019c565b806301ffc9a7146101a157806306fdde03146101de578063081812fc14610209578063095ea7b31461024657806318160ddd1461026f57806323b872dd1461029a575b600080fd5b3480156101ad57600080fd5b506101c860048036038101906101c39190613589565b610699565b6040516101d59190613a26565b60405180910390f35b3480156101ea57600080fd5b506101f3610700565b6040516102009190613a41565b60405180910390f35b34801561021557600080fd5b50610230600480360381019061022b9190613604565b6107a2565b60405161023d91906139e9565b60405180910390f35b34801561025257600080fd5b5061026d600480360381019061026891906134e6565b61083d565b005b34801561027b57600080fd5b50610284610981565b6040516102919190613b05565b60405180910390f35b3480156102a657600080fd5b506102c160048036038101906102bc91906133e0565b610992565b005b3480156102cf57600080fd5b506102ea60048036038101906102e591906134e6565b610a08565b6040516102f79190613b05565b60405180910390f35b34801561030c57600080fd5b50610327600480360381019061032291906133e0565b610a63565b005b34801561033557600080fd5b50610350600480360381019061034b9190613604565b610a83565b60405161035d9190613b05565b60405180910390f35b34801561037257600080fd5b5061038d60048036038101906103889190613604565b610aa6565b60405161039a91906139e9565b60405180910390f35b3480156103af57600080fd5b506103ca60048036038101906103c59190613604565b610add565b6040516103d79190613ae3565b60405180910390f35b3480156103ec57600080fd5b506103f5610c16565b6040516104029190613a41565b60405180910390f35b34801561041757600080fd5b50610432600480360381019061042d9190613352565b610cb8565b60405161043f9190613b05565b60405180910390f35b34801561045457600080fd5b5061045d610d8d565b005b34801561046b57600080fd5b50610474610efd565b60405161048191906139e9565b60405180910390f35b34801561049657600080fd5b5061049f610f27565b6040516104ac9190613b05565b60405180910390f35b3480156104c157600080fd5b506104ca610f2d565b6040516104d79190613a41565b60405180910390f35b3480156104ec57600080fd5b50610507600480360381019061050291906134aa565b610fcf565b005b34801561051557600080fd5b50610530600480360381019061052b919061337b565b611185565b005b34801561053e57600080fd5b506105596004803603810190610554919061342f565b611259565b005b61057560048036038101906105709190613522565b6112d1565b005b34801561058357600080fd5b5061059e600480360381019061059991906135db565b6114d5565b005b3480156105ac57600080fd5b506105c760048036038101906105c29190613604565b611573565b6040516105d49190613a41565b60405180910390f35b3480156105e957600080fd5b506105f2611844565b6040516105ff9190613a04565b60405180910390f35b34801561061457600080fd5b5061061d611a20565b60405161062a9190613b05565b60405180910390f35b34801561063f57600080fd5b5061065a600480360381019061065591906133a4565b611a26565b6040516106679190613a26565b60405180910390f35b34801561067c57600080fd5b5061069760048036038101906106929190613352565b611b28565b005b6000806000837bffffffffffffffffffffffffffffffffffffffffffffffffffffffff19167bffffffffffffffffffffffffffffffffffffffffffffffffffffffff1916815260200190815260200160002060009054906101000a900460ff169050919050565b606060068054600181600116156101000203166002900480601f0160208091040260200160405190810160405280929190818152602001828054600181600116156101000203166002900480156107985780601f1061076d57610100808354040283529160200191610798565b820191906000526020600020905b81548152906001019060200180831161077b57829003601f168201915b5050505050905090565b60006107ad82611d1d565b610802576040517f08c379a000000000000000000000000000000000000000000000000000000000815260040180806020018281038252602c815260200180613fba602c913960400191505060405180910390fd5b6004600083815260200190815260200160002060009054906101000a900473ffffffffffffffffffffffffffffffffffffffff169050919050565b600061084882610aa6565b90508073ffffffffffffffffffffffffffffffffffffffff168373ffffffffffffffffffffffffffffffffffffffff1614156108cf576040517f08c379a000000000000000000000000000000000000000000000000000000000815260040180806020018281038252602181526020018061403e6021913960400191505060405180910390fd5b8073ffffffffffffffffffffffffffffffffffffffff166108ee611d3a565b73ffffffffffffffffffffffffffffffffffffffff16148061091d575061091c81610917611d3a565b611d42565b5b610972576040517f08c379a0000000000000000000000000000000000000000000000000000000008152600401808060200182810382526038815260200180613f0d6038913960400191505060405180910390fd5b61097c8383611dd6565b505050565b600061098d6002611e8f565b905090565b6109a361099d611d3a565b82611ea4565b6109f8576040517f08c379a000000000000000000000000000000000000000000000000000000000815260040180806020018281038252603181526020018061405f6031913960400191505060405180910390fd5b610a03838383611f98565b505050565b6000610a5b82600160008673ffffffffffffffffffffffffffffffffffffffff1673ffffffffffffffffffffffffffffffffffffffff1681526020019081526020016000206121db90919063ffffffff16565b905092915050565b610a7e83838360405180602001604052806000815250611259565b505050565b600080610a9a8360026121f590919063ffffffff16565b50905080915050919050565b6000610ad682604051806060016040528060298152602001613f6f6029913960026122219092919063ffffffff16565b9050919050565b610ae561301c565b610aed61306a565b6010600084815260200190815260200160002060405180606001604052908160008201805480602002602001604051908101604052809291908181526020018280548015610b8057602002820191906000526020600020906000905b82829054906101000a900460ff1660ff1681526020019060010190602082600001049283019260010382029150808411610b495790505b505050505081526020016001820160405180604001604052908160008201548152602001600182015481525050815260200160038201548152505090506040518060a0016040528084815260200182604001518152602001610be185610aa6565b73ffffffffffffffffffffffffffffffffffffffff168152602001826000015181526020018260200151815250915050919050565b606060098054600181600116156101000203166002900480601f016020809104026020016040519081016040528092919081815260200182805460018160011615610100020316600290048015610cae5780601f10610c8357610100808354040283529160200191610cae565b820191906000526020600020905b815481529060010190602001808311610c9157829003601f168201915b5050505050905090565b60008073ffffffffffffffffffffffffffffffffffffffff168273ffffffffffffffffffffffffffffffffffffffff161415610d3f576040517f08c379a000000000000000000000000000000000000000000000000000000000815260040180806020018281038252602a815260200180613f45602a913960400191505060405180910390fd5b610d86600160008473ffffffffffffffffffffffffffffffffffffffff1673ffffffffffffffffffffffffffffffffffffffff168152602001908152602001600020612240565b9050919050565b610d95611d3a565b73ffffffffffffffffffffffffffffffffffffffff16610db3610efd565b73ffffffffffffffffffffffffffffffffffffffff1614610e3c576040517f08c379a00000000000000000000000000000000000000000000000000000000081526004018080602001828103825260208152602001807f4f776e61626c653a2063616c6c6572206973206e6f7420746865206f776e657281525060200191505060405180910390fd5b600073ffffffffffffffffffffffffffffffffffffffff16600a60009054906101000a900473ffffffffffffffffffffffffffffffffffffffff1673ffffffffffffffffffffffffffffffffffffffff167f8be0079c531659141344cd1fd0a4f28419497f9722a3daafe3b4186f6b6457e060405160405180910390a36000600a60006101000a81548173ffffffffffffffffffffffffffffffffffffffff021916908373ffffffffffffffffffffffffffffffffffffffff160217905550565b6000600a60009054906101000a900473ffffffffffffffffffffffffffffffffffffffff16905090565b600e5481565b606060078054600181600116156101000203166002900480601f016020809104026020016040519081016040528092919081815260200182805460018160011615610100020316600290048015610fc55780601f10610f9a57610100808354040283529160200191610fc5565b820191906000526020600020905b815481529060010190602001808311610fa857829003601f168201915b5050505050905090565b610fd7611d3a565b73ffffffffffffffffffffffffffffffffffffffff168273ffffffffffffffffffffffffffffffffffffffff161415611078576040517f08c379a00000000000000000000000000000000000000000000000000000000081526004018080602001828103825260198152602001807f4552433732313a20617070726f766520746f2063616c6c65720000000000000081525060200191505060405180910390fd5b8060056000611085611d3a565b73ffffffffffffffffffffffffffffffffffffffff1673ffffffffffffffffffffffffffffffffffffffff16815260200190815260200160002060008473ffffffffffffffffffffffffffffffffffffffff1673ffffffffffffffffffffffffffffffffffffffff16815260200190815260200160002060006101000a81548160ff0219169083151502179055508173ffffffffffffffffffffffffffffffffffffffff16611132611d3a565b73ffffffffffffffffffffffffffffffffffffffff167f17307eab39ab6107e8899845ad3d59bd9653f200f220920489ca2b5937696c318360405180821515815260200191505060405180910390a35050565b600b60009054906101000a900473ffffffffffffffffffffffffffffffffffffffff1673ffffffffffffffffffffffffffffffffffffffff163373ffffffffffffffffffffffffffffffffffffffff1614611215576040517f08c379a000000000000000000000000000000000000000000000000000000000815260040161120c90613a63565b60405180910390fd5b80600b60006101000a81548173ffffffffffffffffffffffffffffffffffffffff021916908373ffffffffffffffffffffffffffffffffffffffff16021790555050565b61126a611264611d3a565b83611ea4565b6112bf576040517f08c379a000000000000000000000000000000000000000000000000000000000815260040180806020018281038252603181526020018061405f6031913960400191505060405180910390fd5b6112cb84848484612255565b50505050565b60048351816112dc57fe5b04826112e882826122c7565b611327576040517f08c379a000000000000000000000000000000000000000000000000000000000815260040161131e90613ac3565b60405180910390fd5b846004600e540281511115611371576040517f08c379a000000000000000000000000000000000000000000000000000000000815260040161136890613aa3565b60405180910390fd5b343373ffffffffffffffffffffffffffffffffffffffff163110156113cb576040517f08c379a00000000000000000000000000000000000000000000000000000000081526004016113c290613a83565b60405180910390fd5b6113d361306a565b60405180606001604052808881526020018781526020018681525090508060106000600d5481526020019081526020016000206000820151816000019080519060200190611422929190613094565b506020820151816001016000820151816000015560208201518160010155505060408201518160030155905050600b60009054906101000a900473ffffffffffffffffffffffffffffffffffffffff1673ffffffffffffffffffffffffffffffffffffffff166108fc349081150290604051600060405180830381858888f193505050501580156114b7573d6000803e3d6000fd5b506114c433600d546122de565b6114cc6124d2565b50505050505050565b600b60009054906101000a900473ffffffffffffffffffffffffffffffffffffffff1673ffffffffffffffffffffffffffffffffffffffff163373ffffffffffffffffffffffffffffffffffffffff1614611565576040517f08c379a000000000000000000000000000000000000000000000000000000000815260040161155c90613a63565b60405180910390fd5b8061ffff16600e8190555050565b606061157e82611d1d565b6115d3576040517f08c379a000000000000000000000000000000000000000000000000000000000815260040180806020018281038252602f81526020018061400f602f913960400191505060405180910390fd5b6060600860008481526020019081526020016000208054600181600116156101000203166002900480601f01602080910402602001604051908101604052809291908181526020018280546001816001161561010002031660029004801561167c5780601f106116515761010080835404028352916020019161167c565b820191906000526020600020905b81548152906001019060200180831161165f57829003601f168201915b50505050509050606061168d610c16565b90506000815114156116a357819250505061183f565b6000825111156117745780826040516020018083805190602001908083835b602083106116e557805182526020820191506020810190506020830392506116c2565b6001836020036101000a03801982511681845116808217855250505050505090500182805190602001908083835b602083106117365780518252602082019150602081019050602083039250611713565b6001836020036101000a038019825116818451168082178552505050505050905001925050506040516020818303038152906040529250505061183f565b8061177e856124e6565b6040516020018083805190602001908083835b602083106117b45780518252602082019150602081019050602083039250611791565b6001836020036101000a03801982511681845116808217855250505050505090500182805190602001908083835b6020831061180557805182526020820191506020810190506020830392506117e2565b6001836020036101000a03801982511681845116808217855250505050505090500192505050604051602081830303815290604052925050505b919050565b606080600d5467ffffffffffffffff8111801561186057600080fd5b5060405190808252806020026020018201604052801561189a57816020015b61188761301c565b81526020019060019003908161187f5790505b50905060005b600d548161ffff161015611a18576118b661306a565b601060008361ffff1681526020019081526020016000206040518060600160405290816000820180548060200260200160405190810160405280929190818152602001828054801561194d57602002820191906000526020600020906000905b82829054906101000a900460ff1660ff16815260200190600101906020826000010492830192600103820291508084116119165790505b5050505050815260200160018201604051806040016040529081600082015481526020016001820154815250508152602001600382015481525050905061199261301c565b6040518060a001604052808461ffff168152602001836040015181526020016119be8561ffff16610aa6565b73ffffffffffffffffffffffffffffffffffffffff168152602001836000015181526020018360200151815250905080848461ffff16815181106119fe57fe5b6020026020010181905250505080806001019150506118a0565b508091505090565b600f5481565b600080600c60009054906101000a900473ffffffffffffffffffffffffffffffffffffffff1690508273ffffffffffffffffffffffffffffffffffffffff168173ffffffffffffffffffffffffffffffffffffffff1663c4552791866040518263ffffffff1660e01b8152600401611a9e91906139e9565b60206040518083038186803b158015611ab657600080fd5b505afa158015611aca573d6000803e3d6000fd5b505050506040513d601f19601f82011682018060405250810190611aee91906135b2565b73ffffffffffffffffffffffffffffffffffffffff161415611b14576001915050611b22565b611b1e8484611d42565b9150505b92915050565b611b30611d3a565b73ffffffffffffffffffffffffffffffffffffffff16611b4e610efd565b73ffffffffffffffffffffffffffffffffffffffff1614611bd7576040517f08c379a00000000000000000000000000000000000000000000000000000000081526004018080602001828103825260208152602001807f4f776e61626c653a2063616c6c6572206973206e6f7420746865206f776e657281525060200191505060405180910390fd5b600073ffffffffffffffffffffffffffffffffffffffff168173ffffffffffffffffffffffffffffffffffffffff161415611c5d576040517f08c379a0000000000000000000000000000000000000000000000000000000008152600401808060200182810382526026815260200180613e716026913960400191505060405180910390fd5b8073ffffffffffffffffffffffffffffffffffffffff16600a60009054906101000a900473ffffffffffffffffffffffffffffffffffffffff1673ffffffffffffffffffffffffffffffffffffffff167f8be0079c531659141344cd1fd0a4f28419497f9722a3daafe3b4186f6b6457e060405160405180910390a380600a60006101000a81548173ffffffffffffffffffffffffffffffffffffffff021916908373ffffffffffffffffffffffffffffffffffffffff16021790555050565b6000611d3382600261262d90919063ffffffff16565b9050919050565b600033905090565b6000600560008473ffffffffffffffffffffffffffffffffffffffff1673ffffffffffffffffffffffffffffffffffffffff16815260200190815260200160002060008373ffffffffffffffffffffffffffffffffffffffff1673ffffffffffffffffffffffffffffffffffffffff16815260200190815260200160002060009054906101000a900460ff16905092915050565b816004600083815260200190815260200160002060006101000a81548173ffffffffffffffffffffffffffffffffffffffff021916908373ffffffffffffffffffffffffffffffffffffffff160217905550808273ffffffffffffffffffffffffffffffffffffffff16611e4983610aa6565b73ffffffffffffffffffffffffffffffffffffffff167f8c5be1e5ebec7d5bd14f71427d1e84f3dd0314c0f7b2291e5b200ac8c7c3b92560405160405180910390a45050565b6000611e9d82600001612647565b9050919050565b6000611eaf82611d1d565b611f04576040517f08c379a000000000000000000000000000000000000000000000000000000000815260040180806020018281038252602c815260200180613ee1602c913960400191505060405180910390fd5b6000611f0f83610aa6565b90508073ffffffffffffffffffffffffffffffffffffffff168473ffffffffffffffffffffffffffffffffffffffff161480611f7e57508373ffffffffffffffffffffffffffffffffffffffff16611f66846107a2565b73ffffffffffffffffffffffffffffffffffffffff16145b80611f8f5750611f8e8185611d42565b5b91505092915050565b8273ffffffffffffffffffffffffffffffffffffffff16611fb882610aa6565b73ffffffffffffffffffffffffffffffffffffffff1614612024576040517f08c379a0000000000000000000000000000000000000000000000000000000008152600401808060200182810382526029815260200180613fe66029913960400191505060405180910390fd5b600073ffffffffffffffffffffffffffffffffffffffff168273ffffffffffffffffffffffffffffffffffffffff1614156120aa576040517f08c379a0000000000000000000000000000000000000000000000000000000008152600401808060200182810382526024815260200180613e976024913960400191505060405180910390fd5b6120b5838383612658565b6120c0600082611dd6565b61211181600160008673ffffffffffffffffffffffffffffffffffffffff1673ffffffffffffffffffffffffffffffffffffffff16815260200190815260200160002061265d90919063ffffffff16565b5061216381600160008573ffffffffffffffffffffffffffffffffffffffff1673ffffffffffffffffffffffffffffffffffffffff16815260200190815260200160002061267790919063ffffffff16565b5061217a818360026126919092919063ffffffff16565b50808273ffffffffffffffffffffffffffffffffffffffff168473ffffffffffffffffffffffffffffffffffffffff167fddf252ad1be2c89b69c2b068fc378daa952ba7f163c4a11628f55a4df523b3ef60405160405180910390a4505050565b60006121ea83600001836126c6565b60001c905092915050565b6000806000806122088660000186612749565b915091508160001c8160001c9350935050509250929050565b6000612234846000018460001b846127e2565b60001c90509392505050565b600061224e826000016128d8565b9050919050565b612260848484611f98565b61226c848484846128e9565b6122c1576040517f08c379a0000000000000000000000000000000000000000000000000000000008152600401808060200182810382526032815260200180613e3f6032913960400191505060405180910390fd5b50505050565b600081602001518260000151028314905092915050565b600073ffffffffffffffffffffffffffffffffffffffff168273ffffffffffffffffffffffffffffffffffffffff161415612381576040517f08c379a00000000000000000000000000000000000000000000000000000000081526004018080602001828103825260208152602001807f4552433732313a206d696e7420746f20746865207a65726f206164647265737381525060200191505060405180910390fd5b61238a81611d1d565b156123fd576040517f08c379a000000000000000000000000000000000000000000000000000000000815260040180806020018281038252601c8152602001807f4552433732313a20746f6b656e20616c7265616479206d696e7465640000000081525060200191505060405180910390fd5b61240960008383612658565b61245a81600160008573ffffffffffffffffffffffffffffffffffffffff1673ffffffffffffffffffffffffffffffffffffffff16815260200190815260200160002061267790919063ffffffff16565b50612471818360026126919092919063ffffffff16565b50808273ffffffffffffffffffffffffffffffffffffffff16600073ffffffffffffffffffffffffffffffffffffffff167fddf252ad1be2c89b69c2b068fc378daa952ba7f163c4a11628f55a4df523b3ef60405160405180910390a45050565b600d60008154809291906001019190505550565b6060600082141561252e576040518060400160405280600181526020017f30000000000000000000000000000000000000000000000000000000000000008152509050612628565b600082905060005b60008214612558578080600101915050600a828161255057fe5b049150612536565b60608167ffffffffffffffff8111801561257157600080fd5b506040519080825280601f01601f1916602001820160405280156125a45781602001600182028036833780820191505090505b50905060006001830390508593505b6000841461262057600a84816125c557fe5b0660300160f81b828280600190039350815181106125df57fe5b60200101907effffffffffffffffffffffffffffffffffffffffffffffffffffffffffffff1916908160001a905350600a848161261857fe5b0493506125b3565b819450505050505b919050565b600061263f836000018360001b612b02565b905092915050565b600081600001805490509050919050565b505050565b600061266f836000018360001b612b25565b905092915050565b6000612689836000018360001b612c0d565b905092915050565b60006126bd846000018460001b8473ffffffffffffffffffffffffffffffffffffffff1660001b612c7d565b90509392505050565b600081836000018054905011612727576040517f08c379a0000000000000000000000000000000000000000000000000000000008152600401808060200182810382526022815260200180613e1d6022913960400191505060405180910390fd5b82600001828154811061273657fe5b9060005260206000200154905092915050565b600080828460000180549050116127ab576040517f08c379a0000000000000000000000000000000000000000000000000000000008152600401808060200182810382526022815260200180613f986022913960400191505060405180910390fd5b60008460000184815481106127bc57fe5b906000526020600020906002020190508060000154816001015492509250509250929050565b600080846001016000858152602001908152602001600020549050600081141583906128a9576040517f08c379a00000000000000000000000000000000000000000000000000000000081526004018080602001828103825283818151815260200191508051906020019080838360005b8381101561286e578082015181840152602081019050612853565b50505050905090810190601f16801561289b5780820380516001836020036101000a031916815260200191505b509250505060405180910390fd5b508460000160018203815481106128bc57fe5b9060005260206000209060020201600101549150509392505050565b600081600001805490509050919050565b600061290a8473ffffffffffffffffffffffffffffffffffffffff16612d59565b6129175760019050612afa565b6060612a8163150b7a0260e01b61292c611d3a565b888787604051602401808573ffffffffffffffffffffffffffffffffffffffff1681526020018473ffffffffffffffffffffffffffffffffffffffff16815260200183815260200180602001828103825283818151815260200191508051906020019080838360005b838110156129b0578082015181840152602081019050612995565b50505050905090810190601f1680156129dd5780820380516001836020036101000a031916815260200191505b5095505050505050604051602081830303815290604052907bffffffffffffffffffffffffffffffffffffffffffffffffffffffff19166020820180517bffffffffffffffffffffffffffffffffffffffffffffffffffffffff8381831617835250505050604051806060016040528060328152602001613e3f603291398773ffffffffffffffffffffffffffffffffffffffff16612d6c9092919063ffffffff16565b90506000818060200190516020811015612a9a57600080fd5b8101908080519060200190929190505050905063150b7a0260e01b7bffffffffffffffffffffffffffffffffffffffffffffffffffffffff1916817bffffffffffffffffffffffffffffffffffffffffffffffffffffffff191614925050505b949350505050565b600080836001016000848152602001908152602001600020541415905092915050565b60008083600101600084815260200190815260200160002054905060008114612c015760006001820390506000600186600001805490500390506000866000018281548110612b7057fe5b9060005260206000200154905080876000018481548110612b8d57fe5b9060005260206000200181905550600183018760010160008381526020019081526020016000208190555086600001805480612bc557fe5b60019003818190600052602060002001600090559055866001016000878152602001908152602001600020600090556001945050505050612c07565b60009150505b92915050565b6000612c198383612d84565b612c72578260000182908060018154018082558091505060019003906000526020600020016000909190919091505582600001805490508360010160008481526020019081526020016000208190555060019050612c77565b600090505b92915050565b6000808460010160008581526020019081526020016000205490506000811415612d2457846000016040518060400160405280868152602001858152509080600181540180825580915050600190039060005260206000209060020201600090919091909150600082015181600001556020820151816001015550508460000180549050856001016000868152602001908152602001600020819055506001915050612d52565b82856000016001830381548110612d3757fe5b90600052602060002090600202016001018190555060009150505b9392505050565b600080823b905060008111915050919050565b6060612d7b8484600085612da7565b90509392505050565b600080836001016000848152602001908152602001600020541415905092915050565b606082471015612e02576040517f08c379a0000000000000000000000000000000000000000000000000000000008152600401808060200182810382526026815260200180613ebb6026913960400191505060405180910390fd5b612e0b85612d59565b612e7d576040517f08c379a000000000000000000000000000000000000000000000000000000000815260040180806020018281038252601d8152602001807f416464726573733a2063616c6c20746f206e6f6e2d636f6e747261637400000081525060200191505060405180910390fd5b600060608673ffffffffffffffffffffffffffffffffffffffff1685876040518082805190602001908083835b60208310612ecd5780518252602082019150602081019050602083039250612eaa565b6001836020036101000a03801982511681845116808217855250505050505090500191505060006040518083038185875af1925050503d8060008114612f2f576040519150601f19603f3d011682016040523d82523d6000602084013e612f34565b606091505b5091509150612f44828286612f50565b92505050949350505050565b60608315612f6057829050613015565b600083511115612f735782518084602001fd5b816040517f08c379a00000000000000000000000000000000000000000000000000000000081526004018080602001828103825283818151815260200191508051906020019080838360005b83811015612fda578082015181840152602081019050612fbf565b50505050905090810190601f1680156130075780820380516001836020036101000a031916815260200191505b509250505060405180910390fd5b9392505050565b6040518060a001604052806000815260200160008019168152602001600073ffffffffffffffffffffffffffffffffffffffff1681526020016060815260200161306461313b565b81525090565b60405180606001604052806060815260200161308461313b565b8152602001600080191681525090565b82805482825590600052602060002090601f0160209004810192821561312a5791602002820160005b838211156130fb57835183826101000a81548160ff021916908360ff16021790555092602001926001016020816000010492830192600103026130bd565b80156131285782816101000a81549060ff02191690556001016020816000010492830192600103026130fb565b505b5090506131379190613155565b5090565b604051806040016040528060008152602001600081525090565b5b8082111561316e576000816000905550600101613156565b5090565b60008135905061318181613d4d565b92915050565b60008135905061319681613d64565b92915050565b600082601f8301126131ad57600080fd5b81356131c06131bb82613b51565b613b20565b915081818352602084019350602081019050838560208402820111156131e557600080fd5b60005b8381101561321557816131fb888261333d565b8452602084019350602083019250506001810190506131e8565b5050505092915050565b60008135905061322e81613d7b565b92915050565b60008135905061324381613d92565b92915050565b60008135905061325881613da9565b92915050565b600082601f83011261326f57600080fd5b813561328261327d82613b7d565b613b20565b9150808252602083016020830185838301111561329e57600080fd5b6132a9838284613cf8565b50505092915050565b6000815190506132c181613dc0565b92915050565b6000604082840312156132d957600080fd5b6132e36040613b20565b905060006132f384828501613328565b600083015250602061330784828501613328565b60208301525092915050565b60008135905061332281613dd7565b92915050565b60008135905061333781613dee565b92915050565b60008135905061334c81613e05565b92915050565b60006020828403121561336457600080fd5b600061337284828501613172565b91505092915050565b60006020828403121561338d57600080fd5b600061339b84828501613187565b91505092915050565b600080604083850312156133b757600080fd5b60006133c585828601613172565b92505060206133d685828601613172565b9150509250929050565b6000806000606084860312156133f557600080fd5b600061340386828701613172565b935050602061341486828701613172565b925050604061342586828701613328565b9150509250925092565b6000806000806080858703121561344557600080fd5b600061345387828801613172565b945050602061346487828801613172565b935050604061347587828801613328565b925050606085013567ffffffffffffffff81111561349257600080fd5b61349e8782880161325e565b91505092959194509250565b600080604083850312156134bd57600080fd5b60006134cb85828601613172565b92505060206134dc8582860161321f565b9150509250929050565b600080604083850312156134f957600080fd5b600061350785828601613172565b925050602061351885828601613328565b9150509250929050565b60008060006080848603121561353757600080fd5b600084013567ffffffffffffffff81111561355157600080fd5b61355d8682870161319c565b935050602061356e868287016132c7565b925050606061357f86828701613234565b9150509250925092565b60006020828403121561359b57600080fd5b60006135a984828501613249565b91505092915050565b6000602082840312156135c457600080fd5b60006135d2848285016132b2565b91505092915050565b6000602082840312156135ed57600080fd5b60006135fb84828501613313565b91505092915050565b60006020828403121561361657600080fd5b600061362484828501613328565b91505092915050565b600061363983836138a1565b905092915050565b600061364d83836139da565b60208301905092915050565b61366281613c3b565b82525050565b61367181613c3b565b82525050565b600061368282613bcd565b61368c8185613c08565b93508360208202850161369e85613bad565b8060005b858110156136da57848403895281516136bb858261362d565b94506136c683613bee565b925060208a019950506001810190506136a2565b50829750879550505050505092915050565b60006136f782613bd8565b6137018185613c19565b935061370c83613bbd565b8060005b8381101561373d5781516137248882613641565b975061372f83613bfb565b925050600181019050613710565b5085935050505092915050565b61375381613c5f565b82525050565b61376281613c6b565b82525050565b600061377382613be3565b61377d8185613c2a565b935061378d818560208601613d07565b61379681613d3c565b840191505092915050565b60006137ae600a83613c2a565b91507f4f776e6572204f6e6c79000000000000000000000000000000000000000000006000830152602082019050919050565b60006137ee601083613c2a565b91507f4e6f7420656e6f7567682066756e6473000000000000000000000000000000006000830152602082019050919050565b600061382e600f83613c2a565b91507f546f6f206d616e7920706978656c7300000000000000000000000000000000006000830152602082019050919050565b600061386e601883613c2a565b91507f496e76616c696420706978656c2064696d656e73696f6e7300000000000000006000830152602082019050919050565b600060c0830160008301516138b960008601826139bc565b5060208301516138cc6020860182613759565b5060408301516138df6040860182613659565b50606083015184820360608601526138f782826136ec565b915050608083015161390c608086018261398d565b508091505092915050565b600060c08301600083015161392f60008601826139bc565b5060208301516139426020860182613759565b5060408301516139556040860182613659565b506060830151848203606086015261396d82826136ec565b9150506080830151613982608086018261398d565b508091505092915050565b6040820160008201516139a360008501826139bc565b5060208201516139b660208501826139bc565b50505050565b6139c581613ce1565b82525050565b6139d481613ce1565b82525050565b6139e381613ceb565b82525050565b60006020820190506139fe6000830184613668565b92915050565b60006020820190508181036000830152613a1e8184613677565b905092915050565b6000602082019050613a3b600083018461374a565b92915050565b60006020820190508181036000830152613a5b8184613768565b905092915050565b60006020820190508181036000830152613a7c816137a1565b9050919050565b60006020820190508181036000830152613a9c816137e1565b9050919050565b60006020820190508181036000830152613abc81613821565b9050919050565b60006020820190508181036000830152613adc81613861565b9050919050565b60006020820190508181036000830152613afd8184613917565b905092915050565b6000602082019050613b1a60008301846139cb565b92915050565b6000604051905081810181811067ffffffffffffffff82111715613b4757613b46613d3a565b5b8060405250919050565b600067ffffffffffffffff821115613b6c57613b6b613d3a565b5b602082029050602081019050919050565b600067ffffffffffffffff821115613b9857613b97613d3a565b5b601f19601f8301169050602081019050919050565b6000819050602082019050919050565b6000819050602082019050919050565b600081519050919050565b600081519050919050565b600081519050919050565b6000602082019050919050565b6000602082019050919050565b600082825260208201905092915050565b600082825260208201905092915050565b600082825260208201905092915050565b6000613c4682613cc1565b9050919050565b6000613c5882613cc1565b9050919050565b60008115159050919050565b6000819050919050565b60007fffffffff0000000000000000000000000000000000000000000000000000000082169050919050565b6000613cac82613c3b565b9050919050565b600061ffff82169050919050565b600073ffffffffffffffffffffffffffffffffffffffff82169050919050565b6000819050919050565b600060ff82169050919050565b82818337600083830152505050565b60005b83811015613d25578082015181840152602081019050613d0a565b83811115613d34576000848401525b50505050565bfe5b6000601f19601f8301169050919050565b613d5681613c3b565b8114613d6157600080fd5b50565b613d6d81613c4d565b8114613d7857600080fd5b50565b613d8481613c5f565b8114613d8f57600080fd5b50565b613d9b81613c6b565b8114613da657600080fd5b50565b613db281613c75565b8114613dbd57600080fd5b50565b613dc981613ca1565b8114613dd457600080fd5b50565b613de081613cb3565b8114613deb57600080fd5b50565b613df781613ce1565b8114613e0257600080fd5b50565b613e0e81613ceb565b8114613e1957600080fd5b5056fe456e756d657261626c655365743a20696e646578206f7574206f6620626f756e64734552433732313a207472616e7366657220746f206e6f6e20455243373231526563656976657220696d706c656d656e7465724f776e61626c653a206e6577206f776e657220697320746865207a65726f20616464726573734552433732313a207472616e7366657220746f20746865207a65726f2061646472657373416464726573733a20696e73756666696369656e742062616c616e636520666f722063616c6c4552433732313a206f70657261746f7220717565727920666f72206e6f6e6578697374656e7420746f6b656e4552433732313a20617070726f76652063616c6c6572206973206e6f74206f776e6572206e6f7220617070726f76656420666f7220616c6c4552433732313a2062616c616e636520717565727920666f7220746865207a65726f20616464726573734552433732313a206f776e657220717565727920666f72206e6f6e6578697374656e7420746f6b656e456e756d657261626c654d61703a20696e646578206f7574206f6620626f756e64734552433732313a20617070726f76656420717565727920666f72206e6f6e6578697374656e7420746f6b656e4552433732313a207472616e73666572206f6620746f6b656e2074686174206973206e6f74206f776e4552433732314d657461646174613a2055524920717565727920666f72206e6f6e6578697374656e7420746f6b656e4552433732313a20617070726f76616c20746f2063757272656e74206f776e65724552433732313a207472616e736665722063616c6c6572206973206e6f74206f776e6572206e6f7220617070726f766564a2646970667358221220842d9015df12da548a4fc77317540270210f5cd1be5eb7de04dc47a2ec4ae73f64736f6c63430007040033",
  "immutableReferences": {},
  "source": "// SPDX-License-Identifier: MIT\npragma solidity 0.7.4;\npragma experimental ABIEncoderV2;\n\nimport { ERC721 } from \"@openzeppelin/contracts/token/ERC721/ERC721.sol\";\nimport { RectMath } from \"./utils/RectMath.sol\";\nimport { CustomStructs } from \"./utils/CustomStructs.sol\";\nimport { Ownable } from \"@openzeppelin/contracts/access/Ownable.sol\";\n\ncontract OwnableDelegateProxy {}\n\ncontract ProxyRegistry {\n    mapping(address => OwnableDelegateProxy) public proxies;\n}\n\ncontract DARToken is ERC721, Ownable {\n\n    address payable contractOwner;\n    address proxyRegistryAddress;\n    uint256 private _currentTokenID;\n    uint256 public maxPixelsPerExhibit;\n    uint256 public fee;\n    mapping (uint256 => CustomStructs.DartMeta) dartMeta;\n\n    constructor(address payable _owner, uint256 _fee, address _proxyRegistryAddress) ERC721(\"DecentralizedArt\", \"DRT\") {\n        contractOwner = _owner;\n        fee = _fee;\n        proxyRegistryAddress = _proxyRegistryAddress;\n    }\n\n    function getDarts() public view returns(CustomStructs.DartResp[] memory) {\n        CustomStructs.DartResp[] memory _darts = new CustomStructs.DartResp[](_currentTokenID);\n        for (uint16 i = 0; i < _currentTokenID; i++) {\n            CustomStructs.DartMeta memory _meta = dartMeta[i];\n            CustomStructs.DartResp memory resp = CustomStructs.DartResp({\n                dartId: i,\n                owner: ownerOf(i),\n                name: _meta.name,\n                rgbaArray: _meta.rgbaArray,\n                dimensions: _meta.dimensions\n            });\n             _darts[i] = resp;\n        }\n        return _darts;\n    }\n\n    function getDart(uint256 _tokenId) public view returns(CustomStructs.DartResp memory) {\n        CustomStructs.DartMeta memory _meta = dartMeta[_tokenId];\n        return CustomStructs.DartResp({\n            dartId: _tokenId,\n            name: _meta.name,\n            owner: ownerOf(_tokenId),\n            rgbaArray: _meta.rgbaArray,\n            dimensions: _meta.dimensions\n        });\n    }\n\n    function createDart(uint8[] memory _pixels, CustomStructs.Dimensions memory _dimensions, bytes32 _name) public payable \n                                                                    isValidLength(uint256((_pixels.length / 4)), _dimensions) \n                                                                    isPixelsValid(_pixels) { \n\n        require(msg.sender.balance >= msg.value, \"Not enough funds\");\n\n        CustomStructs.DartMeta memory _meta = CustomStructs.DartMeta({\n            rgbaArray: _pixels,\n            name: _name,\n            dimensions: _dimensions\n        });\n        dartMeta[_currentTokenID] = _meta;\n        contractOwner.transfer(msg.value);\n        _mint(msg.sender, _currentTokenID);\n        _incrementTokenId();\n    }\n\n    // Helpers\n    function _incrementTokenId() internal {\n        _currentTokenID++;\n    }\n\n    function getHashFromCords(uint256 x, uint256 y) internal pure returns (bytes32) {\n        return sha256(abi.encodePacked(x, y));\n   }\n\n    // Admin\n    function changeContactOwner(address payable _owner) public isContractOwner {\n        contractOwner = _owner;\n    }\n\n    function changeMaxPixelsPerExhibit(uint16 _max) public isContractOwner {\n        maxPixelsPerExhibit = _max;\n    }\n\n    modifier isContractOwner() {\n        require(msg.sender == contractOwner, \"Owner Only\");\n        _;\n    }\n\n    modifier isValidLength(uint256 length, CustomStructs.Dimensions memory _dimensions) {\n        require(RectMath.validLength(length, _dimensions), \"Invalid pixel dimensions\");\n        _;\n    }\n\n    modifier isPixelsValid(uint8[] memory _pixels) {\n        require(_pixels.length <= maxPixelsPerExhibit * 4, \"Too many pixels\");\n        _;\n    }\n\n    // Overrides\n    function isApprovedForAll(address owner, address operator) public view override returns (bool) {\n        ProxyRegistry proxyRegistry = ProxyRegistry(proxyRegistryAddress);\n        if (address(proxyRegistry.proxies(owner)) == operator) {\n            return true;\n        }\n        return super.isApprovedForAll(owner, operator);\n    }\n}",
  "sourcePath": "/Users/matthewruddy/Desktop/Projects/DAPP/contracts/DARToken.sol",
  "compiler": {
    "name": "solc",
    "version": "0.7.4+commit.3f05b770.Emscripten.clang"
  },
  "schemaVersion": "3.3.4",
  "updatedAt": "2021-03-21T19:14:29.418Z",
  "networkType": "ethereum",
  "devdoc": {
    "kind": "dev",
    "methods": {
      "approve(address,uint256)": {
        "details": "See {IERC721-approve}."
      },
      "balanceOf(address)": {
        "details": "See {IERC721-balanceOf}."
      },
      "baseURI()": {
        "details": "Returns the base URI set via {_setBaseURI}. This will be automatically added as a prefix in {tokenURI} to each token's URI, or to the token ID if no specific URI is set for that token ID."
      },
      "getApproved(uint256)": {
        "details": "See {IERC721-getApproved}."
      },
      "isApprovedForAll(address,address)": {
        "details": "See {IERC721-isApprovedForAll}."
      },
      "name()": {
        "details": "See {IERC721Metadata-name}."
      },
      "owner()": {
        "details": "Returns the address of the current owner."
      },
      "ownerOf(uint256)": {
        "details": "See {IERC721-ownerOf}."
      },
      "renounceOwnership()": {
        "details": "Leaves the contract without owner. It will not be possible to call `onlyOwner` functions anymore. Can only be called by the current owner. NOTE: Renouncing ownership will leave the contract without an owner, thereby removing any functionality that is only available to the owner."
      },
      "safeTransferFrom(address,address,uint256)": {
        "details": "See {IERC721-safeTransferFrom}."
      },
      "safeTransferFrom(address,address,uint256,bytes)": {
        "details": "See {IERC721-safeTransferFrom}."
      },
      "setApprovalForAll(address,bool)": {
        "details": "See {IERC721-setApprovalForAll}."
      },
      "supportsInterface(bytes4)": {
        "details": "See {IERC165-supportsInterface}. Time complexity O(1), guaranteed to always use less than 30 000 gas."
      },
      "symbol()": {
        "details": "See {IERC721Metadata-symbol}."
      },
      "tokenByIndex(uint256)": {
        "details": "See {IERC721Enumerable-tokenByIndex}."
      },
      "tokenOfOwnerByIndex(address,uint256)": {
        "details": "See {IERC721Enumerable-tokenOfOwnerByIndex}."
      },
      "tokenURI(uint256)": {
        "details": "See {IERC721Metadata-tokenURI}."
      },
      "totalSupply()": {
        "details": "See {IERC721Enumerable-totalSupply}."
      },
      "transferFrom(address,address,uint256)": {
        "details": "See {IERC721-transferFrom}."
      },
      "transferOwnership(address)": {
        "details": "Transfers ownership of the contract to a new account (`newOwner`). Can only be called by the current owner."
      }
    },
    "version": 1
  },
  "userdoc": {
    "kind": "user",
    "methods": {},
    "version": 1
  }
}