{
  "contractName": "DARToken",
  "abi": [
    {
      "inputs": [
        {
          "internalType": "address payable",
          "name": "_owner",
          "type": "address"
        },
        {
          "internalType": "uint256",
          "name": "_fee",
          "type": "uint256"
        },
        {
          "internalType": "address",
          "name": "_proxyRegistryAddress",
          "type": "address"
        }
      ],
      "stateMutability": "nonpayable",
      "type": "constructor"
    },
    {
      "anonymous": false,
      "inputs": [
        {
          "indexed": true,
          "internalType": "address",
          "name": "owner",
          "type": "address"
        },
        {
          "indexed": true,
          "internalType": "address",
          "name": "approved",
          "type": "address"
        },
        {
          "indexed": true,
          "internalType": "uint256",
          "name": "tokenId",
          "type": "uint256"
        }
      ],
      "name": "Approval",
      "type": "event"
    },
    {
      "anonymous": false,
      "inputs": [
        {
          "indexed": true,
          "internalType": "address",
          "name": "owner",
          "type": "address"
        },
        {
          "indexed": true,
          "internalType": "address",
          "name": "operator",
          "type": "address"
        },
        {
          "indexed": false,
          "internalType": "bool",
          "name": "approved",
          "type": "bool"
        }
      ],
      "name": "ApprovalForAll",
      "type": "event"
    },
    {
      "anonymous": false,
      "inputs": [
        {
          "indexed": true,
          "internalType": "address",
          "name": "previousOwner",
          "type": "address"
        },
        {
          "indexed": true,
          "internalType": "address",
          "name": "newOwner",
          "type": "address"
        }
      ],
      "name": "OwnershipTransferred",
      "type": "event"
    },
    {
      "anonymous": false,
      "inputs": [
        {
          "indexed": true,
          "internalType": "address",
          "name": "from",
          "type": "address"
        },
        {
          "indexed": true,
          "internalType": "address",
          "name": "to",
          "type": "address"
        },
        {
          "indexed": true,
          "internalType": "uint256",
          "name": "tokenId",
          "type": "uint256"
        }
      ],
      "name": "Transfer",
      "type": "event"
    },
    {
      "inputs": [
        {
          "internalType": "address",
          "name": "to",
          "type": "address"
        },
        {
          "internalType": "uint256",
          "name": "tokenId",
          "type": "uint256"
        }
      ],
      "name": "approve",
      "outputs": [],
      "stateMutability": "nonpayable",
      "type": "function"
    },
    {
      "inputs": [
        {
          "internalType": "address",
          "name": "owner",
          "type": "address"
        }
      ],
      "name": "balanceOf",
      "outputs": [
        {
          "internalType": "uint256",
          "name": "",
          "type": "uint256"
        }
      ],
      "stateMutability": "view",
      "type": "function",
      "constant": true
    },
    {
      "inputs": [],
      "name": "baseURI",
      "outputs": [
        {
          "internalType": "string",
          "name": "",
          "type": "string"
        }
      ],
      "stateMutability": "view",
      "type": "function",
      "constant": true
    },
    {
      "inputs": [],
      "name": "fee",
      "outputs": [
        {
          "internalType": "uint256",
          "name": "",
          "type": "uint256"
        }
      ],
      "stateMutability": "view",
      "type": "function",
      "constant": true
    },
    {
      "inputs": [
        {
          "internalType": "uint256",
          "name": "tokenId",
          "type": "uint256"
        }
      ],
      "name": "getApproved",
      "outputs": [
        {
          "internalType": "address",
          "name": "",
          "type": "address"
        }
      ],
      "stateMutability": "view",
      "type": "function",
      "constant": true
    },
    {
      "inputs": [],
      "name": "maxPixelsPerExhibit",
      "outputs": [
        {
          "internalType": "uint256",
          "name": "",
          "type": "uint256"
        }
      ],
      "stateMutability": "view",
      "type": "function",
      "constant": true
    },
    {
      "inputs": [],
      "name": "name",
      "outputs": [
        {
          "internalType": "string",
          "name": "",
          "type": "string"
        }
      ],
      "stateMutability": "view",
      "type": "function",
      "constant": true
    },
    {
      "inputs": [],
      "name": "owner",
      "outputs": [
        {
          "internalType": "address",
          "name": "",
          "type": "address"
        }
      ],
      "stateMutability": "view",
      "type": "function",
      "constant": true
    },
    {
      "inputs": [
        {
          "internalType": "uint256",
          "name": "tokenId",
          "type": "uint256"
        }
      ],
      "name": "ownerOf",
      "outputs": [
        {
          "internalType": "address",
          "name": "",
          "type": "address"
        }
      ],
      "stateMutability": "view",
      "type": "function",
      "constant": true
    },
    {
      "inputs": [],
      "name": "renounceOwnership",
      "outputs": [],
      "stateMutability": "nonpayable",
      "type": "function"
    },
    {
      "inputs": [
        {
          "internalType": "address",
          "name": "from",
          "type": "address"
        },
        {
          "internalType": "address",
          "name": "to",
          "type": "address"
        },
        {
          "internalType": "uint256",
          "name": "tokenId",
          "type": "uint256"
        }
      ],
      "name": "safeTransferFrom",
      "outputs": [],
      "stateMutability": "nonpayable",
      "type": "function"
    },
    {
      "inputs": [
        {
          "internalType": "address",
          "name": "from",
          "type": "address"
        },
        {
          "internalType": "address",
          "name": "to",
          "type": "address"
        },
        {
          "internalType": "uint256",
          "name": "tokenId",
          "type": "uint256"
        },
        {
          "internalType": "bytes",
          "name": "_data",
          "type": "bytes"
        }
      ],
      "name": "safeTransferFrom",
      "outputs": [],
      "stateMutability": "nonpayable",
      "type": "function"
    },
    {
      "inputs": [
        {
          "internalType": "address",
          "name": "operator",
          "type": "address"
        },
        {
          "internalType": "bool",
          "name": "approved",
          "type": "bool"
        }
      ],
      "name": "setApprovalForAll",
      "outputs": [],
      "stateMutability": "nonpayable",
      "type": "function"
    },
    {
      "inputs": [
        {
          "internalType": "bytes4",
          "name": "interfaceId",
          "type": "bytes4"
        }
      ],
      "name": "supportsInterface",
      "outputs": [
        {
          "internalType": "bool",
          "name": "",
          "type": "bool"
        }
      ],
      "stateMutability": "view",
      "type": "function",
      "constant": true
    },
    {
      "inputs": [],
      "name": "symbol",
      "outputs": [
        {
          "internalType": "string",
          "name": "",
          "type": "string"
        }
      ],
      "stateMutability": "view",
      "type": "function",
      "constant": true
    },
    {
      "inputs": [
        {
          "internalType": "uint256",
          "name": "index",
          "type": "uint256"
        }
      ],
      "name": "tokenByIndex",
      "outputs": [
        {
          "internalType": "uint256",
          "name": "",
          "type": "uint256"
        }
      ],
      "stateMutability": "view",
      "type": "function",
      "constant": true
    },
    {
      "inputs": [
        {
          "internalType": "address",
          "name": "owner",
          "type": "address"
        },
        {
          "internalType": "uint256",
          "name": "index",
          "type": "uint256"
        }
      ],
      "name": "tokenOfOwnerByIndex",
      "outputs": [
        {
          "internalType": "uint256",
          "name": "",
          "type": "uint256"
        }
      ],
      "stateMutability": "view",
      "type": "function",
      "constant": true
    },
    {
      "inputs": [
        {
          "internalType": "uint256",
          "name": "tokenId",
          "type": "uint256"
        }
      ],
      "name": "tokenURI",
      "outputs": [
        {
          "internalType": "string",
          "name": "",
          "type": "string"
        }
      ],
      "stateMutability": "view",
      "type": "function",
      "constant": true
    },
    {
      "inputs": [],
      "name": "totalSupply",
      "outputs": [
        {
          "internalType": "uint256",
          "name": "",
          "type": "uint256"
        }
      ],
      "stateMutability": "view",
      "type": "function",
      "constant": true
    },
    {
      "inputs": [
        {
          "internalType": "address",
          "name": "from",
          "type": "address"
        },
        {
          "internalType": "address",
          "name": "to",
          "type": "address"
        },
        {
          "internalType": "uint256",
          "name": "tokenId",
          "type": "uint256"
        }
      ],
      "name": "transferFrom",
      "outputs": [],
      "stateMutability": "nonpayable",
      "type": "function"
    },
    {
      "inputs": [
        {
          "internalType": "address",
          "name": "newOwner",
          "type": "address"
        }
      ],
      "name": "transferOwnership",
      "outputs": [],
      "stateMutability": "nonpayable",
      "type": "function"
    },
    {
      "inputs": [],
      "name": "getDarts",
      "outputs": [
        {
          "components": [
            {
              "internalType": "uint256",
              "name": "dartId",
              "type": "uint256"
            },
            {
              "internalType": "address",
              "name": "owner",
              "type": "address"
            },
            {
              "internalType": "uint8[]",
              "name": "rgbArray",
              "type": "uint8[]"
            },
            {
              "components": [
                {
                  "internalType": "uint256",
                  "name": "height",
                  "type": "uint256"
                },
                {
                  "internalType": "uint256",
                  "name": "width",
                  "type": "uint256"
                }
              ],
              "internalType": "struct CustomStructs.Dimensions",
              "name": "dimensions",
              "type": "tuple"
            }
          ],
          "internalType": "struct CustomStructs.DartResp[]",
          "name": "",
          "type": "tuple[]"
        }
      ],
      "stateMutability": "view",
      "type": "function",
      "constant": true
    },
    {
      "inputs": [
        {
          "internalType": "uint256",
          "name": "_tokenId",
          "type": "uint256"
        }
      ],
      "name": "getDart",
      "outputs": [
        {
          "components": [
            {
              "internalType": "uint256",
              "name": "dartId",
              "type": "uint256"
            },
            {
              "internalType": "address",
              "name": "owner",
              "type": "address"
            },
            {
              "internalType": "uint8[]",
              "name": "rgbArray",
              "type": "uint8[]"
            },
            {
              "components": [
                {
                  "internalType": "uint256",
                  "name": "height",
                  "type": "uint256"
                },
                {
                  "internalType": "uint256",
                  "name": "width",
                  "type": "uint256"
                }
              ],
              "internalType": "struct CustomStructs.Dimensions",
              "name": "dimensions",
              "type": "tuple"
            }
          ],
          "internalType": "struct CustomStructs.DartResp",
          "name": "",
          "type": "tuple"
        }
      ],
      "stateMutability": "view",
      "type": "function",
      "constant": true
    },
    {
      "inputs": [
        {
          "internalType": "uint8[]",
          "name": "_pixels",
          "type": "uint8[]"
        },
        {
          "components": [
            {
              "internalType": "uint256",
              "name": "height",
              "type": "uint256"
            },
            {
              "internalType": "uint256",
              "name": "width",
              "type": "uint256"
            }
          ],
          "internalType": "struct CustomStructs.Dimensions",
          "name": "_dimensions",
          "type": "tuple"
        }
      ],
      "name": "createDart",
      "outputs": [],
      "stateMutability": "payable",
      "type": "function",
      "payable": true
    },
    {
      "inputs": [
        {
          "internalType": "address payable",
          "name": "_owner",
          "type": "address"
        }
      ],
      "name": "changeContactOwner",
      "outputs": [],
      "stateMutability": "nonpayable",
      "type": "function"
    },
    {
      "inputs": [
        {
          "internalType": "uint16",
          "name": "_max",
          "type": "uint16"
        }
      ],
      "name": "changeMaxPixelsPerExhibit",
      "outputs": [],
      "stateMutability": "nonpayable",
      "type": "function"
    },
    {
      "inputs": [
        {
          "internalType": "address",
          "name": "owner",
          "type": "address"
        },
        {
          "internalType": "address",
          "name": "operator",
          "type": "address"
        }
      ],
      "name": "isApprovedForAll",
      "outputs": [
        {
          "internalType": "bool",
          "name": "",
          "type": "bool"
        }
      ],
      "stateMutability": "view",
      "type": "function",
      "constant": true
    }
  ],
  "bytecode": "0x60806040523480156200001157600080fd5b506040516200452038038062004520833981810160405281019062000037919062000486565b6040518060400160405280601081526020017f446563656e7472616c697a6564417274000000000000000000000000000000008152506040518060400160405280600381526020017f4452540000000000000000000000000000000000000000000000000000000000815250620000bb6301ffc9a760e01b6200027a60201b60201c565b8160069080519060200190620000d39291906200038b565b508060079080519060200190620000ec9291906200038b565b50620001056380ac58cd60e01b6200027a60201b60201c565b6200011d635b5e139f60e01b6200027a60201b60201c565b6200013563780e9d6360e01b6200027a60201b60201c565b50506000620001496200038360201b60201c565b905080600a60006101000a81548173ffffffffffffffffffffffffffffffffffffffff021916908373ffffffffffffffffffffffffffffffffffffffff1602179055508073ffffffffffffffffffffffffffffffffffffffff16600073ffffffffffffffffffffffffffffffffffffffff167f8be0079c531659141344cd1fd0a4f28419497f9722a3daafe3b4186f6b6457e060405160405180910390a35082600b60006101000a81548173ffffffffffffffffffffffffffffffffffffffff021916908373ffffffffffffffffffffffffffffffffffffffff16021790555081600f8190555080600c60006101000a81548173ffffffffffffffffffffffffffffffffffffffff021916908373ffffffffffffffffffffffffffffffffffffffff1602179055505050506200057c565b63ffffffff60e01b817bffffffffffffffffffffffffffffffffffffffffffffffffffffffff1916141562000317576040517f08c379a000000000000000000000000000000000000000000000000000000000815260040180806020018281038252601c8152602001807f4552433136353a20696e76616c696420696e746572666163652069640000000081525060200191505060405180910390fd5b6001600080837bffffffffffffffffffffffffffffffffffffffffffffffffffffffff19167bffffffffffffffffffffffffffffffffffffffffffffffffffffffff1916815260200190815260200160002060006101000a81548160ff02191690831515021790555050565b600033905090565b828054600181600116156101000203166002900490600052602060002090601f016020900481019282620003c357600085556200040f565b82601f10620003de57805160ff19168380011785556200040f565b828001600101855582156200040f579182015b828111156200040e578251825591602001919060010190620003f1565b5b5090506200041e919062000422565b5090565b5b808211156200043d57600081600090555060010162000423565b5090565b60008151905062000452816200052e565b92915050565b600081519050620004698162000548565b92915050565b600081519050620004808162000562565b92915050565b6000806000606084860312156200049c57600080fd5b6000620004ac8682870162000458565b9350506020620004bf868287016200046f565b9250506040620004d28682870162000441565b9150509250925092565b6000620004e98262000504565b9050919050565b6000620004fd8262000504565b9050919050565b600073ffffffffffffffffffffffffffffffffffffffff82169050919050565b6000819050919050565b6200053981620004dc565b81146200054557600080fd5b50565b6200055381620004f0565b81146200055f57600080fd5b50565b6200056d8162000524565b81146200057957600080fd5b50565b613f94806200058c6000396000f3fe60806040526004361061019c5760003560e01c806370a08231116100ec578063b88d4fde1161008a578063d659f6db11610064578063d659f6db146105dd578063ddca3f4314610608578063e985e9c514610633578063f2fde38b146106705761019c565b8063b88d4fde1461054e578063c3355a9f14610577578063c87b56dd146105a05761019c565b8063935cd960116100c6578063935cd960146104a657806395d89b41146104d1578063a22cb465146104fc578063a62f204e146105255761019c565b806370a0823114610427578063715018a6146104645780638da5cb5b1461047b5761019c565b80632f745c59116101595780636352211e116101335780636352211e146103665780636360eeea146103a3578063673652ad146103e05780636c0360eb146103fc5761019c565b80632f745c59146102c357806342842e0e146103005780634f6ccce7146103295761019c565b806301ffc9a7146101a157806306fdde03146101de578063081812fc14610209578063095ea7b31461024657806318160ddd1461026f57806323b872dd1461029a575b600080fd5b3480156101ad57600080fd5b506101c860048036038101906101c391906134ae565b610699565b6040516101d59190613916565b60405180910390f35b3480156101ea57600080fd5b506101f3610700565b6040516102009190613931565b60405180910390f35b34801561021557600080fd5b50610230600480360381019061022b9190613529565b6107a2565b60405161023d91906138d9565b60405180910390f35b34801561025257600080fd5b5061026d6004803603810190610268919061341e565b61083d565b005b34801561027b57600080fd5b50610284610981565b60405161029191906139f5565b60405180910390f35b3480156102a657600080fd5b506102c160048036038101906102bc9190613318565b610992565b005b3480156102cf57600080fd5b506102ea60048036038101906102e5919061341e565b610a08565b6040516102f791906139f5565b60405180910390f35b34801561030c57600080fd5b5061032760048036038101906103229190613318565b610a63565b005b34801561033557600080fd5b50610350600480360381019061034b9190613529565b610a83565b60405161035d91906139f5565b60405180910390f35b34801561037257600080fd5b5061038d60048036038101906103889190613529565b610aa6565b60405161039a91906138d9565b60405180910390f35b3480156103af57600080fd5b506103ca60048036038101906103c59190613529565b610add565b6040516103d791906139d3565b60405180910390f35b6103fa60048036038101906103f5919061345a565b610be3565b005b34801561040857600080fd5b50610411610db8565b60405161041e9190613931565b60405180910390f35b34801561043357600080fd5b5061044e6004803603810190610449919061328a565b610e5a565b60405161045b91906139f5565b60405180910390f35b34801561047057600080fd5b50610479610f2f565b005b34801561048757600080fd5b5061049061109f565b60405161049d91906138d9565b60405180910390f35b3480156104b257600080fd5b506104bb6110c9565b6040516104c891906139f5565b60405180910390f35b3480156104dd57600080fd5b506104e66110cf565b6040516104f39190613931565b60405180910390f35b34801561050857600080fd5b50610523600480360381019061051e91906133e2565b611171565b005b34801561053157600080fd5b5061054c600480360381019061054791906132b3565b611327565b005b34801561055a57600080fd5b5061057560048036038101906105709190613367565b6113fb565b005b34801561058357600080fd5b5061059e60048036038101906105999190613500565b611473565b005b3480156105ac57600080fd5b506105c760048036038101906105c29190613529565b611511565b6040516105d49190613931565b60405180910390f35b3480156105e957600080fd5b506105f26117e2565b6040516105ff91906138f4565b60405180910390f35b34801561061457600080fd5b5061061d6119a1565b60405161062a91906139f5565b60405180910390f35b34801561063f57600080fd5b5061065a600480360381019061065591906132dc565b6119a7565b6040516106679190613916565b60405180910390f35b34801561067c57600080fd5b506106976004803603810190610692919061328a565b611aa9565b005b6000806000837bffffffffffffffffffffffffffffffffffffffffffffffffffffffff19167bffffffffffffffffffffffffffffffffffffffffffffffffffffffff1916815260200190815260200160002060009054906101000a900460ff169050919050565b606060068054600181600116156101000203166002900480601f0160208091040260200160405190810160405280929190818152602001828054600181600116156101000203166002900480156107985780601f1061076d57610100808354040283529160200191610798565b820191906000526020600020905b81548152906001019060200180831161077b57829003601f168201915b5050505050905090565b60006107ad82611c9e565b610802576040517f08c379a000000000000000000000000000000000000000000000000000000000815260040180806020018281038252602c815260200180613e89602c913960400191505060405180910390fd5b6004600083815260200190815260200160002060009054906101000a900473ffffffffffffffffffffffffffffffffffffffff169050919050565b600061084882610aa6565b90508073ffffffffffffffffffffffffffffffffffffffff168373ffffffffffffffffffffffffffffffffffffffff1614156108cf576040517f08c379a0000000000000000000000000000000000000000000000000000000008152600401808060200182810382526021815260200180613f0d6021913960400191505060405180910390fd5b8073ffffffffffffffffffffffffffffffffffffffff166108ee611cbb565b73ffffffffffffffffffffffffffffffffffffffff16148061091d575061091c81610917611cbb565b611cc3565b5b610972576040517f08c379a0000000000000000000000000000000000000000000000000000000008152600401808060200182810382526038815260200180613ddc6038913960400191505060405180910390fd5b61097c8383611d57565b505050565b600061098d6002611e10565b905090565b6109a361099d611cbb565b82611e25565b6109f8576040517f08c379a0000000000000000000000000000000000000000000000000000000008152600401808060200182810382526031815260200180613f2e6031913960400191505060405180910390fd5b610a03838383611f19565b505050565b6000610a5b82600160008673ffffffffffffffffffffffffffffffffffffffff1673ffffffffffffffffffffffffffffffffffffffff16815260200190815260200160002061215c90919063ffffffff16565b905092915050565b610a7e838383604051806020016040528060008152506113fb565b505050565b600080610a9a83600261217690919063ffffffff16565b50905080915050919050565b6000610ad682604051806060016040528060298152602001613e3e6029913960026121a29092919063ffffffff16565b9050919050565b610ae5612f9d565b6040518060800160405280838152602001610aff84610aa6565b73ffffffffffffffffffffffffffffffffffffffff16815260200160106000858152602001908152602001600020805480602002602001604051908101604052809291908181526020018280548015610b9d57602002820191906000526020600020906000905b82829054906101000a900460ff1660ff1681526020019060010190602082600001049283019260010382029150808411610b665790505b5050505050815260200160116000858152602001908152602001600020604051806040016040529081600082015481526020016001820154815250508152509050919050565b6004825181610bee57fe5b0481610bfa82826121c1565b610c39576040517f08c379a0000000000000000000000000000000000000000000000000000000008152600401610c30906139b3565b60405180910390fd5b836004600e540281511115610c83576040517f08c379a0000000000000000000000000000000000000000000000000000000008152600401610c7a90613993565b60405180910390fd5b343373ffffffffffffffffffffffffffffffffffffffff16311015610cdd576040517f08c379a0000000000000000000000000000000000000000000000000000000008152600401610cd490613973565b60405180910390fd5b8460106000600d5481526020019081526020016000209080519060200190610d06929190612fe1565b508360116000600d5481526020019081526020016000206000820151816000015560208201518160010155905050600b60009054906101000a900473ffffffffffffffffffffffffffffffffffffffff1673ffffffffffffffffffffffffffffffffffffffff166108fc349081150290604051600060405180830381858888f19350505050158015610d9c573d6000803e3d6000fd5b50610da933600d546121d8565b610db16123cc565b5050505050565b606060098054600181600116156101000203166002900480601f016020809104026020016040519081016040528092919081815260200182805460018160011615610100020316600290048015610e505780601f10610e2557610100808354040283529160200191610e50565b820191906000526020600020905b815481529060010190602001808311610e3357829003601f168201915b5050505050905090565b60008073ffffffffffffffffffffffffffffffffffffffff168273ffffffffffffffffffffffffffffffffffffffff161415610ee1576040517f08c379a000000000000000000000000000000000000000000000000000000000815260040180806020018281038252602a815260200180613e14602a913960400191505060405180910390fd5b610f28600160008473ffffffffffffffffffffffffffffffffffffffff1673ffffffffffffffffffffffffffffffffffffffff1681526020019081526020016000206123e0565b9050919050565b610f37611cbb565b73ffffffffffffffffffffffffffffffffffffffff16610f5561109f565b73ffffffffffffffffffffffffffffffffffffffff1614610fde576040517f08c379a00000000000000000000000000000000000000000000000000000000081526004018080602001828103825260208152602001807f4f776e61626c653a2063616c6c6572206973206e6f7420746865206f776e657281525060200191505060405180910390fd5b600073ffffffffffffffffffffffffffffffffffffffff16600a60009054906101000a900473ffffffffffffffffffffffffffffffffffffffff1673ffffffffffffffffffffffffffffffffffffffff167f8be0079c531659141344cd1fd0a4f28419497f9722a3daafe3b4186f6b6457e060405160405180910390a36000600a60006101000a81548173ffffffffffffffffffffffffffffffffffffffff021916908373ffffffffffffffffffffffffffffffffffffffff160217905550565b6000600a60009054906101000a900473ffffffffffffffffffffffffffffffffffffffff16905090565b600e5481565b606060078054600181600116156101000203166002900480601f0160208091040260200160405190810160405280929190818152602001828054600181600116156101000203166002900480156111675780601f1061113c57610100808354040283529160200191611167565b820191906000526020600020905b81548152906001019060200180831161114a57829003601f168201915b5050505050905090565b611179611cbb565b73ffffffffffffffffffffffffffffffffffffffff168273ffffffffffffffffffffffffffffffffffffffff16141561121a576040517f08c379a00000000000000000000000000000000000000000000000000000000081526004018080602001828103825260198152602001807f4552433732313a20617070726f766520746f2063616c6c65720000000000000081525060200191505060405180910390fd5b8060056000611227611cbb565b73ffffffffffffffffffffffffffffffffffffffff1673ffffffffffffffffffffffffffffffffffffffff16815260200190815260200160002060008473ffffffffffffffffffffffffffffffffffffffff1673ffffffffffffffffffffffffffffffffffffffff16815260200190815260200160002060006101000a81548160ff0219169083151502179055508173ffffffffffffffffffffffffffffffffffffffff166112d4611cbb565b73ffffffffffffffffffffffffffffffffffffffff167f17307eab39ab6107e8899845ad3d59bd9653f200f220920489ca2b5937696c318360405180821515815260200191505060405180910390a35050565b600b60009054906101000a900473ffffffffffffffffffffffffffffffffffffffff1673ffffffffffffffffffffffffffffffffffffffff163373ffffffffffffffffffffffffffffffffffffffff16146113b7576040517f08c379a00000000000000000000000000000000000000000000000000000000081526004016113ae90613953565b60405180910390fd5b80600b60006101000a81548173ffffffffffffffffffffffffffffffffffffffff021916908373ffffffffffffffffffffffffffffffffffffffff16021790555050565b61140c611406611cbb565b83611e25565b611461576040517f08c379a0000000000000000000000000000000000000000000000000000000008152600401808060200182810382526031815260200180613f2e6031913960400191505060405180910390fd5b61146d848484846123f5565b50505050565b600b60009054906101000a900473ffffffffffffffffffffffffffffffffffffffff1673ffffffffffffffffffffffffffffffffffffffff163373ffffffffffffffffffffffffffffffffffffffff1614611503576040517f08c379a00000000000000000000000000000000000000000000000000000000081526004016114fa90613953565b60405180910390fd5b8061ffff16600e8190555050565b606061151c82611c9e565b611571576040517f08c379a000000000000000000000000000000000000000000000000000000000815260040180806020018281038252602f815260200180613ede602f913960400191505060405180910390fd5b6060600860008481526020019081526020016000208054600181600116156101000203166002900480601f01602080910402602001604051908101604052809291908181526020018280546001816001161561010002031660029004801561161a5780601f106115ef5761010080835404028352916020019161161a565b820191906000526020600020905b8154815290600101906020018083116115fd57829003601f168201915b50505050509050606061162b610db8565b90506000815114156116415781925050506117dd565b6000825111156117125780826040516020018083805190602001908083835b602083106116835780518252602082019150602081019050602083039250611660565b6001836020036101000a03801982511681845116808217855250505050505090500182805190602001908083835b602083106116d457805182526020820191506020810190506020830392506116b1565b6001836020036101000a03801982511681845116808217855250505050505090500192505050604051602081830303815290604052925050506117dd565b8061171c85612467565b6040516020018083805190602001908083835b60208310611752578051825260208201915060208101905060208303925061172f565b6001836020036101000a03801982511681845116808217855250505050505090500182805190602001908083835b602083106117a35780518252602082019150602081019050602083039250611780565b6001836020036101000a03801982511681845116808217855250505050505090500192505050604051602081830303815290604052925050505b919050565b606080600d5467ffffffffffffffff811180156117fe57600080fd5b5060405190808252806020026020018201604052801561183857816020015b611825612f9d565b81526020019060019003908161181d5790505b50905060005b600d548161ffff161015611999576060601060008361ffff1681526020019081526020016000208054806020026020016040519081016040528092919081815260200182805480156118d557602002820191906000526020600020906000905b82829054906101000a900460ff1660ff168152602001906001019060208260000104928301926001038202915080841161189e5790505b505050505090506118e4613088565b601160008461ffff168152602001908152602001600020604051806040016040529081600082015481526020016001820154815250509050611924612f9d565b60405180608001604052808561ffff1681526020016119468661ffff16610aa6565b73ffffffffffffffffffffffffffffffffffffffff16815260200184815260200183815250905080858561ffff168151811061197e57fe5b6020026020010181905250505050808060010191505061183e565b508091505090565b600f5481565b600080600c60009054906101000a900473ffffffffffffffffffffffffffffffffffffffff1690508273ffffffffffffffffffffffffffffffffffffffff168173ffffffffffffffffffffffffffffffffffffffff1663c4552791866040518263ffffffff1660e01b8152600401611a1f91906138d9565b60206040518083038186803b158015611a3757600080fd5b505afa158015611a4b573d6000803e3d6000fd5b505050506040513d601f19601f82011682018060405250810190611a6f91906134d7565b73ffffffffffffffffffffffffffffffffffffffff161415611a95576001915050611aa3565b611a9f8484611cc3565b9150505b92915050565b611ab1611cbb565b73ffffffffffffffffffffffffffffffffffffffff16611acf61109f565b73ffffffffffffffffffffffffffffffffffffffff1614611b58576040517f08c379a00000000000000000000000000000000000000000000000000000000081526004018080602001828103825260208152602001807f4f776e61626c653a2063616c6c6572206973206e6f7420746865206f776e657281525060200191505060405180910390fd5b600073ffffffffffffffffffffffffffffffffffffffff168173ffffffffffffffffffffffffffffffffffffffff161415611bde576040517f08c379a0000000000000000000000000000000000000000000000000000000008152600401808060200182810382526026815260200180613d406026913960400191505060405180910390fd5b8073ffffffffffffffffffffffffffffffffffffffff16600a60009054906101000a900473ffffffffffffffffffffffffffffffffffffffff1673ffffffffffffffffffffffffffffffffffffffff167f8be0079c531659141344cd1fd0a4f28419497f9722a3daafe3b4186f6b6457e060405160405180910390a380600a60006101000a81548173ffffffffffffffffffffffffffffffffffffffff021916908373ffffffffffffffffffffffffffffffffffffffff16021790555050565b6000611cb48260026125ae90919063ffffffff16565b9050919050565b600033905090565b6000600560008473ffffffffffffffffffffffffffffffffffffffff1673ffffffffffffffffffffffffffffffffffffffff16815260200190815260200160002060008373ffffffffffffffffffffffffffffffffffffffff1673ffffffffffffffffffffffffffffffffffffffff16815260200190815260200160002060009054906101000a900460ff16905092915050565b816004600083815260200190815260200160002060006101000a81548173ffffffffffffffffffffffffffffffffffffffff021916908373ffffffffffffffffffffffffffffffffffffffff160217905550808273ffffffffffffffffffffffffffffffffffffffff16611dca83610aa6565b73ffffffffffffffffffffffffffffffffffffffff167f8c5be1e5ebec7d5bd14f71427d1e84f3dd0314c0f7b2291e5b200ac8c7c3b92560405160405180910390a45050565b6000611e1e826000016125c8565b9050919050565b6000611e3082611c9e565b611e85576040517f08c379a000000000000000000000000000000000000000000000000000000000815260040180806020018281038252602c815260200180613db0602c913960400191505060405180910390fd5b6000611e9083610aa6565b90508073ffffffffffffffffffffffffffffffffffffffff168473ffffffffffffffffffffffffffffffffffffffff161480611eff57508373ffffffffffffffffffffffffffffffffffffffff16611ee7846107a2565b73ffffffffffffffffffffffffffffffffffffffff16145b80611f105750611f0f8185611cc3565b5b91505092915050565b8273ffffffffffffffffffffffffffffffffffffffff16611f3982610aa6565b73ffffffffffffffffffffffffffffffffffffffff1614611fa5576040517f08c379a0000000000000000000000000000000000000000000000000000000008152600401808060200182810382526029815260200180613eb56029913960400191505060405180910390fd5b600073ffffffffffffffffffffffffffffffffffffffff168273ffffffffffffffffffffffffffffffffffffffff16141561202b576040517f08c379a0000000000000000000000000000000000000000000000000000000008152600401808060200182810382526024815260200180613d666024913960400191505060405180910390fd5b6120368383836125d9565b612041600082611d57565b61209281600160008673ffffffffffffffffffffffffffffffffffffffff1673ffffffffffffffffffffffffffffffffffffffff1681526020019081526020016000206125de90919063ffffffff16565b506120e481600160008573ffffffffffffffffffffffffffffffffffffffff1673ffffffffffffffffffffffffffffffffffffffff1681526020019081526020016000206125f890919063ffffffff16565b506120fb818360026126129092919063ffffffff16565b50808273ffffffffffffffffffffffffffffffffffffffff168473ffffffffffffffffffffffffffffffffffffffff167fddf252ad1be2c89b69c2b068fc378daa952ba7f163c4a11628f55a4df523b3ef60405160405180910390a4505050565b600061216b8360000183612647565b60001c905092915050565b60008060008061218986600001866126ca565b915091508160001c8160001c9350935050509250929050565b60006121b5846000018460001b84612763565b60001c90509392505050565b600081602001518260000151028314905092915050565b600073ffffffffffffffffffffffffffffffffffffffff168273ffffffffffffffffffffffffffffffffffffffff16141561227b576040517f08c379a00000000000000000000000000000000000000000000000000000000081526004018080602001828103825260208152602001807f4552433732313a206d696e7420746f20746865207a65726f206164647265737381525060200191505060405180910390fd5b61228481611c9e565b156122f7576040517f08c379a000000000000000000000000000000000000000000000000000000000815260040180806020018281038252601c8152602001807f4552433732313a20746f6b656e20616c7265616479206d696e7465640000000081525060200191505060405180910390fd5b612303600083836125d9565b61235481600160008573ffffffffffffffffffffffffffffffffffffffff1673ffffffffffffffffffffffffffffffffffffffff1681526020019081526020016000206125f890919063ffffffff16565b5061236b818360026126129092919063ffffffff16565b50808273ffffffffffffffffffffffffffffffffffffffff16600073ffffffffffffffffffffffffffffffffffffffff167fddf252ad1be2c89b69c2b068fc378daa952ba7f163c4a11628f55a4df523b3ef60405160405180910390a45050565b600d60008154809291906001019190505550565b60006123ee82600001612859565b9050919050565b612400848484611f19565b61240c8484848461286a565b612461576040517f08c379a0000000000000000000000000000000000000000000000000000000008152600401808060200182810382526032815260200180613d0e6032913960400191505060405180910390fd5b50505050565b606060008214156124af576040518060400160405280600181526020017f300000000000000000000000000000000000000000000000000000000000000081525090506125a9565b600082905060005b600082146124d9578080600101915050600a82816124d157fe5b0491506124b7565b60608167ffffffffffffffff811180156124f257600080fd5b506040519080825280601f01601f1916602001820160405280156125255781602001600182028036833780820191505090505b50905060006001830390508593505b600084146125a157600a848161254657fe5b0660300160f81b8282806001900393508151811061256057fe5b60200101907effffffffffffffffffffffffffffffffffffffffffffffffffffffffffffff1916908160001a905350600a848161259957fe5b049350612534565b819450505050505b919050565b60006125c0836000018360001b612a83565b905092915050565b600081600001805490509050919050565b505050565b60006125f0836000018360001b612aa6565b905092915050565b600061260a836000018360001b612b8e565b905092915050565b600061263e846000018460001b8473ffffffffffffffffffffffffffffffffffffffff1660001b612bfe565b90509392505050565b6000818360000180549050116126a8576040517f08c379a0000000000000000000000000000000000000000000000000000000008152600401808060200182810382526022815260200180613cec6022913960400191505060405180910390fd5b8260000182815481106126b757fe5b9060005260206000200154905092915050565b6000808284600001805490501161272c576040517f08c379a0000000000000000000000000000000000000000000000000000000008152600401808060200182810382526022815260200180613e676022913960400191505060405180910390fd5b600084600001848154811061273d57fe5b906000526020600020906002020190508060000154816001015492509250509250929050565b6000808460010160008581526020019081526020016000205490506000811415839061282a576040517f08c379a00000000000000000000000000000000000000000000000000000000081526004018080602001828103825283818151815260200191508051906020019080838360005b838110156127ef5780820151818401526020810190506127d4565b50505050905090810190601f16801561281c5780820380516001836020036101000a031916815260200191505b509250505060405180910390fd5b5084600001600182038154811061283d57fe5b9060005260206000209060020201600101549150509392505050565b600081600001805490509050919050565b600061288b8473ffffffffffffffffffffffffffffffffffffffff16612cda565b6128985760019050612a7b565b6060612a0263150b7a0260e01b6128ad611cbb565b888787604051602401808573ffffffffffffffffffffffffffffffffffffffff1681526020018473ffffffffffffffffffffffffffffffffffffffff16815260200183815260200180602001828103825283818151815260200191508051906020019080838360005b83811015612931578082015181840152602081019050612916565b50505050905090810190601f16801561295e5780820380516001836020036101000a031916815260200191505b5095505050505050604051602081830303815290604052907bffffffffffffffffffffffffffffffffffffffffffffffffffffffff19166020820180517bffffffffffffffffffffffffffffffffffffffffffffffffffffffff8381831617835250505050604051806060016040528060328152602001613d0e603291398773ffffffffffffffffffffffffffffffffffffffff16612ced9092919063ffffffff16565b90506000818060200190516020811015612a1b57600080fd5b8101908080519060200190929190505050905063150b7a0260e01b7bffffffffffffffffffffffffffffffffffffffffffffffffffffffff1916817bffffffffffffffffffffffffffffffffffffffffffffffffffffffff191614925050505b949350505050565b600080836001016000848152602001908152602001600020541415905092915050565b60008083600101600084815260200190815260200160002054905060008114612b825760006001820390506000600186600001805490500390506000866000018281548110612af157fe5b9060005260206000200154905080876000018481548110612b0e57fe5b9060005260206000200181905550600183018760010160008381526020019081526020016000208190555086600001805480612b4657fe5b60019003818190600052602060002001600090559055866001016000878152602001908152602001600020600090556001945050505050612b88565b60009150505b92915050565b6000612b9a8383612d05565b612bf3578260000182908060018154018082558091505060019003906000526020600020016000909190919091505582600001805490508360010160008481526020019081526020016000208190555060019050612bf8565b600090505b92915050565b6000808460010160008581526020019081526020016000205490506000811415612ca557846000016040518060400160405280868152602001858152509080600181540180825580915050600190039060005260206000209060020201600090919091909150600082015181600001556020820151816001015550508460000180549050856001016000868152602001908152602001600020819055506001915050612cd3565b82856000016001830381548110612cb857fe5b90600052602060002090600202016001018190555060009150505b9392505050565b600080823b905060008111915050919050565b6060612cfc8484600085612d28565b90509392505050565b600080836001016000848152602001908152602001600020541415905092915050565b606082471015612d83576040517f08c379a0000000000000000000000000000000000000000000000000000000008152600401808060200182810382526026815260200180613d8a6026913960400191505060405180910390fd5b612d8c85612cda565b612dfe576040517f08c379a000000000000000000000000000000000000000000000000000000000815260040180806020018281038252601d8152602001807f416464726573733a2063616c6c20746f206e6f6e2d636f6e747261637400000081525060200191505060405180910390fd5b600060608673ffffffffffffffffffffffffffffffffffffffff1685876040518082805190602001908083835b60208310612e4e5780518252602082019150602081019050602083039250612e2b565b6001836020036101000a03801982511681845116808217855250505050505090500191505060006040518083038185875af1925050503d8060008114612eb0576040519150601f19603f3d011682016040523d82523d6000602084013e612eb5565b606091505b5091509150612ec5828286612ed1565b92505050949350505050565b60608315612ee157829050612f96565b600083511115612ef45782518084602001fd5b816040517f08c379a00000000000000000000000000000000000000000000000000000000081526004018080602001828103825283818151815260200191508051906020019080838360005b83811015612f5b578082015181840152602081019050612f40565b50505050905090810190601f168015612f885780820380516001836020036101000a031916815260200191505b509250505060405180910390fd5b9392505050565b604051806080016040528060008152602001600073ffffffffffffffffffffffffffffffffffffffff16815260200160608152602001612fdb613088565b81525090565b82805482825590600052602060002090601f016020900481019282156130775791602002820160005b8382111561304857835183826101000a81548160ff021916908360ff160217905550926020019260010160208160000104928301926001030261300a565b80156130755782816101000a81549060ff0219169055600101602081600001049283019260010302613048565b505b50905061308491906130a2565b5090565b604051806040016040528060008152602001600081525090565b5b808211156130bb5760008160009055506001016130a3565b5090565b6000813590506130ce81613c33565b92915050565b6000813590506130e381613c4a565b92915050565b600082601f8301126130fa57600080fd5b813561310d61310882613a41565b613a10565b9150818183526020840193506020810190508385602084028201111561313257600080fd5b60005b8381101561316257816131488882613275565b845260208401935060208301925050600181019050613135565b5050505092915050565b60008135905061317b81613c61565b92915050565b60008135905061319081613c78565b92915050565b600082601f8301126131a757600080fd5b81356131ba6131b582613a6d565b613a10565b915080825260208301602083018583830111156131d657600080fd5b6131e1838284613bde565b50505092915050565b6000815190506131f981613c8f565b92915050565b60006040828403121561321157600080fd5b61321b6040613a10565b9050600061322b84828501613260565b600083015250602061323f84828501613260565b60208301525092915050565b60008135905061325a81613ca6565b92915050565b60008135905061326f81613cbd565b92915050565b60008135905061328481613cd4565b92915050565b60006020828403121561329c57600080fd5b60006132aa848285016130bf565b91505092915050565b6000602082840312156132c557600080fd5b60006132d3848285016130d4565b91505092915050565b600080604083850312156132ef57600080fd5b60006132fd858286016130bf565b925050602061330e858286016130bf565b9150509250929050565b60008060006060848603121561332d57600080fd5b600061333b868287016130bf565b935050602061334c868287016130bf565b925050604061335d86828701613260565b9150509250925092565b6000806000806080858703121561337d57600080fd5b600061338b878288016130bf565b945050602061339c878288016130bf565b93505060406133ad87828801613260565b925050606085013567ffffffffffffffff8111156133ca57600080fd5b6133d687828801613196565b91505092959194509250565b600080604083850312156133f557600080fd5b6000613403858286016130bf565b92505060206134148582860161316c565b9150509250929050565b6000806040838503121561343157600080fd5b600061343f858286016130bf565b925050602061345085828601613260565b9150509250929050565b6000806060838503121561346d57600080fd5b600083013567ffffffffffffffff81111561348757600080fd5b613493858286016130e9565b92505060206134a4858286016131ff565b9150509250929050565b6000602082840312156134c057600080fd5b60006134ce84828501613181565b91505092915050565b6000602082840312156134e957600080fd5b60006134f7848285016131ea565b91505092915050565b60006020828403121561351257600080fd5b60006135208482850161324b565b91505092915050565b60006020828403121561353b57600080fd5b600061354984828501613260565b91505092915050565b600061355e83836137b7565b905092915050565b600061357283836138ca565b60208301905092915050565b61358781613b2b565b82525050565b61359681613b2b565b82525050565b60006135a782613abd565b6135b18185613af8565b9350836020820285016135c385613a9d565b8060005b858110156135ff57848403895281516135e08582613552565b94506135eb83613ade565b925060208a019950506001810190506135c7565b50829750879550505050505092915050565b600061361c82613ac8565b6136268185613b09565b935061363183613aad565b8060005b838110156136625781516136498882613566565b975061365483613aeb565b925050600181019050613635565b5085935050505092915050565b61367881613b4f565b82525050565b600061368982613ad3565b6136938185613b1a565b93506136a3818560208601613bed565b6136ac81613c22565b840191505092915050565b60006136c4600a83613b1a565b91507f4f776e6572204f6e6c79000000000000000000000000000000000000000000006000830152602082019050919050565b6000613704601083613b1a565b91507f4e6f7420656e6f7567682066756e6473000000000000000000000000000000006000830152602082019050919050565b6000613744600f83613b1a565b91507f546f6f206d616e7920706978656c7300000000000000000000000000000000006000830152602082019050919050565b6000613784601883613b1a565b91507f496e76616c696420706978656c2064696d656e73696f6e7300000000000000006000830152602082019050919050565b600060a0830160008301516137cf60008601826138ac565b5060208301516137e2602086018261357e565b50604083015184820360408601526137fa8282613611565b915050606083015161380f606086018261387d565b508091505092915050565b600060a08301600083015161383260008601826138ac565b506020830151613845602086018261357e565b506040830151848203604086015261385d8282613611565b9150506060830151613872606086018261387d565b508091505092915050565b60408201600082015161389360008501826138ac565b5060208201516138a660208501826138ac565b50505050565b6138b581613bc7565b82525050565b6138c481613bc7565b82525050565b6138d381613bd1565b82525050565b60006020820190506138ee600083018461358d565b92915050565b6000602082019050818103600083015261390e818461359c565b905092915050565b600060208201905061392b600083018461366f565b92915050565b6000602082019050818103600083015261394b818461367e565b905092915050565b6000602082019050818103600083015261396c816136b7565b9050919050565b6000602082019050818103600083015261398c816136f7565b9050919050565b600060208201905081810360008301526139ac81613737565b9050919050565b600060208201905081810360008301526139cc81613777565b9050919050565b600060208201905081810360008301526139ed818461381a565b905092915050565b6000602082019050613a0a60008301846138bb565b92915050565b6000604051905081810181811067ffffffffffffffff82111715613a3757613a36613c20565b5b8060405250919050565b600067ffffffffffffffff821115613a5c57613a5b613c20565b5b602082029050602081019050919050565b600067ffffffffffffffff821115613a8857613a87613c20565b5b601f19601f8301169050602081019050919050565b6000819050602082019050919050565b6000819050602082019050919050565b600081519050919050565b600081519050919050565b600081519050919050565b6000602082019050919050565b6000602082019050919050565b600082825260208201905092915050565b600082825260208201905092915050565b600082825260208201905092915050565b6000613b3682613ba7565b9050919050565b6000613b4882613ba7565b9050919050565b60008115159050919050565b60007fffffffff0000000000000000000000000000000000000000000000000000000082169050919050565b6000613b9282613b2b565b9050919050565b600061ffff82169050919050565b600073ffffffffffffffffffffffffffffffffffffffff82169050919050565b6000819050919050565b600060ff82169050919050565b82818337600083830152505050565b60005b83811015613c0b578082015181840152602081019050613bf0565b83811115613c1a576000848401525b50505050565bfe5b6000601f19601f8301169050919050565b613c3c81613b2b565b8114613c4757600080fd5b50565b613c5381613b3d565b8114613c5e57600080fd5b50565b613c6a81613b4f565b8114613c7557600080fd5b50565b613c8181613b5b565b8114613c8c57600080fd5b50565b613c9881613b87565b8114613ca357600080fd5b50565b613caf81613b99565b8114613cba57600080fd5b50565b613cc681613bc7565b8114613cd157600080fd5b50565b613cdd81613bd1565b8114613ce857600080fd5b5056fe456e756d657261626c655365743a20696e646578206f7574206f6620626f756e64734552433732313a207472616e7366657220746f206e6f6e20455243373231526563656976657220696d706c656d656e7465724f776e61626c653a206e6577206f776e657220697320746865207a65726f20616464726573734552433732313a207472616e7366657220746f20746865207a65726f2061646472657373416464726573733a20696e73756666696369656e742062616c616e636520666f722063616c6c4552433732313a206f70657261746f7220717565727920666f72206e6f6e6578697374656e7420746f6b656e4552433732313a20617070726f76652063616c6c6572206973206e6f74206f776e6572206e6f7220617070726f76656420666f7220616c6c4552433732313a2062616c616e636520717565727920666f7220746865207a65726f20616464726573734552433732313a206f776e657220717565727920666f72206e6f6e6578697374656e7420746f6b656e456e756d657261626c654d61703a20696e646578206f7574206f6620626f756e64734552433732313a20617070726f76656420717565727920666f72206e6f6e6578697374656e7420746f6b656e4552433732313a207472616e73666572206f6620746f6b656e2074686174206973206e6f74206f776e4552433732314d657461646174613a2055524920717565727920666f72206e6f6e6578697374656e7420746f6b656e4552433732313a20617070726f76616c20746f2063757272656e74206f776e65724552433732313a207472616e736665722063616c6c6572206973206e6f74206f776e6572206e6f7220617070726f766564a26469706673582212204562904a20c22cb6c459039d3e6980ec4ae2ace97bca265c86b0ef7c2e84af3164736f6c63430007040033",
  "immutableReferences": {},
  "source": "// SPDX-License-Identifier: MIT\npragma solidity 0.7.4;\npragma experimental ABIEncoderV2;\n\nimport { ERC721 } from \"@openzeppelin/contracts/token/ERC721/ERC721.sol\";\nimport { RectMath } from \"./utils/RectMath.sol\";\nimport { CustomStructs } from \"./utils/CustomStructs.sol\";\nimport { Ownable } from \"@openzeppelin/contracts/access/Ownable.sol\";\nimport { ProxyRegistry } from \"./ProxyRegistry.sol\";\n\ncontract DARToken is ERC721, Ownable {\n\n    address payable contractOwner;\n    address proxyRegistryAddress;\n    uint256 private _currentTokenID;\n    uint256 public maxPixelsPerExhibit;\n    uint256 public fee;\n    mapping (uint256 => uint8[]) rgbArray;\n    mapping (uint256 => CustomStructs.Dimensions) dartDimension;\n\n    constructor(address payable _owner, uint256 _fee, address _proxyRegistryAddress) ERC721(\"DecentralizedArt\", \"DRT\") {\n        contractOwner = _owner;\n        fee = _fee;\n        proxyRegistryAddress = _proxyRegistryAddress;\n    }\n\n    function getDarts() public view returns(CustomStructs.DartResp[] memory) {\n        CustomStructs.DartResp[] memory _darts = new CustomStructs.DartResp[](_currentTokenID);\n        for (uint16 i = 0; i < _currentTokenID; i++) {\n            uint8[] memory _rgbArray = rgbArray[i];\n            CustomStructs.Dimensions memory _dimensions = dartDimension[i];\n            CustomStructs.DartResp memory resp = CustomStructs.DartResp({\n                dartId: i,\n                owner: ownerOf(i),\n                rgbArray: _rgbArray,\n                dimensions: _dimensions\n            });\n             _darts[i] = resp;\n        }\n        return _darts;\n    }\n\n    function getDart(uint256 _tokenId) public view returns(CustomStructs.DartResp memory) {\n        return CustomStructs.DartResp({\n            dartId: _tokenId,\n            owner: ownerOf(_tokenId),\n            rgbArray: rgbArray[_tokenId],\n            dimensions: dartDimension[_tokenId]\n        });\n    }\n\n    function createDart(uint8[] memory _pixels, CustomStructs.Dimensions memory _dimensions) public payable \n                                                                    isValidLength(uint256((_pixels.length / 4)), _dimensions) \n                                                                    isPixelsValid(_pixels) { \n\n        require(msg.sender.balance >= msg.value, \"Not enough funds\");\n        rgbArray[_currentTokenID] = _pixels;\n        dartDimension[_currentTokenID] = _dimensions;\n        contractOwner.transfer(msg.value);\n        _mint(msg.sender, _currentTokenID);\n        _incrementTokenId();\n    }\n\n    // Helpers\n    function _incrementTokenId() internal {\n        _currentTokenID++;\n    }\n\n    function getHashFromCords(uint256 x, uint256 y) internal pure returns (bytes32) {\n        return sha256(abi.encodePacked(x, y));\n   }\n\n    // Admin\n    function changeContactOwner(address payable _owner) public isContractOwner {\n        contractOwner = _owner;\n    }\n\n    function changeMaxPixelsPerExhibit(uint16 _max) public isContractOwner {\n        maxPixelsPerExhibit = _max;\n    }\n\n    modifier isContractOwner() {\n        require(msg.sender == contractOwner, \"Owner Only\");\n        _;\n    }\n\n    modifier isValidLength(uint256 length, CustomStructs.Dimensions memory _dimensions) {\n        require(RectMath.validLength(length, _dimensions), \"Invalid pixel dimensions\");\n        _;\n    }\n\n    modifier isPixelsValid(uint8[] memory _pixels) {\n        require(_pixels.length <= maxPixelsPerExhibit * 4, \"Too many pixels\");\n        _;\n    }\n\n    // Overrides\n    function isApprovedForAll(address owner, address operator) public view override returns (bool) {\n        ProxyRegistry proxyRegistry = ProxyRegistry(proxyRegistryAddress);\n        if (address(proxyRegistry.proxies(owner)) == operator) {\n            return true;\n        }\n        return super.isApprovedForAll(owner, operator);\n    }\n}",
  "sourcePath": "/Users/adamgeiger/git/DAPP/contracts/DARToken.sol",
  "compiler": {
    "name": "solc",
    "version": "0.7.4+commit.3f05b770.Emscripten.clang"
  },
  "schemaVersion": "3.3.3",
  "updatedAt": "2021-03-21T18:30:38.515Z",
  "networkType": "ethereum",
  "devdoc": {
    "kind": "dev",
    "methods": {
      "approve(address,uint256)": {
        "details": "See {IERC721-approve}."
      },
      "balanceOf(address)": {
        "details": "See {IERC721-balanceOf}."
      },
      "baseURI()": {
        "details": "Returns the base URI set via {_setBaseURI}. This will be automatically added as a prefix in {tokenURI} to each token's URI, or to the token ID if no specific URI is set for that token ID."
      },
      "getApproved(uint256)": {
        "details": "See {IERC721-getApproved}."
      },
      "isApprovedForAll(address,address)": {
        "details": "See {IERC721-isApprovedForAll}."
      },
      "name()": {
        "details": "See {IERC721Metadata-name}."
      },
      "owner()": {
        "details": "Returns the address of the current owner."
      },
      "ownerOf(uint256)": {
        "details": "See {IERC721-ownerOf}."
      },
      "renounceOwnership()": {
        "details": "Leaves the contract without owner. It will not be possible to call `onlyOwner` functions anymore. Can only be called by the current owner. NOTE: Renouncing ownership will leave the contract without an owner, thereby removing any functionality that is only available to the owner."
      },
      "safeTransferFrom(address,address,uint256)": {
        "details": "See {IERC721-safeTransferFrom}."
      },
      "safeTransferFrom(address,address,uint256,bytes)": {
        "details": "See {IERC721-safeTransferFrom}."
      },
      "setApprovalForAll(address,bool)": {
        "details": "See {IERC721-setApprovalForAll}."
      },
      "supportsInterface(bytes4)": {
        "details": "See {IERC165-supportsInterface}. Time complexity O(1), guaranteed to always use less than 30 000 gas."
      },
      "symbol()": {
        "details": "See {IERC721Metadata-symbol}."
      },
      "tokenByIndex(uint256)": {
        "details": "See {IERC721Enumerable-tokenByIndex}."
      },
      "tokenOfOwnerByIndex(address,uint256)": {
        "details": "See {IERC721Enumerable-tokenOfOwnerByIndex}."
      },
      "tokenURI(uint256)": {
        "details": "See {IERC721Metadata-tokenURI}."
      },
      "totalSupply()": {
        "details": "See {IERC721Enumerable-totalSupply}."
      },
      "transferFrom(address,address,uint256)": {
        "details": "See {IERC721-transferFrom}."
      },
      "transferOwnership(address)": {
        "details": "Transfers ownership of the contract to a new account (`newOwner`). Can only be called by the current owner."
      }
    },
    "version": 1
  },
  "userdoc": {
    "kind": "user",
    "methods": {},
    "version": 1
  }
}