{
  "contractName": "DARToken",
  "abi": [
    {
      "inputs": [
        {
          "internalType": "address payable",
          "name": "_owner",
          "type": "address"
        },
        {
          "internalType": "uint256",
          "name": "_fee",
          "type": "uint256"
        },
        {
          "internalType": "uint256",
          "name": "_max",
          "type": "uint256"
        },
        {
          "internalType": "address",
          "name": "_proxyRegistryAddress",
          "type": "address"
        },
        {
          "internalType": "string",
          "name": "_baseUri",
          "type": "string"
        }
      ],
      "stateMutability": "nonpayable",
      "type": "constructor"
    },
    {
      "anonymous": false,
      "inputs": [
        {
          "indexed": true,
          "internalType": "address",
          "name": "owner",
          "type": "address"
        },
        {
          "indexed": true,
          "internalType": "address",
          "name": "approved",
          "type": "address"
        },
        {
          "indexed": true,
          "internalType": "uint256",
          "name": "tokenId",
          "type": "uint256"
        }
      ],
      "name": "Approval",
      "type": "event"
    },
    {
      "anonymous": false,
      "inputs": [
        {
          "indexed": true,
          "internalType": "address",
          "name": "owner",
          "type": "address"
        },
        {
          "indexed": true,
          "internalType": "address",
          "name": "operator",
          "type": "address"
        },
        {
          "indexed": false,
          "internalType": "bool",
          "name": "approved",
          "type": "bool"
        }
      ],
      "name": "ApprovalForAll",
      "type": "event"
    },
    {
      "anonymous": false,
      "inputs": [
        {
          "indexed": true,
          "internalType": "address",
          "name": "previousOwner",
          "type": "address"
        },
        {
          "indexed": true,
          "internalType": "address",
          "name": "newOwner",
          "type": "address"
        }
      ],
      "name": "OwnershipTransferred",
      "type": "event"
    },
    {
      "anonymous": false,
      "inputs": [
        {
          "indexed": true,
          "internalType": "address",
          "name": "from",
          "type": "address"
        },
        {
          "indexed": true,
          "internalType": "address",
          "name": "to",
          "type": "address"
        },
        {
          "indexed": true,
          "internalType": "uint256",
          "name": "tokenId",
          "type": "uint256"
        }
      ],
      "name": "Transfer",
      "type": "event"
    },
    {
      "inputs": [
        {
          "internalType": "address",
          "name": "to",
          "type": "address"
        },
        {
          "internalType": "uint256",
          "name": "tokenId",
          "type": "uint256"
        }
      ],
      "name": "approve",
      "outputs": [],
      "stateMutability": "nonpayable",
      "type": "function"
    },
    {
      "inputs": [
        {
          "internalType": "address",
          "name": "owner",
          "type": "address"
        }
      ],
      "name": "balanceOf",
      "outputs": [
        {
          "internalType": "uint256",
          "name": "",
          "type": "uint256"
        }
      ],
      "stateMutability": "view",
      "type": "function",
      "constant": true
    },
    {
      "inputs": [],
      "name": "baseURI",
      "outputs": [
        {
          "internalType": "string",
          "name": "",
          "type": "string"
        }
      ],
      "stateMutability": "view",
      "type": "function",
      "constant": true
    },
    {
      "inputs": [],
      "name": "fee",
      "outputs": [
        {
          "internalType": "uint256",
          "name": "",
          "type": "uint256"
        }
      ],
      "stateMutability": "view",
      "type": "function",
      "constant": true
    },
    {
      "inputs": [
        {
          "internalType": "uint256",
          "name": "tokenId",
          "type": "uint256"
        }
      ],
      "name": "getApproved",
      "outputs": [
        {
          "internalType": "address",
          "name": "",
          "type": "address"
        }
      ],
      "stateMutability": "view",
      "type": "function",
      "constant": true
    },
    {
      "inputs": [],
      "name": "maxPixelsPerDart",
      "outputs": [
        {
          "internalType": "uint256",
          "name": "",
          "type": "uint256"
        }
      ],
      "stateMutability": "view",
      "type": "function",
      "constant": true
    },
    {
      "inputs": [],
      "name": "name",
      "outputs": [
        {
          "internalType": "string",
          "name": "",
          "type": "string"
        }
      ],
      "stateMutability": "view",
      "type": "function",
      "constant": true
    },
    {
      "inputs": [],
      "name": "owner",
      "outputs": [
        {
          "internalType": "address",
          "name": "",
          "type": "address"
        }
      ],
      "stateMutability": "view",
      "type": "function",
      "constant": true
    },
    {
      "inputs": [
        {
          "internalType": "uint256",
          "name": "tokenId",
          "type": "uint256"
        }
      ],
      "name": "ownerOf",
      "outputs": [
        {
          "internalType": "address",
          "name": "",
          "type": "address"
        }
      ],
      "stateMutability": "view",
      "type": "function",
      "constant": true
    },
    {
      "inputs": [],
      "name": "renounceOwnership",
      "outputs": [],
      "stateMutability": "nonpayable",
      "type": "function"
    },
    {
      "inputs": [
        {
          "internalType": "address",
          "name": "from",
          "type": "address"
        },
        {
          "internalType": "address",
          "name": "to",
          "type": "address"
        },
        {
          "internalType": "uint256",
          "name": "tokenId",
          "type": "uint256"
        }
      ],
      "name": "safeTransferFrom",
      "outputs": [],
      "stateMutability": "nonpayable",
      "type": "function"
    },
    {
      "inputs": [
        {
          "internalType": "address",
          "name": "from",
          "type": "address"
        },
        {
          "internalType": "address",
          "name": "to",
          "type": "address"
        },
        {
          "internalType": "uint256",
          "name": "tokenId",
          "type": "uint256"
        },
        {
          "internalType": "bytes",
          "name": "_data",
          "type": "bytes"
        }
      ],
      "name": "safeTransferFrom",
      "outputs": [],
      "stateMutability": "nonpayable",
      "type": "function"
    },
    {
      "inputs": [
        {
          "internalType": "address",
          "name": "operator",
          "type": "address"
        },
        {
          "internalType": "bool",
          "name": "approved",
          "type": "bool"
        }
      ],
      "name": "setApprovalForAll",
      "outputs": [],
      "stateMutability": "nonpayable",
      "type": "function"
    },
    {
      "inputs": [
        {
          "internalType": "bytes4",
          "name": "interfaceId",
          "type": "bytes4"
        }
      ],
      "name": "supportsInterface",
      "outputs": [
        {
          "internalType": "bool",
          "name": "",
          "type": "bool"
        }
      ],
      "stateMutability": "view",
      "type": "function",
      "constant": true
    },
    {
      "inputs": [],
      "name": "symbol",
      "outputs": [
        {
          "internalType": "string",
          "name": "",
          "type": "string"
        }
      ],
      "stateMutability": "view",
      "type": "function",
      "constant": true
    },
    {
      "inputs": [
        {
          "internalType": "uint256",
          "name": "index",
          "type": "uint256"
        }
      ],
      "name": "tokenByIndex",
      "outputs": [
        {
          "internalType": "uint256",
          "name": "",
          "type": "uint256"
        }
      ],
      "stateMutability": "view",
      "type": "function",
      "constant": true
    },
    {
      "inputs": [
        {
          "internalType": "address",
          "name": "owner",
          "type": "address"
        },
        {
          "internalType": "uint256",
          "name": "index",
          "type": "uint256"
        }
      ],
      "name": "tokenOfOwnerByIndex",
      "outputs": [
        {
          "internalType": "uint256",
          "name": "",
          "type": "uint256"
        }
      ],
      "stateMutability": "view",
      "type": "function",
      "constant": true
    },
    {
      "inputs": [
        {
          "internalType": "uint256",
          "name": "tokenId",
          "type": "uint256"
        }
      ],
      "name": "tokenURI",
      "outputs": [
        {
          "internalType": "string",
          "name": "",
          "type": "string"
        }
      ],
      "stateMutability": "view",
      "type": "function",
      "constant": true
    },
    {
      "inputs": [],
      "name": "totalSupply",
      "outputs": [
        {
          "internalType": "uint256",
          "name": "",
          "type": "uint256"
        }
      ],
      "stateMutability": "view",
      "type": "function",
      "constant": true
    },
    {
      "inputs": [
        {
          "internalType": "address",
          "name": "from",
          "type": "address"
        },
        {
          "internalType": "address",
          "name": "to",
          "type": "address"
        },
        {
          "internalType": "uint256",
          "name": "tokenId",
          "type": "uint256"
        }
      ],
      "name": "transferFrom",
      "outputs": [],
      "stateMutability": "nonpayable",
      "type": "function"
    },
    {
      "inputs": [
        {
          "internalType": "address",
          "name": "newOwner",
          "type": "address"
        }
      ],
      "name": "transferOwnership",
      "outputs": [],
      "stateMutability": "nonpayable",
      "type": "function"
    },
    {
      "inputs": [],
      "name": "getDartsMeta",
      "outputs": [
        {
          "components": [
            {
              "internalType": "uint256",
              "name": "dartId",
              "type": "uint256"
            },
            {
              "internalType": "bytes32",
              "name": "name",
              "type": "bytes32"
            },
            {
              "internalType": "address",
              "name": "owner",
              "type": "address"
            },
            {
              "internalType": "uint256",
              "name": "createDate",
              "type": "uint256"
            }
          ],
          "internalType": "struct CustomStructs.MetaResp[]",
          "name": "",
          "type": "tuple[]"
        }
      ],
      "stateMutability": "view",
      "type": "function",
      "constant": true
    },
    {
      "inputs": [
        {
          "internalType": "uint256",
          "name": "_tokenId",
          "type": "uint256"
        }
      ],
      "name": "getDartMeta",
      "outputs": [
        {
          "components": [
            {
              "internalType": "uint256",
              "name": "dartId",
              "type": "uint256"
            },
            {
              "internalType": "bytes32",
              "name": "name",
              "type": "bytes32"
            },
            {
              "internalType": "address",
              "name": "owner",
              "type": "address"
            },
            {
              "internalType": "uint256",
              "name": "createDate",
              "type": "uint256"
            }
          ],
          "internalType": "struct CustomStructs.MetaResp",
          "name": "",
          "type": "tuple"
        }
      ],
      "stateMutability": "view",
      "type": "function",
      "constant": true
    },
    {
      "inputs": [
        {
          "internalType": "uint256",
          "name": "_tokenId",
          "type": "uint256"
        }
      ],
      "name": "getDartContent",
      "outputs": [
        {
          "components": [
            {
              "internalType": "uint8[]",
              "name": "rgbaArray",
              "type": "uint8[]"
            },
            {
              "components": [
                {
                  "internalType": "uint256",
                  "name": "height",
                  "type": "uint256"
                },
                {
                  "internalType": "uint256",
                  "name": "width",
                  "type": "uint256"
                }
              ],
              "internalType": "struct CustomStructs.Dimensions",
              "name": "dimensions",
              "type": "tuple"
            }
          ],
          "internalType": "struct CustomStructs.Content",
          "name": "",
          "type": "tuple"
        }
      ],
      "stateMutability": "view",
      "type": "function",
      "constant": true
    },
    {
      "inputs": [
        {
          "internalType": "uint8[]",
          "name": "_pixels",
          "type": "uint8[]"
        },
        {
          "components": [
            {
              "internalType": "uint256",
              "name": "height",
              "type": "uint256"
            },
            {
              "internalType": "uint256",
              "name": "width",
              "type": "uint256"
            }
          ],
          "internalType": "struct CustomStructs.Dimensions",
          "name": "_dimensions",
          "type": "tuple"
        },
        {
          "internalType": "bytes32",
          "name": "_name",
          "type": "bytes32"
        }
      ],
      "name": "createDart",
      "outputs": [],
      "stateMutability": "payable",
      "type": "function",
      "payable": true
    },
    {
      "inputs": [
        {
          "internalType": "address payable",
          "name": "_owner",
          "type": "address"
        }
      ],
      "name": "changeContactOwner",
      "outputs": [],
      "stateMutability": "nonpayable",
      "type": "function"
    },
    {
      "inputs": [
        {
          "internalType": "uint16",
          "name": "_max",
          "type": "uint16"
        }
      ],
      "name": "changeMaxPixelsPerExhibit",
      "outputs": [],
      "stateMutability": "nonpayable",
      "type": "function"
    },
    {
      "inputs": [
        {
          "internalType": "string",
          "name": "_uri",
          "type": "string"
        }
      ],
      "name": "changeBaseUri",
      "outputs": [],
      "stateMutability": "nonpayable",
      "type": "function"
    },
    {
      "inputs": [
        {
          "internalType": "address",
          "name": "owner",
          "type": "address"
        },
        {
          "internalType": "address",
          "name": "operator",
          "type": "address"
        }
      ],
      "name": "isApprovedForAll",
      "outputs": [
        {
          "internalType": "bool",
          "name": "",
          "type": "bool"
        }
      ],
      "stateMutability": "view",
      "type": "function",
      "constant": true
    }
  ],
  "bytecode": "0x60806040523480156200001157600080fd5b5060405162004a3038038062004a30833981810160405281019062000037919062000518565b6040518060400160405280601081526020017f446563656e7472616c697a6564417274000000000000000000000000000000008152506040518060400160405280600381526020017f4452540000000000000000000000000000000000000000000000000000000000815250620000bb6301ffc9a760e01b6200029460201b60201c565b8160069080519060200190620000d3929190620003c1565b508060079080519060200190620000ec929190620003c1565b50620001056380ac58cd60e01b6200029460201b60201c565b6200011d635b5e139f60e01b6200029460201b60201c565b6200013563780e9d6360e01b6200029460201b60201c565b50506000620001496200039d60201b60201c565b905080600a60006101000a81548173ffffffffffffffffffffffffffffffffffffffff021916908373ffffffffffffffffffffffffffffffffffffffff1602179055508073ffffffffffffffffffffffffffffffffffffffff16600073ffffffffffffffffffffffffffffffffffffffff167f8be0079c531659141344cd1fd0a4f28419497f9722a3daafe3b4186f6b6457e060405160405180910390a35084600b60006101000a81548173ffffffffffffffffffffffffffffffffffffffff021916908373ffffffffffffffffffffffffffffffffffffffff16021790555083600f8190555082600e8190555081600c60006101000a81548173ffffffffffffffffffffffffffffffffffffffff021916908373ffffffffffffffffffffffffffffffffffffffff1602179055506200028981620003a560201b60201c565b5050505050620006f2565b63ffffffff60e01b817bffffffffffffffffffffffffffffffffffffffffffffffffffffffff1916141562000331576040517f08c379a000000000000000000000000000000000000000000000000000000000815260040180806020018281038252601c8152602001807f4552433136353a20696e76616c696420696e746572666163652069640000000081525060200191505060405180910390fd5b6001600080837bffffffffffffffffffffffffffffffffffffffffffffffffffffffff19167bffffffffffffffffffffffffffffffffffffffffffffffffffffffff1916815260200190815260200160002060006101000a81548160ff02191690831515021790555050565b600033905090565b8060099080519060200190620003bd929190620003c1565b5050565b828054600181600116156101000203166002900490600052602060002090601f016020900481019282620003f9576000855562000445565b82601f106200041457805160ff191683800117855562000445565b8280016001018555821562000445579182015b828111156200044457825182559160200191906001019062000427565b5b50905062000454919062000458565b5090565b5b808211156200047357600081600090555060010162000459565b5090565b6000815190506200048881620006a4565b92915050565b6000815190506200049f81620006be565b92915050565b600082601f830112620004b757600080fd5b8151620004ce620004c882620005e7565b620005b3565b91508082526020830160208301858383011115620004eb57600080fd5b620004f88382846200066c565b50505092915050565b6000815190506200051281620006d8565b92915050565b600080600080600060a086880312156200053157600080fd5b600062000541888289016200048e565b9550506020620005548882890162000501565b9450506040620005678882890162000501565b93505060606200057a8882890162000477565b925050608086015167ffffffffffffffff8111156200059857600080fd5b620005a688828901620004a5565b9150509295509295909350565b6000604051905081810181811067ffffffffffffffff82111715620005dd57620005dc620006a2565b5b8060405250919050565b600067ffffffffffffffff821115620006055762000604620006a2565b5b601f19601f8301169050602081019050919050565b6000620006278262000642565b9050919050565b60006200063b8262000642565b9050919050565b600073ffffffffffffffffffffffffffffffffffffffff82169050919050565b6000819050919050565b60005b838110156200068c5780820151818401526020810190506200066f565b838111156200069c576000848401525b50505050565bfe5b620006af816200061a565b8114620006bb57600080fd5b50565b620006c9816200062e565b8114620006d557600080fd5b50565b620006e38162000662565b8114620006ef57600080fd5b50565b61432e80620007026000396000f3fe6080604052600436106101c25760003560e01c806370a08231116100f7578063b61075e511610095578063c87b56dd11610064578063c87b56dd14610657578063ddca3f4314610694578063e985e9c5146106bf578063f2fde38b146106fc576101c2565b8063b61075e5146105be578063b88d4fde146105e9578063bad88d2f14610612578063c3355a9f1461062e576101c2565b806395d89b41116100d157806395d89b4114610516578063a22cb46514610541578063a62f204e1461056a578063aab1f73914610593576101c2565b806370a0823114610497578063715018a6146104d45780638da5cb5b146104eb576101c2565b806323b872dd11610164578063492d306b1161013e578063492d306b146103c95780634f6ccce7146103f25780636352211e1461042f5780636c0360eb1461046c576101c2565b806323b872dd1461033a5780632f745c591461036357806342842e0e146103a0576101c2565b8063095ea7b3116101a0578063095ea7b31461026c5780630fdf4d531461029557806316cd3719146102d257806318160ddd1461030f576101c2565b806301ffc9a7146101c757806306fdde0314610204578063081812fc1461022f575b600080fd5b3480156101d357600080fd5b506101ee60048036038101906101e9919061377e565b610725565b6040516101fb9190613c44565b60405180910390f35b34801561021057600080fd5b5061021961078c565b6040516102269190613c5f565b60405180910390f35b34801561023b57600080fd5b506102566004803603810190610251919061383a565b61082e565b6040516102639190613c07565b60405180910390f35b34801561027857600080fd5b50610293600480360381019061028e91906136db565b6108c9565b005b3480156102a157600080fd5b506102bc60048036038101906102b7919061383a565b610a0d565b6040516102c99190613d23565b60405180910390f35b3480156102de57600080fd5b506102f960048036038101906102f4919061383a565b610aa0565b6040516103069190613d01565b60405180910390f35b34801561031b57600080fd5b50610324610b73565b6040516103319190613d3e565b60405180910390f35b34801561034657600080fd5b50610361600480360381019061035c91906135d5565b610b84565b005b34801561036f57600080fd5b5061038a600480360381019061038591906136db565b610bfa565b6040516103979190613d3e565b60405180910390f35b3480156103ac57600080fd5b506103c760048036038101906103c291906135d5565b610c55565b005b3480156103d557600080fd5b506103f060048036038101906103eb91906137d0565b610c75565b005b3480156103fe57600080fd5b506104196004803603810190610414919061383a565b610d11565b6040516104269190613d3e565b60405180910390f35b34801561043b57600080fd5b506104566004803603810190610451919061383a565b610d34565b6040516104639190613c07565b60405180910390f35b34801561047857600080fd5b50610481610d6b565b60405161048e9190613c5f565b60405180910390f35b3480156104a357600080fd5b506104be60048036038101906104b99190613547565b610e0d565b6040516104cb9190613d3e565b60405180910390f35b3480156104e057600080fd5b506104e9610ee2565b005b3480156104f757600080fd5b50610500611052565b60405161050d9190613c07565b60405180910390f35b34801561052257600080fd5b5061052b61107c565b6040516105389190613c5f565b60405180910390f35b34801561054d57600080fd5b506105686004803603810190610563919061369f565b61111e565b005b34801561057657600080fd5b50610591600480360381019061058c9190613570565b6112d4565b005b34801561059f57600080fd5b506105a86113a8565b6040516105b59190613d3e565b60405180910390f35b3480156105ca57600080fd5b506105d36113ae565b6040516105e09190613c22565b60405180910390f35b3480156105f557600080fd5b50610610600480360381019061060b9190613624565b6114e4565b005b61062c60048036038101906106279190613717565b61155c565b005b34801561063a57600080fd5b5061065560048036038101906106509190613811565b6117a4565b005b34801561066357600080fd5b5061067e6004803603810190610679919061383a565b611842565b60405161068b9190613c5f565b60405180910390f35b3480156106a057600080fd5b506106a9611b13565b6040516106b69190613d3e565b60405180910390f35b3480156106cb57600080fd5b506106e660048036038101906106e19190613599565b611b19565b6040516106f39190613c44565b60405180910390f35b34801561070857600080fd5b50610723600480360381019061071e9190613547565b611c1b565b005b6000806000837bffffffffffffffffffffffffffffffffffffffffffffffffffffffff19167bffffffffffffffffffffffffffffffffffffffffffffffffffffffff1916815260200190815260200160002060009054906101000a900460ff169050919050565b606060068054600181600116156101000203166002900480601f0160208091040260200160405190810160405280929190818152602001828054600181600116156101000203166002900480156108245780601f106107f957610100808354040283529160200191610824565b820191906000526020600020905b81548152906001019060200180831161080757829003601f168201915b5050505050905090565b600061083982611e10565b61088e576040517f08c379a000000000000000000000000000000000000000000000000000000000815260040180806020018281038252602c815260200180614223602c913960400191505060405180910390fd5b6004600083815260200190815260200160002060009054906101000a900473ffffffffffffffffffffffffffffffffffffffff169050919050565b60006108d482610d34565b90508073ffffffffffffffffffffffffffffffffffffffff168373ffffffffffffffffffffffffffffffffffffffff16141561095b576040517f08c379a00000000000000000000000000000000000000000000000000000000081526004018080602001828103825260218152602001806142a76021913960400191505060405180910390fd5b8073ffffffffffffffffffffffffffffffffffffffff1661097a611e2d565b73ffffffffffffffffffffffffffffffffffffffff1614806109a957506109a8816109a3611e2d565b611e35565b5b6109fe576040517f08c379a00000000000000000000000000000000000000000000000000000000081526004018080602001828103825260388152602001806141766038913960400191505060405180910390fd5b610a088383611ec9565b505050565b610a15613129565b610a1d61316a565b60106000848152602001908152602001600020604051806040016040529081600082015481526020016001820154815250509050604051806080016040528084815260200182600001518152602001610a7585610d34565b73ffffffffffffffffffffffffffffffffffffffff1681526020018260200151815250915050919050565b610aa8613187565b6011600083815260200190815260200160002060405180604001604052908160008201805480602002602001604051908101604052809291908181526020018280548015610b3b57602002820191906000526020600020906000905b82829054906101000a900460ff1660ff1681526020019060010190602082600001049283019260010382029150808411610b045790505b505050505081526020016001820160405180604001604052908160008201548152602001600182015481525050815250509050919050565b6000610b7f6002611f82565b905090565b610b95610b8f611e2d565b82611f97565b610bea576040517f08c379a00000000000000000000000000000000000000000000000000000000081526004018080602001828103825260318152602001806142c86031913960400191505060405180910390fd5b610bf583838361208b565b505050565b6000610c4d82600160008673ffffffffffffffffffffffffffffffffffffffff1673ffffffffffffffffffffffffffffffffffffffff1681526020019081526020016000206122ce90919063ffffffff16565b905092915050565b610c70838383604051806020016040528060008152506114e4565b505050565b600b60009054906101000a900473ffffffffffffffffffffffffffffffffffffffff1673ffffffffffffffffffffffffffffffffffffffff163373ffffffffffffffffffffffffffffffffffffffff1614610d05576040517f08c379a0000000000000000000000000000000000000000000000000000000008152600401610cfc90613c81565b60405180910390fd5b610d0e816122e8565b50565b600080610d2883600261230290919063ffffffff16565b50905080915050919050565b6000610d64826040518060600160405280602981526020016141d860299139600261232e9092919063ffffffff16565b9050919050565b606060098054600181600116156101000203166002900480601f016020809104026020016040519081016040528092919081815260200182805460018160011615610100020316600290048015610e035780601f10610dd857610100808354040283529160200191610e03565b820191906000526020600020905b815481529060010190602001808311610de657829003601f168201915b5050505050905090565b60008073ffffffffffffffffffffffffffffffffffffffff168273ffffffffffffffffffffffffffffffffffffffff161415610e94576040517f08c379a000000000000000000000000000000000000000000000000000000000815260040180806020018281038252602a8152602001806141ae602a913960400191505060405180910390fd5b610edb600160008473ffffffffffffffffffffffffffffffffffffffff1673ffffffffffffffffffffffffffffffffffffffff16815260200190815260200160002061234d565b9050919050565b610eea611e2d565b73ffffffffffffffffffffffffffffffffffffffff16610f08611052565b73ffffffffffffffffffffffffffffffffffffffff1614610f91576040517f08c379a00000000000000000000000000000000000000000000000000000000081526004018080602001828103825260208152602001807f4f776e61626c653a2063616c6c6572206973206e6f7420746865206f776e657281525060200191505060405180910390fd5b600073ffffffffffffffffffffffffffffffffffffffff16600a60009054906101000a900473ffffffffffffffffffffffffffffffffffffffff1673ffffffffffffffffffffffffffffffffffffffff167f8be0079c531659141344cd1fd0a4f28419497f9722a3daafe3b4186f6b6457e060405160405180910390a36000600a60006101000a81548173ffffffffffffffffffffffffffffffffffffffff021916908373ffffffffffffffffffffffffffffffffffffffff160217905550565b6000600a60009054906101000a900473ffffffffffffffffffffffffffffffffffffffff16905090565b606060078054600181600116156101000203166002900480601f0160208091040260200160405190810160405280929190818152602001828054600181600116156101000203166002900480156111145780601f106110e957610100808354040283529160200191611114565b820191906000526020600020905b8154815290600101906020018083116110f757829003601f168201915b5050505050905090565b611126611e2d565b73ffffffffffffffffffffffffffffffffffffffff168273ffffffffffffffffffffffffffffffffffffffff1614156111c7576040517f08c379a00000000000000000000000000000000000000000000000000000000081526004018080602001828103825260198152602001807f4552433732313a20617070726f766520746f2063616c6c65720000000000000081525060200191505060405180910390fd5b80600560006111d4611e2d565b73ffffffffffffffffffffffffffffffffffffffff1673ffffffffffffffffffffffffffffffffffffffff16815260200190815260200160002060008473ffffffffffffffffffffffffffffffffffffffff1673ffffffffffffffffffffffffffffffffffffffff16815260200190815260200160002060006101000a81548160ff0219169083151502179055508173ffffffffffffffffffffffffffffffffffffffff16611281611e2d565b73ffffffffffffffffffffffffffffffffffffffff167f17307eab39ab6107e8899845ad3d59bd9653f200f220920489ca2b5937696c318360405180821515815260200191505060405180910390a35050565b600b60009054906101000a900473ffffffffffffffffffffffffffffffffffffffff1673ffffffffffffffffffffffffffffffffffffffff163373ffffffffffffffffffffffffffffffffffffffff1614611364576040517f08c379a000000000000000000000000000000000000000000000000000000000815260040161135b90613c81565b60405180910390fd5b80600b60006101000a81548173ffffffffffffffffffffffffffffffffffffffff021916908373ffffffffffffffffffffffffffffffffffffffff16021790555050565b600e5481565b606080600d5467ffffffffffffffff811180156113ca57600080fd5b5060405190808252806020026020018201604052801561140457816020015b6113f1613129565b8152602001906001900390816113e95790505b50905060005b600d548161ffff1610156114dc5761142061316a565b601060008361ffff168152602001908152602001600020604051806040016040529081600082015481526020016001820154815250509050611460613129565b60405180608001604052808461ffff1681526020018360000151815260200161148c8561ffff16610d34565b73ffffffffffffffffffffffffffffffffffffffff1681526020018360200151815250905080848461ffff16815181106114c257fe5b60200260200101819052505050808060010191505061140a565b508091505090565b6114f56114ef611e2d565b83611f97565b61154a576040517f08c379a00000000000000000000000000000000000000000000000000000000081526004018080602001828103825260318152602001806142c86031913960400191505060405180910390fd5b61155684848484612362565b50505050565b600483518161156757fe5b048261157382826123d4565b6115b2576040517f08c379a00000000000000000000000000000000000000000000000000000000081526004016115a990613ce1565b60405180910390fd5b60048551816115bd57fe5b04600e54811115611603576040517f08c379a00000000000000000000000000000000000000000000000000000000081526004016115fa90613cc1565b60405180910390fd5b343373ffffffffffffffffffffffffffffffffffffffff1631101561165d576040517f08c379a000000000000000000000000000000000000000000000000000000000815260040161165490613ca1565b60405180910390fd5b611665613187565b604051806040016040528088815260200187815250905061168461316a565b60405180604001604052808781526020014281525090508160116000600d54815260200190815260200160002060008201518160000190805190602001906116cd9291906131a7565b50602082015181600101600082015181600001556020820151816001015550509050508060106000600d5481526020019081526020016000206000820151816000015560208201518160010155905050600b60009054906101000a900473ffffffffffffffffffffffffffffffffffffffff1673ffffffffffffffffffffffffffffffffffffffff166108fc349081150290604051600060405180830381858888f19350505050158015611785573d6000803e3d6000fd5b5061179233600d546123eb565b61179a6125df565b5050505050505050565b600b60009054906101000a900473ffffffffffffffffffffffffffffffffffffffff1673ffffffffffffffffffffffffffffffffffffffff163373ffffffffffffffffffffffffffffffffffffffff1614611834576040517f08c379a000000000000000000000000000000000000000000000000000000000815260040161182b90613c81565b60405180910390fd5b8061ffff16600e8190555050565b606061184d82611e10565b6118a2576040517f08c379a000000000000000000000000000000000000000000000000000000000815260040180806020018281038252602f815260200180614278602f913960400191505060405180910390fd5b6060600860008481526020019081526020016000208054600181600116156101000203166002900480601f01602080910402602001604051908101604052809291908181526020018280546001816001161561010002031660029004801561194b5780601f106119205761010080835404028352916020019161194b565b820191906000526020600020905b81548152906001019060200180831161192e57829003601f168201915b50505050509050606061195c610d6b565b9050600081511415611972578192505050611b0e565b600082511115611a435780826040516020018083805190602001908083835b602083106119b45780518252602082019150602081019050602083039250611991565b6001836020036101000a03801982511681845116808217855250505050505090500182805190602001908083835b60208310611a0557805182526020820191506020810190506020830392506119e2565b6001836020036101000a0380198251168184511680821785525050505050509050019250505060405160208183030381529060405292505050611b0e565b80611a4d856125f3565b6040516020018083805190602001908083835b60208310611a835780518252602082019150602081019050602083039250611a60565b6001836020036101000a03801982511681845116808217855250505050505090500182805190602001908083835b60208310611ad45780518252602082019150602081019050602083039250611ab1565b6001836020036101000a03801982511681845116808217855250505050505090500192505050604051602081830303815290604052925050505b919050565b600f5481565b600080600c60009054906101000a900473ffffffffffffffffffffffffffffffffffffffff1690508273ffffffffffffffffffffffffffffffffffffffff168173ffffffffffffffffffffffffffffffffffffffff1663c4552791866040518263ffffffff1660e01b8152600401611b919190613c07565b60206040518083038186803b158015611ba957600080fd5b505afa158015611bbd573d6000803e3d6000fd5b505050506040513d601f19601f82011682018060405250810190611be191906137a7565b73ffffffffffffffffffffffffffffffffffffffff161415611c07576001915050611c15565b611c118484611e35565b9150505b92915050565b611c23611e2d565b73ffffffffffffffffffffffffffffffffffffffff16611c41611052565b73ffffffffffffffffffffffffffffffffffffffff1614611cca576040517f08c379a00000000000000000000000000000000000000000000000000000000081526004018080602001828103825260208152602001807f4f776e61626c653a2063616c6c6572206973206e6f7420746865206f776e657281525060200191505060405180910390fd5b600073ffffffffffffffffffffffffffffffffffffffff168173ffffffffffffffffffffffffffffffffffffffff161415611d50576040517f08c379a00000000000000000000000000000000000000000000000000000000081526004018080602001828103825260268152602001806140da6026913960400191505060405180910390fd5b8073ffffffffffffffffffffffffffffffffffffffff16600a60009054906101000a900473ffffffffffffffffffffffffffffffffffffffff1673ffffffffffffffffffffffffffffffffffffffff167f8be0079c531659141344cd1fd0a4f28419497f9722a3daafe3b4186f6b6457e060405160405180910390a380600a60006101000a81548173ffffffffffffffffffffffffffffffffffffffff021916908373ffffffffffffffffffffffffffffffffffffffff16021790555050565b6000611e2682600261273a90919063ffffffff16565b9050919050565b600033905090565b6000600560008473ffffffffffffffffffffffffffffffffffffffff1673ffffffffffffffffffffffffffffffffffffffff16815260200190815260200160002060008373ffffffffffffffffffffffffffffffffffffffff1673ffffffffffffffffffffffffffffffffffffffff16815260200190815260200160002060009054906101000a900460ff16905092915050565b816004600083815260200190815260200160002060006101000a81548173ffffffffffffffffffffffffffffffffffffffff021916908373ffffffffffffffffffffffffffffffffffffffff160217905550808273ffffffffffffffffffffffffffffffffffffffff16611f3c83610d34565b73ffffffffffffffffffffffffffffffffffffffff167f8c5be1e5ebec7d5bd14f71427d1e84f3dd0314c0f7b2291e5b200ac8c7c3b92560405160405180910390a45050565b6000611f9082600001612754565b9050919050565b6000611fa282611e10565b611ff7576040517f08c379a000000000000000000000000000000000000000000000000000000000815260040180806020018281038252602c81526020018061414a602c913960400191505060405180910390fd5b600061200283610d34565b90508073ffffffffffffffffffffffffffffffffffffffff168473ffffffffffffffffffffffffffffffffffffffff16148061207157508373ffffffffffffffffffffffffffffffffffffffff166120598461082e565b73ffffffffffffffffffffffffffffffffffffffff16145b8061208257506120818185611e35565b5b91505092915050565b8273ffffffffffffffffffffffffffffffffffffffff166120ab82610d34565b73ffffffffffffffffffffffffffffffffffffffff1614612117576040517f08c379a000000000000000000000000000000000000000000000000000000000815260040180806020018281038252602981526020018061424f6029913960400191505060405180910390fd5b600073ffffffffffffffffffffffffffffffffffffffff168273ffffffffffffffffffffffffffffffffffffffff16141561219d576040517f08c379a00000000000000000000000000000000000000000000000000000000081526004018080602001828103825260248152602001806141006024913960400191505060405180910390fd5b6121a8838383612765565b6121b3600082611ec9565b61220481600160008673ffffffffffffffffffffffffffffffffffffffff1673ffffffffffffffffffffffffffffffffffffffff16815260200190815260200160002061276a90919063ffffffff16565b5061225681600160008573ffffffffffffffffffffffffffffffffffffffff1673ffffffffffffffffffffffffffffffffffffffff16815260200190815260200160002061278490919063ffffffff16565b5061226d8183600261279e9092919063ffffffff16565b50808273ffffffffffffffffffffffffffffffffffffffff168473ffffffffffffffffffffffffffffffffffffffff167fddf252ad1be2c89b69c2b068fc378daa952ba7f163c4a11628f55a4df523b3ef60405160405180910390a4505050565b60006122dd83600001836127d3565b60001c905092915050565b80600990805190602001906122fe92919061324e565b5050565b6000806000806123158660000186612856565b915091508160001c8160001c9350935050509250929050565b6000612341846000018460001b846128ef565b60001c90509392505050565b600061235b826000016129e5565b9050919050565b61236d84848461208b565b612379848484846129f6565b6123ce576040517f08c379a00000000000000000000000000000000000000000000000000000000081526004018080602001828103825260328152602001806140a86032913960400191505060405180910390fd5b50505050565b600081602001518260000151028314905092915050565b600073ffffffffffffffffffffffffffffffffffffffff168273ffffffffffffffffffffffffffffffffffffffff16141561248e576040517f08c379a00000000000000000000000000000000000000000000000000000000081526004018080602001828103825260208152602001807f4552433732313a206d696e7420746f20746865207a65726f206164647265737381525060200191505060405180910390fd5b61249781611e10565b1561250a576040517f08c379a000000000000000000000000000000000000000000000000000000000815260040180806020018281038252601c8152602001807f4552433732313a20746f6b656e20616c7265616479206d696e7465640000000081525060200191505060405180910390fd5b61251660008383612765565b61256781600160008573ffffffffffffffffffffffffffffffffffffffff1673ffffffffffffffffffffffffffffffffffffffff16815260200190815260200160002061278490919063ffffffff16565b5061257e8183600261279e9092919063ffffffff16565b50808273ffffffffffffffffffffffffffffffffffffffff16600073ffffffffffffffffffffffffffffffffffffffff167fddf252ad1be2c89b69c2b068fc378daa952ba7f163c4a11628f55a4df523b3ef60405160405180910390a45050565b600d60008154809291906001019190505550565b6060600082141561263b576040518060400160405280600181526020017f30000000000000000000000000000000000000000000000000000000000000008152509050612735565b600082905060005b60008214612665578080600101915050600a828161265d57fe5b049150612643565b60608167ffffffffffffffff8111801561267e57600080fd5b506040519080825280601f01601f1916602001820160405280156126b15781602001600182028036833780820191505090505b50905060006001830390508593505b6000841461272d57600a84816126d257fe5b0660300160f81b828280600190039350815181106126ec57fe5b60200101907effffffffffffffffffffffffffffffffffffffffffffffffffffffffffffff1916908160001a905350600a848161272557fe5b0493506126c0565b819450505050505b919050565b600061274c836000018360001b612c0f565b905092915050565b600081600001805490509050919050565b505050565b600061277c836000018360001b612c32565b905092915050565b6000612796836000018360001b612d1a565b905092915050565b60006127ca846000018460001b8473ffffffffffffffffffffffffffffffffffffffff1660001b612d8a565b90509392505050565b600081836000018054905011612834576040517f08c379a00000000000000000000000000000000000000000000000000000000081526004018080602001828103825260228152602001806140866022913960400191505060405180910390fd5b82600001828154811061284357fe5b9060005260206000200154905092915050565b600080828460000180549050116128b8576040517f08c379a00000000000000000000000000000000000000000000000000000000081526004018080602001828103825260228152602001806142016022913960400191505060405180910390fd5b60008460000184815481106128c957fe5b906000526020600020906002020190508060000154816001015492509250509250929050565b600080846001016000858152602001908152602001600020549050600081141583906129b6576040517f08c379a00000000000000000000000000000000000000000000000000000000081526004018080602001828103825283818151815260200191508051906020019080838360005b8381101561297b578082015181840152602081019050612960565b50505050905090810190601f1680156129a85780820380516001836020036101000a031916815260200191505b509250505060405180910390fd5b508460000160018203815481106129c957fe5b9060005260206000209060020201600101549150509392505050565b600081600001805490509050919050565b6000612a178473ffffffffffffffffffffffffffffffffffffffff16612e66565b612a245760019050612c07565b6060612b8e63150b7a0260e01b612a39611e2d565b888787604051602401808573ffffffffffffffffffffffffffffffffffffffff1681526020018473ffffffffffffffffffffffffffffffffffffffff16815260200183815260200180602001828103825283818151815260200191508051906020019080838360005b83811015612abd578082015181840152602081019050612aa2565b50505050905090810190601f168015612aea5780820380516001836020036101000a031916815260200191505b5095505050505050604051602081830303815290604052907bffffffffffffffffffffffffffffffffffffffffffffffffffffffff19166020820180517bffffffffffffffffffffffffffffffffffffffffffffffffffffffff83818316178352505050506040518060600160405280603281526020016140a8603291398773ffffffffffffffffffffffffffffffffffffffff16612e799092919063ffffffff16565b90506000818060200190516020811015612ba757600080fd5b8101908080519060200190929190505050905063150b7a0260e01b7bffffffffffffffffffffffffffffffffffffffffffffffffffffffff1916817bffffffffffffffffffffffffffffffffffffffffffffffffffffffff191614925050505b949350505050565b600080836001016000848152602001908152602001600020541415905092915050565b60008083600101600084815260200190815260200160002054905060008114612d0e5760006001820390506000600186600001805490500390506000866000018281548110612c7d57fe5b9060005260206000200154905080876000018481548110612c9a57fe5b9060005260206000200181905550600183018760010160008381526020019081526020016000208190555086600001805480612cd257fe5b60019003818190600052602060002001600090559055866001016000878152602001908152602001600020600090556001945050505050612d14565b60009150505b92915050565b6000612d268383612e91565b612d7f578260000182908060018154018082558091505060019003906000526020600020016000909190919091505582600001805490508360010160008481526020019081526020016000208190555060019050612d84565b600090505b92915050565b6000808460010160008581526020019081526020016000205490506000811415612e3157846000016040518060400160405280868152602001858152509080600181540180825580915050600190039060005260206000209060020201600090919091909150600082015181600001556020820151816001015550508460000180549050856001016000868152602001908152602001600020819055506001915050612e5f565b82856000016001830381548110612e4457fe5b90600052602060002090600202016001018190555060009150505b9392505050565b600080823b905060008111915050919050565b6060612e888484600085612eb4565b90509392505050565b600080836001016000848152602001908152602001600020541415905092915050565b606082471015612f0f576040517f08c379a00000000000000000000000000000000000000000000000000000000081526004018080602001828103825260268152602001806141246026913960400191505060405180910390fd5b612f1885612e66565b612f8a576040517f08c379a000000000000000000000000000000000000000000000000000000000815260040180806020018281038252601d8152602001807f416464726573733a2063616c6c20746f206e6f6e2d636f6e747261637400000081525060200191505060405180910390fd5b600060608673ffffffffffffffffffffffffffffffffffffffff1685876040518082805190602001908083835b60208310612fda5780518252602082019150602081019050602083039250612fb7565b6001836020036101000a03801982511681845116808217855250505050505090500191505060006040518083038185875af1925050503d806000811461303c576040519150601f19603f3d011682016040523d82523d6000602084013e613041565b606091505b509150915061305182828661305d565b92505050949350505050565b6060831561306d57829050613122565b6000835111156130805782518084602001fd5b816040517f08c379a00000000000000000000000000000000000000000000000000000000081526004018080602001828103825283818151815260200191508051906020019080838360005b838110156130e75780820151818401526020810190506130cc565b50505050905090810190601f1680156131145780820380516001836020036101000a031916815260200191505b509250505060405180910390fd5b9392505050565b60405180608001604052806000815260200160008019168152602001600073ffffffffffffffffffffffffffffffffffffffff168152602001600081525090565b604051806040016040528060008019168152602001600081525090565b6040518060400160405280606081526020016131a16132dc565b81525090565b82805482825590600052602060002090601f0160209004810192821561323d5791602002820160005b8382111561320e57835183826101000a81548160ff021916908360ff16021790555092602001926001016020816000010492830192600103026131d0565b801561323b5782816101000a81549060ff021916905560010160208160000104928301926001030261320e565b505b50905061324a91906132f6565b5090565b828054600181600116156101000203166002900490600052602060002090601f01602090048101928261328457600085556132cb565b82601f1061329d57805160ff19168380011785556132cb565b828001600101855582156132cb579182015b828111156132ca5782518255916020019190600101906132af565b5b5090506132d891906132f6565b5090565b604051806040016040528060008152602001600081525090565b5b8082111561330f5760008160009055506001016132f7565b5090565b60008135905061332281613fb6565b92915050565b60008135905061333781613fcd565b92915050565b600082601f83011261334e57600080fd5b813561336161335c82613d8a565b613d59565b9150818183526020840193506020810190508385602084028201111561338657600080fd5b60005b838110156133b6578161339c8882613532565b845260208401935060208301925050600181019050613389565b5050505092915050565b6000813590506133cf81613fe4565b92915050565b6000813590506133e481613ffb565b92915050565b6000813590506133f981614012565b92915050565b600082601f83011261341057600080fd5b813561342361341e82613db6565b613d59565b9150808252602083016020830185838301111561343f57600080fd5b61344a838284613f61565b50505092915050565b60008151905061346281614029565b92915050565b600082601f83011261347957600080fd5b813561348c61348782613de6565b613d59565b915080825260208301602083018583830111156134a857600080fd5b6134b3838284613f61565b50505092915050565b6000604082840312156134ce57600080fd5b6134d86040613d59565b905060006134e88482850161351d565b60008301525060206134fc8482850161351d565b60208301525092915050565b60008135905061351781614040565b92915050565b60008135905061352c81614057565b92915050565b6000813590506135418161406e565b92915050565b60006020828403121561355957600080fd5b600061356784828501613313565b91505092915050565b60006020828403121561358257600080fd5b600061359084828501613328565b91505092915050565b600080604083850312156135ac57600080fd5b60006135ba85828601613313565b92505060206135cb85828601613313565b9150509250929050565b6000806000606084860312156135ea57600080fd5b60006135f886828701613313565b935050602061360986828701613313565b925050604061361a8682870161351d565b9150509250925092565b6000806000806080858703121561363a57600080fd5b600061364887828801613313565b945050602061365987828801613313565b935050604061366a8782880161351d565b925050606085013567ffffffffffffffff81111561368757600080fd5b613693878288016133ff565b91505092959194509250565b600080604083850312156136b257600080fd5b60006136c085828601613313565b92505060206136d1858286016133c0565b9150509250929050565b600080604083850312156136ee57600080fd5b60006136fc85828601613313565b925050602061370d8582860161351d565b9150509250929050565b60008060006080848603121561372c57600080fd5b600084013567ffffffffffffffff81111561374657600080fd5b6137528682870161333d565b9350506020613763868287016134bc565b9250506060613774868287016133d5565b9150509250925092565b60006020828403121561379057600080fd5b600061379e848285016133ea565b91505092915050565b6000602082840312156137b957600080fd5b60006137c784828501613453565b91505092915050565b6000602082840312156137e257600080fd5b600082013567ffffffffffffffff8111156137fc57600080fd5b61380884828501613468565b91505092915050565b60006020828403121561382357600080fd5b600061383184828501613508565b91505092915050565b60006020828403121561384c57600080fd5b600061385a8482850161351d565b91505092915050565b600061386f8383613b30565b60808301905092915050565b60006138878383613bf8565b60208301905092915050565b61389c81613ea4565b82525050565b6138ab81613ea4565b82525050565b60006138bc82613e36565b6138c68185613e71565b93506138d183613e16565b8060005b838110156139025781516138e98882613863565b97506138f483613e57565b9250506001810190506138d5565b5085935050505092915050565b600061391a82613e41565b6139248185613e82565b935061392f83613e26565b8060005b83811015613960578151613947888261387b565b975061395283613e64565b925050600181019050613933565b5085935050505092915050565b61397681613ec8565b82525050565b61398581613ed4565b82525050565b600061399682613e4c565b6139a08185613e93565b93506139b0818560208601613f70565b6139b981613fa5565b840191505092915050565b60006139d1600a83613e93565b91507f4f776e6572204f6e6c79000000000000000000000000000000000000000000006000830152602082019050919050565b6000613a11601083613e93565b91507f4e6f7420656e6f7567682066756e6473000000000000000000000000000000006000830152602082019050919050565b6000613a51600f83613e93565b91507f546f6f206d616e7920706978656c7300000000000000000000000000000000006000830152602082019050919050565b6000613a91601883613e93565b91507f496e76616c696420706978656c2064696d656e73696f6e7300000000000000006000830152602082019050919050565b60006060830160008301518482036000860152613ae1828261390f565b9150506020830151613af66020860182613b01565b508091505092915050565b604082016000820151613b176000850182613bda565b506020820151613b2a6020850182613bda565b50505050565b608082016000820151613b466000850182613bda565b506020820151613b59602085018261397c565b506040820151613b6c6040850182613893565b506060820151613b7f6060850182613bda565b50505050565b608082016000820151613b9b6000850182613bda565b506020820151613bae602085018261397c565b506040820151613bc16040850182613893565b506060820151613bd46060850182613bda565b50505050565b613be381613f4a565b82525050565b613bf281613f4a565b82525050565b613c0181613f54565b82525050565b6000602082019050613c1c60008301846138a2565b92915050565b60006020820190508181036000830152613c3c81846138b1565b905092915050565b6000602082019050613c59600083018461396d565b92915050565b60006020820190508181036000830152613c79818461398b565b905092915050565b60006020820190508181036000830152613c9a816139c4565b9050919050565b60006020820190508181036000830152613cba81613a04565b9050919050565b60006020820190508181036000830152613cda81613a44565b9050919050565b60006020820190508181036000830152613cfa81613a84565b9050919050565b60006020820190508181036000830152613d1b8184613ac4565b905092915050565b6000608082019050613d386000830184613b85565b92915050565b6000602082019050613d536000830184613be9565b92915050565b6000604051905081810181811067ffffffffffffffff82111715613d8057613d7f613fa3565b5b8060405250919050565b600067ffffffffffffffff821115613da557613da4613fa3565b5b602082029050602081019050919050565b600067ffffffffffffffff821115613dd157613dd0613fa3565b5b601f19601f8301169050602081019050919050565b600067ffffffffffffffff821115613e0157613e00613fa3565b5b601f19601f8301169050602081019050919050565b6000819050602082019050919050565b6000819050602082019050919050565b600081519050919050565b600081519050919050565b600081519050919050565b6000602082019050919050565b6000602082019050919050565b600082825260208201905092915050565b600082825260208201905092915050565b600082825260208201905092915050565b6000613eaf82613f2a565b9050919050565b6000613ec182613f2a565b9050919050565b60008115159050919050565b6000819050919050565b60007fffffffff0000000000000000000000000000000000000000000000000000000082169050919050565b6000613f1582613ea4565b9050919050565b600061ffff82169050919050565b600073ffffffffffffffffffffffffffffffffffffffff82169050919050565b6000819050919050565b600060ff82169050919050565b82818337600083830152505050565b60005b83811015613f8e578082015181840152602081019050613f73565b83811115613f9d576000848401525b50505050565bfe5b6000601f19601f8301169050919050565b613fbf81613ea4565b8114613fca57600080fd5b50565b613fd681613eb6565b8114613fe157600080fd5b50565b613fed81613ec8565b8114613ff857600080fd5b50565b61400481613ed4565b811461400f57600080fd5b50565b61401b81613ede565b811461402657600080fd5b50565b61403281613f0a565b811461403d57600080fd5b50565b61404981613f1c565b811461405457600080fd5b50565b61406081613f4a565b811461406b57600080fd5b50565b61407781613f54565b811461408257600080fd5b5056fe456e756d657261626c655365743a20696e646578206f7574206f6620626f756e64734552433732313a207472616e7366657220746f206e6f6e20455243373231526563656976657220696d706c656d656e7465724f776e61626c653a206e6577206f776e657220697320746865207a65726f20616464726573734552433732313a207472616e7366657220746f20746865207a65726f2061646472657373416464726573733a20696e73756666696369656e742062616c616e636520666f722063616c6c4552433732313a206f70657261746f7220717565727920666f72206e6f6e6578697374656e7420746f6b656e4552433732313a20617070726f76652063616c6c6572206973206e6f74206f776e6572206e6f7220617070726f76656420666f7220616c6c4552433732313a2062616c616e636520717565727920666f7220746865207a65726f20616464726573734552433732313a206f776e657220717565727920666f72206e6f6e6578697374656e7420746f6b656e456e756d657261626c654d61703a20696e646578206f7574206f6620626f756e64734552433732313a20617070726f76656420717565727920666f72206e6f6e6578697374656e7420746f6b656e4552433732313a207472616e73666572206f6620746f6b656e2074686174206973206e6f74206f776e4552433732314d657461646174613a2055524920717565727920666f72206e6f6e6578697374656e7420746f6b656e4552433732313a20617070726f76616c20746f2063757272656e74206f776e65724552433732313a207472616e736665722063616c6c6572206973206e6f74206f776e6572206e6f7220617070726f766564a2646970667358221220b86cdc7197a893fed0b0a3f0872e53ea491611180d3c0d07ece09421b85d24b164736f6c63430007040033",
  "immutableReferences": {},
  "source": "// SPDX-License-Identifier: MIT\npragma solidity 0.7.4;\npragma experimental ABIEncoderV2;\n\nimport { ERC721 } from \"@openzeppelin/contracts/token/ERC721/ERC721.sol\";\nimport { RectMath } from \"./utils/RectMath.sol\";\nimport { CustomStructs } from \"./utils/CustomStructs.sol\";\nimport { Ownable } from \"@openzeppelin/contracts/access/Ownable.sol\";\nimport { ProxyRegistry } from \"./ProxyRegistry.sol\";\n\ncontract DARToken is ERC721, Ownable {\n\n    address payable contractOwner;\n    address proxyRegistryAddress;\n    uint256 private _currentTokenID;\n    uint256 public maxPixelsPerDart;\n    uint256 public fee;\n    mapping (uint256 => CustomStructs.Meta) dartMeta;\n    mapping (uint256 => CustomStructs.Content) dartContent;\n\n    constructor(address payable _owner, uint256 _fee, uint256 _max, address _proxyRegistryAddress, string memory _baseUri) ERC721(\"DecentralizedArt\", \"DRT\") {\n        contractOwner = _owner;\n        fee = _fee;\n        maxPixelsPerDart = _max;\n        proxyRegistryAddress = _proxyRegistryAddress;\n        _setBaseURI(_baseUri);\n    }\n\n    function getDartsMeta() public view returns(CustomStructs.MetaResp[] memory) {\n        CustomStructs.MetaResp[] memory _metas = new CustomStructs.MetaResp[](_currentTokenID);\n        for (uint16 i = 0; i < _currentTokenID; i++) {\n            CustomStructs.Meta memory _meta = dartMeta[i];\n            CustomStructs.MetaResp memory resp = CustomStructs.MetaResp({\n                dartId: i,\n                owner: ownerOf(i),\n                name: _meta.name,\n                createDate: _meta.createDate\n            });\n             _metas[i] = resp;\n        }\n        return _metas;\n    }\n\n    function getDartMeta(uint256 _tokenId) public view returns(CustomStructs.MetaResp memory) {\n        CustomStructs.Meta memory _meta = dartMeta[_tokenId];\n        return CustomStructs.MetaResp({\n            dartId: _tokenId,\n            owner: ownerOf(_tokenId),\n            name: _meta.name,\n            createDate: _meta.createDate\n        });\n    }\n\n    function getDartContent(uint256 _tokenId) public view returns(CustomStructs.Content memory) {\n        return dartContent[_tokenId];\n    }\n\n    function createDart(uint8[] memory _pixels, CustomStructs.Dimensions memory _dimensions, bytes32 _name) public payable \n                                                                    isValidLength(uint256((_pixels.length / 4)), _dimensions) \n                                                                    isPixelsValid(uint256((_pixels.length /4))) { \n\n        require(msg.sender.balance >= msg.value, \"Not enough funds\");\n\n        CustomStructs.Content memory _content = CustomStructs.Content({\n            rgbaArray: _pixels,\n            dimensions: _dimensions\n        });\n\n        CustomStructs.Meta memory _meta = CustomStructs.Meta({\n            name: _name,\n            createDate: block.timestamp\n        });\n\n        dartContent[_currentTokenID] = _content;\n        dartMeta[_currentTokenID] = _meta;\n        contractOwner.transfer(msg.value);\n        _mint(msg.sender, _currentTokenID);\n        _incrementTokenId();\n    }\n\n    // Helpers\n    function _incrementTokenId() internal {\n        _currentTokenID++;\n    }\n\n    function getHashFromCords(uint256 x, uint256 y) internal pure returns (bytes32) {\n        return sha256(abi.encodePacked(x, y));\n   }\n\n    // Admin\n    function changeContactOwner(address payable _owner) public isContractOwner {\n        contractOwner = _owner;\n    }\n\n    function changeMaxPixelsPerExhibit(uint16 _max) public isContractOwner {\n        maxPixelsPerDart = _max;\n    }\n\n    function changeBaseUri(string memory _uri) public isContractOwner {\n        // API which is used to grab pixels from blockchain and then generate image\n       _setBaseURI(_uri);\n    }\n\n    // Modifiers\n    modifier isContractOwner() {\n        require(msg.sender == contractOwner, \"Owner Only\");\n        _;\n    }\n\n    modifier isValidLength(uint256 length, CustomStructs.Dimensions memory _dimensions) {\n        require(RectMath.validLength(length, _dimensions), \"Invalid pixel dimensions\");\n        _;\n    }\n\n    modifier isPixelsValid(uint256 _length) {\n        require(_length <= maxPixelsPerDart, \"Too many pixels\");\n        _;\n    }\n\n    // Overrides\n    function isApprovedForAll(address owner, address operator) public view override returns (bool) {\n        ProxyRegistry proxyRegistry = ProxyRegistry(proxyRegistryAddress);\n        if (address(proxyRegistry.proxies(owner)) == operator) {\n            return true;\n        }\n        return super.isApprovedForAll(owner, operator);\n    }\n}",
  "sourcePath": "/Users/matthewruddy/Desktop/Projects/DAPP/contracts/DARToken.sol",
  "compiler": {
    "name": "solc",
    "version": "0.7.4+commit.3f05b770.Emscripten.clang"
  },
  "schemaVersion": "3.3.4",
  "updatedAt": "2021-03-22T23:34:03.809Z",
  "networkType": "ethereum",
  "devdoc": {
    "kind": "dev",
    "methods": {
      "approve(address,uint256)": {
        "details": "See {IERC721-approve}."
      },
      "balanceOf(address)": {
        "details": "See {IERC721-balanceOf}."
      },
      "baseURI()": {
        "details": "Returns the base URI set via {_setBaseURI}. This will be automatically added as a prefix in {tokenURI} to each token's URI, or to the token ID if no specific URI is set for that token ID."
      },
      "getApproved(uint256)": {
        "details": "See {IERC721-getApproved}."
      },
      "isApprovedForAll(address,address)": {
        "details": "See {IERC721-isApprovedForAll}."
      },
      "name()": {
        "details": "See {IERC721Metadata-name}."
      },
      "owner()": {
        "details": "Returns the address of the current owner."
      },
      "ownerOf(uint256)": {
        "details": "See {IERC721-ownerOf}."
      },
      "renounceOwnership()": {
        "details": "Leaves the contract without owner. It will not be possible to call `onlyOwner` functions anymore. Can only be called by the current owner. NOTE: Renouncing ownership will leave the contract without an owner, thereby removing any functionality that is only available to the owner."
      },
      "safeTransferFrom(address,address,uint256)": {
        "details": "See {IERC721-safeTransferFrom}."
      },
      "safeTransferFrom(address,address,uint256,bytes)": {
        "details": "See {IERC721-safeTransferFrom}."
      },
      "setApprovalForAll(address,bool)": {
        "details": "See {IERC721-setApprovalForAll}."
      },
      "supportsInterface(bytes4)": {
        "details": "See {IERC165-supportsInterface}. Time complexity O(1), guaranteed to always use less than 30 000 gas."
      },
      "symbol()": {
        "details": "See {IERC721Metadata-symbol}."
      },
      "tokenByIndex(uint256)": {
        "details": "See {IERC721Enumerable-tokenByIndex}."
      },
      "tokenOfOwnerByIndex(address,uint256)": {
        "details": "See {IERC721Enumerable-tokenOfOwnerByIndex}."
      },
      "tokenURI(uint256)": {
        "details": "See {IERC721Metadata-tokenURI}."
      },
      "totalSupply()": {
        "details": "See {IERC721Enumerable-totalSupply}."
      },
      "transferFrom(address,address,uint256)": {
        "details": "See {IERC721-transferFrom}."
      },
      "transferOwnership(address)": {
        "details": "Transfers ownership of the contract to a new account (`newOwner`). Can only be called by the current owner."
      }
    },
    "version": 1
  },
  "userdoc": {
    "kind": "user",
    "methods": {},
    "version": 1
  }
}