{
  "contractName": "PixelToken",
  "abi": [
    {
      "inputs": [
        {
          "internalType": "address payable",
          "name": "_owner",
          "type": "address"
        },
        {
          "internalType": "uint16",
          "name": "_maxCoords",
          "type": "uint16"
        },
        {
          "internalType": "uint16",
          "name": "_maxPixels",
          "type": "uint16"
        },
        {
          "internalType": "uint16",
          "name": "_pixelfee",
          "type": "uint16"
        }
      ],
      "stateMutability": "nonpayable",
      "type": "constructor"
    },
    {
      "anonymous": false,
      "inputs": [
        {
          "indexed": true,
          "internalType": "address",
          "name": "owner",
          "type": "address"
        },
        {
          "indexed": true,
          "internalType": "address",
          "name": "approved",
          "type": "address"
        },
        {
          "indexed": true,
          "internalType": "uint256",
          "name": "tokenId",
          "type": "uint256"
        }
      ],
      "name": "Approval",
      "type": "event"
    },
    {
      "anonymous": false,
      "inputs": [
        {
          "indexed": true,
          "internalType": "address",
          "name": "owner",
          "type": "address"
        },
        {
          "indexed": true,
          "internalType": "address",
          "name": "operator",
          "type": "address"
        },
        {
          "indexed": false,
          "internalType": "bool",
          "name": "approved",
          "type": "bool"
        }
      ],
      "name": "ApprovalForAll",
      "type": "event"
    },
    {
      "anonymous": false,
      "inputs": [
        {
          "indexed": true,
          "internalType": "address",
          "name": "from",
          "type": "address"
        },
        {
          "indexed": true,
          "internalType": "address",
          "name": "to",
          "type": "address"
        },
        {
          "indexed": true,
          "internalType": "uint256",
          "name": "tokenId",
          "type": "uint256"
        }
      ],
      "name": "Transfer",
      "type": "event"
    },
    {
      "inputs": [
        {
          "internalType": "address",
          "name": "to",
          "type": "address"
        },
        {
          "internalType": "uint256",
          "name": "tokenId",
          "type": "uint256"
        }
      ],
      "name": "approve",
      "outputs": [],
      "stateMutability": "nonpayable",
      "type": "function"
    },
    {
      "inputs": [
        {
          "internalType": "address",
          "name": "owner",
          "type": "address"
        }
      ],
      "name": "balanceOf",
      "outputs": [
        {
          "internalType": "uint256",
          "name": "",
          "type": "uint256"
        }
      ],
      "stateMutability": "view",
      "type": "function",
      "constant": true
    },
    {
      "inputs": [],
      "name": "baseURI",
      "outputs": [
        {
          "internalType": "string",
          "name": "",
          "type": "string"
        }
      ],
      "stateMutability": "view",
      "type": "function",
      "constant": true
    },
    {
      "inputs": [
        {
          "internalType": "uint256",
          "name": "tokenId",
          "type": "uint256"
        }
      ],
      "name": "getApproved",
      "outputs": [
        {
          "internalType": "address",
          "name": "",
          "type": "address"
        }
      ],
      "stateMutability": "view",
      "type": "function",
      "constant": true
    },
    {
      "inputs": [
        {
          "internalType": "address",
          "name": "owner",
          "type": "address"
        },
        {
          "internalType": "address",
          "name": "operator",
          "type": "address"
        }
      ],
      "name": "isApprovedForAll",
      "outputs": [
        {
          "internalType": "bool",
          "name": "",
          "type": "bool"
        }
      ],
      "stateMutability": "view",
      "type": "function",
      "constant": true
    },
    {
      "inputs": [],
      "name": "maxPixelsPerExhibit",
      "outputs": [
        {
          "internalType": "uint16",
          "name": "",
          "type": "uint16"
        }
      ],
      "stateMutability": "view",
      "type": "function",
      "constant": true
    },
    {
      "inputs": [],
      "name": "maxXPixel",
      "outputs": [
        {
          "internalType": "uint16",
          "name": "",
          "type": "uint16"
        }
      ],
      "stateMutability": "view",
      "type": "function",
      "constant": true
    },
    {
      "inputs": [],
      "name": "maxYPixel",
      "outputs": [
        {
          "internalType": "uint16",
          "name": "",
          "type": "uint16"
        }
      ],
      "stateMutability": "view",
      "type": "function",
      "constant": true
    },
    {
      "inputs": [],
      "name": "name",
      "outputs": [
        {
          "internalType": "string",
          "name": "",
          "type": "string"
        }
      ],
      "stateMutability": "view",
      "type": "function",
      "constant": true
    },
    {
      "inputs": [
        {
          "internalType": "uint256",
          "name": "tokenId",
          "type": "uint256"
        }
      ],
      "name": "ownerOf",
      "outputs": [
        {
          "internalType": "address",
          "name": "",
          "type": "address"
        }
      ],
      "stateMutability": "view",
      "type": "function",
      "constant": true
    },
    {
      "inputs": [],
      "name": "pixelFee",
      "outputs": [
        {
          "internalType": "uint16",
          "name": "",
          "type": "uint16"
        }
      ],
      "stateMutability": "view",
      "type": "function",
      "constant": true
    },
    {
      "inputs": [
        {
          "internalType": "address",
          "name": "from",
          "type": "address"
        },
        {
          "internalType": "address",
          "name": "to",
          "type": "address"
        },
        {
          "internalType": "uint256",
          "name": "tokenId",
          "type": "uint256"
        }
      ],
      "name": "safeTransferFrom",
      "outputs": [],
      "stateMutability": "nonpayable",
      "type": "function"
    },
    {
      "inputs": [
        {
          "internalType": "address",
          "name": "from",
          "type": "address"
        },
        {
          "internalType": "address",
          "name": "to",
          "type": "address"
        },
        {
          "internalType": "uint256",
          "name": "tokenId",
          "type": "uint256"
        },
        {
          "internalType": "bytes",
          "name": "_data",
          "type": "bytes"
        }
      ],
      "name": "safeTransferFrom",
      "outputs": [],
      "stateMutability": "nonpayable",
      "type": "function"
    },
    {
      "inputs": [
        {
          "internalType": "address",
          "name": "operator",
          "type": "address"
        },
        {
          "internalType": "bool",
          "name": "approved",
          "type": "bool"
        }
      ],
      "name": "setApprovalForAll",
      "outputs": [],
      "stateMutability": "nonpayable",
      "type": "function"
    },
    {
      "inputs": [
        {
          "internalType": "bytes4",
          "name": "interfaceId",
          "type": "bytes4"
        }
      ],
      "name": "supportsInterface",
      "outputs": [
        {
          "internalType": "bool",
          "name": "",
          "type": "bool"
        }
      ],
      "stateMutability": "view",
      "type": "function",
      "constant": true
    },
    {
      "inputs": [],
      "name": "symbol",
      "outputs": [
        {
          "internalType": "string",
          "name": "",
          "type": "string"
        }
      ],
      "stateMutability": "view",
      "type": "function",
      "constant": true
    },
    {
      "inputs": [
        {
          "internalType": "uint256",
          "name": "index",
          "type": "uint256"
        }
      ],
      "name": "tokenByIndex",
      "outputs": [
        {
          "internalType": "uint256",
          "name": "",
          "type": "uint256"
        }
      ],
      "stateMutability": "view",
      "type": "function",
      "constant": true
    },
    {
      "inputs": [
        {
          "internalType": "address",
          "name": "owner",
          "type": "address"
        },
        {
          "internalType": "uint256",
          "name": "index",
          "type": "uint256"
        }
      ],
      "name": "tokenOfOwnerByIndex",
      "outputs": [
        {
          "internalType": "uint256",
          "name": "",
          "type": "uint256"
        }
      ],
      "stateMutability": "view",
      "type": "function",
      "constant": true
    },
    {
      "inputs": [
        {
          "internalType": "uint256",
          "name": "tokenId",
          "type": "uint256"
        }
      ],
      "name": "tokenURI",
      "outputs": [
        {
          "internalType": "string",
          "name": "",
          "type": "string"
        }
      ],
      "stateMutability": "view",
      "type": "function",
      "constant": true
    },
    {
      "inputs": [],
      "name": "totalSupply",
      "outputs": [
        {
          "internalType": "uint256",
          "name": "",
          "type": "uint256"
        }
      ],
      "stateMutability": "view",
      "type": "function",
      "constant": true
    },
    {
      "inputs": [
        {
          "internalType": "address",
          "name": "from",
          "type": "address"
        },
        {
          "internalType": "address",
          "name": "to",
          "type": "address"
        },
        {
          "internalType": "uint256",
          "name": "tokenId",
          "type": "uint256"
        }
      ],
      "name": "transferFrom",
      "outputs": [],
      "stateMutability": "nonpayable",
      "type": "function"
    },
    {
      "inputs": [],
      "name": "getPixels",
      "outputs": [
        {
          "components": [
            {
              "internalType": "uint16",
              "name": "exhibitId",
              "type": "uint16"
            },
            {
              "internalType": "address",
              "name": "owner",
              "type": "address"
            },
            {
              "internalType": "uint8[]",
              "name": "rgbArray",
              "type": "uint8[]"
            },
            {
              "components": [
                {
                  "components": [
                    {
                      "internalType": "uint16",
                      "name": "x",
                      "type": "uint16"
                    },
                    {
                      "internalType": "uint16",
                      "name": "y",
                      "type": "uint16"
                    }
                  ],
                  "internalType": "struct PixelToken.Coord",
                  "name": "topLeft",
                  "type": "tuple"
                },
                {
                  "components": [
                    {
                      "internalType": "uint16",
                      "name": "x",
                      "type": "uint16"
                    },
                    {
                      "internalType": "uint16",
                      "name": "y",
                      "type": "uint16"
                    }
                  ],
                  "internalType": "struct PixelToken.Coord",
                  "name": "bottomRight",
                  "type": "tuple"
                }
              ],
              "internalType": "struct PixelToken.Bounds",
              "name": "bounds",
              "type": "tuple"
            }
          ],
          "internalType": "struct PixelToken.ExhibitResp[]",
          "name": "",
          "type": "tuple[]"
        }
      ],
      "stateMutability": "view",
      "type": "function",
      "constant": true
    },
    {
      "inputs": [
        {
          "internalType": "uint8[]",
          "name": "_pixels",
          "type": "uint8[]"
        },
        {
          "components": [
            {
              "components": [
                {
                  "internalType": "uint16",
                  "name": "x",
                  "type": "uint16"
                },
                {
                  "internalType": "uint16",
                  "name": "y",
                  "type": "uint16"
                }
              ],
              "internalType": "struct PixelToken.Coord",
              "name": "topLeft",
              "type": "tuple"
            },
            {
              "components": [
                {
                  "internalType": "uint16",
                  "name": "x",
                  "type": "uint16"
                },
                {
                  "internalType": "uint16",
                  "name": "y",
                  "type": "uint16"
                }
              ],
              "internalType": "struct PixelToken.Coord",
              "name": "bottomRight",
              "type": "tuple"
            }
          ],
          "internalType": "struct PixelToken.Bounds",
          "name": "_bounds",
          "type": "tuple"
        }
      ],
      "name": "create",
      "outputs": [],
      "stateMutability": "payable",
      "type": "function",
      "payable": true
    },
    {
      "inputs": [
        {
          "internalType": "uint16",
          "name": "_id",
          "type": "uint16"
        },
        {
          "internalType": "uint8[]",
          "name": "_rgbArray",
          "type": "uint8[]"
        }
      ],
      "name": "changePixels",
      "outputs": [],
      "stateMutability": "nonpayable",
      "type": "function"
    },
    {
      "inputs": [
        {
          "internalType": "uint16",
          "name": "_id",
          "type": "uint16"
        }
      ],
      "name": "placeBid",
      "outputs": [],
      "stateMutability": "payable",
      "type": "function",
      "payable": true
    },
    {
      "inputs": [
        {
          "internalType": "uint16",
          "name": "_id",
          "type": "uint16"
        }
      ],
      "name": "acceptBid",
      "outputs": [],
      "stateMutability": "payable",
      "type": "function",
      "payable": true
    },
    {
      "inputs": [
        {
          "internalType": "uint16",
          "name": "_id",
          "type": "uint16"
        }
      ],
      "name": "getBid",
      "outputs": [
        {
          "components": [
            {
              "internalType": "address payable",
              "name": "fromAddress",
              "type": "address"
            },
            {
              "internalType": "uint256",
              "name": "amount",
              "type": "uint256"
            }
          ],
          "internalType": "struct PixelToken.Bid",
          "name": "",
          "type": "tuple"
        }
      ],
      "stateMutability": "view",
      "type": "function",
      "constant": true
    },
    {
      "inputs": [
        {
          "internalType": "uint16",
          "name": "_id",
          "type": "uint16"
        }
      ],
      "name": "getBidHistoryForExhibit",
      "outputs": [
        {
          "components": [
            {
              "internalType": "address payable",
              "name": "fromAddress",
              "type": "address"
            },
            {
              "internalType": "uint256",
              "name": "amount",
              "type": "uint256"
            }
          ],
          "internalType": "struct PixelToken.Bid[]",
          "name": "",
          "type": "tuple[]"
        }
      ],
      "stateMutability": "view",
      "type": "function",
      "constant": true
    },
    {
      "inputs": [],
      "name": "getAllHighestBids",
      "outputs": [
        {
          "components": [
            {
              "internalType": "uint16",
              "name": "exhibitId",
              "type": "uint16"
            },
            {
              "internalType": "address",
              "name": "fromAddress",
              "type": "address"
            },
            {
              "internalType": "uint256",
              "name": "amount",
              "type": "uint256"
            }
          ],
          "internalType": "struct PixelToken.HighestBidResponse[]",
          "name": "",
          "type": "tuple[]"
        }
      ],
      "stateMutability": "view",
      "type": "function",
      "constant": true
    },
    {
      "inputs": [
        {
          "internalType": "address payable",
          "name": "_owner",
          "type": "address"
        }
      ],
      "name": "changeContactOwner",
      "outputs": [],
      "stateMutability": "nonpayable",
      "type": "function"
    },
    {
      "inputs": [
        {
          "internalType": "uint16",
          "name": "_maxX",
          "type": "uint16"
        },
        {
          "internalType": "uint16",
          "name": "_maxY",
          "type": "uint16"
        }
      ],
      "name": "changeMaxXYPixel",
      "outputs": [],
      "stateMutability": "nonpayable",
      "type": "function"
    },
    {
      "inputs": [
        {
          "internalType": "uint16",
          "name": "_pixelFee",
          "type": "uint16"
        }
      ],
      "name": "changePixelFee",
      "outputs": [],
      "stateMutability": "nonpayable",
      "type": "function"
    },
    {
      "inputs": [
        {
          "internalType": "uint16",
          "name": "_max",
          "type": "uint16"
        }
      ],
      "name": "changeMaxPixelsPerExhibit",
      "outputs": [],
      "stateMutability": "nonpayable",
      "type": "function"
    }
  ],
  "bytecode": "0x60806040523480156200001157600080fd5b50604051620058b5380380620058b58339818101604052810190620000379190620003e3565b6040518060400160405280600781526020017f45786869626974000000000000000000000000000000000000000000000000008152506040518060400160405280600381526020017f5842540000000000000000000000000000000000000000000000000000000000815250620000bb6301ffc9a760e01b620001f660201b60201c565b8160069080519060200190620000d3929190620002ff565b508060079080519060200190620000ec929190620002ff565b50620001056380ac58cd60e01b620001f660201b60201c565b6200011d635b5e139f60e01b620001f660201b60201c565b6200013563780e9d6360e01b620001f660201b60201c565b505083600a60006101000a81548173ffffffffffffffffffffffffffffffffffffffff021916908373ffffffffffffffffffffffffffffffffffffffff16021790555082600a60166101000a81548161ffff021916908361ffff16021790555082600a60186101000a81548161ffff021916908361ffff16021790555081600a601a6101000a81548161ffff021916908361ffff16021790555080600a60146101000a81548161ffff021916908361ffff16021790555050505050620004c5565b63ffffffff60e01b817bffffffffffffffffffffffffffffffffffffffffffffffffffffffff1916141562000293576040517f08c379a000000000000000000000000000000000000000000000000000000000815260040180806020018281038252601c8152602001807f4552433136353a20696e76616c696420696e746572666163652069640000000081525060200191505060405180910390fd5b6001600080837bffffffffffffffffffffffffffffffffffffffffffffffffffffffff19167bffffffffffffffffffffffffffffffffffffffffffffffffffffffff1916815260200190815260200160002060006101000a81548160ff02191690831515021790555050565b828054600181600116156101000203166002900490600052602060002090601f01602090048101928262000337576000855562000383565b82601f106200035257805160ff191683800117855562000383565b8280016001018555821562000383579182015b828111156200038257825182559160200191906001019062000365565b5b50905062000392919062000396565b5090565b5b80821115620003b157600081600090555060010162000397565b5090565b600081519050620003c68162000491565b92915050565b600081519050620003dd81620004ab565b92915050565b60008060008060808587031215620003fa57600080fd5b60006200040a87828801620003b5565b94505060206200041d87828801620003cc565b93505060406200043087828801620003cc565b92505060606200044387828801620003cc565b91505092959194509250565b60006200045c8262000471565b9050919050565b600061ffff82169050919050565b600073ffffffffffffffffffffffffffffffffffffffff82169050919050565b6200049c816200044f565b8114620004a857600080fd5b50565b620004b68162000463565b8114620004c257600080fd5b50565b6153e080620004d56000396000f3fe6080604052600436106101ee5760003560e01c806370a082311161010d578063bb3c358c116100a0578063e14bf40d1161006f578063e14bf40d14610705578063e678bed114610721578063e985e9c51461074c578063feeac61914610789578063ff4d273d146107b4576101ee565b8063bb3c358c14610649578063c3355a9f14610674578063c87b56dd1461069d578063dee5d9b8146106da576101ee565b806395d89b41116100dc57806395d89b41146105a3578063a22cb465146105ce578063a62f204e146105f7578063b88d4fde14610620576101ee565b806370a08231146104f65780638611fef91461053357806387013d0a1461054f578063935cd96014610578576101ee565b80632f745c59116101855780634e2787ee116101545780634e2787ee146104145780634f6ccce7146104515780636352211e1461048e5780636c0360eb146104cb576101ee565b80632f745c591461036957806335c22e46146103a6578063379aa144146103c257806342842e0e146103eb576101ee565b806318160ddd116101c157806318160ddd146102c157806322d858a3146102ec57806323b872dd14610315578063281fe1d91461033e576101ee565b806301ffc9a7146101f357806306fdde0314610230578063081812fc1461025b578063095ea7b314610298575b600080fd5b3480156101ff57600080fd5b5061021a60048036038101906102159190614513565b6107f1565b6040516102279190614cab565b60405180910390f35b34801561023c57600080fd5b50610245610858565b6040516102529190614cc6565b60405180910390f35b34801561026757600080fd5b50610282600480360381019061027d91906145f5565b6108fa565b60405161028f9190614c2a565b60405180910390f35b3480156102a457600080fd5b506102bf60048036038101906102ba9190614483565b610995565b005b3480156102cd57600080fd5b506102d6610ad9565b6040516102e39190614e1e565b60405180910390f35b3480156102f857600080fd5b50610313600480360381019061030e9190614565565b610aea565b005b34801561032157600080fd5b5061033c6004803603810190610337919061437d565b610d98565b005b34801561034a57600080fd5b50610353610e0e565b6040516103609190614c89565b60405180910390f35b34801561037557600080fd5b50610390600480360381019061038b9190614483565b610fd7565b60405161039d9190614e1e565b60405180910390f35b6103c060048036038101906103bb919061453c565b611032565b005b3480156103ce57600080fd5b506103e960048036038101906103e4919061453c565b611349565b005b3480156103f757600080fd5b50610412600480360381019061040d919061437d565b6113f9565b005b34801561042057600080fd5b5061043b6004803603810190610436919061453c565b611419565b6040516104489190614de8565b60405180910390f35b34801561045d57600080fd5b50610478600480360381019061047391906145f5565b6114ae565b6040516104859190614e1e565b60405180910390f35b34801561049a57600080fd5b506104b560048036038101906104b091906145f5565b6114d1565b6040516104c29190614c2a565b60405180910390f35b3480156104d757600080fd5b506104e0611508565b6040516104ed9190614cc6565b60405180910390f35b34801561050257600080fd5b5061051d600480360381019061051891906142ef565b6115aa565b60405161052a9190614e1e565b60405180910390f35b61054d6004803603810190610548919061453c565b61167f565b005b34801561055b57600080fd5b50610576600480360381019061057191906145b9565b6118e4565b005b34801561058457600080fd5b5061058d6119f9565b60405161059a9190614e03565b60405180910390f35b3480156105af57600080fd5b506105b8611a0d565b6040516105c59190614cc6565b60405180910390f35b3480156105da57600080fd5b506105f560048036038101906105f09190614447565b611aaf565b005b34801561060357600080fd5b5061061e60048036038101906106199190614318565b611c65565b005b34801561062c57600080fd5b50610647600480360381019061064291906143cc565b611d39565b005b34801561065557600080fd5b5061065e611db1565b60405161066b9190614e03565b60405180910390f35b34801561068057600080fd5b5061069b6004803603810190610696919061453c565b611dc5565b005b3480156106a957600080fd5b506106c460048036038101906106bf91906145f5565b611e75565b6040516106d19190614cc6565b60405180910390f35b3480156106e657600080fd5b506106ef612146565b6040516106fc9190614e03565b60405180910390f35b61071f600480360381019061071a91906144bf565b61215a565b005b34801561072d57600080fd5b5061073661272f565b6040516107439190614e03565b60405180910390f35b34801561075857600080fd5b50610773600480360381019061076e9190614341565b612743565b6040516107809190614cab565b60405180910390f35b34801561079557600080fd5b5061079e6127d7565b6040516107ab9190614c67565b60405180910390f35b3480156107c057600080fd5b506107db60048036038101906107d6919061453c565b612a56565b6040516107e89190614c45565b60405180910390f35b6000806000837bffffffffffffffffffffffffffffffffffffffffffffffffffffffff19167bffffffffffffffffffffffffffffffffffffffffffffffffffffffff1916815260200190815260200160002060009054906101000a900460ff169050919050565b606060068054600181600116156101000203166002900480601f0160208091040260200160405190810160405280929190818152602001828054600181600116156101000203166002900480156108f05780601f106108c5576101008083540402835291602001916108f0565b820191906000526020600020905b8154815290600101906020018083116108d357829003601f168201915b5050505050905090565b600061090582612b30565b61095a576040517f08c379a000000000000000000000000000000000000000000000000000000000815260040180806020018281038252602c8152602001806152d5602c913960400191505060405180910390fd5b6004600083815260200190815260200160002060009054906101000a900473ffffffffffffffffffffffffffffffffffffffff169050919050565b60006109a0826114d1565b90508073ffffffffffffffffffffffffffffffffffffffff168373ffffffffffffffffffffffffffffffffffffffff161415610a27576040517f08c379a00000000000000000000000000000000000000000000000000000000081526004018080602001828103825260218152602001806153596021913960400191505060405180910390fd5b8073ffffffffffffffffffffffffffffffffffffffff16610a46612b4d565b73ffffffffffffffffffffffffffffffffffffffff161480610a755750610a7481610a6f612b4d565b612743565b5b610aca576040517f08c379a00000000000000000000000000000000000000000000000000000000081526004018080602001828103825260388152602001806152286038913960400191505060405180910390fd5b610ad48383612b55565b505050565b6000610ae56002612c0e565b905090565b813373ffffffffffffffffffffffffffffffffffffffff16610b0f8261ffff166114d1565b73ffffffffffffffffffffffffffffffffffffffff1614610b65576040517f08c379a0000000000000000000000000000000000000000000000000000000008152600401610b5c90614dc8565b60405180910390fd5b81600e60008561ffff1661ffff1681526020019081526020016000209080519060200190610b94929190613f2e565b50610b9d613fd5565b600b60008561ffff1661ffff1681526020019081526020016000206040518060400160405290816000820160009054906101000a900473ffffffffffffffffffffffffffffffffffffffff1673ffffffffffffffffffffffffffffffffffffffff1673ffffffffffffffffffffffffffffffffffffffff1681526020016001820154815250509050600073ffffffffffffffffffffffffffffffffffffffff16816000015173ffffffffffffffffffffffffffffffffffffffff1614610d4557806000015173ffffffffffffffffffffffffffffffffffffffff166108fc82602001519081150290604051600060405180830381858888f19350505050158015610cab573d6000803e3d6000fd5b50600c60008561ffff1661ffff16815260200190815260200160002081908060018154018082558091505060019003906000526020600020906002020160009091909190915060008201518160000160006101000a81548173ffffffffffffffffffffffffffffffffffffffff021916908373ffffffffffffffffffffffffffffffffffffffff1602179055506020820151816001015550505b600b60008561ffff1661ffff168152602001908152602001600020600080820160006101000a81549073ffffffffffffffffffffffffffffffffffffffff02191690556001820160009055505050505050565b610da9610da3612b4d565b82612c23565b610dfe576040517f08c379a000000000000000000000000000000000000000000000000000000000815260040180806020018281038252603181526020018061537a6031913960400191505060405180910390fd5b610e09838383612d17565b505050565b606080600a601c9054906101000a900461ffff1661ffff1667ffffffffffffffff81118015610e3c57600080fd5b50604051908082528060200260200182016040528015610e7657816020015b610e63614005565b815260200190600190039081610e5b5790505b5090506000805b600a601c9054906101000a900461ffff1661ffff168161ffff161015610fce576000600b60008361ffff1661ffff1681526020019081526020016000206001015414610fc157610ecb613fd5565b600b60008361ffff1661ffff1681526020019081526020016000206040518060400160405290816000820160009054906101000a900473ffffffffffffffffffffffffffffffffffffffff1673ffffffffffffffffffffffffffffffffffffffff1673ffffffffffffffffffffffffffffffffffffffff1681526020016001820154815250509050610f5b614005565b60405180606001604052808461ffff168152602001836000015173ffffffffffffffffffffffffffffffffffffffff1681526020018360200151815250905080858561ffff1681518110610fab57fe5b6020026020010181905250838060010194505050505b8080600101915050610e7d565b50819250505090565b600061102a82600160008673ffffffffffffffffffffffffffffffffffffffff1673ffffffffffffffffffffffffffffffffffffffff168152602001908152602001600020612f5a90919063ffffffff16565b905092915050565b803373ffffffffffffffffffffffffffffffffffffffff166110578261ffff166114d1565b73ffffffffffffffffffffffffffffffffffffffff1614156110ae576040517f08c379a00000000000000000000000000000000000000000000000000000000081526004016110a590614d88565b60405180910390fd5b6110b6613fd5565b600b60008461ffff1661ffff1681526020019081526020016000206040518060400160405290816000820160009054906101000a900473ffffffffffffffffffffffffffffffffffffffff1673ffffffffffffffffffffffffffffffffffffffff1673ffffffffffffffffffffffffffffffffffffffff1681526020016001820154815250509050343373ffffffffffffffffffffffffffffffffffffffff1631101561116257600080fd5b6000341180156111755750806020015134115b61117e57600080fd5b600073ffffffffffffffffffffffffffffffffffffffff16816000015173ffffffffffffffffffffffffffffffffffffffff161461129e57806000015173ffffffffffffffffffffffffffffffffffffffff166108fc82602001519081150290604051600060405180830381858888f19350505050158015611204573d6000803e3d6000fd5b50600c60008461ffff1661ffff16815260200190815260200160002081908060018154018082558091505060019003906000526020600020906002020160009091909190915060008201518160000160006101000a81548173ffffffffffffffffffffffffffffffffffffffff021916908373ffffffffffffffffffffffffffffffffffffffff1602179055506020820151816001015550505b6112a6613fd5565b60405180604001604052803373ffffffffffffffffffffffffffffffffffffffff16815260200134815250905080600b60008661ffff1661ffff16815260200190815260200160002060008201518160000160006101000a81548173ffffffffffffffffffffffffffffffffffffffff021916908373ffffffffffffffffffffffffffffffffffffffff1602179055506020820151816001015590505050505050565b600a60009054906101000a900473ffffffffffffffffffffffffffffffffffffffff1673ffffffffffffffffffffffffffffffffffffffff163373ffffffffffffffffffffffffffffffffffffffff16146113d9576040517f08c379a00000000000000000000000000000000000000000000000000000000081526004016113d090614ce8565b60405180910390fd5b80600a60146101000a81548161ffff021916908361ffff16021790555050565b61141483838360405180602001604052806000815250611d39565b505050565b611421613fd5565b600b60008361ffff1661ffff1681526020019081526020016000206040518060400160405290816000820160009054906101000a900473ffffffffffffffffffffffffffffffffffffffff1673ffffffffffffffffffffffffffffffffffffffff1673ffffffffffffffffffffffffffffffffffffffff1681526020016001820154815250509050919050565b6000806114c5836002612f7490919063ffffffff16565b50905080915050919050565b60006115018260405180606001604052806029815260200161528a602991396002612fa09092919063ffffffff16565b9050919050565b606060098054600181600116156101000203166002900480601f0160208091040260200160405190810160405280929190818152602001828054600181600116156101000203166002900480156115a05780601f10611575576101008083540402835291602001916115a0565b820191906000526020600020905b81548152906001019060200180831161158357829003601f168201915b5050505050905090565b60008073ffffffffffffffffffffffffffffffffffffffff168273ffffffffffffffffffffffffffffffffffffffff161415611631576040517f08c379a000000000000000000000000000000000000000000000000000000000815260040180806020018281038252602a815260200180615260602a913960400191505060405180910390fd5b611678600160008473ffffffffffffffffffffffffffffffffffffffff1673ffffffffffffffffffffffffffffffffffffffff168152602001908152602001600020612fbf565b9050919050565b803373ffffffffffffffffffffffffffffffffffffffff166116a48261ffff166114d1565b73ffffffffffffffffffffffffffffffffffffffff16146116fa576040517f08c379a00000000000000000000000000000000000000000000000000000000081526004016116f190614dc8565b60405180910390fd5b60006117098361ffff166114d1565b9050611713613fd5565b600b60008561ffff1661ffff1681526020019081526020016000206040518060400160405290816000820160009054906101000a900473ffffffffffffffffffffffffffffffffffffffff1673ffffffffffffffffffffffffffffffffffffffff1673ffffffffffffffffffffffffffffffffffffffff16815260200160018201548152505090508173ffffffffffffffffffffffffffffffffffffffff166108fc82602001519081150290604051600060405180830381858888f193505050501580156117e5573d6000803e3d6000fd5b506117f98282600001518661ffff166113f9565b600c60008561ffff1661ffff16815260200190815260200160002081908060018154018082558091505060019003906000526020600020906002020160009091909190915060008201518160000160006101000a81548173ffffffffffffffffffffffffffffffffffffffff021916908373ffffffffffffffffffffffffffffffffffffffff160217905550602082015181600101555050600b60008561ffff1661ffff168152602001908152602001600020600080820160006101000a81549073ffffffffffffffffffffffffffffffffffffffff02191690556001820160009055505050505050565b600a60009054906101000a900473ffffffffffffffffffffffffffffffffffffffff1673ffffffffffffffffffffffffffffffffffffffff163373ffffffffffffffffffffffffffffffffffffffff1614611974576040517f08c379a000000000000000000000000000000000000000000000000000000000815260040161196b90614ce8565b60405180910390fd5b600a60169054906101000a900461ffff1661ffff168261ffff161180156119b25750600a60189054906101000a900461ffff1661ffff168161ffff16115b6119bb57600080fd5b81600a60166101000a81548161ffff021916908361ffff16021790555080600a60186101000a81548161ffff021916908361ffff1602179055505050565b600a601a9054906101000a900461ffff1681565b606060078054600181600116156101000203166002900480601f016020809104026020016040519081016040528092919081815260200182805460018160011615610100020316600290048015611aa55780601f10611a7a57610100808354040283529160200191611aa5565b820191906000526020600020905b815481529060010190602001808311611a8857829003601f168201915b5050505050905090565b611ab7612b4d565b73ffffffffffffffffffffffffffffffffffffffff168273ffffffffffffffffffffffffffffffffffffffff161415611b58576040517f08c379a00000000000000000000000000000000000000000000000000000000081526004018080602001828103825260198152602001807f4552433732313a20617070726f766520746f2063616c6c65720000000000000081525060200191505060405180910390fd5b8060056000611b65612b4d565b73ffffffffffffffffffffffffffffffffffffffff1673ffffffffffffffffffffffffffffffffffffffff16815260200190815260200160002060008473ffffffffffffffffffffffffffffffffffffffff1673ffffffffffffffffffffffffffffffffffffffff16815260200190815260200160002060006101000a81548160ff0219169083151502179055508173ffffffffffffffffffffffffffffffffffffffff16611c12612b4d565b73ffffffffffffffffffffffffffffffffffffffff167f17307eab39ab6107e8899845ad3d59bd9653f200f220920489ca2b5937696c318360405180821515815260200191505060405180910390a35050565b600a60009054906101000a900473ffffffffffffffffffffffffffffffffffffffff1673ffffffffffffffffffffffffffffffffffffffff163373ffffffffffffffffffffffffffffffffffffffff1614611cf5576040517f08c379a0000000000000000000000000000000000000000000000000000000008152600401611cec90614ce8565b60405180910390fd5b80600a60006101000a81548173ffffffffffffffffffffffffffffffffffffffff021916908373ffffffffffffffffffffffffffffffffffffffff16021790555050565b611d4a611d44612b4d565b83612c23565b611d9f576040517f08c379a000000000000000000000000000000000000000000000000000000000815260040180806020018281038252603181526020018061537a6031913960400191505060405180910390fd5b611dab84848484612fd4565b50505050565b600a60149054906101000a900461ffff1681565b600a60009054906101000a900473ffffffffffffffffffffffffffffffffffffffff1673ffffffffffffffffffffffffffffffffffffffff163373ffffffffffffffffffffffffffffffffffffffff1614611e55576040517f08c379a0000000000000000000000000000000000000000000000000000000008152600401611e4c90614ce8565b60405180910390fd5b80600a601a6101000a81548161ffff021916908361ffff16021790555050565b6060611e8082612b30565b611ed5576040517f08c379a000000000000000000000000000000000000000000000000000000000815260040180806020018281038252602f81526020018061532a602f913960400191505060405180910390fd5b6060600860008481526020019081526020016000208054600181600116156101000203166002900480601f016020809104026020016040519081016040528092919081815260200182805460018160011615610100020316600290048015611f7e5780601f10611f5357610100808354040283529160200191611f7e565b820191906000526020600020905b815481529060010190602001808311611f6157829003601f168201915b505050505090506060611f8f611508565b9050600081511415611fa5578192505050612141565b6000825111156120765780826040516020018083805190602001908083835b60208310611fe75780518252602082019150602081019050602083039250611fc4565b6001836020036101000a03801982511681845116808217855250505050505090500182805190602001908083835b602083106120385780518252602082019150602081019050602083039250612015565b6001836020036101000a0380198251168184511680821785525050505050509050019250505060405160208183030381529060405292505050612141565b8061208085613046565b6040516020018083805190602001908083835b602083106120b65780518252602082019150602081019050602083039250612093565b6001836020036101000a03801982511681845116808217855250505050505090500182805190602001908083835b6020831061210757805182526020820191506020810190506020830392506120e4565b6001836020036101000a03801982511681845116808217855250505050505090500192505050604051602081830303815290604052925050505b919050565b600a60189054906101000a900461ffff1681565b600382518161216557fe5b0461ffff168160018160000151602001518260200151602001510301600182600001516000015183602001516000015103010261ffff1682146121dd576040517f08c379a00000000000000000000000000000000000000000000000000000000081526004016121d490614d08565b60405180910390fd5b82612260600f80548060200260200160405190810160405280929190818152602001828054801561225557602002820191906000526020600020906000905b82829054906101000a900461ffff1661ffff168152602001906002019060208260010104928301926001038202915080841161221c5790505b50505050508261318d565b156122a0576040517f08c379a000000000000000000000000000000000000000000000000000000000815260040161229790614d48565b60405180910390fd5b846003600a601a9054906101000a900461ffff160261ffff16815111156122fc576040517f08c379a00000000000000000000000000000000000000000000000000000000081526004016122f390614da8565b60405180910390fd5b84600a60169054906101000a900461ffff1661ffff1681600001516000015161ffff161115801561234d5750600a60189054906101000a900461ffff1661ffff1681600001516020015161ffff1611155b80156123795750600a60169054906101000a900461ffff1661ffff1681602001516000015161ffff1611155b80156123a55750600a60189054906101000a900461ffff1661ffff1681602001516020015161ffff1611155b6123e4576040517f08c379a00000000000000000000000000000000000000000000000000000000081526004016123db90614d68565b60405180910390fd5b343373ffffffffffffffffffffffffffffffffffffffff1631101561243e576040517f08c379a000000000000000000000000000000000000000000000000000000000815260040161243590614d28565b60405180910390fd5b85600d6000600a601c9054906101000a900461ffff1661ffff1661ffff16815260200190815260200160002060008201518160000160008201518160000160006101000a81548161ffff021916908361ffff16021790555060208201518160000160026101000a81548161ffff021916908361ffff160217905550505060208201518160010160008201518160000160006101000a81548161ffff021916908361ffff16021790555060208201518160000160026101000a81548161ffff021916908361ffff160217905550505090505086600e6000600a601c9054906101000a900461ffff1661ffff1661ffff168152602001908152602001600020908051906020019061254e929190613f2e565b50600f86600001516000015190806001815401808255809150506001900390600052602060002090601091828204019190066002029091909190916101000a81548161ffff021916908361ffff160217905550600f86600001516020015190806001815401808255809150506001900390600052602060002090601091828204019190066002029091909190916101000a81548161ffff021916908361ffff160217905550600f86602001516000015190806001815401808255809150506001900390600052602060002090601091828204019190066002029091909190916101000a81548161ffff021916908361ffff160217905550600f86602001516020015190806001815401808255809150506001900390600052602060002090601091828204019190066002029091909190916101000a81548161ffff021916908361ffff160217905550600a60009054906101000a900473ffffffffffffffffffffffffffffffffffffffff1673ffffffffffffffffffffffffffffffffffffffff166108fc349081150290604051600060405180830381858888f193505050501580156126ff573d6000803e3d6000fd5b5061271e33600a601c9054906101000a900461ffff1661ffff16613314565b612726613508565b50505050505050565b600a60169054906101000a900461ffff1681565b6000600560008473ffffffffffffffffffffffffffffffffffffffff1673ffffffffffffffffffffffffffffffffffffffff16815260200190815260200160002060008373ffffffffffffffffffffffffffffffffffffffff1673ffffffffffffffffffffffffffffffffffffffff16815260200190815260200160002060009054906101000a900460ff16905092915050565b606080600a601c9054906101000a900461ffff1661ffff1667ffffffffffffffff8111801561280557600080fd5b5060405190808252806020026020018201604052801561283f57816020015b61282c614040565b8152602001906001900390816128245790505b50905060005b600a601c9054906101000a900461ffff1661ffff168161ffff161015612a4e576060600e60008361ffff1661ffff1681526020019081526020016000208054806020026020016040519081016040528092919081815260200182805480156128f257602002820191906000526020600020906000905b82829054906101000a900460ff1660ff16815260200190600101906020826000010492830192600103820291508084116128bb5790505b50505050509050612901614088565b600d60008461ffff1661ffff168152602001908152602001600020604051806040016040529081600082016040518060400160405290816000820160009054906101000a900461ffff1661ffff1661ffff1681526020016000820160029054906101000a900461ffff1661ffff1661ffff16815250508152602001600182016040518060400160405290816000820160009054906101000a900461ffff1661ffff1661ffff1681526020016000820160029054906101000a900461ffff1661ffff1661ffff16815250508152505090506129d9614040565b60405180608001604052808561ffff1681526020016129fb8661ffff166114d1565b73ffffffffffffffffffffffffffffffffffffffff16815260200184815260200183815250905080858561ffff1681518110612a3357fe5b60200260200101819052505050508080600101915050612845565b508091505090565b6060600c60008361ffff1661ffff168152602001908152602001600020805480602002602001604051908101604052809291908181526020016000905b82821015612b2557838290600052602060002090600202016040518060400160405290816000820160009054906101000a900473ffffffffffffffffffffffffffffffffffffffff1673ffffffffffffffffffffffffffffffffffffffff1673ffffffffffffffffffffffffffffffffffffffff16815260200160018201548152505081526020019060010190612a93565b505050509050919050565b6000612b4682600261353f90919063ffffffff16565b9050919050565b600033905090565b816004600083815260200190815260200160002060006101000a81548173ffffffffffffffffffffffffffffffffffffffff021916908373ffffffffffffffffffffffffffffffffffffffff160217905550808273ffffffffffffffffffffffffffffffffffffffff16612bc8836114d1565b73ffffffffffffffffffffffffffffffffffffffff167f8c5be1e5ebec7d5bd14f71427d1e84f3dd0314c0f7b2291e5b200ac8c7c3b92560405160405180910390a45050565b6000612c1c82600001613559565b9050919050565b6000612c2e82612b30565b612c83576040517f08c379a000000000000000000000000000000000000000000000000000000000815260040180806020018281038252602c8152602001806151fc602c913960400191505060405180910390fd5b6000612c8e836114d1565b90508073ffffffffffffffffffffffffffffffffffffffff168473ffffffffffffffffffffffffffffffffffffffff161480612cfd57508373ffffffffffffffffffffffffffffffffffffffff16612ce5846108fa565b73ffffffffffffffffffffffffffffffffffffffff16145b80612d0e5750612d0d8185612743565b5b91505092915050565b8273ffffffffffffffffffffffffffffffffffffffff16612d37826114d1565b73ffffffffffffffffffffffffffffffffffffffff1614612da3576040517f08c379a00000000000000000000000000000000000000000000000000000000081526004018080602001828103825260298152602001806153016029913960400191505060405180910390fd5b600073ffffffffffffffffffffffffffffffffffffffff168273ffffffffffffffffffffffffffffffffffffffff161415612e29576040517f08c379a00000000000000000000000000000000000000000000000000000000081526004018080602001828103825260248152602001806151b26024913960400191505060405180910390fd5b612e3483838361356a565b612e3f600082612b55565b612e9081600160008673ffffffffffffffffffffffffffffffffffffffff1673ffffffffffffffffffffffffffffffffffffffff16815260200190815260200160002061356f90919063ffffffff16565b50612ee281600160008573ffffffffffffffffffffffffffffffffffffffff1673ffffffffffffffffffffffffffffffffffffffff16815260200190815260200160002061358990919063ffffffff16565b50612ef9818360026135a39092919063ffffffff16565b50808273ffffffffffffffffffffffffffffffffffffffff168473ffffffffffffffffffffffffffffffffffffffff167fddf252ad1be2c89b69c2b068fc378daa952ba7f163c4a11628f55a4df523b3ef60405160405180910390a4505050565b6000612f6983600001836135d8565b60001c905092915050565b600080600080612f87866000018661365b565b915091508160001c8160001c9350935050509250929050565b6000612fb3846000018460001b846136f4565b60001c90509392505050565b6000612fcd826000016137ea565b9050919050565b612fdf848484612d17565b612feb848484846137fb565b613040576040517f08c379a00000000000000000000000000000000000000000000000000000000081526004018080602001828103825260328152602001806151806032913960400191505060405180910390fd5b50505050565b6060600082141561308e576040518060400160405280600181526020017f30000000000000000000000000000000000000000000000000000000000000008152509050613188565b600082905060005b600082146130b8578080600101915050600a82816130b057fe5b049150613096565b60608167ffffffffffffffff811180156130d157600080fd5b506040519080825280601f01601f1916602001820160405280156131045781602001600182028036833780820191505090505b50905060006001830390508593505b6000841461318057600a848161312557fe5b0660300160f81b8282806001900393508151811061313f57fe5b60200101907effffffffffffffffffffffffffffffffffffffffffffffffffffffffffffff1916908160001a905350600a848161317857fe5b049350613113565b819450505050505b919050565b600080600090505b83518110156133085760008482815181106131ac57fe5b6020026020010151905060008560018401815181106131c757fe5b6020026020010151905060008660028501815181106131e257fe5b6020026020010151905060008760038601815181106131fd57fe5b6020026020010151905086600001516000015161ffff168461ffff1611158015613237575086600001516020015161ffff168361ffff1611155b8015613252575086600001516000015161ffff168261ffff16115b801561326d575086600001516020015161ffff168161ffff16115b156132805760019550505050505061330e565b86602001516000015161ffff168461ffff16111580156132b0575086602001516020015161ffff168361ffff1611155b80156132cb575086602001516000015161ffff168261ffff16115b80156132e6575086602001516020015161ffff168161ffff16115b156132f95760019550505050505061330e565b50505050600481019050613195565b50600090505b92915050565b600073ffffffffffffffffffffffffffffffffffffffff168273ffffffffffffffffffffffffffffffffffffffff1614156133b7576040517f08c379a00000000000000000000000000000000000000000000000000000000081526004018080602001828103825260208152602001807f4552433732313a206d696e7420746f20746865207a65726f206164647265737381525060200191505060405180910390fd5b6133c081612b30565b15613433576040517f08c379a000000000000000000000000000000000000000000000000000000000815260040180806020018281038252601c8152602001807f4552433732313a20746f6b656e20616c7265616479206d696e7465640000000081525060200191505060405180910390fd5b61343f6000838361356a565b61349081600160008573ffffffffffffffffffffffffffffffffffffffff1673ffffffffffffffffffffffffffffffffffffffff16815260200190815260200160002061358990919063ffffffff16565b506134a7818360026135a39092919063ffffffff16565b50808273ffffffffffffffffffffffffffffffffffffffff16600073ffffffffffffffffffffffffffffffffffffffff167fddf252ad1be2c89b69c2b068fc378daa952ba7f163c4a11628f55a4df523b3ef60405160405180910390a45050565b600a601c81819054906101000a900461ffff168092919060010191906101000a81548161ffff021916908361ffff16021790555050565b6000613551836000018360001b613a14565b905092915050565b600081600001805490509050919050565b505050565b6000613581836000018360001b613a37565b905092915050565b600061359b836000018360001b613b1f565b905092915050565b60006135cf846000018460001b8473ffffffffffffffffffffffffffffffffffffffff1660001b613b8f565b90509392505050565b600081836000018054905011613639576040517f08c379a000000000000000000000000000000000000000000000000000000000815260040180806020018281038252602281526020018061515e6022913960400191505060405180910390fd5b82600001828154811061364857fe5b9060005260206000200154905092915050565b600080828460000180549050116136bd576040517f08c379a00000000000000000000000000000000000000000000000000000000081526004018080602001828103825260228152602001806152b36022913960400191505060405180910390fd5b60008460000184815481106136ce57fe5b906000526020600020906002020190508060000154816001015492509250509250929050565b600080846001016000858152602001908152602001600020549050600081141583906137bb576040517f08c379a00000000000000000000000000000000000000000000000000000000081526004018080602001828103825283818151815260200191508051906020019080838360005b83811015613780578082015181840152602081019050613765565b50505050905090810190601f1680156137ad5780820380516001836020036101000a031916815260200191505b509250505060405180910390fd5b508460000160018203815481106137ce57fe5b9060005260206000209060020201600101549150509392505050565b600081600001805490509050919050565b600061381c8473ffffffffffffffffffffffffffffffffffffffff16613c6b565b6138295760019050613a0c565b606061399363150b7a0260e01b61383e612b4d565b888787604051602401808573ffffffffffffffffffffffffffffffffffffffff1681526020018473ffffffffffffffffffffffffffffffffffffffff16815260200183815260200180602001828103825283818151815260200191508051906020019080838360005b838110156138c25780820151818401526020810190506138a7565b50505050905090810190601f1680156138ef5780820380516001836020036101000a031916815260200191505b5095505050505050604051602081830303815290604052907bffffffffffffffffffffffffffffffffffffffffffffffffffffffff19166020820180517bffffffffffffffffffffffffffffffffffffffffffffffffffffffff8381831617835250505050604051806060016040528060328152602001615180603291398773ffffffffffffffffffffffffffffffffffffffff16613c7e9092919063ffffffff16565b905060008180602001905160208110156139ac57600080fd5b8101908080519060200190929190505050905063150b7a0260e01b7bffffffffffffffffffffffffffffffffffffffffffffffffffffffff1916817bffffffffffffffffffffffffffffffffffffffffffffffffffffffff191614925050505b949350505050565b600080836001016000848152602001908152602001600020541415905092915050565b60008083600101600084815260200190815260200160002054905060008114613b135760006001820390506000600186600001805490500390506000866000018281548110613a8257fe5b9060005260206000200154905080876000018481548110613a9f57fe5b9060005260206000200181905550600183018760010160008381526020019081526020016000208190555086600001805480613ad757fe5b60019003818190600052602060002001600090559055866001016000878152602001908152602001600020600090556001945050505050613b19565b60009150505b92915050565b6000613b2b8383613c96565b613b84578260000182908060018154018082558091505060019003906000526020600020016000909190919091505582600001805490508360010160008481526020019081526020016000208190555060019050613b89565b600090505b92915050565b6000808460010160008581526020019081526020016000205490506000811415613c3657846000016040518060400160405280868152602001858152509080600181540180825580915050600190039060005260206000209060020201600090919091909150600082015181600001556020820151816001015550508460000180549050856001016000868152602001908152602001600020819055506001915050613c64565b82856000016001830381548110613c4957fe5b90600052602060002090600202016001018190555060009150505b9392505050565b600080823b905060008111915050919050565b6060613c8d8484600085613cb9565b90509392505050565b600080836001016000848152602001908152602001600020541415905092915050565b606082471015613d14576040517f08c379a00000000000000000000000000000000000000000000000000000000081526004018080602001828103825260268152602001806151d66026913960400191505060405180910390fd5b613d1d85613c6b565b613d8f576040517f08c379a000000000000000000000000000000000000000000000000000000000815260040180806020018281038252601d8152602001807f416464726573733a2063616c6c20746f206e6f6e2d636f6e747261637400000081525060200191505060405180910390fd5b600060608673ffffffffffffffffffffffffffffffffffffffff1685876040518082805190602001908083835b60208310613ddf5780518252602082019150602081019050602083039250613dbc565b6001836020036101000a03801982511681845116808217855250505050505090500191505060006040518083038185875af1925050503d8060008114613e41576040519150601f19603f3d011682016040523d82523d6000602084013e613e46565b606091505b5091509150613e56828286613e62565b92505050949350505050565b60608315613e7257829050613f27565b600083511115613e855782518084602001fd5b816040517f08c379a00000000000000000000000000000000000000000000000000000000081526004018080602001828103825283818151815260200191508051906020019080838360005b83811015613eec578082015181840152602081019050613ed1565b50505050905090810190601f168015613f195780820380516001836020036101000a031916815260200191505b509250505060405180910390fd5b9392505050565b82805482825590600052602060002090601f01602090048101928215613fc45791602002820160005b83821115613f9557835183826101000a81548160ff021916908360ff1602179055509260200192600101602081600001049283019260010302613f57565b8015613fc25782816101000a81549060ff0219169055600101602081600001049283019260010302613f95565b505b509050613fd191906140ae565b5090565b6040518060400160405280600073ffffffffffffffffffffffffffffffffffffffff168152602001600081525090565b6040518060600160405280600061ffff168152602001600073ffffffffffffffffffffffffffffffffffffffff168152602001600081525090565b6040518060800160405280600061ffff168152602001600073ffffffffffffffffffffffffffffffffffffffff16815260200160608152602001614082614088565b81525090565b604051806040016040528061409b6140cb565b81526020016140a86140cb565b81525090565b5b808211156140c75760008160009055506001016140af565b5090565b6040518060400160405280600061ffff168152602001600061ffff1681525090565b6000813590506140fc816150bc565b92915050565b600081359050614111816150d3565b92915050565b600082601f83011261412857600080fd5b813561413b61413682614e6a565b614e39565b9150818183526020840193506020810190508385602084028201111561416057600080fd5b60005b83811015614190578161417688826142da565b845260208401935060208301925050600181019050614163565b5050505092915050565b6000813590506141a9816150ea565b92915050565b6000813590506141be81615101565b92915050565b600082601f8301126141d557600080fd5b81356141e86141e382614e96565b614e39565b9150808252602083016020830185838301111561420457600080fd5b61420f838284615067565b50505092915050565b60006080828403121561422a57600080fd5b6142346040614e39565b9050600061424484828501614264565b600083015250604061425884828501614264565b60208301525092915050565b60006040828403121561427657600080fd5b6142806040614e39565b90506000614290848285016142b0565b60008301525060206142a4848285016142b0565b60208301525092915050565b6000813590506142bf81615118565b92915050565b6000813590506142d48161512f565b92915050565b6000813590506142e981615146565b92915050565b60006020828403121561430157600080fd5b600061430f848285016140ed565b91505092915050565b60006020828403121561432a57600080fd5b600061433884828501614102565b91505092915050565b6000806040838503121561435457600080fd5b6000614362858286016140ed565b9250506020614373858286016140ed565b9150509250929050565b60008060006060848603121561439257600080fd5b60006143a0868287016140ed565b93505060206143b1868287016140ed565b92505060406143c2868287016142c5565b9150509250925092565b600080600080608085870312156143e257600080fd5b60006143f0878288016140ed565b9450506020614401878288016140ed565b9350506040614412878288016142c5565b925050606085013567ffffffffffffffff81111561442f57600080fd5b61443b878288016141c4565b91505092959194509250565b6000806040838503121561445a57600080fd5b6000614468858286016140ed565b92505060206144798582860161419a565b9150509250929050565b6000806040838503121561449657600080fd5b60006144a4858286016140ed565b92505060206144b5858286016142c5565b9150509250929050565b60008060a083850312156144d257600080fd5b600083013567ffffffffffffffff8111156144ec57600080fd5b6144f885828601614117565b925050602061450985828601614218565b9150509250929050565b60006020828403121561452557600080fd5b6000614533848285016141af565b91505092915050565b60006020828403121561454e57600080fd5b600061455c848285016142b0565b91505092915050565b6000806040838503121561457857600080fd5b6000614586858286016142b0565b925050602083013567ffffffffffffffff8111156145a357600080fd5b6145af85828601614117565b9150509250929050565b600080604083850312156145cc57600080fd5b60006145da858286016142b0565b92505060206145eb858286016142b0565b9150509250929050565b60006020828403121561460757600080fd5b6000614615848285016142c5565b91505092915050565b600061462a8383614a7e565b60408301905092915050565b60006146428383614b3a565b905092915050565b60006146568383614b9d565b60608301905092915050565b600061466e8383614c1b565b60208301905092915050565b61468381614fd8565b82525050565b61469281614fc6565b82525050565b6146a181614fc6565b82525050565b60006146b282614f06565b6146bc8185614f71565b93506146c783614ec6565b8060005b838110156146f85781516146df888261461e565b97506146ea83614f3d565b9250506001810190506146cb565b5085935050505092915050565b600061471082614f11565b61471a8185614f82565b93508360208202850161472c85614ed6565b8060005b8581101561476857848403895281516147498582614636565b945061475483614f4a565b925060208a01995050600181019050614730565b50829750879550505050505092915050565b600061478582614f1c565b61478f8185614f93565b935061479a83614ee6565b8060005b838110156147cb5781516147b2888261464a565b97506147bd83614f57565b92505060018101905061479e565b5085935050505092915050565b60006147e382614f27565b6147ed8185614fa4565b93506147f883614ef6565b8060005b838110156148295781516148108882614662565b975061481b83614f64565b9250506001810190506147fc565b5085935050505092915050565b61483f81614fea565b82525050565b600061485082614f32565b61485a8185614fb5565b935061486a818560208601615076565b614873816150ab565b840191505092915050565b600061488b600a83614fb5565b91507f4f776e6572204f6e6c79000000000000000000000000000000000000000000006000830152602082019050919050565b60006148cb601c83614fb5565b91507f496e76616c696420706978656c732077697468696e20626f756e6473000000006000830152602082019050919050565b600061490b601083614fb5565b91507f4e6f7420656e6f7567682066756e6473000000000000000000000000000000006000830152602082019050919050565b600061494b601b83614fb5565b91507f426f756e6473206f7665726c6170207769746820616e6f7468657200000000006000830152602082019050919050565b600061498b601383614fb5565b91507f59206f72205820697320746f6f206c61726765000000000000000000000000006000830152602082019050919050565b60006149cb601183614fb5565b91507f43616e6e6f742062652043726561746f720000000000000000000000000000006000830152602082019050919050565b6000614a0b600f83614fb5565b91507f546f6f206d616e7920706978656c7300000000000000000000000000000000006000830152602082019050919050565b6000614a4b600c83614fb5565b91507f43726561746f72204f6e6c7900000000000000000000000000000000000000006000830152602082019050919050565b604082016000820151614a94600085018261467a565b506020820151614aa76020850182614bfd565b50505050565b604082016000820151614ac3600085018261467a565b506020820151614ad66020850182614bfd565b50505050565b608082016000820151614af26000850182614b0b565b506020820151614b056040850182614b0b565b50505050565b604082016000820151614b216000850182614bdf565b506020820151614b346020850182614bdf565b50505050565b600060e083016000830151614b526000860182614bdf565b506020830151614b656020860182614689565b5060408301518482036040860152614b7d82826147d8565b9150506060830151614b926060860182614adc565b508091505092915050565b606082016000820151614bb36000850182614bdf565b506020820151614bc66020850182614689565b506040820151614bd96040850182614bfd565b50505050565b614be881615022565b82525050565b614bf781615022565b82525050565b614c0681615050565b82525050565b614c1581615050565b82525050565b614c248161505a565b82525050565b6000602082019050614c3f6000830184614698565b92915050565b60006020820190508181036000830152614c5f81846146a7565b905092915050565b60006020820190508181036000830152614c818184614705565b905092915050565b60006020820190508181036000830152614ca3818461477a565b905092915050565b6000602082019050614cc06000830184614836565b92915050565b60006020820190508181036000830152614ce08184614845565b905092915050565b60006020820190508181036000830152614d018161487e565b9050919050565b60006020820190508181036000830152614d21816148be565b9050919050565b60006020820190508181036000830152614d41816148fe565b9050919050565b60006020820190508181036000830152614d618161493e565b9050919050565b60006020820190508181036000830152614d818161497e565b9050919050565b60006020820190508181036000830152614da1816149be565b9050919050565b60006020820190508181036000830152614dc1816149fe565b9050919050565b60006020820190508181036000830152614de181614a3e565b9050919050565b6000604082019050614dfd6000830184614aad565b92915050565b6000602082019050614e186000830184614bee565b92915050565b6000602082019050614e336000830184614c0c565b92915050565b6000604051905081810181811067ffffffffffffffff82111715614e6057614e5f6150a9565b5b8060405250919050565b600067ffffffffffffffff821115614e8557614e846150a9565b5b602082029050602081019050919050565b600067ffffffffffffffff821115614eb157614eb06150a9565b5b601f19601f8301169050602081019050919050565b6000819050602082019050919050565b6000819050602082019050919050565b6000819050602082019050919050565b6000819050602082019050919050565b600081519050919050565b600081519050919050565b600081519050919050565b600081519050919050565b600081519050919050565b6000602082019050919050565b6000602082019050919050565b6000602082019050919050565b6000602082019050919050565b600082825260208201905092915050565b600082825260208201905092915050565b600082825260208201905092915050565b600082825260208201905092915050565b600082825260208201905092915050565b6000614fd182615030565b9050919050565b6000614fe382615030565b9050919050565b60008115159050919050565b60007fffffffff0000000000000000000000000000000000000000000000000000000082169050919050565b600061ffff82169050919050565b600073ffffffffffffffffffffffffffffffffffffffff82169050919050565b6000819050919050565b600060ff82169050919050565b82818337600083830152505050565b60005b83811015615094578082015181840152602081019050615079565b838111156150a3576000848401525b50505050565bfe5b6000601f19601f8301169050919050565b6150c581614fc6565b81146150d057600080fd5b50565b6150dc81614fd8565b81146150e757600080fd5b50565b6150f381614fea565b81146150fe57600080fd5b50565b61510a81614ff6565b811461511557600080fd5b50565b61512181615022565b811461512c57600080fd5b50565b61513881615050565b811461514357600080fd5b50565b61514f8161505a565b811461515a57600080fd5b5056fe456e756d657261626c655365743a20696e646578206f7574206f6620626f756e64734552433732313a207472616e7366657220746f206e6f6e20455243373231526563656976657220696d706c656d656e7465724552433732313a207472616e7366657220746f20746865207a65726f2061646472657373416464726573733a20696e73756666696369656e742062616c616e636520666f722063616c6c4552433732313a206f70657261746f7220717565727920666f72206e6f6e6578697374656e7420746f6b656e4552433732313a20617070726f76652063616c6c6572206973206e6f74206f776e6572206e6f7220617070726f76656420666f7220616c6c4552433732313a2062616c616e636520717565727920666f7220746865207a65726f20616464726573734552433732313a206f776e657220717565727920666f72206e6f6e6578697374656e7420746f6b656e456e756d657261626c654d61703a20696e646578206f7574206f6620626f756e64734552433732313a20617070726f76656420717565727920666f72206e6f6e6578697374656e7420746f6b656e4552433732313a207472616e73666572206f6620746f6b656e2074686174206973206e6f74206f776e4552433732314d657461646174613a2055524920717565727920666f72206e6f6e6578697374656e7420746f6b656e4552433732313a20617070726f76616c20746f2063757272656e74206f776e65724552433732313a207472616e736665722063616c6c6572206973206e6f74206f776e6572206e6f7220617070726f766564a2646970667358221220ead86268fc10206506a2e3794c1a2df063b2a339f97724659ecf0abe9bb9d3a064736f6c63430007040033",
  "immutableReferences": {},
  "source": "pragma solidity 0.7.4;\npragma experimental ABIEncoderV2;\n\nimport \"@openzeppelin/contracts/token/ERC721/ERC721.sol\";\n\ncontract PixelToken is ERC721 {\n    struct Bounds {\n        Coord topLeft;\n        Coord bottomRight;\n    }\n\n    struct Coord {\n        uint16 x;\n        uint16 y;\n    }\n\n    struct Bid {\n        address payable fromAddress;\n        uint256 amount;\n    }\n\n    struct HighestBidResponse {\n        uint16 exhibitId;\n        address fromAddress;\n        uint256 amount;\n    }\n\n    struct ExhibitResp {\n        uint16 exhibitId;\n        address owner;\n        uint8[] rgbArray;\n        Bounds bounds;\n    }\n\n    address payable owner;\n    uint16 public pixelFee;\n    uint16 public maxXPixel;\n    uint16 public maxYPixel;\n    uint16 public maxPixelsPerExhibit;\n    uint16 private _currentTokenID;\n    mapping (uint16 => Bid) highestBid;\n    mapping (uint16 => Bid[]) bidHistory;\n    mapping (uint16 => Bounds) bounds;\n    mapping (uint16 => uint8[]) rgbArray;\n    uint16[] allBounds;\n\n    modifier exhibitCreatorOnly(uint16 _id) {\n        require(ownerOf(_id) == msg.sender, \"Creator Only\");\n        _;\n    }\n\n    modifier notExhibitCreator(uint16 _id) {\n        require(ownerOf(_id) != msg.sender, \"Cannot be Creator\");\n        _;\n    }\n\n    modifier isContractOwner() {\n        require(msg.sender == owner, \"Owner Only\");\n        _;\n    }\n\n    modifier isValidLength(uint256 length, Bounds memory _bounds) {\n        require(length == (_bounds.bottomRight.x - _bounds.topLeft.x + 1) * (_bounds.bottomRight.y - _bounds.topLeft.y + 1), \"Invalid pixels within bounds\");\n        _;\n    }\n\n    modifier isInBounds(Bounds memory _bounds) {\n        require(!validBounds(allBounds, _bounds), \"Bounds overlap with another\");\n        _;\n    }\n\n    modifier isPixelsValid(uint8[] memory _pixels) {\n        require(_pixels.length <= maxPixelsPerExhibit * 3, \"Too many pixels\");\n        _;\n    }\n\n    modifier isOnCanvas(Bounds memory _newBounds) {\n        require(_newBounds.topLeft.x <= maxXPixel && _newBounds.topLeft.y <= maxYPixel \n            && _newBounds.bottomRight.x <= maxXPixel && _newBounds.bottomRight.y <= maxYPixel, \"Y or X is too large\");\n        _;\n    }\n\n    constructor(address payable _owner, uint16 _maxCoords, \n                uint16 _maxPixels, uint16 _pixelfee) ERC721(\"Exhibit\", \"XBT\") {\n        owner = _owner;\n        maxXPixel = _maxCoords;\n        maxYPixel = _maxCoords;\n        maxPixelsPerExhibit = _maxPixels;\n        pixelFee = _pixelfee;\n    }\n\n    function getPixels() public view returns(ExhibitResp[] memory) {\n        ExhibitResp[] memory _exhibit = new ExhibitResp[](_currentTokenID);\n        for (uint16 i = 0; i < _currentTokenID; i++) {\n            uint8[] memory _rgbArray = rgbArray[i];\n            Bounds memory _bounds = bounds[i];\n            ExhibitResp memory resp = ExhibitResp({\n                exhibitId: i,\n                owner: ownerOf(i),\n                rgbArray: _rgbArray,\n                bounds: _bounds\n            });\n             _exhibit[i] = resp;\n        }\n        return _exhibit;\n    }\n\n    function create(uint8[] memory _pixels, Bounds memory _bounds) public payable \n                isValidLength(uint16((_pixels.length / 3)), _bounds)\n                isInBounds(_bounds)\n                isPixelsValid(_pixels)\n                isOnCanvas(_bounds) {\n        \n        require(msg.sender.balance >= msg.value, \"Not enough funds\");\n        bounds[_currentTokenID] = _bounds;\n        rgbArray[_currentTokenID] = _pixels;\n        allBounds.push(_bounds.topLeft.x);\n        allBounds.push(_bounds.topLeft.y);\n        allBounds.push(_bounds.bottomRight.x);\n        allBounds.push(_bounds.bottomRight.y);\n        owner.transfer(msg.value);\n        _mint(msg.sender, _currentTokenID);\n        _incrementTokenTypeId();\n    }\n\n    function changePixels(uint16 _id, uint8[] memory _rgbArray) public exhibitCreatorOnly(_id) {\n        rgbArray[_id] = _rgbArray;\n        Bid memory _highestBid = highestBid[_id];\n        if (_highestBid.fromAddress != address(0)) {\n            _highestBid.fromAddress.transfer(_highestBid.amount);\n            bidHistory[_id].push(_highestBid);\n        }\n        delete highestBid[_id];\n    }\n\n    function placeBid(uint16 _id) notExhibitCreator(_id) public payable {\n        Bid memory prevHighest = highestBid[_id];\n        require(msg.sender.balance >= msg.value);\n        require(msg.value > 0 && msg.value > prevHighest.amount);\n\n        if (prevHighest.fromAddress != address(0)) {\n            prevHighest.fromAddress.transfer(prevHighest.amount);\n            bidHistory[_id].push(prevHighest);\n        }\n\n        Bid memory newHighestBidder = Bid({\n            amount: msg.value,\n            fromAddress: msg.sender\n        });\n        highestBid[_id] = newHighestBidder;\n    }\n\n    function acceptBid(uint16 _id) exhibitCreatorOnly(_id) public payable {\n        address payable _prevOwner = payable(ownerOf(_id));\n        Bid memory _highestBid = highestBid[_id];\n        _prevOwner.transfer(_highestBid.amount);\n        safeTransferFrom(_prevOwner, _highestBid.fromAddress, _id);\n        bidHistory[_id].push(_highestBid);\n        delete highestBid[_id];\n    }\n \n    function getBid(uint16 _id) public view returns(Bid memory) {\n        return highestBid[_id];\n    }\n\n    function getBidHistoryForExhibit(uint16 _id) public view returns(Bid[] memory) {\n        return bidHistory[_id];\n    }\n\n    function getAllHighestBids() public view returns(HighestBidResponse[] memory) {\n        HighestBidResponse[] memory highestBids = new HighestBidResponse[](_currentTokenID);\n        uint16 index = 0;\n        for (uint16 i = 0; i < _currentTokenID; i++) {\n            if (highestBid[i].amount != 0) {\n                Bid memory _bid = highestBid[i];\n                HighestBidResponse memory resp = HighestBidResponse({\n                    exhibitId: i,\n                    fromAddress: _bid.fromAddress,\n                    amount: _bid.amount\n                });\n                highestBids[index] = resp;\n                index++;\n            }\n        }\n        return highestBids;\n    }\n\n    // Helpers\n    function _incrementTokenTypeId() internal {\n        _currentTokenID++;\n    }\n\n    function getHashFromCords(uint16 x, uint16 y) internal pure returns (bytes32) {\n        return sha256(abi.encodePacked(x, y));\n   }\n\n   function validBounds(uint16[] memory _bounds, Bounds memory _newBounds) internal pure returns(bool) {\n       for (uint256 i = 0; i < _bounds.length; i += 4) {\n           uint16 _topLeftX = _bounds[i];\n           uint16 _topLeftY = _bounds[i+1];\n           uint16 _bottomRightX = _bounds[i+2];\n           uint16 _bottomRightY = _bounds[i+3];\n\n           if (_topLeftX <= _newBounds.topLeft.x \n                    && _topLeftY <= _newBounds.topLeft.y\n                    && _bottomRightX > _newBounds.topLeft.x\n                    && _bottomRightY > _newBounds.topLeft.y) {\n                return true;\n           } else if (_topLeftX <= _newBounds.bottomRight.x \n                    && _topLeftY <= _newBounds.bottomRight.y\n                    && _bottomRightX > _newBounds.bottomRight.x\n                    && _bottomRightY > _newBounds.bottomRight.y) {\n                return true;\n           } \n       }\n       return false;\n   }\n\n    // Admin\n    function changeContactOwner(address payable _owner) public isContractOwner {\n        owner = _owner;\n    }\n\n    function changeMaxXYPixel(uint16 _maxX, uint16 _maxY) public isContractOwner {\n        require(_maxX > maxXPixel && _maxY > maxYPixel);\n        maxXPixel = _maxX;\n        maxYPixel = _maxY;\n    }\n\n    function changePixelFee(uint16 _pixelFee) public isContractOwner {\n        pixelFee = _pixelFee;\n    }\n\n    function changeMaxPixelsPerExhibit(uint16 _max) public isContractOwner {\n        maxPixelsPerExhibit = _max;\n    }\n}",
  "sourcePath": "/Users/matthewruddy/Projects/DAPP/contracts/PixelToken.sol",
  "compiler": {
    "name": "solc",
    "version": "0.7.4+commit.3f05b770.Emscripten.clang"
  },
  "schemaVersion": "3.2.5",
  "updatedAt": "2021-03-16T00:53:14.323Z",
  "networkType": "ethereum",
  "devdoc": {
    "kind": "dev",
    "methods": {
      "approve(address,uint256)": {
        "details": "See {IERC721-approve}."
      },
      "balanceOf(address)": {
        "details": "See {IERC721-balanceOf}."
      },
      "baseURI()": {
        "details": "Returns the base URI set via {_setBaseURI}. This will be automatically added as a prefix in {tokenURI} to each token's URI, or to the token ID if no specific URI is set for that token ID."
      },
      "getApproved(uint256)": {
        "details": "See {IERC721-getApproved}."
      },
      "isApprovedForAll(address,address)": {
        "details": "See {IERC721-isApprovedForAll}."
      },
      "name()": {
        "details": "See {IERC721Metadata-name}."
      },
      "ownerOf(uint256)": {
        "details": "See {IERC721-ownerOf}."
      },
      "safeTransferFrom(address,address,uint256)": {
        "details": "See {IERC721-safeTransferFrom}."
      },
      "safeTransferFrom(address,address,uint256,bytes)": {
        "details": "See {IERC721-safeTransferFrom}."
      },
      "setApprovalForAll(address,bool)": {
        "details": "See {IERC721-setApprovalForAll}."
      },
      "supportsInterface(bytes4)": {
        "details": "See {IERC165-supportsInterface}. Time complexity O(1), guaranteed to always use less than 30 000 gas."
      },
      "symbol()": {
        "details": "See {IERC721Metadata-symbol}."
      },
      "tokenByIndex(uint256)": {
        "details": "See {IERC721Enumerable-tokenByIndex}."
      },
      "tokenOfOwnerByIndex(address,uint256)": {
        "details": "See {IERC721Enumerable-tokenOfOwnerByIndex}."
      },
      "tokenURI(uint256)": {
        "details": "See {IERC721Metadata-tokenURI}."
      },
      "totalSupply()": {
        "details": "See {IERC721Enumerable-totalSupply}."
      },
      "transferFrom(address,address,uint256)": {
        "details": "See {IERC721-transferFrom}."
      }
    },
    "version": 1
  },
  "userdoc": {
    "kind": "user",
    "methods": {},
    "version": 1
  }
}