{
  "contractName": "PixelToken",
  "abi": [
    {
      "inputs": [
        {
          "internalType": "address payable",
          "name": "_owner",
          "type": "address"
        },
        {
          "internalType": "uint16",
          "name": "_maxCoords",
          "type": "uint16"
        },
        {
          "internalType": "uint16",
          "name": "_maxPixels",
          "type": "uint16"
        },
        {
          "internalType": "uint16",
          "name": "_pixelfee",
          "type": "uint16"
        }
      ],
      "stateMutability": "nonpayable",
      "type": "constructor"
    },
    {
      "anonymous": false,
      "inputs": [
        {
          "indexed": true,
          "internalType": "address",
          "name": "owner",
          "type": "address"
        },
        {
          "indexed": true,
          "internalType": "address",
          "name": "approved",
          "type": "address"
        },
        {
          "indexed": true,
          "internalType": "uint256",
          "name": "tokenId",
          "type": "uint256"
        }
      ],
      "name": "Approval",
      "type": "event"
    },
    {
      "anonymous": false,
      "inputs": [
        {
          "indexed": true,
          "internalType": "address",
          "name": "owner",
          "type": "address"
        },
        {
          "indexed": true,
          "internalType": "address",
          "name": "operator",
          "type": "address"
        },
        {
          "indexed": false,
          "internalType": "bool",
          "name": "approved",
          "type": "bool"
        }
      ],
      "name": "ApprovalForAll",
      "type": "event"
    },
    {
      "anonymous": false,
      "inputs": [
        {
          "indexed": true,
          "internalType": "address",
          "name": "from",
          "type": "address"
        },
        {
          "indexed": true,
          "internalType": "address",
          "name": "to",
          "type": "address"
        },
        {
          "indexed": true,
          "internalType": "uint256",
          "name": "tokenId",
          "type": "uint256"
        }
      ],
      "name": "Transfer",
      "type": "event"
    },
    {
      "inputs": [
        {
          "internalType": "address",
          "name": "to",
          "type": "address"
        },
        {
          "internalType": "uint256",
          "name": "tokenId",
          "type": "uint256"
        }
      ],
      "name": "approve",
      "outputs": [],
      "stateMutability": "nonpayable",
      "type": "function"
    },
    {
      "inputs": [
        {
          "internalType": "address",
          "name": "owner",
          "type": "address"
        }
      ],
      "name": "balanceOf",
      "outputs": [
        {
          "internalType": "uint256",
          "name": "",
          "type": "uint256"
        }
      ],
      "stateMutability": "view",
      "type": "function",
      "constant": true
    },
    {
      "inputs": [],
      "name": "baseURI",
      "outputs": [
        {
          "internalType": "string",
          "name": "",
          "type": "string"
        }
      ],
      "stateMutability": "view",
      "type": "function",
      "constant": true
    },
    {
      "inputs": [
        {
          "internalType": "uint16",
          "name": "",
          "type": "uint16"
        }
      ],
      "name": "bounds",
      "outputs": [
        {
          "components": [
            {
              "internalType": "uint16",
              "name": "x",
              "type": "uint16"
            },
            {
              "internalType": "uint16",
              "name": "y",
              "type": "uint16"
            }
          ],
          "internalType": "struct PixelToken.Coord",
          "name": "topLeft",
          "type": "tuple"
        },
        {
          "components": [
            {
              "internalType": "uint16",
              "name": "x",
              "type": "uint16"
            },
            {
              "internalType": "uint16",
              "name": "y",
              "type": "uint16"
            }
          ],
          "internalType": "struct PixelToken.Coord",
          "name": "bottomRight",
          "type": "tuple"
        }
      ],
      "stateMutability": "view",
      "type": "function",
      "constant": true
    },
    {
      "inputs": [
        {
          "internalType": "uint256",
          "name": "tokenId",
          "type": "uint256"
        }
      ],
      "name": "getApproved",
      "outputs": [
        {
          "internalType": "address",
          "name": "",
          "type": "address"
        }
      ],
      "stateMutability": "view",
      "type": "function",
      "constant": true
    },
    {
      "inputs": [
        {
          "internalType": "address",
          "name": "owner",
          "type": "address"
        },
        {
          "internalType": "address",
          "name": "operator",
          "type": "address"
        }
      ],
      "name": "isApprovedForAll",
      "outputs": [
        {
          "internalType": "bool",
          "name": "",
          "type": "bool"
        }
      ],
      "stateMutability": "view",
      "type": "function",
      "constant": true
    },
    {
      "inputs": [],
      "name": "maxPixelsPerExhibit",
      "outputs": [
        {
          "internalType": "uint16",
          "name": "",
          "type": "uint16"
        }
      ],
      "stateMutability": "view",
      "type": "function",
      "constant": true
    },
    {
      "inputs": [],
      "name": "maxXPixel",
      "outputs": [
        {
          "internalType": "uint16",
          "name": "",
          "type": "uint16"
        }
      ],
      "stateMutability": "view",
      "type": "function",
      "constant": true
    },
    {
      "inputs": [],
      "name": "maxYPixel",
      "outputs": [
        {
          "internalType": "uint16",
          "name": "",
          "type": "uint16"
        }
      ],
      "stateMutability": "view",
      "type": "function",
      "constant": true
    },
    {
      "inputs": [],
      "name": "name",
      "outputs": [
        {
          "internalType": "string",
          "name": "",
          "type": "string"
        }
      ],
      "stateMutability": "view",
      "type": "function",
      "constant": true
    },
    {
      "inputs": [
        {
          "internalType": "uint256",
          "name": "tokenId",
          "type": "uint256"
        }
      ],
      "name": "ownerOf",
      "outputs": [
        {
          "internalType": "address",
          "name": "",
          "type": "address"
        }
      ],
      "stateMutability": "view",
      "type": "function",
      "constant": true
    },
    {
      "inputs": [
        {
          "internalType": "bytes32",
          "name": "",
          "type": "bytes32"
        }
      ],
      "name": "pixelExhibit",
      "outputs": [
        {
          "internalType": "uint16",
          "name": "",
          "type": "uint16"
        }
      ],
      "stateMutability": "view",
      "type": "function",
      "constant": true
    },
    {
      "inputs": [],
      "name": "pixelFee",
      "outputs": [
        {
          "internalType": "uint16",
          "name": "",
          "type": "uint16"
        }
      ],
      "stateMutability": "view",
      "type": "function",
      "constant": true
    },
    {
      "inputs": [
        {
          "internalType": "bytes32",
          "name": "",
          "type": "bytes32"
        }
      ],
      "name": "pixelMap",
      "outputs": [
        {
          "internalType": "bytes32",
          "name": "id",
          "type": "bytes32"
        },
        {
          "internalType": "bytes32",
          "name": "hexColor",
          "type": "bytes32"
        },
        {
          "internalType": "uint16",
          "name": "x",
          "type": "uint16"
        },
        {
          "internalType": "uint16",
          "name": "y",
          "type": "uint16"
        }
      ],
      "stateMutability": "view",
      "type": "function",
      "constant": true
    },
    {
      "inputs": [
        {
          "internalType": "address",
          "name": "from",
          "type": "address"
        },
        {
          "internalType": "address",
          "name": "to",
          "type": "address"
        },
        {
          "internalType": "uint256",
          "name": "tokenId",
          "type": "uint256"
        }
      ],
      "name": "safeTransferFrom",
      "outputs": [],
      "stateMutability": "nonpayable",
      "type": "function"
    },
    {
      "inputs": [
        {
          "internalType": "address",
          "name": "from",
          "type": "address"
        },
        {
          "internalType": "address",
          "name": "to",
          "type": "address"
        },
        {
          "internalType": "uint256",
          "name": "tokenId",
          "type": "uint256"
        },
        {
          "internalType": "bytes",
          "name": "_data",
          "type": "bytes"
        }
      ],
      "name": "safeTransferFrom",
      "outputs": [],
      "stateMutability": "nonpayable",
      "type": "function"
    },
    {
      "inputs": [
        {
          "internalType": "address",
          "name": "operator",
          "type": "address"
        },
        {
          "internalType": "bool",
          "name": "approved",
          "type": "bool"
        }
      ],
      "name": "setApprovalForAll",
      "outputs": [],
      "stateMutability": "nonpayable",
      "type": "function"
    },
    {
      "inputs": [
        {
          "internalType": "bytes4",
          "name": "interfaceId",
          "type": "bytes4"
        }
      ],
      "name": "supportsInterface",
      "outputs": [
        {
          "internalType": "bool",
          "name": "",
          "type": "bool"
        }
      ],
      "stateMutability": "view",
      "type": "function",
      "constant": true
    },
    {
      "inputs": [],
      "name": "symbol",
      "outputs": [
        {
          "internalType": "string",
          "name": "",
          "type": "string"
        }
      ],
      "stateMutability": "view",
      "type": "function",
      "constant": true
    },
    {
      "inputs": [
        {
          "internalType": "uint256",
          "name": "index",
          "type": "uint256"
        }
      ],
      "name": "tokenByIndex",
      "outputs": [
        {
          "internalType": "uint256",
          "name": "",
          "type": "uint256"
        }
      ],
      "stateMutability": "view",
      "type": "function",
      "constant": true
    },
    {
      "inputs": [
        {
          "internalType": "address",
          "name": "owner",
          "type": "address"
        },
        {
          "internalType": "uint256",
          "name": "index",
          "type": "uint256"
        }
      ],
      "name": "tokenOfOwnerByIndex",
      "outputs": [
        {
          "internalType": "uint256",
          "name": "",
          "type": "uint256"
        }
      ],
      "stateMutability": "view",
      "type": "function",
      "constant": true
    },
    {
      "inputs": [
        {
          "internalType": "uint256",
          "name": "tokenId",
          "type": "uint256"
        }
      ],
      "name": "tokenURI",
      "outputs": [
        {
          "internalType": "string",
          "name": "",
          "type": "string"
        }
      ],
      "stateMutability": "view",
      "type": "function",
      "constant": true
    },
    {
      "inputs": [],
      "name": "totalSupply",
      "outputs": [
        {
          "internalType": "uint256",
          "name": "",
          "type": "uint256"
        }
      ],
      "stateMutability": "view",
      "type": "function",
      "constant": true
    },
    {
      "inputs": [
        {
          "internalType": "address",
          "name": "from",
          "type": "address"
        },
        {
          "internalType": "address",
          "name": "to",
          "type": "address"
        },
        {
          "internalType": "uint256",
          "name": "tokenId",
          "type": "uint256"
        }
      ],
      "name": "transferFrom",
      "outputs": [],
      "stateMutability": "nonpayable",
      "type": "function"
    },
    {
      "inputs": [],
      "name": "getPixels",
      "outputs": [
        {
          "components": [
            {
              "internalType": "uint16",
              "name": "exhibitId",
              "type": "uint16"
            },
            {
              "internalType": "address",
              "name": "owner",
              "type": "address"
            },
            {
              "internalType": "uint8[]",
              "name": "rgbArray",
              "type": "uint8[]"
            },
            {
              "components": [
                {
                  "components": [
                    {
                      "internalType": "uint16",
                      "name": "x",
                      "type": "uint16"
                    },
                    {
                      "internalType": "uint16",
                      "name": "y",
                      "type": "uint16"
                    }
                  ],
                  "internalType": "struct PixelToken.Coord",
                  "name": "topLeft",
                  "type": "tuple"
                },
                {
                  "components": [
                    {
                      "internalType": "uint16",
                      "name": "x",
                      "type": "uint16"
                    },
                    {
                      "internalType": "uint16",
                      "name": "y",
                      "type": "uint16"
                    }
                  ],
                  "internalType": "struct PixelToken.Coord",
                  "name": "bottomRight",
                  "type": "tuple"
                }
              ],
              "internalType": "struct PixelToken.Bounds",
              "name": "bounds",
              "type": "tuple"
            }
          ],
          "internalType": "struct PixelToken.ExhibitResp[]",
          "name": "",
          "type": "tuple[]"
        }
      ],
      "stateMutability": "view",
      "type": "function",
      "constant": true
    },
    {
      "inputs": [
        {
          "internalType": "uint8[]",
          "name": "_pixels",
          "type": "uint8[]"
        },
        {
          "components": [
            {
              "components": [
                {
                  "internalType": "uint16",
                  "name": "x",
                  "type": "uint16"
                },
                {
                  "internalType": "uint16",
                  "name": "y",
                  "type": "uint16"
                }
              ],
              "internalType": "struct PixelToken.Coord",
              "name": "topLeft",
              "type": "tuple"
            },
            {
              "components": [
                {
                  "internalType": "uint16",
                  "name": "x",
                  "type": "uint16"
                },
                {
                  "internalType": "uint16",
                  "name": "y",
                  "type": "uint16"
                }
              ],
              "internalType": "struct PixelToken.Coord",
              "name": "bottomRight",
              "type": "tuple"
            }
          ],
          "internalType": "struct PixelToken.Bounds",
          "name": "_bounds",
          "type": "tuple"
        }
      ],
      "name": "create",
      "outputs": [],
      "stateMutability": "payable",
      "type": "function",
      "payable": true
    },
    {
      "inputs": [
        {
          "internalType": "uint16",
          "name": "_id",
          "type": "uint16"
        },
        {
          "internalType": "uint8[]",
          "name": "_rgbArray",
          "type": "uint8[]"
        }
      ],
      "name": "changePixels",
      "outputs": [],
      "stateMutability": "nonpayable",
      "type": "function"
    },
    {
      "inputs": [
        {
          "internalType": "uint16",
          "name": "_id",
          "type": "uint16"
        }
      ],
      "name": "placeBid",
      "outputs": [],
      "stateMutability": "payable",
      "type": "function",
      "payable": true
    },
    {
      "inputs": [
        {
          "internalType": "uint16",
          "name": "_id",
          "type": "uint16"
        }
      ],
      "name": "acceptBid",
      "outputs": [],
      "stateMutability": "payable",
      "type": "function",
      "payable": true
    },
    {
      "inputs": [
        {
          "internalType": "address payable",
          "name": "_address",
          "type": "address"
        },
        {
          "internalType": "uint16",
          "name": "_id",
          "type": "uint16"
        }
      ],
      "name": "changeAddressForExibit",
      "outputs": [],
      "stateMutability": "nonpayable",
      "type": "function"
    },
    {
      "inputs": [
        {
          "internalType": "uint16",
          "name": "_id",
          "type": "uint16"
        }
      ],
      "name": "getBid",
      "outputs": [
        {
          "components": [
            {
              "internalType": "address payable",
              "name": "fromAddress",
              "type": "address"
            },
            {
              "internalType": "uint256",
              "name": "amount",
              "type": "uint256"
            }
          ],
          "internalType": "struct PixelToken.Bid",
          "name": "",
          "type": "tuple"
        }
      ],
      "stateMutability": "view",
      "type": "function",
      "constant": true
    },
    {
      "inputs": [
        {
          "internalType": "uint16",
          "name": "_id",
          "type": "uint16"
        }
      ],
      "name": "getBidHistoryForExhibit",
      "outputs": [
        {
          "components": [
            {
              "internalType": "address payable",
              "name": "fromAddress",
              "type": "address"
            },
            {
              "internalType": "uint256",
              "name": "amount",
              "type": "uint256"
            }
          ],
          "internalType": "struct PixelToken.Bid[]",
          "name": "",
          "type": "tuple[]"
        }
      ],
      "stateMutability": "view",
      "type": "function",
      "constant": true
    },
    {
      "inputs": [],
      "name": "getAllHighestBids",
      "outputs": [
        {
          "components": [
            {
              "internalType": "uint16",
              "name": "exhibitId",
              "type": "uint16"
            },
            {
              "internalType": "address",
              "name": "fromAddress",
              "type": "address"
            },
            {
              "internalType": "uint256",
              "name": "amount",
              "type": "uint256"
            }
          ],
          "internalType": "struct PixelToken.HighestBidResponse[]",
          "name": "",
          "type": "tuple[]"
        }
      ],
      "stateMutability": "view",
      "type": "function",
      "constant": true
    },
    {
      "inputs": [
        {
          "internalType": "address payable",
          "name": "_owner",
          "type": "address"
        }
      ],
      "name": "changeContactOwner",
      "outputs": [],
      "stateMutability": "nonpayable",
      "type": "function"
    },
    {
      "inputs": [
        {
          "internalType": "uint16",
          "name": "_maxX",
          "type": "uint16"
        },
        {
          "internalType": "uint16",
          "name": "_maxY",
          "type": "uint16"
        }
      ],
      "name": "changeMaxXYPixel",
      "outputs": [],
      "stateMutability": "nonpayable",
      "type": "function"
    },
    {
      "inputs": [
        {
          "internalType": "uint16",
          "name": "_pixelFee",
          "type": "uint16"
        }
      ],
      "name": "changePixelFee",
      "outputs": [],
      "stateMutability": "nonpayable",
      "type": "function"
    },
    {
      "inputs": [
        {
          "internalType": "uint16",
          "name": "_max",
          "type": "uint16"
        }
      ],
      "name": "changeMaxPixelsPerExhibit",
      "outputs": [],
      "stateMutability": "nonpayable",
      "type": "function"
    }
  ],
  "bytecode": "0x60806040523480156200001157600080fd5b5060405162005d6138038062005d618339818101604052810190620000379190620003e3565b6040518060400160405280600781526020017f45786869626974000000000000000000000000000000000000000000000000008152506040518060400160405280600381526020017f5842540000000000000000000000000000000000000000000000000000000000815250620000bb6301ffc9a760e01b620001f660201b60201c565b8160069080519060200190620000d3929190620002ff565b508060079080519060200190620000ec929190620002ff565b50620001056380ac58cd60e01b620001f660201b60201c565b6200011d635b5e139f60e01b620001f660201b60201c565b6200013563780e9d6360e01b620001f660201b60201c565b505083600a60006101000a81548173ffffffffffffffffffffffffffffffffffffffff021916908373ffffffffffffffffffffffffffffffffffffffff16021790555082601160006101000a81548161ffff021916908361ffff16021790555082601160026101000a81548161ffff021916908361ffff16021790555081601160046101000a81548161ffff021916908361ffff16021790555080600a60146101000a81548161ffff021916908361ffff16021790555050505050620004c5565b63ffffffff60e01b817bffffffffffffffffffffffffffffffffffffffffffffffffffffffff1916141562000293576040517f08c379a000000000000000000000000000000000000000000000000000000000815260040180806020018281038252601c8152602001807f4552433136353a20696e76616c696420696e746572666163652069640000000081525060200191505060405180910390fd5b6001600080837bffffffffffffffffffffffffffffffffffffffffffffffffffffffff19167bffffffffffffffffffffffffffffffffffffffffffffffffffffffff1916815260200190815260200160002060006101000a81548160ff02191690831515021790555050565b828054600181600116156101000203166002900490600052602060002090601f01602090048101928262000337576000855562000383565b82601f106200035257805160ff191683800117855562000383565b8280016001018555821562000383579182015b828111156200038257825182559160200191906001019062000365565b5b50905062000392919062000396565b5090565b5b80821115620003b157600081600090555060010162000397565b5090565b600081519050620003c68162000491565b92915050565b600081519050620003dd81620004ab565b92915050565b60008060008060808587031215620003fa57600080fd5b60006200040a87828801620003b5565b94505060206200041d87828801620003cc565b93505060406200043087828801620003cc565b92505060606200044387828801620003cc565b91505092959194509250565b60006200045c8262000471565b9050919050565b600061ffff82169050919050565b600073ffffffffffffffffffffffffffffffffffffffff82169050919050565b6200049c816200044f565b8114620004a857600080fd5b50565b620004b68162000463565b8114620004c257600080fd5b50565b61588c80620004d56000396000f3fe60806040526004361061021a5760003560e01c806370a0823111610123578063bb3c358c116100ab578063e678bed11161006f578063e678bed1146107f1578063e985e9c51461081c578063fc033d7614610859578063feeac61914610899578063ff4d273d146108c45761021a565b8063bb3c358c14610719578063c3355a9f14610744578063c87b56dd1461076d578063dee5d9b8146107aa578063e14bf40d146107d55761021a565b8063935cd960116100f2578063935cd9601461064857806395d89b4114610673578063a22cb4651461069e578063a62f204e146106c7578063b88d4fde146106f05761021a565b806370a0823114610588578063717cd328146105c55780638611fef91461060357806387013d0a1461061f5761021a565b80633074e143116101a65780634e2787ee116101755780634e2787ee146104695780634f6ccce7146104a65780636352211e146104e35780636b4e2385146105205780636c0360eb1461055d5761021a565b80633074e143146103d257806335c22e46146103fb578063379aa1441461041757806342842e0e146104405761021a565b806318160ddd116101ed57806318160ddd146102ed57806322d858a31461031857806323b872dd14610341578063281fe1d91461036a5780632f745c59146103955761021a565b806301ffc9a71461021f57806306fdde031461025c578063081812fc14610287578063095ea7b3146102c4575b600080fd5b34801561022b57600080fd5b5061024660048036038101906102419190614a12565b610901565b6040516102539190615128565b60405180910390f35b34801561026857600080fd5b50610271610968565b60405161027e9190615188565b60405180910390f35b34801561029357600080fd5b506102ae60048036038101906102a99190614af4565b610a0a565b6040516102bb91906150a7565b60405180910390f35b3480156102d057600080fd5b506102eb60048036038101906102e69190614959565b610aa5565b005b3480156102f957600080fd5b50610302610be9565b60405161030f91906152a9565b60405180910390f35b34801561032457600080fd5b5061033f600480360381019061033a9190614a64565b610bfa565b005b34801561034d57600080fd5b5061036860048036038101906103639190614853565b610cdc565b005b34801561037657600080fd5b5061037f610d52565b60405161038c9190615106565b60405180910390f35b3480156103a157600080fd5b506103bc60048036038101906103b79190614959565b610f1b565b6040516103c991906152a9565b60405180910390f35b3480156103de57600080fd5b506103f960048036038101906103f491906147db565b610f76565b005b61041560048036038101906104109190614a3b565b611085565b005b34801561042357600080fd5b5061043e60048036038101906104399190614a3b565b6113ce565b005b34801561044c57600080fd5b5061046760048036038101906104629190614853565b61147e565b005b34801561047557600080fd5b50610490600480360381019061048b9190614a3b565b61149e565b60405161049d919061524a565b60405180910390f35b3480156104b257600080fd5b506104cd60048036038101906104c89190614af4565b611533565b6040516104da91906152a9565b60405180910390f35b3480156104ef57600080fd5b5061050a60048036038101906105059190614af4565b611556565b60405161051791906150a7565b60405180910390f35b34801561052c57600080fd5b50610547600480360381019061054291906149e9565b61158d565b604051610554919061528e565b60405180910390f35b34801561056957600080fd5b506105726115ae565b60405161057f9190615188565b60405180910390f35b34801561059457600080fd5b506105af60048036038101906105aa9190614789565b611650565b6040516105bc91906152a9565b60405180910390f35b3480156105d157600080fd5b506105ec60048036038101906105e79190614a3b565b611725565b6040516105fa929190615265565b60405180910390f35b61061d60048036038101906106189190614a3b565b6117dd565b005b34801561062b57600080fd5b5061064660048036038101906106419190614ab8565b611c9e565b005b34801561065457600080fd5b5061065d611db3565b60405161066a919061528e565b60405180910390f35b34801561067f57600080fd5b50610688611dc7565b6040516106959190615188565b60405180910390f35b3480156106aa57600080fd5b506106c560048036038101906106c0919061491d565b611e69565b005b3480156106d357600080fd5b506106ee60048036038101906106e991906147b2565b61201f565b005b3480156106fc57600080fd5b50610717600480360381019061071291906148a2565b6120f3565b005b34801561072557600080fd5b5061072e61216b565b60405161073b919061528e565b60405180910390f35b34801561075057600080fd5b5061076b60048036038101906107669190614a3b565b61217f565b005b34801561077957600080fd5b50610794600480360381019061078f9190614af4565b61222f565b6040516107a19190615188565b60405180910390f35b3480156107b657600080fd5b506107bf612500565b6040516107cc919061528e565b60405180910390f35b6107ef60048036038101906107ea9190614995565b612514565b005b3480156107fd57600080fd5b50610806612a3f565b604051610813919061528e565b60405180910390f35b34801561082857600080fd5b50610843600480360381019061083e9190614817565b612a53565b6040516108509190615128565b60405180910390f35b34801561086557600080fd5b50610880600480360381019061087b91906149e9565b612ae7565b6040516108909493929190615143565b60405180910390f35b3480156108a557600080fd5b506108ae612b33565b6040516108bb91906150e4565b60405180910390f35b3480156108d057600080fd5b506108eb60048036038101906108e69190614a3b565b612e55565b6040516108f891906150c2565b60405180910390f35b6000806000837bffffffffffffffffffffffffffffffffffffffffffffffffffffffff19167bffffffffffffffffffffffffffffffffffffffffffffffffffffffff1916815260200190815260200160002060009054906101000a900460ff169050919050565b606060068054600181600116156101000203166002900480601f016020809104026020016040519081016040528092919081815260200182805460018160011615610100020316600290048015610a005780601f106109d557610100808354040283529160200191610a00565b820191906000526020600020905b8154815290600101906020018083116109e357829003601f168201915b5050505050905090565b6000610a1582612f2f565b610a6a576040517f08c379a000000000000000000000000000000000000000000000000000000000815260040180806020018281038252602c815260200180615781602c913960400191505060405180910390fd5b6004600083815260200190815260200160002060009054906101000a900473ffffffffffffffffffffffffffffffffffffffff169050919050565b6000610ab082611556565b90508073ffffffffffffffffffffffffffffffffffffffff168373ffffffffffffffffffffffffffffffffffffffff161415610b37576040517f08c379a00000000000000000000000000000000000000000000000000000000081526004018080602001828103825260218152602001806158056021913960400191505060405180910390fd5b8073ffffffffffffffffffffffffffffffffffffffff16610b56612f4c565b73ffffffffffffffffffffffffffffffffffffffff161480610b855750610b8481610b7f612f4c565b612a53565b5b610bda576040517f08c379a00000000000000000000000000000000000000000000000000000000081526004018080602001828103825260388152602001806156d46038913960400191505060405180910390fd5b610be48383612f54565b505050565b6000610bf5600261300d565b905090565b813373ffffffffffffffffffffffffffffffffffffffff16600e60008361ffff1661ffff16815260200190815260200160002060000160029054906101000a900473ffffffffffffffffffffffffffffffffffffffff1673ffffffffffffffffffffffffffffffffffffffff1614610ca7576040517f08c379a0000000000000000000000000000000000000000000000000000000008152600401610c9e9061522a565b60405180910390fd5b81601460008561ffff1661ffff1681526020019081526020016000209080519060200190610cd692919061437f565b50505050565b610ced610ce7612f4c565b82613022565b610d42576040517f08c379a00000000000000000000000000000000000000000000000000000000081526004018080602001828103825260318152602001806158266031913960400191505060405180910390fd5b610d4d838383613116565b505050565b606080600a60169054906101000a900461ffff1661ffff1667ffffffffffffffff81118015610d8057600080fd5b50604051908082528060200260200182016040528015610dba57816020015b610da7614426565b815260200190600190039081610d9f5790505b5090506000805b600a60169054906101000a900461ffff1661ffff168161ffff161015610f12576000600f60008361ffff1661ffff1681526020019081526020016000206001015414610f0557610e0f614461565b600f60008361ffff1661ffff1681526020019081526020016000206040518060400160405290816000820160009054906101000a900473ffffffffffffffffffffffffffffffffffffffff1673ffffffffffffffffffffffffffffffffffffffff1673ffffffffffffffffffffffffffffffffffffffff1681526020016001820154815250509050610e9f614426565b60405180606001604052808461ffff168152602001836000015173ffffffffffffffffffffffffffffffffffffffff1681526020018360200151815250905080858561ffff1681518110610eef57fe5b6020026020010181905250838060010194505050505b8080600101915050610dc1565b50819250505090565b6000610f6e82600160008673ffffffffffffffffffffffffffffffffffffffff1673ffffffffffffffffffffffffffffffffffffffff16815260200190815260200160002061335990919063ffffffff16565b905092915050565b803373ffffffffffffffffffffffffffffffffffffffff16600e60008361ffff1661ffff16815260200190815260200160002060000160029054906101000a900473ffffffffffffffffffffffffffffffffffffffff1673ffffffffffffffffffffffffffffffffffffffff1614611023576040517f08c379a000000000000000000000000000000000000000000000000000000000815260040161101a9061522a565b60405180910390fd5b82600e60008461ffff1661ffff16815260200190815260200160002060000160026101000a81548173ffffffffffffffffffffffffffffffffffffffff021916908373ffffffffffffffffffffffffffffffffffffffff160217905550505050565b803373ffffffffffffffffffffffffffffffffffffffff16600e60008361ffff1661ffff16815260200190815260200160002060000160029054906101000a900473ffffffffffffffffffffffffffffffffffffffff1673ffffffffffffffffffffffffffffffffffffffff161415611133576040517f08c379a000000000000000000000000000000000000000000000000000000000815260040161112a906151ea565b60405180910390fd5b61113b614461565b600f60008461ffff1661ffff1681526020019081526020016000206040518060400160405290816000820160009054906101000a900473ffffffffffffffffffffffffffffffffffffffff1673ffffffffffffffffffffffffffffffffffffffff1673ffffffffffffffffffffffffffffffffffffffff1681526020016001820154815250509050343373ffffffffffffffffffffffffffffffffffffffff163110156111e757600080fd5b6000341180156111fa5750806020015134115b61120357600080fd5b600073ffffffffffffffffffffffffffffffffffffffff16816000015173ffffffffffffffffffffffffffffffffffffffff161461132357806000015173ffffffffffffffffffffffffffffffffffffffff166108fc82602001519081150290604051600060405180830381858888f19350505050158015611289573d6000803e3d6000fd5b50601060008461ffff1661ffff16815260200190815260200160002081908060018154018082558091505060019003906000526020600020906002020160009091909190915060008201518160000160006101000a81548173ffffffffffffffffffffffffffffffffffffffff021916908373ffffffffffffffffffffffffffffffffffffffff1602179055506020820151816001015550505b61132b614461565b60405180604001604052803373ffffffffffffffffffffffffffffffffffffffff16815260200134815250905080600f60008661ffff1661ffff16815260200190815260200160002060008201518160000160006101000a81548173ffffffffffffffffffffffffffffffffffffffff021916908373ffffffffffffffffffffffffffffffffffffffff1602179055506020820151816001015590505050505050565b600a60009054906101000a900473ffffffffffffffffffffffffffffffffffffffff1673ffffffffffffffffffffffffffffffffffffffff163373ffffffffffffffffffffffffffffffffffffffff161461145e576040517f08c379a0000000000000000000000000000000000000000000000000000000008152600401611455906151aa565b60405180910390fd5b80600a60146101000a81548161ffff021916908361ffff16021790555050565b611499838383604051806020016040528060008152506120f3565b505050565b6114a6614461565b600f60008361ffff1661ffff1681526020019081526020016000206040518060400160405290816000820160009054906101000a900473ffffffffffffffffffffffffffffffffffffffff1673ffffffffffffffffffffffffffffffffffffffff1673ffffffffffffffffffffffffffffffffffffffff1681526020016001820154815250509050919050565b60008061154a83600261337390919063ffffffff16565b50905080915050919050565b60006115868260405180606001604052806029815260200161573660299139600261339f9092919063ffffffff16565b9050919050565b600d6020528060005260406000206000915054906101000a900461ffff1681565b606060098054600181600116156101000203166002900480601f0160208091040260200160405190810160405280929190818152602001828054600181600116156101000203166002900480156116465780601f1061161b57610100808354040283529160200191611646565b820191906000526020600020905b81548152906001019060200180831161162957829003601f168201915b5050505050905090565b60008073ffffffffffffffffffffffffffffffffffffffff168273ffffffffffffffffffffffffffffffffffffffff1614156116d7576040517f08c379a000000000000000000000000000000000000000000000000000000000815260040180806020018281038252602a81526020018061570c602a913960400191505060405180910390fd5b61171e600160008473ffffffffffffffffffffffffffffffffffffffff1673ffffffffffffffffffffffffffffffffffffffff1681526020019081526020016000206133be565b9050919050565b6013602052806000526040600020600091509050806000016040518060400160405290816000820160009054906101000a900461ffff1661ffff1661ffff1681526020016000820160029054906101000a900461ffff1661ffff1661ffff168152505090806001016040518060400160405290816000820160009054906101000a900461ffff1661ffff1661ffff1681526020016000820160029054906101000a900461ffff1661ffff1661ffff1681525050905082565b803373ffffffffffffffffffffffffffffffffffffffff16600e60008361ffff1661ffff16815260200190815260200160002060000160029054906101000a900473ffffffffffffffffffffffffffffffffffffffff1673ffffffffffffffffffffffffffffffffffffffff161461188a576040517f08c379a00000000000000000000000000000000000000000000000000000000081526004016118819061522a565b60405180910390fd5b611892614491565b600e60008461ffff1661ffff1681526020019081526020016000206040518060400160405290816000820160009054906101000a900461ffff1661ffff1661ffff1681526020016000820160029054906101000a900473ffffffffffffffffffffffffffffffffffffffff1673ffffffffffffffffffffffffffffffffffffffff1673ffffffffffffffffffffffffffffffffffffffff16815250509050806020015173ffffffffffffffffffffffffffffffffffffffff166108fc600f60008661ffff1661ffff168152602001908152602001600020600101549081150290604051600060405180830381858888f19350505050158015611998573d6000803e3d6000fd5b506119ea8160200151600f60008661ffff1661ffff16815260200190815260200160002060000160009054906101000a900473ffffffffffffffffffffffffffffffffffffffff168561ffff1661147e565b600f60008461ffff1661ffff16815260200190815260200160002060000160009054906101000a900473ffffffffffffffffffffffffffffffffffffffff16816020019073ffffffffffffffffffffffffffffffffffffffff16908173ffffffffffffffffffffffffffffffffffffffff168152505080600e60008561ffff1661ffff16815260200190815260200160002060008201518160000160006101000a81548161ffff021916908361ffff16021790555060208201518160000160026101000a81548173ffffffffffffffffffffffffffffffffffffffff021916908373ffffffffffffffffffffffffffffffffffffffff160217905550905050611af1614461565b600f60008561ffff1661ffff1681526020019081526020016000206040518060400160405290816000820160009054906101000a900473ffffffffffffffffffffffffffffffffffffffff1673ffffffffffffffffffffffffffffffffffffffff1673ffffffffffffffffffffffffffffffffffffffff1681526020016001820154815250509050601060008561ffff1661ffff168152602001908152602001600020600f60008661ffff1661ffff16815260200190815260200160002090806001815401808255809150506001900390600052602060002090600202016000909190919091506000820160009054906101000a900473ffffffffffffffffffffffffffffffffffffffff168160000160006101000a81548173ffffffffffffffffffffffffffffffffffffffff021916908373ffffffffffffffffffffffffffffffffffffffff160217905550600182015481600101555050600f60008561ffff1661ffff168152602001908152602001600020600080820160006101000a81549073ffffffffffffffffffffffffffffffffffffffff02191690556001820160009055505050505050565b600a60009054906101000a900473ffffffffffffffffffffffffffffffffffffffff1673ffffffffffffffffffffffffffffffffffffffff163373ffffffffffffffffffffffffffffffffffffffff1614611d2e576040517f08c379a0000000000000000000000000000000000000000000000000000000008152600401611d25906151aa565b60405180910390fd5b601160009054906101000a900461ffff1661ffff168261ffff16118015611d6c5750601160029054906101000a900461ffff1661ffff168161ffff16115b611d7557600080fd5b81601160006101000a81548161ffff021916908361ffff16021790555080601160026101000a81548161ffff021916908361ffff1602179055505050565b601160049054906101000a900461ffff1681565b606060078054600181600116156101000203166002900480601f016020809104026020016040519081016040528092919081815260200182805460018160011615610100020316600290048015611e5f5780601f10611e3457610100808354040283529160200191611e5f565b820191906000526020600020905b815481529060010190602001808311611e4257829003601f168201915b5050505050905090565b611e71612f4c565b73ffffffffffffffffffffffffffffffffffffffff168273ffffffffffffffffffffffffffffffffffffffff161415611f12576040517f08c379a00000000000000000000000000000000000000000000000000000000081526004018080602001828103825260198152602001807f4552433732313a20617070726f766520746f2063616c6c65720000000000000081525060200191505060405180910390fd5b8060056000611f1f612f4c565b73ffffffffffffffffffffffffffffffffffffffff1673ffffffffffffffffffffffffffffffffffffffff16815260200190815260200160002060008473ffffffffffffffffffffffffffffffffffffffff1673ffffffffffffffffffffffffffffffffffffffff16815260200190815260200160002060006101000a81548160ff0219169083151502179055508173ffffffffffffffffffffffffffffffffffffffff16611fcc612f4c565b73ffffffffffffffffffffffffffffffffffffffff167f17307eab39ab6107e8899845ad3d59bd9653f200f220920489ca2b5937696c318360405180821515815260200191505060405180910390a35050565b600a60009054906101000a900473ffffffffffffffffffffffffffffffffffffffff1673ffffffffffffffffffffffffffffffffffffffff163373ffffffffffffffffffffffffffffffffffffffff16146120af576040517f08c379a00000000000000000000000000000000000000000000000000000000081526004016120a6906151aa565b60405180910390fd5b80600a60006101000a81548173ffffffffffffffffffffffffffffffffffffffff021916908373ffffffffffffffffffffffffffffffffffffffff16021790555050565b6121046120fe612f4c565b83613022565b612159576040517f08c379a00000000000000000000000000000000000000000000000000000000081526004018080602001828103825260318152602001806158266031913960400191505060405180910390fd5b612165848484846133d3565b50505050565b600a60149054906101000a900461ffff1681565b600a60009054906101000a900473ffffffffffffffffffffffffffffffffffffffff1673ffffffffffffffffffffffffffffffffffffffff163373ffffffffffffffffffffffffffffffffffffffff161461220f576040517f08c379a0000000000000000000000000000000000000000000000000000000008152600401612206906151aa565b60405180910390fd5b80601160046101000a81548161ffff021916908361ffff16021790555050565b606061223a82612f2f565b61228f576040517f08c379a000000000000000000000000000000000000000000000000000000000815260040180806020018281038252602f8152602001806157d6602f913960400191505060405180910390fd5b6060600860008481526020019081526020016000208054600181600116156101000203166002900480601f0160208091040260200160405190810160405280929190818152602001828054600181600116156101000203166002900480156123385780601f1061230d57610100808354040283529160200191612338565b820191906000526020600020905b81548152906001019060200180831161231b57829003601f168201915b5050505050905060606123496115ae565b905060008151141561235f5781925050506124fb565b6000825111156124305780826040516020018083805190602001908083835b602083106123a1578051825260208201915060208101905060208303925061237e565b6001836020036101000a03801982511681845116808217855250505050505090500182805190602001908083835b602083106123f257805182526020820191506020810190506020830392506123cf565b6001836020036101000a03801982511681845116808217855250505050505090500192505050604051602081830303815290604052925050506124fb565b8061243a85613445565b6040516020018083805190602001908083835b60208310612470578051825260208201915060208101905060208303925061244d565b6001836020036101000a03801982511681845116808217855250505050505090500182805190602001908083835b602083106124c1578051825260208201915060208101905060208303925061249e565b6001836020036101000a03801982511681845116808217855250505050505090500192505050604051602081830303815290604052925050505b919050565b601160029054906101000a900461ffff1681565b343373ffffffffffffffffffffffffffffffffffffffff1631101561256e576040517f08c379a0000000000000000000000000000000000000000000000000000000008152600401612565906151ca565b60405180910390fd5b601160049054906101000a900461ffff1661ffff16825111156125c6576040517f08c379a00000000000000000000000000000000000000000000000000000000081526004016125bd9061520a565b60405180910390fd5b6125db60038351816125d457fe5b048261358c565b6125e457600080fd5b612666601580548060200260200160405190810160405280929190818152602001828054801561265b57602002820191906000526020600020906000905b82829054906101000a900461ffff1661ffff16815260200190600201906020826001010492830192600103820291508084116126225790505b5050505050826135de565b1561267057600080fd5b612678614491565b6040518060400160405280600a60169054906101000a900461ffff1661ffff1681526020013373ffffffffffffffffffffffffffffffffffffffff16815250905080600e6000600a60169054906101000a900461ffff1661ffff1661ffff16815260200190815260200160002060008201518160000160006101000a81548161ffff021916908361ffff16021790555060208201518160000160026101000a81548173ffffffffffffffffffffffffffffffffffffffff021916908373ffffffffffffffffffffffffffffffffffffffff1602179055509050508160136000600a60169054906101000a900461ffff1661ffff1661ffff16815260200190815260200160002060008201518160000160008201518160000160006101000a81548161ffff021916908361ffff16021790555060208201518160000160026101000a81548161ffff021916908361ffff160217905550505060208201518160010160008201518160000160006101000a81548161ffff021916908361ffff16021790555060208201518160000160026101000a81548161ffff021916908361ffff16021790555050509050508260146000600a60169054906101000a900461ffff1661ffff1661ffff168152602001908152602001600020908051906020019061286292919061437f565b50601582600001516000015190806001815401808255809150506001900390600052602060002090601091828204019190066002029091909190916101000a81548161ffff021916908361ffff160217905550601582600001516020015190806001815401808255809150506001900390600052602060002090601091828204019190066002029091909190916101000a81548161ffff021916908361ffff160217905550601582602001516000015190806001815401808255809150506001900390600052602060002090601091828204019190066002029091909190916101000a81548161ffff021916908361ffff160217905550601582602001516020015190806001815401808255809150506001900390600052602060002090601091828204019190066002029091909190916101000a81548161ffff021916908361ffff160217905550600a60009054906101000a900473ffffffffffffffffffffffffffffffffffffffff1673ffffffffffffffffffffffffffffffffffffffff166108fc349081150290604051600060405180830381858888f19350505050158015612a13573d6000803e3d6000fd5b50612a3233600a60169054906101000a900461ffff1661ffff16613765565b612a3a613959565b505050565b601160009054906101000a900461ffff1681565b6000600560008473ffffffffffffffffffffffffffffffffffffffff1673ffffffffffffffffffffffffffffffffffffffff16815260200190815260200160002060008373ffffffffffffffffffffffffffffffffffffffff1673ffffffffffffffffffffffffffffffffffffffff16815260200190815260200160002060009054906101000a900460ff16905092915050565b600c6020528060005260406000206000915090508060000154908060010154908060020160009054906101000a900461ffff16908060020160029054906101000a900461ffff16905084565b606080600a60169054906101000a900461ffff1661ffff1667ffffffffffffffff81118015612b6157600080fd5b50604051908082528060200260200182016040528015612b9b57816020015b612b886144c5565b815260200190600190039081612b805790505b50905060005b600a60169054906101000a900461ffff1661ffff168161ffff161015612e4d57612bc9614491565b600e60008361ffff1661ffff1681526020019081526020016000206040518060400160405290816000820160009054906101000a900461ffff1661ffff1661ffff1681526020016000820160029054906101000a900473ffffffffffffffffffffffffffffffffffffffff1673ffffffffffffffffffffffffffffffffffffffff1673ffffffffffffffffffffffffffffffffffffffff168152505090506060601460008461ffff1661ffff168152602001908152602001600020805480602002602001604051908101604052809291908181526020018280548015612cf457602002820191906000526020600020906000905b82829054906101000a900460ff1660ff1681526020019060010190602082600001049283019260010382029150808411612cbd5790505b50505050509050612d0361450d565b601360008561ffff1661ffff168152602001908152602001600020604051806040016040529081600082016040518060400160405290816000820160009054906101000a900461ffff1661ffff1661ffff1681526020016000820160029054906101000a900461ffff1661ffff1661ffff16815250508152602001600182016040518060400160405290816000820160009054906101000a900461ffff1661ffff1661ffff1681526020016000820160029054906101000a900461ffff1661ffff1661ffff1681525050815250509050612ddb6144c5565b6040518060800160405280856000015161ffff168152602001856020015173ffffffffffffffffffffffffffffffffffffffff16815260200184815260200183815250905080868661ffff1681518110612e3157fe5b6020026020010181905250505050508080600101915050612ba1565b508091505090565b6060601060008361ffff1661ffff168152602001908152602001600020805480602002602001604051908101604052809291908181526020016000905b82821015612f2457838290600052602060002090600202016040518060400160405290816000820160009054906101000a900473ffffffffffffffffffffffffffffffffffffffff1673ffffffffffffffffffffffffffffffffffffffff1673ffffffffffffffffffffffffffffffffffffffff16815260200160018201548152505081526020019060010190612e92565b505050509050919050565b6000612f4582600261399090919063ffffffff16565b9050919050565b600033905090565b816004600083815260200190815260200160002060006101000a81548173ffffffffffffffffffffffffffffffffffffffff021916908373ffffffffffffffffffffffffffffffffffffffff160217905550808273ffffffffffffffffffffffffffffffffffffffff16612fc783611556565b73ffffffffffffffffffffffffffffffffffffffff167f8c5be1e5ebec7d5bd14f71427d1e84f3dd0314c0f7b2291e5b200ac8c7c3b92560405160405180910390a45050565b600061301b826000016139aa565b9050919050565b600061302d82612f2f565b613082576040517f08c379a000000000000000000000000000000000000000000000000000000000815260040180806020018281038252602c8152602001806156a8602c913960400191505060405180910390fd5b600061308d83611556565b90508073ffffffffffffffffffffffffffffffffffffffff168473ffffffffffffffffffffffffffffffffffffffff1614806130fc57508373ffffffffffffffffffffffffffffffffffffffff166130e484610a0a565b73ffffffffffffffffffffffffffffffffffffffff16145b8061310d575061310c8185612a53565b5b91505092915050565b8273ffffffffffffffffffffffffffffffffffffffff1661313682611556565b73ffffffffffffffffffffffffffffffffffffffff16146131a2576040517f08c379a00000000000000000000000000000000000000000000000000000000081526004018080602001828103825260298152602001806157ad6029913960400191505060405180910390fd5b600073ffffffffffffffffffffffffffffffffffffffff168273ffffffffffffffffffffffffffffffffffffffff161415613228576040517f08c379a000000000000000000000000000000000000000000000000000000000815260040180806020018281038252602481526020018061565e6024913960400191505060405180910390fd5b6132338383836139bb565b61323e600082612f54565b61328f81600160008673ffffffffffffffffffffffffffffffffffffffff1673ffffffffffffffffffffffffffffffffffffffff1681526020019081526020016000206139c090919063ffffffff16565b506132e181600160008573ffffffffffffffffffffffffffffffffffffffff1673ffffffffffffffffffffffffffffffffffffffff1681526020019081526020016000206139da90919063ffffffff16565b506132f8818360026139f49092919063ffffffff16565b50808273ffffffffffffffffffffffffffffffffffffffff168473ffffffffffffffffffffffffffffffffffffffff167fddf252ad1be2c89b69c2b068fc378daa952ba7f163c4a11628f55a4df523b3ef60405160405180910390a4505050565b60006133688360000183613a29565b60001c905092915050565b6000806000806133868660000186613aac565b915091508160001c8160001c9350935050509250929050565b60006133b2846000018460001b84613b45565b60001c90509392505050565b60006133cc82600001613c3b565b9050919050565b6133de848484613116565b6133ea84848484613c4c565b61343f576040517f08c379a000000000000000000000000000000000000000000000000000000000815260040180806020018281038252603281526020018061562c6032913960400191505060405180910390fd5b50505050565b6060600082141561348d576040518060400160405280600181526020017f30000000000000000000000000000000000000000000000000000000000000008152509050613587565b600082905060005b600082146134b7578080600101915050600a82816134af57fe5b049150613495565b60608167ffffffffffffffff811180156134d057600080fd5b506040519080825280601f01601f1916602001820160405280156135035781602001600182028036833780820191505090505b50905060006001830390508593505b6000841461357f57600a848161352457fe5b0660300160f81b8282806001900393508151811061353e57fe5b60200101907effffffffffffffffffffffffffffffffffffffffffffffffffffffffffffff1916908160001a905350600a848161357757fe5b049350613512565b819450505050505b919050565b600060018260000151602001518360200151602001510301600183600001516000015184602001516000015103010261ffff168361ffff1614156135d357600190506135d8565b600090505b92915050565b600080600090505b83518110156137595760008482815181106135fd57fe5b60200260200101519050600085600184018151811061361857fe5b60200260200101519050600086600285018151811061363357fe5b60200260200101519050600087600386018151811061364e57fe5b6020026020010151905086600001516000015161ffff168461ffff1611158015613688575086600001516020015161ffff168361ffff1611155b80156136a3575086600001516000015161ffff168261ffff16115b80156136be575086600001516020015161ffff168161ffff16115b156136d15760019550505050505061375f565b86602001516000015161ffff168461ffff1611158015613701575086602001516020015161ffff168361ffff1611155b801561371c575086602001516000015161ffff168261ffff16115b8015613737575086602001516020015161ffff168161ffff16115b1561374a5760019550505050505061375f565b505050506004810190506135e6565b50600090505b92915050565b600073ffffffffffffffffffffffffffffffffffffffff168273ffffffffffffffffffffffffffffffffffffffff161415613808576040517f08c379a00000000000000000000000000000000000000000000000000000000081526004018080602001828103825260208152602001807f4552433732313a206d696e7420746f20746865207a65726f206164647265737381525060200191505060405180910390fd5b61381181612f2f565b15613884576040517f08c379a000000000000000000000000000000000000000000000000000000000815260040180806020018281038252601c8152602001807f4552433732313a20746f6b656e20616c7265616479206d696e7465640000000081525060200191505060405180910390fd5b613890600083836139bb565b6138e181600160008573ffffffffffffffffffffffffffffffffffffffff1673ffffffffffffffffffffffffffffffffffffffff1681526020019081526020016000206139da90919063ffffffff16565b506138f8818360026139f49092919063ffffffff16565b50808273ffffffffffffffffffffffffffffffffffffffff16600073ffffffffffffffffffffffffffffffffffffffff167fddf252ad1be2c89b69c2b068fc378daa952ba7f163c4a11628f55a4df523b3ef60405160405180910390a45050565b600a601681819054906101000a900461ffff168092919060010191906101000a81548161ffff021916908361ffff16021790555050565b60006139a2836000018360001b613e65565b905092915050565b600081600001805490509050919050565b505050565b60006139d2836000018360001b613e88565b905092915050565b60006139ec836000018360001b613f70565b905092915050565b6000613a20846000018460001b8473ffffffffffffffffffffffffffffffffffffffff1660001b613fe0565b90509392505050565b600081836000018054905011613a8a576040517f08c379a000000000000000000000000000000000000000000000000000000000815260040180806020018281038252602281526020018061560a6022913960400191505060405180910390fd5b826000018281548110613a9957fe5b9060005260206000200154905092915050565b60008082846000018054905011613b0e576040517f08c379a000000000000000000000000000000000000000000000000000000000815260040180806020018281038252602281526020018061575f6022913960400191505060405180910390fd5b6000846000018481548110613b1f57fe5b906000526020600020906002020190508060000154816001015492509250509250929050565b60008084600101600085815260200190815260200160002054905060008114158390613c0c576040517f08c379a00000000000000000000000000000000000000000000000000000000081526004018080602001828103825283818151815260200191508051906020019080838360005b83811015613bd1578082015181840152602081019050613bb6565b50505050905090810190601f168015613bfe5780820380516001836020036101000a031916815260200191505b509250505060405180910390fd5b50846000016001820381548110613c1f57fe5b9060005260206000209060020201600101549150509392505050565b600081600001805490509050919050565b6000613c6d8473ffffffffffffffffffffffffffffffffffffffff166140bc565b613c7a5760019050613e5d565b6060613de463150b7a0260e01b613c8f612f4c565b888787604051602401808573ffffffffffffffffffffffffffffffffffffffff1681526020018473ffffffffffffffffffffffffffffffffffffffff16815260200183815260200180602001828103825283818151815260200191508051906020019080838360005b83811015613d13578082015181840152602081019050613cf8565b50505050905090810190601f168015613d405780820380516001836020036101000a031916815260200191505b5095505050505050604051602081830303815290604052907bffffffffffffffffffffffffffffffffffffffffffffffffffffffff19166020820180517bffffffffffffffffffffffffffffffffffffffffffffffffffffffff838183161783525050505060405180606001604052806032815260200161562c603291398773ffffffffffffffffffffffffffffffffffffffff166140cf9092919063ffffffff16565b90506000818060200190516020811015613dfd57600080fd5b8101908080519060200190929190505050905063150b7a0260e01b7bffffffffffffffffffffffffffffffffffffffffffffffffffffffff1916817bffffffffffffffffffffffffffffffffffffffffffffffffffffffff191614925050505b949350505050565b600080836001016000848152602001908152602001600020541415905092915050565b60008083600101600084815260200190815260200160002054905060008114613f645760006001820390506000600186600001805490500390506000866000018281548110613ed357fe5b9060005260206000200154905080876000018481548110613ef057fe5b9060005260206000200181905550600183018760010160008381526020019081526020016000208190555086600001805480613f2857fe5b60019003818190600052602060002001600090559055866001016000878152602001908152602001600020600090556001945050505050613f6a565b60009150505b92915050565b6000613f7c83836140e7565b613fd5578260000182908060018154018082558091505060019003906000526020600020016000909190919091505582600001805490508360010160008481526020019081526020016000208190555060019050613fda565b600090505b92915050565b6000808460010160008581526020019081526020016000205490506000811415614087578460000160405180604001604052808681526020018581525090806001815401808255809150506001900390600052602060002090600202016000909190919091506000820151816000015560208201518160010155505084600001805490508560010160008681526020019081526020016000208190555060019150506140b5565b8285600001600183038154811061409a57fe5b90600052602060002090600202016001018190555060009150505b9392505050565b600080823b905060008111915050919050565b60606140de848460008561410a565b90509392505050565b600080836001016000848152602001908152602001600020541415905092915050565b606082471015614165576040517f08c379a00000000000000000000000000000000000000000000000000000000081526004018080602001828103825260268152602001806156826026913960400191505060405180910390fd5b61416e856140bc565b6141e0576040517f08c379a000000000000000000000000000000000000000000000000000000000815260040180806020018281038252601d8152602001807f416464726573733a2063616c6c20746f206e6f6e2d636f6e747261637400000081525060200191505060405180910390fd5b600060608673ffffffffffffffffffffffffffffffffffffffff1685876040518082805190602001908083835b60208310614230578051825260208201915060208101905060208303925061420d565b6001836020036101000a03801982511681845116808217855250505050505090500191505060006040518083038185875af1925050503d8060008114614292576040519150601f19603f3d011682016040523d82523d6000602084013e614297565b606091505b50915091506142a78282866142b3565b92505050949350505050565b606083156142c357829050614378565b6000835111156142d65782518084602001fd5b816040517f08c379a00000000000000000000000000000000000000000000000000000000081526004018080602001828103825283818151815260200191508051906020019080838360005b8381101561433d578082015181840152602081019050614322565b50505050905090810190601f16801561436a5780820380516001836020036101000a031916815260200191505b509250505060405180910390fd5b9392505050565b82805482825590600052602060002090601f016020900481019282156144155791602002820160005b838211156143e657835183826101000a81548160ff021916908360ff16021790555092602001926001016020816000010492830192600103026143a8565b80156144135782816101000a81549060ff02191690556001016020816000010492830192600103026143e6565b505b5090506144229190614533565b5090565b6040518060600160405280600061ffff168152602001600073ffffffffffffffffffffffffffffffffffffffff168152602001600081525090565b6040518060400160405280600073ffffffffffffffffffffffffffffffffffffffff168152602001600081525090565b6040518060400160405280600061ffff168152602001600073ffffffffffffffffffffffffffffffffffffffff1681525090565b6040518060800160405280600061ffff168152602001600073ffffffffffffffffffffffffffffffffffffffff1681526020016060815260200161450761450d565b81525090565b6040518060400160405280614520614550565b815260200161452d614550565b81525090565b5b8082111561454c576000816000905550600101614534565b5090565b6040518060400160405280600061ffff168152602001600061ffff1681525090565b60008135905061458181615551565b92915050565b60008135905061459681615568565b92915050565b600082601f8301126145ad57600080fd5b81356145c06145bb826152f5565b6152c4565b915081818352602084019350602081019050838560208402820111156145e557600080fd5b60005b8381101561461557816145fb8882614774565b8452602084019350602083019250506001810190506145e8565b5050505092915050565b60008135905061462e8161557f565b92915050565b60008135905061464381615596565b92915050565b600081359050614658816155ad565b92915050565b600082601f83011261466f57600080fd5b813561468261467d82615321565b6152c4565b9150808252602083016020830185838301111561469e57600080fd5b6146a98382846154fc565b50505092915050565b6000608082840312156146c457600080fd5b6146ce60406152c4565b905060006146de848285016146fe565b60008301525060406146f2848285016146fe565b60208301525092915050565b60006040828403121561471057600080fd5b61471a60406152c4565b9050600061472a8482850161474a565b600083015250602061473e8482850161474a565b60208301525092915050565b600081359050614759816155c4565b92915050565b60008135905061476e816155db565b92915050565b600081359050614783816155f2565b92915050565b60006020828403121561479b57600080fd5b60006147a984828501614572565b91505092915050565b6000602082840312156147c457600080fd5b60006147d284828501614587565b91505092915050565b600080604083850312156147ee57600080fd5b60006147fc85828601614587565b925050602061480d8582860161474a565b9150509250929050565b6000806040838503121561482a57600080fd5b600061483885828601614572565b925050602061484985828601614572565b9150509250929050565b60008060006060848603121561486857600080fd5b600061487686828701614572565b935050602061488786828701614572565b92505060406148988682870161475f565b9150509250925092565b600080600080608085870312156148b857600080fd5b60006148c687828801614572565b94505060206148d787828801614572565b93505060406148e88782880161475f565b925050606085013567ffffffffffffffff81111561490557600080fd5b6149118782880161465e565b91505092959194509250565b6000806040838503121561493057600080fd5b600061493e85828601614572565b925050602061494f8582860161461f565b9150509250929050565b6000806040838503121561496c57600080fd5b600061497a85828601614572565b925050602061498b8582860161475f565b9150509250929050565b60008060a083850312156149a857600080fd5b600083013567ffffffffffffffff8111156149c257600080fd5b6149ce8582860161459c565b92505060206149df858286016146b2565b9150509250929050565b6000602082840312156149fb57600080fd5b6000614a0984828501614634565b91505092915050565b600060208284031215614a2457600080fd5b6000614a3284828501614649565b91505092915050565b600060208284031215614a4d57600080fd5b6000614a5b8482850161474a565b91505092915050565b60008060408385031215614a7757600080fd5b6000614a858582860161474a565b925050602083013567ffffffffffffffff811115614aa257600080fd5b614aae8582860161459c565b9150509250929050565b60008060408385031215614acb57600080fd5b6000614ad98582860161474a565b9250506020614aea8582860161474a565b9150509250929050565b600060208284031215614b0657600080fd5b6000614b148482850161475f565b91505092915050565b6000614b298383614ecc565b60408301905092915050565b6000614b418383614fb7565b905092915050565b6000614b55838361501a565b60608301905092915050565b6000614b6d8383615098565b60208301905092915050565b614b8281615463565b82525050565b614b9181615451565b82525050565b614ba081615451565b82525050565b6000614bb182615391565b614bbb81856153fc565b9350614bc683615351565b8060005b83811015614bf7578151614bde8882614b1d565b9750614be9836153c8565b925050600181019050614bca565b5085935050505092915050565b6000614c0f8261539c565b614c19818561540d565b935083602082028501614c2b85615361565b8060005b85811015614c675784840389528151614c488582614b35565b9450614c53836153d5565b925060208a01995050600181019050614c2f565b50829750879550505050505092915050565b6000614c84826153a7565b614c8e818561541e565b9350614c9983615371565b8060005b83811015614cca578151614cb18882614b49565b9750614cbc836153e2565b925050600181019050614c9d565b5085935050505092915050565b6000614ce2826153b2565b614cec818561542f565b9350614cf783615381565b8060005b83811015614d28578151614d0f8882614b61565b9750614d1a836153ef565b925050600181019050614cfb565b5085935050505092915050565b614d3e81615475565b82525050565b614d4d81615481565b82525050565b6000614d5e826153bd565b614d688185615440565b9350614d7881856020860161550b565b614d8181615540565b840191505092915050565b6000614d99600a83615440565b91507f4f776e6572204f6e6c79000000000000000000000000000000000000000000006000830152602082019050919050565b6000614dd9601083615440565b91507f4e6f7420656e6f7567682066756e6473000000000000000000000000000000006000830152602082019050919050565b6000614e19601183615440565b91507f43616e6e6f742062652043726561746f720000000000000000000000000000006000830152602082019050919050565b6000614e59600f83615440565b91507f546f6f206d616e7920706978656c7300000000000000000000000000000000006000830152602082019050919050565b6000614e99600c83615440565b91507f43726561746f72204f6e6c7900000000000000000000000000000000000000006000830152602082019050919050565b604082016000820151614ee26000850182614b79565b506020820151614ef5602085018261507a565b50505050565b604082016000820151614f116000850182614b79565b506020820151614f24602085018261507a565b50505050565b608082016000820151614f406000850182614f59565b506020820151614f536040850182614f59565b50505050565b604082016000820151614f6f600085018261505c565b506020820151614f82602085018261505c565b50505050565b604082016000820151614f9e600085018261505c565b506020820151614fb1602085018261505c565b50505050565b600060e083016000830151614fcf600086018261505c565b506020830151614fe26020860182614b88565b5060408301518482036040860152614ffa8282614cd7565b915050606083015161500f6060860182614f2a565b508091505092915050565b606082016000820151615030600085018261505c565b5060208201516150436020850182614b88565b506040820151615056604085018261507a565b50505050565b615065816154b7565b82525050565b615074816154b7565b82525050565b615083816154e5565b82525050565b615092816154e5565b82525050565b6150a1816154ef565b82525050565b60006020820190506150bc6000830184614b97565b92915050565b600060208201905081810360008301526150dc8184614ba6565b905092915050565b600060208201905081810360008301526150fe8184614c04565b905092915050565b600060208201905081810360008301526151208184614c79565b905092915050565b600060208201905061513d6000830184614d35565b92915050565b60006080820190506151586000830187614d44565b6151656020830186614d44565b615172604083018561506b565b61517f606083018461506b565b95945050505050565b600060208201905081810360008301526151a28184614d53565b905092915050565b600060208201905081810360008301526151c381614d8c565b9050919050565b600060208201905081810360008301526151e381614dcc565b9050919050565b6000602082019050818103600083015261520381614e0c565b9050919050565b6000602082019050818103600083015261522381614e4c565b9050919050565b6000602082019050818103600083015261524381614e8c565b9050919050565b600060408201905061525f6000830184614efb565b92915050565b600060808201905061527a6000830185614f88565b6152876040830184614f88565b9392505050565b60006020820190506152a3600083018461506b565b92915050565b60006020820190506152be6000830184615089565b92915050565b6000604051905081810181811067ffffffffffffffff821117156152eb576152ea61553e565b5b8060405250919050565b600067ffffffffffffffff8211156153105761530f61553e565b5b602082029050602081019050919050565b600067ffffffffffffffff82111561533c5761533b61553e565b5b601f19601f8301169050602081019050919050565b6000819050602082019050919050565b6000819050602082019050919050565b6000819050602082019050919050565b6000819050602082019050919050565b600081519050919050565b600081519050919050565b600081519050919050565b600081519050919050565b600081519050919050565b6000602082019050919050565b6000602082019050919050565b6000602082019050919050565b6000602082019050919050565b600082825260208201905092915050565b600082825260208201905092915050565b600082825260208201905092915050565b600082825260208201905092915050565b600082825260208201905092915050565b600061545c826154c5565b9050919050565b600061546e826154c5565b9050919050565b60008115159050919050565b6000819050919050565b60007fffffffff0000000000000000000000000000000000000000000000000000000082169050919050565b600061ffff82169050919050565b600073ffffffffffffffffffffffffffffffffffffffff82169050919050565b6000819050919050565b600060ff82169050919050565b82818337600083830152505050565b60005b8381101561552957808201518184015260208101905061550e565b83811115615538576000848401525b50505050565bfe5b6000601f19601f8301169050919050565b61555a81615451565b811461556557600080fd5b50565b61557181615463565b811461557c57600080fd5b50565b61558881615475565b811461559357600080fd5b50565b61559f81615481565b81146155aa57600080fd5b50565b6155b68161548b565b81146155c157600080fd5b50565b6155cd816154b7565b81146155d857600080fd5b50565b6155e4816154e5565b81146155ef57600080fd5b50565b6155fb816154ef565b811461560657600080fd5b5056fe456e756d657261626c655365743a20696e646578206f7574206f6620626f756e64734552433732313a207472616e7366657220746f206e6f6e20455243373231526563656976657220696d706c656d656e7465724552433732313a207472616e7366657220746f20746865207a65726f2061646472657373416464726573733a20696e73756666696369656e742062616c616e636520666f722063616c6c4552433732313a206f70657261746f7220717565727920666f72206e6f6e6578697374656e7420746f6b656e4552433732313a20617070726f76652063616c6c6572206973206e6f74206f776e6572206e6f7220617070726f76656420666f7220616c6c4552433732313a2062616c616e636520717565727920666f7220746865207a65726f20616464726573734552433732313a206f776e657220717565727920666f72206e6f6e6578697374656e7420746f6b656e456e756d657261626c654d61703a20696e646578206f7574206f6620626f756e64734552433732313a20617070726f76656420717565727920666f72206e6f6e6578697374656e7420746f6b656e4552433732313a207472616e73666572206f6620746f6b656e2074686174206973206e6f74206f776e4552433732314d657461646174613a2055524920717565727920666f72206e6f6e6578697374656e7420746f6b656e4552433732313a20617070726f76616c20746f2063757272656e74206f776e65724552433732313a207472616e736665722063616c6c6572206973206e6f74206f776e6572206e6f7220617070726f766564a2646970667358221220e821fce42f1bc8b28f28451f9d8842064416ba548f91422f486b67c8668286ec64736f6c63430007040033",
  "immutableReferences": {},
  "source": "pragma solidity 0.7.4;\npragma experimental ABIEncoderV2;\n\nimport \"@openzeppelin/contracts/token/ERC721/ERC721.sol\";\n\ncontract PixelToken is ERC721 {\n\n    string constant WHITE_HEX = \"#FFFFFF\";\n\n  //  enum BidStatus{ SOLD, PENDING, OUTBID }\n\n    struct Exhibit {\n        uint16 id;\n        address payable owner;\n    }\n\n    // store int array and top-left, bottom-right\n\n\n\n    struct Pixel {\n        bytes32 id;\n        bytes32 hexColor;\n        uint16 x;\n        uint16 y;\n    }\n\n    struct Bounds {\n        Coord topLeft;\n        Coord bottomRight;\n    }\n\n    struct Coord {\n        uint16 x;\n        uint16 y;\n    }\n\n    struct Bid {\n        address payable fromAddress;\n        uint256 amount;\n    }\n\n    struct HighestBidResponse {\n        uint16 exhibitId;\n        address fromAddress;\n        uint256 amount;\n    }\n\n    struct ExhibitResp {\n        uint16 exhibitId;\n        address owner;\n        uint8[] rgbArray;\n        Bounds bounds;\n    }\n\n    address payable owner;\n    uint16 public pixelFee;\n    uint16 private _currentTokenID;\n    bytes32[] pixelIds;\n    mapping (bytes32 => Pixel) public pixelMap;\n    mapping (bytes32 => uint16) public pixelExhibit;\n    mapping (uint16 => Exhibit) exhibits;\n    mapping (uint16 => Bid) highestBid;\n    mapping (uint16 => Bid[]) bidHistory;\n    uint16 public maxXPixel;\n    uint16 public maxYPixel;\n    uint16 public maxPixelsPerExhibit;\n    mapping (uint16 => Pixel[]) pixels;\n    \n\n    mapping (uint16 => Bounds) public bounds;\n    mapping (uint16 => uint8[]) rgbArray;\n    uint16[] allBounds;\n\n    modifier exhibitCreatorOnly(uint16 _id) {\n        require(exhibits[_id].owner == msg.sender, \"Creator Only\");\n        _;\n    }\n\n    modifier notExhibitCreator(uint16 _id) {\n        require(exhibits[_id].owner != msg.sender, \"Cannot be Creator\");\n        _;\n    }\n\n    modifier isContractOwner() {\n        require(msg.sender == owner, \"Owner Only\");\n        _;\n    }\n\n    constructor(address payable _owner, uint16 _maxCoords, \n                uint16 _maxPixels, uint16 _pixelfee) ERC721(\"Exhibit\", \"XBT\") {\n        owner = _owner;\n        maxXPixel = _maxCoords;\n        maxYPixel = _maxCoords;\n        maxPixelsPerExhibit = _maxPixels;\n        pixelFee = _pixelfee;\n    }\n\n    function getPixels() public view returns(ExhibitResp[] memory) {\n        ExhibitResp[] memory _exhibit = new ExhibitResp[](_currentTokenID);\n        for (uint16 i = 0; i < _currentTokenID; i++) {\n            Exhibit memory creator = exhibits[i];\n            uint8[] memory _rgbArray = rgbArray[i];\n            Bounds memory _bounds = bounds[i];\n            ExhibitResp memory resp = ExhibitResp({\n                exhibitId: creator.id,\n                owner: creator.owner,\n                rgbArray: _rgbArray,\n                bounds: _bounds\n            });\n             _exhibit[i] = resp;\n        }\n        return _exhibit;\n    }\n\n    function create(uint8[] memory _pixels, Bounds memory _bounds) public payable {\n        require(msg.sender.balance >= msg.value, \"Not enough funds\");\n        require(_pixels.length <= maxPixelsPerExhibit, \"Too many pixels\");\n        require(validLength(uint16((_pixels.length / 3)), _bounds));\n        require(!inBounds(allBounds, _bounds));\n\n        Exhibit memory exhibit = Exhibit({\n            id: _currentTokenID,\n            owner: msg.sender\n        });\n\n\n        exhibits[_currentTokenID] = exhibit;\n        bounds[_currentTokenID] = _bounds;\n        rgbArray[_currentTokenID] = _pixels;\n        allBounds.push(_bounds.topLeft.x);\n        allBounds.push(_bounds.topLeft.y);\n        allBounds.push(_bounds.bottomRight.x);\n        allBounds.push(_bounds.bottomRight.y);\n\n        owner.transfer(msg.value);\n        _mint(msg.sender, _currentTokenID);\n        _incrementTokenTypeId();\n    }\n\n    function changePixels(uint16 _id, uint8[] memory _rgbArray) public exhibitCreatorOnly(_id) {\n        rgbArray[_id] = _rgbArray;\n    }\n\n    function placeBid(uint16 _id) notExhibitCreator(_id) public payable {\n        Bid memory prevHighest = highestBid[_id];\n        require(msg.sender.balance >= msg.value);\n        require(msg.value > 0 && msg.value > prevHighest.amount);\n\n        if (prevHighest.fromAddress != address(0)) {\n            prevHighest.fromAddress.transfer(prevHighest.amount);\n         //   prevHighest.status = BidStatus.OUTBID;\n            bidHistory[_id].push(prevHighest);\n        }\n\n        Bid memory newHighestBidder = Bid({\n            amount: msg.value,\n            fromAddress: msg.sender\n         //   status: BidStatus.PENDING\n        });\n        highestBid[_id] = newHighestBidder;\n    }\n\n    function acceptBid(uint16 _id) exhibitCreatorOnly(_id) public payable {\n        Exhibit memory _exhibit = exhibits[_id];\n        _exhibit.owner.transfer(highestBid[_id].amount);\n        safeTransferFrom(_exhibit.owner, highestBid[_id].fromAddress, _id);\n        _exhibit.owner = highestBid[_id].fromAddress;\n        exhibits[_id] = _exhibit;\n        Bid memory _highestBid = highestBid[_id];\n  //      _highestBid.status = BidStatus.SOLD;\n        bidHistory[_id].push(highestBid[_id]);\n        delete highestBid[_id];\n    }\n\n    function changeAddressForExibit(address payable _address, uint16 _id) exhibitCreatorOnly(_id) public {\n        exhibits[_id].owner = _address;\n    }\n \n    function getBid(uint16 _id) public view returns(Bid memory) {\n        return highestBid[_id];\n    }\n\n    function getBidHistoryForExhibit(uint16 _id) public view returns(Bid[] memory) {\n        return bidHistory[_id];\n    }\n\n    function getAllHighestBids() public view returns(HighestBidResponse[] memory) {\n        HighestBidResponse[] memory highestBids = new HighestBidResponse[](_currentTokenID);\n        uint16 index = 0;\n        for (uint16 i = 0; i < _currentTokenID; i++) {\n            if (highestBid[i].amount != 0) {\n                Bid memory _bid = highestBid[i];\n                HighestBidResponse memory resp = HighestBidResponse({\n                    exhibitId: i,\n                    fromAddress: _bid.fromAddress,\n                    amount: _bid.amount\n               //     status: _bid.status\n                });\n                highestBids[index] = resp;\n                index++;\n            }\n        }\n        return highestBids;\n    }\n\n    function _incrementTokenTypeId() private  {\n        _currentTokenID++;\n    }\n\n    function getHashFromCords(uint16 x, uint16 y) internal pure returns (bytes32) {\n        return sha256(abi.encodePacked(x, y));\n   }\n\n   function inBounds(uint16[] memory _bounds, Bounds memory _newBounds) internal pure returns(bool) {\n       for (uint256 i = 0; i < _bounds.length; i += 4) {\n           uint16 _topLeftX = _bounds[i];\n           uint16 _topLeftY = _bounds[i+1];\n           uint16 _bottomRightX = _bounds[i+2];\n           uint16 _bottomRightY = _bounds[i+3];\n\n           if (_topLeftX <= _newBounds.topLeft.x \n                    && _topLeftY <= _newBounds.topLeft.y\n                    && _bottomRightX > _newBounds.topLeft.x\n                    && _bottomRightY > _newBounds.topLeft.y) {\n                return true;\n           } else if (_topLeftX <= _newBounds.bottomRight.x \n                    && _topLeftY <= _newBounds.bottomRight.y\n                    && _bottomRightX > _newBounds.bottomRight.x\n                    && _bottomRightY > _newBounds.bottomRight.y) {\n                return true;\n           } \n       }\n       return false;\n   }\n\n   function validLength(uint16 length, Bounds memory _bounds) internal pure returns(bool) {\n        if (length == (_bounds.bottomRight.x - _bounds.topLeft.x + 1) * (_bounds.bottomRight.y - _bounds.topLeft.y + 1)) {\n            return true;\n        } \n        return false;\n   }\n\n\n    // Admin\n    function changeContactOwner(address payable _owner) public isContractOwner {\n        owner = _owner;\n    }\n\n    function changeMaxXYPixel(uint16 _maxX, uint16 _maxY) public isContractOwner {\n        require(_maxX > maxXPixel && _maxY > maxYPixel);\n        maxXPixel = _maxX;\n        maxYPixel = _maxY;\n    }\n\n    function changePixelFee(uint16 _pixelFee) public isContractOwner {\n        pixelFee = _pixelFee;\n        // $0.50 / pixel; Use chainlink to update pixelFee as the price of ETH changes\n    }\n\n    function changeMaxPixelsPerExhibit(uint16 _max) public isContractOwner {\n        maxPixelsPerExhibit = _max;\n    }\n}",
  "sourcePath": "/Users/matthewruddy/Projects/DAPP/contracts/PixelToken.sol",
  "compiler": {
    "name": "solc",
    "version": "0.7.4+commit.3f05b770.Emscripten.clang"
  },
  "schemaVersion": "3.2.5",
  "updatedAt": "2021-03-15T05:58:04.169Z",
  "networkType": "ethereum",
  "devdoc": {
    "kind": "dev",
    "methods": {
      "approve(address,uint256)": {
        "details": "See {IERC721-approve}."
      },
      "balanceOf(address)": {
        "details": "See {IERC721-balanceOf}."
      },
      "baseURI()": {
        "details": "Returns the base URI set via {_setBaseURI}. This will be automatically added as a prefix in {tokenURI} to each token's URI, or to the token ID if no specific URI is set for that token ID."
      },
      "getApproved(uint256)": {
        "details": "See {IERC721-getApproved}."
      },
      "isApprovedForAll(address,address)": {
        "details": "See {IERC721-isApprovedForAll}."
      },
      "name()": {
        "details": "See {IERC721Metadata-name}."
      },
      "ownerOf(uint256)": {
        "details": "See {IERC721-ownerOf}."
      },
      "safeTransferFrom(address,address,uint256)": {
        "details": "See {IERC721-safeTransferFrom}."
      },
      "safeTransferFrom(address,address,uint256,bytes)": {
        "details": "See {IERC721-safeTransferFrom}."
      },
      "setApprovalForAll(address,bool)": {
        "details": "See {IERC721-setApprovalForAll}."
      },
      "supportsInterface(bytes4)": {
        "details": "See {IERC165-supportsInterface}. Time complexity O(1), guaranteed to always use less than 30 000 gas."
      },
      "symbol()": {
        "details": "See {IERC721Metadata-symbol}."
      },
      "tokenByIndex(uint256)": {
        "details": "See {IERC721Enumerable-tokenByIndex}."
      },
      "tokenOfOwnerByIndex(address,uint256)": {
        "details": "See {IERC721Enumerable-tokenOfOwnerByIndex}."
      },
      "tokenURI(uint256)": {
        "details": "See {IERC721Metadata-tokenURI}."
      },
      "totalSupply()": {
        "details": "See {IERC721Enumerable-totalSupply}."
      },
      "transferFrom(address,address,uint256)": {
        "details": "See {IERC721-transferFrom}."
      }
    },
    "version": 1
  },
  "userdoc": {
    "kind": "user",
    "methods": {},
    "version": 1
  }
}