{
  "contractName": "PixelToken",
  "abi": [
    {
      "inputs": [],
      "stateMutability": "nonpayable",
      "type": "constructor"
    },
    {
      "anonymous": false,
      "inputs": [
        {
          "indexed": true,
          "internalType": "address",
          "name": "owner",
          "type": "address"
        },
        {
          "indexed": true,
          "internalType": "address",
          "name": "approved",
          "type": "address"
        },
        {
          "indexed": true,
          "internalType": "uint256",
          "name": "tokenId",
          "type": "uint256"
        }
      ],
      "name": "Approval",
      "type": "event"
    },
    {
      "anonymous": false,
      "inputs": [
        {
          "indexed": true,
          "internalType": "address",
          "name": "owner",
          "type": "address"
        },
        {
          "indexed": true,
          "internalType": "address",
          "name": "operator",
          "type": "address"
        },
        {
          "indexed": false,
          "internalType": "bool",
          "name": "approved",
          "type": "bool"
        }
      ],
      "name": "ApprovalForAll",
      "type": "event"
    },
    {
      "anonymous": false,
      "inputs": [
        {
          "indexed": true,
          "internalType": "address",
          "name": "from",
          "type": "address"
        },
        {
          "indexed": true,
          "internalType": "address",
          "name": "to",
          "type": "address"
        },
        {
          "indexed": true,
          "internalType": "uint256",
          "name": "tokenId",
          "type": "uint256"
        }
      ],
      "name": "Transfer",
      "type": "event"
    },
    {
      "inputs": [
        {
          "internalType": "address",
          "name": "to",
          "type": "address"
        },
        {
          "internalType": "uint256",
          "name": "tokenId",
          "type": "uint256"
        }
      ],
      "name": "approve",
      "outputs": [],
      "stateMutability": "nonpayable",
      "type": "function"
    },
    {
      "inputs": [
        {
          "internalType": "address",
          "name": "owner",
          "type": "address"
        }
      ],
      "name": "balanceOf",
      "outputs": [
        {
          "internalType": "uint256",
          "name": "",
          "type": "uint256"
        }
      ],
      "stateMutability": "view",
      "type": "function",
      "constant": true
    },
    {
      "inputs": [],
      "name": "baseURI",
      "outputs": [
        {
          "internalType": "string",
          "name": "",
          "type": "string"
        }
      ],
      "stateMutability": "view",
      "type": "function",
      "constant": true
    },
    {
      "inputs": [
        {
          "internalType": "uint256",
          "name": "tokenId",
          "type": "uint256"
        }
      ],
      "name": "getApproved",
      "outputs": [
        {
          "internalType": "address",
          "name": "",
          "type": "address"
        }
      ],
      "stateMutability": "view",
      "type": "function",
      "constant": true
    },
    {
      "inputs": [
        {
          "internalType": "address",
          "name": "owner",
          "type": "address"
        },
        {
          "internalType": "address",
          "name": "operator",
          "type": "address"
        }
      ],
      "name": "isApprovedForAll",
      "outputs": [
        {
          "internalType": "bool",
          "name": "",
          "type": "bool"
        }
      ],
      "stateMutability": "view",
      "type": "function",
      "constant": true
    },
    {
      "inputs": [],
      "name": "maxPixelsPerExhibit",
      "outputs": [
        {
          "internalType": "uint256",
          "name": "",
          "type": "uint256"
        }
      ],
      "stateMutability": "view",
      "type": "function",
      "constant": true
    },
    {
      "inputs": [],
      "name": "maxXPixel",
      "outputs": [
        {
          "internalType": "uint256",
          "name": "",
          "type": "uint256"
        }
      ],
      "stateMutability": "view",
      "type": "function",
      "constant": true
    },
    {
      "inputs": [],
      "name": "maxYPixel",
      "outputs": [
        {
          "internalType": "uint256",
          "name": "",
          "type": "uint256"
        }
      ],
      "stateMutability": "view",
      "type": "function",
      "constant": true
    },
    {
      "inputs": [],
      "name": "name",
      "outputs": [
        {
          "internalType": "string",
          "name": "",
          "type": "string"
        }
      ],
      "stateMutability": "view",
      "type": "function",
      "constant": true
    },
    {
      "inputs": [],
      "name": "owner",
      "outputs": [
        {
          "internalType": "address payable",
          "name": "",
          "type": "address"
        }
      ],
      "stateMutability": "view",
      "type": "function",
      "constant": true
    },
    {
      "inputs": [
        {
          "internalType": "uint256",
          "name": "tokenId",
          "type": "uint256"
        }
      ],
      "name": "ownerOf",
      "outputs": [
        {
          "internalType": "address",
          "name": "",
          "type": "address"
        }
      ],
      "stateMutability": "view",
      "type": "function",
      "constant": true
    },
    {
      "inputs": [
        {
          "internalType": "bytes32",
          "name": "",
          "type": "bytes32"
        }
      ],
      "name": "pixelExhibit",
      "outputs": [
        {
          "internalType": "uint256",
          "name": "",
          "type": "uint256"
        }
      ],
      "stateMutability": "view",
      "type": "function",
      "constant": true
    },
    {
      "inputs": [
        {
          "internalType": "bytes32",
          "name": "",
          "type": "bytes32"
        }
      ],
      "name": "pixelMap",
      "outputs": [
        {
          "internalType": "bytes32",
          "name": "id",
          "type": "bytes32"
        },
        {
          "internalType": "string",
          "name": "hexColor",
          "type": "string"
        },
        {
          "internalType": "uint256",
          "name": "x",
          "type": "uint256"
        },
        {
          "internalType": "uint256",
          "name": "y",
          "type": "uint256"
        }
      ],
      "stateMutability": "view",
      "type": "function",
      "constant": true
    },
    {
      "inputs": [
        {
          "internalType": "address",
          "name": "from",
          "type": "address"
        },
        {
          "internalType": "address",
          "name": "to",
          "type": "address"
        },
        {
          "internalType": "uint256",
          "name": "tokenId",
          "type": "uint256"
        }
      ],
      "name": "safeTransferFrom",
      "outputs": [],
      "stateMutability": "nonpayable",
      "type": "function"
    },
    {
      "inputs": [
        {
          "internalType": "address",
          "name": "from",
          "type": "address"
        },
        {
          "internalType": "address",
          "name": "to",
          "type": "address"
        },
        {
          "internalType": "uint256",
          "name": "tokenId",
          "type": "uint256"
        },
        {
          "internalType": "bytes",
          "name": "_data",
          "type": "bytes"
        }
      ],
      "name": "safeTransferFrom",
      "outputs": [],
      "stateMutability": "nonpayable",
      "type": "function"
    },
    {
      "inputs": [
        {
          "internalType": "address",
          "name": "operator",
          "type": "address"
        },
        {
          "internalType": "bool",
          "name": "approved",
          "type": "bool"
        }
      ],
      "name": "setApprovalForAll",
      "outputs": [],
      "stateMutability": "nonpayable",
      "type": "function"
    },
    {
      "inputs": [
        {
          "internalType": "bytes4",
          "name": "interfaceId",
          "type": "bytes4"
        }
      ],
      "name": "supportsInterface",
      "outputs": [
        {
          "internalType": "bool",
          "name": "",
          "type": "bool"
        }
      ],
      "stateMutability": "view",
      "type": "function",
      "constant": true
    },
    {
      "inputs": [],
      "name": "symbol",
      "outputs": [
        {
          "internalType": "string",
          "name": "",
          "type": "string"
        }
      ],
      "stateMutability": "view",
      "type": "function",
      "constant": true
    },
    {
      "inputs": [
        {
          "internalType": "uint256",
          "name": "index",
          "type": "uint256"
        }
      ],
      "name": "tokenByIndex",
      "outputs": [
        {
          "internalType": "uint256",
          "name": "",
          "type": "uint256"
        }
      ],
      "stateMutability": "view",
      "type": "function",
      "constant": true
    },
    {
      "inputs": [
        {
          "internalType": "address",
          "name": "owner",
          "type": "address"
        },
        {
          "internalType": "uint256",
          "name": "index",
          "type": "uint256"
        }
      ],
      "name": "tokenOfOwnerByIndex",
      "outputs": [
        {
          "internalType": "uint256",
          "name": "",
          "type": "uint256"
        }
      ],
      "stateMutability": "view",
      "type": "function",
      "constant": true
    },
    {
      "inputs": [
        {
          "internalType": "uint256",
          "name": "tokenId",
          "type": "uint256"
        }
      ],
      "name": "tokenURI",
      "outputs": [
        {
          "internalType": "string",
          "name": "",
          "type": "string"
        }
      ],
      "stateMutability": "view",
      "type": "function",
      "constant": true
    },
    {
      "inputs": [],
      "name": "totalSupply",
      "outputs": [
        {
          "internalType": "uint256",
          "name": "",
          "type": "uint256"
        }
      ],
      "stateMutability": "view",
      "type": "function",
      "constant": true
    },
    {
      "inputs": [
        {
          "internalType": "address",
          "name": "from",
          "type": "address"
        },
        {
          "internalType": "address",
          "name": "to",
          "type": "address"
        },
        {
          "internalType": "uint256",
          "name": "tokenId",
          "type": "uint256"
        }
      ],
      "name": "transferFrom",
      "outputs": [],
      "stateMutability": "nonpayable",
      "type": "function"
    },
    {
      "inputs": [],
      "name": "getPixels",
      "outputs": [
        {
          "components": [
            {
              "internalType": "uint256",
              "name": "exhibitId",
              "type": "uint256"
            },
            {
              "internalType": "address",
              "name": "owner",
              "type": "address"
            },
            {
              "internalType": "bytes32",
              "name": "pixelId",
              "type": "bytes32"
            },
            {
              "internalType": "string",
              "name": "hexColor",
              "type": "string"
            },
            {
              "internalType": "uint256",
              "name": "x",
              "type": "uint256"
            },
            {
              "internalType": "uint256",
              "name": "y",
              "type": "uint256"
            }
          ],
          "internalType": "struct PixelToken.PixelResponse[]",
          "name": "",
          "type": "tuple[]"
        }
      ],
      "stateMutability": "view",
      "type": "function",
      "constant": true
    },
    {
      "inputs": [
        {
          "components": [
            {
              "internalType": "bytes32",
              "name": "id",
              "type": "bytes32"
            },
            {
              "internalType": "string",
              "name": "hexColor",
              "type": "string"
            },
            {
              "internalType": "uint256",
              "name": "x",
              "type": "uint256"
            },
            {
              "internalType": "uint256",
              "name": "y",
              "type": "uint256"
            }
          ],
          "internalType": "struct PixelToken.Pixel[]",
          "name": "_pixels",
          "type": "tuple[]"
        }
      ],
      "name": "create",
      "outputs": [],
      "stateMutability": "payable",
      "type": "function",
      "payable": true
    },
    {
      "inputs": [
        {
          "internalType": "uint256",
          "name": "_id",
          "type": "uint256"
        },
        {
          "components": [
            {
              "internalType": "bytes32",
              "name": "id",
              "type": "bytes32"
            },
            {
              "internalType": "string",
              "name": "hexColor",
              "type": "string"
            },
            {
              "internalType": "uint256",
              "name": "x",
              "type": "uint256"
            },
            {
              "internalType": "uint256",
              "name": "y",
              "type": "uint256"
            }
          ],
          "internalType": "struct PixelToken.Pixel[]",
          "name": "_pixels",
          "type": "tuple[]"
        }
      ],
      "name": "changePixels",
      "outputs": [],
      "stateMutability": "nonpayable",
      "type": "function"
    },
    {
      "inputs": [
        {
          "internalType": "uint256",
          "name": "_id",
          "type": "uint256"
        }
      ],
      "name": "placeBid",
      "outputs": [],
      "stateMutability": "payable",
      "type": "function",
      "payable": true
    },
    {
      "inputs": [
        {
          "internalType": "uint256",
          "name": "_id",
          "type": "uint256"
        }
      ],
      "name": "acceptBid",
      "outputs": [],
      "stateMutability": "payable",
      "type": "function",
      "payable": true
    },
    {
      "inputs": [
        {
          "internalType": "uint256",
          "name": "_id",
          "type": "uint256"
        }
      ],
      "name": "getBid",
      "outputs": [
        {
          "components": [
            {
              "internalType": "address payable",
              "name": "fromAddress",
              "type": "address"
            },
            {
              "internalType": "uint256",
              "name": "amount",
              "type": "uint256"
            }
          ],
          "internalType": "struct PixelToken.Bid",
          "name": "",
          "type": "tuple"
        }
      ],
      "stateMutability": "view",
      "type": "function",
      "constant": true
    },
    {
      "inputs": [],
      "name": "getAllHighestBids",
      "outputs": [
        {
          "components": [
            {
              "internalType": "uint256",
              "name": "exhibitId",
              "type": "uint256"
            },
            {
              "internalType": "address payable",
              "name": "fromAddress",
              "type": "address"
            },
            {
              "internalType": "uint256",
              "name": "amount",
              "type": "uint256"
            }
          ],
          "internalType": "struct PixelToken.HighestBidResponse[]",
          "name": "",
          "type": "tuple[]"
        }
      ],
      "stateMutability": "view",
      "type": "function",
      "constant": true
    },
    {
      "inputs": [
        {
          "internalType": "address payable",
          "name": "_owner",
          "type": "address"
        }
      ],
      "name": "changeContactOwner",
      "outputs": [],
      "stateMutability": "nonpayable",
      "type": "function"
    },
    {
      "inputs": [
        {
          "internalType": "uint256",
          "name": "_maxX",
          "type": "uint256"
        },
        {
          "internalType": "uint256",
          "name": "_maxY",
          "type": "uint256"
        }
      ],
      "name": "changeMaxXYPixel",
      "outputs": [],
      "stateMutability": "nonpayable",
      "type": "function"
    },
    {
      "inputs": [
        {
          "internalType": "uint256",
          "name": "_pixelFee",
          "type": "uint256"
        }
      ],
      "name": "changePixelFee",
      "outputs": [],
      "stateMutability": "nonpayable",
      "type": "function"
    }
  ],
  "bytecode": "0x60806040523480156200001157600080fd5b506040518060400160405280600a81526020017f506978656c546f6b656e000000000000000000000000000000000000000000008152506040518060400160405280600381526020017f5058540000000000000000000000000000000000000000000000000000000000815250620000966301ffc9a760e01b6200018560201b60201c565b8160069080519060200190620000ae9291906200028e565b508060079080519060200190620000c79291906200028e565b50620000e06380ac58cd60e01b6200018560201b60201c565b620000f8635b5e139f60e01b6200018560201b60201c565b6200011063780e9d6360e01b6200018560201b60201c565b5050734606ac07453a0efa44cf5c9e17b17d909d1688d2600a60006101000a81548173ffffffffffffffffffffffffffffffffffffffff021916908373ffffffffffffffffffffffffffffffffffffffff16021790555060096014819055506009601581905550600660168190555062000344565b63ffffffff60e01b817bffffffffffffffffffffffffffffffffffffffffffffffffffffffff1916141562000222576040517f08c379a000000000000000000000000000000000000000000000000000000000815260040180806020018281038252601c8152602001807f4552433136353a20696e76616c696420696e746572666163652069640000000081525060200191505060405180910390fd5b6001600080837bffffffffffffffffffffffffffffffffffffffffffffffffffffffff19167bffffffffffffffffffffffffffffffffffffffffffffffffffffffff1916815260200190815260200160002060006101000a81548160ff02191690831515021790555050565b828054600181600116156101000203166002900490600052602060002090601f016020900481019282620002c6576000855562000312565b82601f10620002e157805160ff191683800117855562000312565b8280016001018555821562000312579182015b8281111562000311578251825591602001919060010190620002f4565b5b50905062000321919062000325565b5090565b5b808211156200034057600081600090555060010162000326565b5090565b614e7d80620003546000396000f3fe6080604052600436106101ee5760003560e01c806370a082311161010d578063c87b56dd116100a0578063e678bed11161006f578063e678bed11461070c578063e985e9c514610737578063ef95872014610774578063fc033d761461079d578063feeac619146107dd576101ee565b8063c87b56dd1461065f578063dc042d1b1461069c578063ddf4190a146106c5578063dee5d9b8146106e1576101ee565b80639979ef45116100dc5780639979ef45146105c8578063a22cb465146105e4578063a62f204e1461060d578063b88d4fde14610636576101ee565b806370a082311461050a5780638da5cb5b14610547578063935cd9601461057257806395d89b411461059d576101ee565b80632f745c59116101855780636352211e116101545780636352211e1461043c5780636b0e4d3a146104795780636b4e2385146104a25780636c0360eb146104df576101ee565b80632f745c591461035c5780633c889e6f1461039957806342842e0e146103d65780634f6ccce7146103ff576101ee565b806318160ddd116101c157806318160ddd146102c157806323b872dd146102ec578063281fe1d9146103155780632b1fd58a14610340576101ee565b806301ffc9a7146101f357806306fdde0314610230578063081812fc1461025b578063095ea7b314610298575b600080fd5b3480156101ff57600080fd5b5061021a60048036038101906102159190614137565b610808565b6040516102279190614790565b60405180910390f35b34801561023c57600080fd5b5061024561086f565b60405161025291906147f7565b60405180910390f35b34801561026757600080fd5b50610282600480360381019061027d9190614160565b610911565b60405161028f9190614716565b60405180910390f35b3480156102a457600080fd5b506102bf60048036038101906102ba9190614068565b6109ac565b005b3480156102cd57600080fd5b506102d6610af0565b6040516102e391906148f4565b60405180910390f35b3480156102f857600080fd5b50610313600480360381019061030e9190613f62565b610b01565b005b34801561032157600080fd5b5061032a610b77565b604051610337919061474c565b60405180910390f35b61035a60048036038101906103559190614160565b610d00565b005b34801561036857600080fd5b50610383600480360381019061037e9190614068565b6110b5565b60405161039091906148f4565b60405180910390f35b3480156103a557600080fd5b506103c060048036038101906103bb9190614160565b611110565b6040516103cd91906148d9565b60405180910390f35b3480156103e257600080fd5b506103fd60048036038101906103f89190613f62565b61119d565b005b34801561040b57600080fd5b5061042660048036038101906104219190614160565b6111bd565b60405161043391906148f4565b60405180910390f35b34801561044857600080fd5b50610463600480360381019061045e9190614160565b6111e0565b6040516104709190614716565b60405180910390f35b34801561048557600080fd5b506104a0600480360381019061049b9190614189565b611217565b005b3480156104ae57600080fd5b506104c960048036038101906104c491906140e5565b61146d565b6040516104d691906148f4565b60405180910390f35b3480156104eb57600080fd5b506104f4611485565b60405161050191906147f7565b60405180910390f35b34801561051657600080fd5b50610531600480360381019061052c9190613ed4565b611527565b60405161053e91906148f4565b60405180910390f35b34801561055357600080fd5b5061055c6115fc565b6040516105699190614731565b60405180910390f35b34801561057e57600080fd5b50610587611622565b60405161059491906148f4565b60405180910390f35b3480156105a957600080fd5b506105b2611628565b6040516105bf91906147f7565b60405180910390f35b6105e260048036038101906105dd9190614160565b6116ca565b005b3480156105f057600080fd5b5061060b6004803603810190610606919061402c565b6119cf565b005b34801561061957600080fd5b50610634600480360381019061062f9190613efd565b611b85565b005b34801561064257600080fd5b5061065d60048036038101906106589190613fb1565b611c59565b005b34801561066b57600080fd5b5061068660048036038101906106819190614160565b611cd1565b60405161069391906147f7565b60405180910390f35b3480156106a857600080fd5b506106c360048036038101906106be91906141dd565b611fa2565b005b6106df60048036038101906106da91906140a4565b61205f565b005b3480156106ed57600080fd5b506106f6612371565b60405161070391906148f4565b60405180910390f35b34801561071857600080fd5b50610721612377565b60405161072e91906148f4565b60405180910390f35b34801561074357600080fd5b5061075e60048036038101906107599190613f26565b61237d565b60405161076b9190614790565b60405180910390f35b34801561078057600080fd5b5061079b60048036038101906107969190614160565b612411565b005b3480156107a957600080fd5b506107c460048036038101906107bf91906140e5565b6124ab565b6040516107d494939291906147ab565b60405180910390f35b3480156107e957600080fd5b506107f2612573565b6040516107ff919061476e565b60405180910390f35b6000806000837bffffffffffffffffffffffffffffffffffffffffffffffffffffffff19167bffffffffffffffffffffffffffffffffffffffffffffffffffffffff1916815260200190815260200160002060009054906101000a900460ff169050919050565b606060068054600181600116156101000203166002900480601f0160208091040260200160405190810160405280929190818152602001828054600181600116156101000203166002900480156109075780601f106108dc57610100808354040283529160200191610907565b820191906000526020600020905b8154815290600101906020018083116108ea57829003601f168201915b5050505050905090565b600061091c8261280e565b610971576040517f08c379a000000000000000000000000000000000000000000000000000000000815260040180806020018281038252602c815260200180614d72602c913960400191505060405180910390fd5b6004600083815260200190815260200160002060009054906101000a900473ffffffffffffffffffffffffffffffffffffffff169050919050565b60006109b7826111e0565b90508073ffffffffffffffffffffffffffffffffffffffff168373ffffffffffffffffffffffffffffffffffffffff161415610a3e576040517f08c379a0000000000000000000000000000000000000000000000000000000008152600401808060200182810382526021815260200180614df66021913960400191505060405180910390fd5b8073ffffffffffffffffffffffffffffffffffffffff16610a5d61282b565b73ffffffffffffffffffffffffffffffffffffffff161480610a8c5750610a8b81610a8661282b565b61237d565b5b610ae1576040517f08c379a0000000000000000000000000000000000000000000000000000000008152600401808060200182810382526038815260200180614cc56038913960400191505060405180910390fd5b610aeb8383612833565b505050565b6000610afc60026128ec565b905090565b610b12610b0c61282b565b82612901565b610b67576040517f08c379a0000000000000000000000000000000000000000000000000000000008152600401808060200182810382526031815260200180614e176031913960400191505060405180910390fd5b610b728383836129f5565b505050565b606080600c5467ffffffffffffffff81118015610b9357600080fd5b50604051908082528060200260200182016040528015610bcd57816020015b610bba613add565b815260200190600190039081610bb25790505b5090506000805b600c54811015610cf7576000601260008381526020019081526020016000206001015414610cea57610c04613b14565b601260008381526020019081526020016000206040518060400160405290816000820160009054906101000a900473ffffffffffffffffffffffffffffffffffffffff1673ffffffffffffffffffffffffffffffffffffffff1673ffffffffffffffffffffffffffffffffffffffff1681526020016001820154815250509050610c8c613add565b6040518060600160405280848152602001836000015173ffffffffffffffffffffffffffffffffffffffff1681526020018360200151815250905080858581518110610cd457fe5b6020026020010181905250838060010194505050505b8080600101915050610bd4565b50819250505090565b803373ffffffffffffffffffffffffffffffffffffffff166011600083815260200190815260200160002060010160009054906101000a900473ffffffffffffffffffffffffffffffffffffffff1673ffffffffffffffffffffffffffffffffffffffff1614610da5576040517f08c379a0000000000000000000000000000000000000000000000000000000008152600401610d9c906148b9565b60405180910390fd5b610dad613b44565b60116000848152602001908152602001600020604051806040016040529081600082015481526020016001820160009054906101000a900473ffffffffffffffffffffffffffffffffffffffff1673ffffffffffffffffffffffffffffffffffffffff1673ffffffffffffffffffffffffffffffffffffffff16815250509050806020015173ffffffffffffffffffffffffffffffffffffffff166108fc60126000868152602001908152602001600020600101549081150290604051600060405180830381858888f19350505050158015610e8d573d6000803e3d6000fd5b50610ed381602001516012600086815260200190815260200160002060000160009054906101000a900473ffffffffffffffffffffffffffffffffffffffff168561119d565b6012600084815260200190815260200160002060000160009054906101000a900473ffffffffffffffffffffffffffffffffffffffff16816020019073ffffffffffffffffffffffffffffffffffffffff16908173ffffffffffffffffffffffffffffffffffffffff168152505080601160008581526020019081526020016000206000820151816000015560208201518160010160006101000a81548173ffffffffffffffffffffffffffffffffffffffff021916908373ffffffffffffffffffffffffffffffffffffffff160217905550905050601360008481526020019081526020016000206012600085815260200190815260200160002090806001815401808255809150506001900390600052602060002090600202016000909190919091506000820160009054906101000a900473ffffffffffffffffffffffffffffffffffffffff168160000160006101000a81548173ffffffffffffffffffffffffffffffffffffffff021916908373ffffffffffffffffffffffffffffffffffffffff16021790555060018201548160010155505060126000848152602001908152602001600020600080820160006101000a81549073ffffffffffffffffffffffffffffffffffffffff021916905560018201600090555050505050565b600061110882600160008673ffffffffffffffffffffffffffffffffffffffff1673ffffffffffffffffffffffffffffffffffffffff168152602001908152602001600020612c3890919063ffffffff16565b905092915050565b611118613b14565b601260008381526020019081526020016000206040518060400160405290816000820160009054906101000a900473ffffffffffffffffffffffffffffffffffffffff1673ffffffffffffffffffffffffffffffffffffffff1673ffffffffffffffffffffffffffffffffffffffff1681526020016001820154815250509050919050565b6111b883838360405180602001604052806000815250611c59565b505050565b6000806111d4836002612c5290919063ffffffff16565b50905080915050919050565b600061121082604051806060016040528060298152602001614d27602991396002612c7e9092919063ffffffff16565b9050919050565b813373ffffffffffffffffffffffffffffffffffffffff166011600083815260200190815260200160002060010160009054906101000a900473ffffffffffffffffffffffffffffffffffffffff1673ffffffffffffffffffffffffffffffffffffffff16146112bc576040517f08c379a00000000000000000000000000000000000000000000000000000000081526004016112b3906148b9565b60405180910390fd5b60005b8251811015611467576112d0613b74565b8382815181106112dc57fe5b6020026020010151905084600f600083600001518152602001908152602001600020541461130957600080fd5b611311613b74565b600e60008360000151815260200190815260200160002060405180608001604052908160008201548152602001600182018054600181600116156101000203166002900480601f0160208091040260200160405190810160405280929190818152602001828054600181600116156101000203166002900480156113d65780601f106113ab576101008083540402835291602001916113d6565b820191906000526020600020905b8154815290600101906020018083116113b957829003601f168201915b505050505081526020016002820154815260200160038201548152505090508160200151816020018190525080600e600084600001518152602001908152602001600020600082015181600001556020820151816001019080519060200190611440929190613b9f565b506040820151816002015560608201518160030155905050505080806001019150506112bf565b50505050565b600f6020528060005260406000206000915090505481565b606060098054600181600116156101000203166002900480601f01602080910402602001604051908101604052809291908181526020018280546001816001161561010002031660029004801561151d5780601f106114f25761010080835404028352916020019161151d565b820191906000526020600020905b81548152906001019060200180831161150057829003601f168201915b5050505050905090565b60008073ffffffffffffffffffffffffffffffffffffffff168273ffffffffffffffffffffffffffffffffffffffff1614156115ae576040517f08c379a000000000000000000000000000000000000000000000000000000000815260040180806020018281038252602a815260200180614cfd602a913960400191505060405180910390fd5b6115f5600160008473ffffffffffffffffffffffffffffffffffffffff1673ffffffffffffffffffffffffffffffffffffffff168152602001908152602001600020612c9d565b9050919050565b600a60009054906101000a900473ffffffffffffffffffffffffffffffffffffffff1681565b60165481565b606060078054600181600116156101000203166002900480601f0160208091040260200160405190810160405280929190818152602001828054600181600116156101000203166002900480156116c05780601f10611695576101008083540402835291602001916116c0565b820191906000526020600020905b8154815290600101906020018083116116a357829003601f168201915b5050505050905090565b803373ffffffffffffffffffffffffffffffffffffffff166011600083815260200190815260200160002060010160009054906101000a900473ffffffffffffffffffffffffffffffffffffffff1673ffffffffffffffffffffffffffffffffffffffff161415611770576040517f08c379a000000000000000000000000000000000000000000000000000000000815260040161176790614859565b60405180910390fd5b611778613b14565b601260008481526020019081526020016000206040518060400160405290816000820160009054906101000a900473ffffffffffffffffffffffffffffffffffffffff1673ffffffffffffffffffffffffffffffffffffffff1673ffffffffffffffffffffffffffffffffffffffff168152602001600182015481525050905060003411801561180b5750806020015134115b61181457600080fd5b600073ffffffffffffffffffffffffffffffffffffffff16816000015173ffffffffffffffffffffffffffffffffffffffff161461192c57806000015173ffffffffffffffffffffffffffffffffffffffff166108fc82602001519081150290604051600060405180830381858888f1935050505015801561189a573d6000803e3d6000fd5b506013600084815260200190815260200160002081908060018154018082558091505060019003906000526020600020906002020160009091909190915060008201518160000160006101000a81548173ffffffffffffffffffffffffffffffffffffffff021916908373ffffffffffffffffffffffffffffffffffffffff1602179055506020820151816001015550505b611934613b14565b60405180604001604052803373ffffffffffffffffffffffffffffffffffffffff168152602001348152509050806012600086815260200190815260200160002060008201518160000160006101000a81548173ffffffffffffffffffffffffffffffffffffffff021916908373ffffffffffffffffffffffffffffffffffffffff1602179055506020820151816001015590505050505050565b6119d761282b565b73ffffffffffffffffffffffffffffffffffffffff168273ffffffffffffffffffffffffffffffffffffffff161415611a78576040517f08c379a00000000000000000000000000000000000000000000000000000000081526004018080602001828103825260198152602001807f4552433732313a20617070726f766520746f2063616c6c65720000000000000081525060200191505060405180910390fd5b8060056000611a8561282b565b73ffffffffffffffffffffffffffffffffffffffff1673ffffffffffffffffffffffffffffffffffffffff16815260200190815260200160002060008473ffffffffffffffffffffffffffffffffffffffff1673ffffffffffffffffffffffffffffffffffffffff16815260200190815260200160002060006101000a81548160ff0219169083151502179055508173ffffffffffffffffffffffffffffffffffffffff16611b3261282b565b73ffffffffffffffffffffffffffffffffffffffff167f17307eab39ab6107e8899845ad3d59bd9653f200f220920489ca2b5937696c318360405180821515815260200191505060405180910390a35050565b600a60009054906101000a900473ffffffffffffffffffffffffffffffffffffffff1673ffffffffffffffffffffffffffffffffffffffff163373ffffffffffffffffffffffffffffffffffffffff1614611c15576040517f08c379a0000000000000000000000000000000000000000000000000000000008152600401611c0c90614819565b60405180910390fd5b80600a60006101000a81548173ffffffffffffffffffffffffffffffffffffffff021916908373ffffffffffffffffffffffffffffffffffffffff16021790555050565b611c6a611c6461282b565b83612901565b611cbf576040517f08c379a0000000000000000000000000000000000000000000000000000000008152600401808060200182810382526031815260200180614e176031913960400191505060405180910390fd5b611ccb84848484612cb2565b50505050565b6060611cdc8261280e565b611d31576040517f08c379a000000000000000000000000000000000000000000000000000000000815260040180806020018281038252602f815260200180614dc7602f913960400191505060405180910390fd5b6060600860008481526020019081526020016000208054600181600116156101000203166002900480601f016020809104026020016040519081016040528092919081815260200182805460018160011615610100020316600290048015611dda5780601f10611daf57610100808354040283529160200191611dda565b820191906000526020600020905b815481529060010190602001808311611dbd57829003601f168201915b505050505090506060611deb611485565b9050600081511415611e01578192505050611f9d565b600082511115611ed25780826040516020018083805190602001908083835b60208310611e435780518252602082019150602081019050602083039250611e20565b6001836020036101000a03801982511681845116808217855250505050505090500182805190602001908083835b60208310611e945780518252602082019150602081019050602083039250611e71565b6001836020036101000a0380198251168184511680821785525050505050509050019250505060405160208183030381529060405292505050611f9d565b80611edc85612d24565b6040516020018083805190602001908083835b60208310611f125780518252602082019150602081019050602083039250611eef565b6001836020036101000a03801982511681845116808217855250505050505090500182805190602001908083835b60208310611f635780518252602082019150602081019050602083039250611f40565b6001836020036101000a03801982511681845116808217855250505050505090500192505050604051602081830303815290604052925050505b919050565b600a60009054906101000a900473ffffffffffffffffffffffffffffffffffffffff1673ffffffffffffffffffffffffffffffffffffffff163373ffffffffffffffffffffffffffffffffffffffff1614612032576040517f08c379a000000000000000000000000000000000000000000000000000000000815260040161202990614819565b60405180910390fd5b60145482118015612044575060155481115b61204d57600080fd5b81601481905550806015819055505050565b343373ffffffffffffffffffffffffffffffffffffffff163110156120b9576040517f08c379a00000000000000000000000000000000000000000000000000000000081526004016120b090614839565b60405180910390fd5b601654815111156120ff576040517f08c379a00000000000000000000000000000000000000000000000000000000081526004016120f690614879565b60405180910390fd5b60005b815181101561224e57612113613b74565b82828151811061211f57fe5b602002602001015190506014548160400151111580156121455750601554816060015111155b612184576040517f08c379a000000000000000000000000000000000000000000000000000000000815260040161217b90614899565b60405180910390fd5b61219681604001518260600151612e6b565b81600001818152505080600e6000836000015181526020019081526020016000206000820151816000015560208201518160010190805190602001906121dd929190613b9f565b506040820151816002015560608201518160030155905050600c54600f60008360000151815260200190815260200160002081905550600d81600001519080600181540180825580915050600190039060005260206000200160009091909190915055508080600101915050612102565b50612257613b44565b6040518060400160405280600c5481526020013373ffffffffffffffffffffffffffffffffffffffff1681525090508060116000600c5481526020019081526020016000206000820151816000015560208201518160010160006101000a81548173ffffffffffffffffffffffffffffffffffffffff021916908373ffffffffffffffffffffffffffffffffffffffff160217905550905050600a60009054906101000a900473ffffffffffffffffffffffffffffffffffffffff1673ffffffffffffffffffffffffffffffffffffffff166108fc349081150290604051600060405180830381858888f19350505050158015612358573d6000803e3d6000fd5b5061236533600c54612ee6565b61236d6130da565b5050565b60155481565b60145481565b6000600560008473ffffffffffffffffffffffffffffffffffffffff1673ffffffffffffffffffffffffffffffffffffffff16815260200190815260200160002060008373ffffffffffffffffffffffffffffffffffffffff1673ffffffffffffffffffffffffffffffffffffffff16815260200190815260200160002060009054906101000a900460ff16905092915050565b600a60009054906101000a900473ffffffffffffffffffffffffffffffffffffffff1673ffffffffffffffffffffffffffffffffffffffff163373ffffffffffffffffffffffffffffffffffffffff16146124a1576040517f08c379a000000000000000000000000000000000000000000000000000000000815260040161249890614819565b60405180910390fd5b80600b8190555050565b600e602052806000526040600020600091509050806000015490806001018054600181600116156101000203166002900480601f01602080910402602001604051908101604052809291908181526020018280546001816001161561010002031660029004801561255d5780601f106125325761010080835404028352916020019161255d565b820191906000526020600020905b81548152906001019060200180831161254057829003601f168201915b5050505050908060020154908060030154905084565b606080600d8054905067ffffffffffffffff8111801561259257600080fd5b506040519080825280602002602001820160405280156125cc57816020015b6125b9613c2d565b8152602001906001900390816125b15790505b50905060005b8151811015612806576125e3613b74565b600e6000600d84815481106125f457fe5b9060005260206000200154815260200190815260200160002060405180608001604052908160008201548152602001600182018054600181600116156101000203166002900480601f0160208091040260200160405190810160405280929190818152602001828054600181600116156101000203166002900480156126bb5780601f10612690576101008083540402835291602001916126bb565b820191906000526020600020905b81548152906001019060200180831161269e57829003601f168201915b505050505081526020016002820154815260200160038201548152505090506126e2613b44565b60116000600f600085600001518152602001908152602001600020548152602001908152602001600020604051806040016040529081600082015481526020016001820160009054906101000a900473ffffffffffffffffffffffffffffffffffffffff1673ffffffffffffffffffffffffffffffffffffffff1673ffffffffffffffffffffffffffffffffffffffff16815250509050612781613c2d565b6040518060c0016040528083600001518152602001836020015173ffffffffffffffffffffffffffffffffffffffff16815260200184600001518152602001846020015181526020018460400151815260200184606001518152509050808585815181106127eb57fe5b602002602001018190525050505080806001019150506125d2565b508091505090565b60006128248260026130ee90919063ffffffff16565b9050919050565b600033905090565b816004600083815260200190815260200160002060006101000a81548173ffffffffffffffffffffffffffffffffffffffff021916908373ffffffffffffffffffffffffffffffffffffffff160217905550808273ffffffffffffffffffffffffffffffffffffffff166128a6836111e0565b73ffffffffffffffffffffffffffffffffffffffff167f8c5be1e5ebec7d5bd14f71427d1e84f3dd0314c0f7b2291e5b200ac8c7c3b92560405160405180910390a45050565b60006128fa82600001613108565b9050919050565b600061290c8261280e565b612961576040517f08c379a000000000000000000000000000000000000000000000000000000000815260040180806020018281038252602c815260200180614c99602c913960400191505060405180910390fd5b600061296c836111e0565b90508073ffffffffffffffffffffffffffffffffffffffff168473ffffffffffffffffffffffffffffffffffffffff1614806129db57508373ffffffffffffffffffffffffffffffffffffffff166129c384610911565b73ffffffffffffffffffffffffffffffffffffffff16145b806129ec57506129eb818561237d565b5b91505092915050565b8273ffffffffffffffffffffffffffffffffffffffff16612a15826111e0565b73ffffffffffffffffffffffffffffffffffffffff1614612a81576040517f08c379a0000000000000000000000000000000000000000000000000000000008152600401808060200182810382526029815260200180614d9e6029913960400191505060405180910390fd5b600073ffffffffffffffffffffffffffffffffffffffff168273ffffffffffffffffffffffffffffffffffffffff161415612b07576040517f08c379a0000000000000000000000000000000000000000000000000000000008152600401808060200182810382526024815260200180614c4f6024913960400191505060405180910390fd5b612b12838383613119565b612b1d600082612833565b612b6e81600160008673ffffffffffffffffffffffffffffffffffffffff1673ffffffffffffffffffffffffffffffffffffffff16815260200190815260200160002061311e90919063ffffffff16565b50612bc081600160008573ffffffffffffffffffffffffffffffffffffffff1673ffffffffffffffffffffffffffffffffffffffff16815260200190815260200160002061313890919063ffffffff16565b50612bd7818360026131529092919063ffffffff16565b50808273ffffffffffffffffffffffffffffffffffffffff168473ffffffffffffffffffffffffffffffffffffffff167fddf252ad1be2c89b69c2b068fc378daa952ba7f163c4a11628f55a4df523b3ef60405160405180910390a4505050565b6000612c478360000183613187565b60001c905092915050565b600080600080612c65866000018661320a565b915091508160001c8160001c9350935050509250929050565b6000612c91846000018460001b846132a3565b60001c90509392505050565b6000612cab82600001613399565b9050919050565b612cbd8484846129f5565b612cc9848484846133aa565b612d1e576040517f08c379a0000000000000000000000000000000000000000000000000000000008152600401808060200182810382526032815260200180614c1d6032913960400191505060405180910390fd5b50505050565b60606000821415612d6c576040518060400160405280600181526020017f30000000000000000000000000000000000000000000000000000000000000008152509050612e66565b600082905060005b60008214612d96578080600101915050600a8281612d8e57fe5b049150612d74565b60608167ffffffffffffffff81118015612daf57600080fd5b506040519080825280601f01601f191660200182016040528015612de25781602001600182028036833780820191505090505b50905060006001830390508593505b60008414612e5e57600a8481612e0357fe5b0660300160f81b82828060019003935081518110612e1d57fe5b60200101907effffffffffffffffffffffffffffffffffffffffffffffffffffffffffffff1916908160001a905350600a8481612e5657fe5b049350612df1565b819450505050505b919050565b600060028383604051602001612e829291906146ea565b604051602081830303815290604052604051612e9e91906146d3565b602060405180830381855afa158015612ebb573d6000803e3d6000fd5b5050506040513d601f19601f82011682018060405250810190612ede919061410e565b905092915050565b600073ffffffffffffffffffffffffffffffffffffffff168273ffffffffffffffffffffffffffffffffffffffff161415612f89576040517f08c379a00000000000000000000000000000000000000000000000000000000081526004018080602001828103825260208152602001807f4552433732313a206d696e7420746f20746865207a65726f206164647265737381525060200191505060405180910390fd5b612f928161280e565b15613005576040517f08c379a000000000000000000000000000000000000000000000000000000000815260040180806020018281038252601c8152602001807f4552433732313a20746f6b656e20616c7265616479206d696e7465640000000081525060200191505060405180910390fd5b61301160008383613119565b61306281600160008573ffffffffffffffffffffffffffffffffffffffff1673ffffffffffffffffffffffffffffffffffffffff16815260200190815260200160002061313890919063ffffffff16565b50613079818360026131529092919063ffffffff16565b50808273ffffffffffffffffffffffffffffffffffffffff16600073ffffffffffffffffffffffffffffffffffffffff167fddf252ad1be2c89b69c2b068fc378daa952ba7f163c4a11628f55a4df523b3ef60405160405180910390a45050565b600c60008154809291906001019190505550565b6000613100836000018360001b6135c3565b905092915050565b600081600001805490509050919050565b505050565b6000613130836000018360001b6135e6565b905092915050565b600061314a836000018360001b6136ce565b905092915050565b600061317e846000018460001b8473ffffffffffffffffffffffffffffffffffffffff1660001b61373e565b90509392505050565b6000818360000180549050116131e8576040517f08c379a0000000000000000000000000000000000000000000000000000000008152600401808060200182810382526022815260200180614bfb6022913960400191505060405180910390fd5b8260000182815481106131f757fe5b9060005260206000200154905092915050565b6000808284600001805490501161326c576040517f08c379a0000000000000000000000000000000000000000000000000000000008152600401808060200182810382526022815260200180614d506022913960400191505060405180910390fd5b600084600001848154811061327d57fe5b906000526020600020906002020190508060000154816001015492509250509250929050565b6000808460010160008581526020019081526020016000205490506000811415839061336a576040517f08c379a00000000000000000000000000000000000000000000000000000000081526004018080602001828103825283818151815260200191508051906020019080838360005b8381101561332f578082015181840152602081019050613314565b50505050905090810190601f16801561335c5780820380516001836020036101000a031916815260200191505b509250505060405180910390fd5b5084600001600182038154811061337d57fe5b9060005260206000209060020201600101549150509392505050565b600081600001805490509050919050565b60006133cb8473ffffffffffffffffffffffffffffffffffffffff1661381a565b6133d857600190506135bb565b606061354263150b7a0260e01b6133ed61282b565b888787604051602401808573ffffffffffffffffffffffffffffffffffffffff1681526020018473ffffffffffffffffffffffffffffffffffffffff16815260200183815260200180602001828103825283818151815260200191508051906020019080838360005b83811015613471578082015181840152602081019050613456565b50505050905090810190601f16801561349e5780820380516001836020036101000a031916815260200191505b5095505050505050604051602081830303815290604052907bffffffffffffffffffffffffffffffffffffffffffffffffffffffff19166020820180517bffffffffffffffffffffffffffffffffffffffffffffffffffffffff8381831617835250505050604051806060016040528060328152602001614c1d603291398773ffffffffffffffffffffffffffffffffffffffff1661382d9092919063ffffffff16565b9050600081806020019051602081101561355b57600080fd5b8101908080519060200190929190505050905063150b7a0260e01b7bffffffffffffffffffffffffffffffffffffffffffffffffffffffff1916817bffffffffffffffffffffffffffffffffffffffffffffffffffffffff191614925050505b949350505050565b600080836001016000848152602001908152602001600020541415905092915050565b600080836001016000848152602001908152602001600020549050600081146136c2576000600182039050600060018660000180549050039050600086600001828154811061363157fe5b906000526020600020015490508087600001848154811061364e57fe5b906000526020600020018190555060018301876001016000838152602001908152602001600020819055508660000180548061368657fe5b600190038181906000526020600020016000905590558660010160008781526020019081526020016000206000905560019450505050506136c8565b60009150505b92915050565b60006136da8383613845565b613733578260000182908060018154018082558091505060019003906000526020600020016000909190919091505582600001805490508360010160008481526020019081526020016000208190555060019050613738565b600090505b92915050565b60008084600101600085815260200190815260200160002054905060008114156137e557846000016040518060400160405280868152602001858152509080600181540180825580915050600190039060005260206000209060020201600090919091909150600082015181600001556020820151816001015550508460000180549050856001016000868152602001908152602001600020819055506001915050613813565b828560000160018303815481106137f857fe5b90600052602060002090600202016001018190555060009150505b9392505050565b600080823b905060008111915050919050565b606061383c8484600085613868565b90509392505050565b600080836001016000848152602001908152602001600020541415905092915050565b6060824710156138c3576040517f08c379a0000000000000000000000000000000000000000000000000000000008152600401808060200182810382526026815260200180614c736026913960400191505060405180910390fd5b6138cc8561381a565b61393e576040517f08c379a000000000000000000000000000000000000000000000000000000000815260040180806020018281038252601d8152602001807f416464726573733a2063616c6c20746f206e6f6e2d636f6e747261637400000081525060200191505060405180910390fd5b600060608673ffffffffffffffffffffffffffffffffffffffff1685876040518082805190602001908083835b6020831061398e578051825260208201915060208101905060208303925061396b565b6001836020036101000a03801982511681845116808217855250505050505090500191505060006040518083038185875af1925050503d80600081146139f0576040519150601f19603f3d011682016040523d82523d6000602084013e6139f5565b606091505b5091509150613a05828286613a11565b92505050949350505050565b60608315613a2157829050613ad6565b600083511115613a345782518084602001fd5b816040517f08c379a00000000000000000000000000000000000000000000000000000000081526004018080602001828103825283818151815260200191508051906020019080838360005b83811015613a9b578082015181840152602081019050613a80565b50505050905090810190601f168015613ac85780820380516001836020036101000a031916815260200191505b509250505060405180910390fd5b9392505050565b604051806060016040528060008152602001600073ffffffffffffffffffffffffffffffffffffffff168152602001600081525090565b6040518060400160405280600073ffffffffffffffffffffffffffffffffffffffff168152602001600081525090565b604051806040016040528060008152602001600073ffffffffffffffffffffffffffffffffffffffff1681525090565b6040518060800160405280600080191681526020016060815260200160008152602001600081525090565b828054600181600116156101000203166002900490600052602060002090601f016020900481019282613bd55760008555613c1c565b82601f10613bee57805160ff1916838001178555613c1c565b82800160010185558215613c1c579182015b82811115613c1b578251825591602001919060010190613c00565b5b509050613c299190613c7c565b5090565b6040518060c0016040528060008152602001600073ffffffffffffffffffffffffffffffffffffffff168152602001600080191681526020016060815260200160008152602001600081525090565b5b80821115613c95576000816000905550600101613c7d565b5090565b600081359050613ca881614b70565b92915050565b600081359050613cbd81614b87565b92915050565b600082601f830112613cd457600080fd5b8135613ce7613ce282614940565b61490f565b9150818183526020840193506020810190508360005b83811015613d2d5781358601613d138882613e33565b845260208401935060208301925050600181019050613cfd565b5050505092915050565b600081359050613d4681614b9e565b92915050565b600081359050613d5b81614bb5565b92915050565b600081519050613d7081614bb5565b92915050565b600081359050613d8581614bcc565b92915050565b600082601f830112613d9c57600080fd5b8135613daf613daa8261496c565b61490f565b91508082526020830160208301858383011115613dcb57600080fd5b613dd6838284614b11565b50505092915050565b600082601f830112613df057600080fd5b8135613e03613dfe8261499c565b61490f565b91508082526020830160208301858383011115613e1f57600080fd5b613e2a838284614b11565b50505092915050565b600060808284031215613e4557600080fd5b613e4f608061490f565b90506000613e5f84828501613d4c565b600083015250602082013567ffffffffffffffff811115613e7f57600080fd5b613e8b84828501613ddf565b6020830152506040613e9f84828501613ebf565b6040830152506060613eb384828501613ebf565b60608301525092915050565b600081359050613ece81614be3565b92915050565b600060208284031215613ee657600080fd5b6000613ef484828501613c99565b91505092915050565b600060208284031215613f0f57600080fd5b6000613f1d84828501613cae565b91505092915050565b60008060408385031215613f3957600080fd5b6000613f4785828601613c99565b9250506020613f5885828601613c99565b9150509250929050565b600080600060608486031215613f7757600080fd5b6000613f8586828701613c99565b9350506020613f9686828701613c99565b9250506040613fa786828701613ebf565b9150509250925092565b60008060008060808587031215613fc757600080fd5b6000613fd587828801613c99565b9450506020613fe687828801613c99565b9350506040613ff787828801613ebf565b925050606085013567ffffffffffffffff81111561401457600080fd5b61402087828801613d8b565b91505092959194509250565b6000806040838503121561403f57600080fd5b600061404d85828601613c99565b925050602061405e85828601613d37565b9150509250929050565b6000806040838503121561407b57600080fd5b600061408985828601613c99565b925050602061409a85828601613ebf565b9150509250929050565b6000602082840312156140b657600080fd5b600082013567ffffffffffffffff8111156140d057600080fd5b6140dc84828501613cc3565b91505092915050565b6000602082840312156140f757600080fd5b600061410584828501613d4c565b91505092915050565b60006020828403121561412057600080fd5b600061412e84828501613d61565b91505092915050565b60006020828403121561414957600080fd5b600061415784828501613d76565b91505092915050565b60006020828403121561417257600080fd5b600061418084828501613ebf565b91505092915050565b6000806040838503121561419c57600080fd5b60006141aa85828601613ebf565b925050602083013567ffffffffffffffff8111156141c757600080fd5b6141d385828601613cc3565b9150509250929050565b600080604083850312156141f057600080fd5b60006141fe85828601613ebf565b925050602061420f85828601613ebf565b9150509250929050565b600061422583836145d3565b60608301905092915050565b600061423d8383614615565b905092915050565b61424e81614a93565b82525050565b61425d81614a93565b82525050565b61426c81614a81565b82525050565b61427b81614a81565b82525050565b600061428c826149ec565b6142968185614a32565b93506142a1836149cc565b8060005b838110156142d25781516142b98882614219565b97506142c483614a18565b9250506001810190506142a5565b5085935050505092915050565b60006142ea826149f7565b6142f48185614a43565b935083602082028501614306856149dc565b8060005b8581101561434257848403895281516143238582614231565b945061432e83614a25565b925060208a0199505060018101905061430a565b50829750879550505050505092915050565b61435d81614aa5565b82525050565b61436c81614ab1565b82525050565b61437b81614ab1565b82525050565b600061438c82614a02565b6143968185614a54565b93506143a6818560208601614b20565b80840191505092915050565b60006143bd82614a0d565b6143c78185614a5f565b93506143d7818560208601614b20565b6143e081614b5f565b840191505092915050565b60006143f682614a0d565b6144008185614a70565b9350614410818560208601614b20565b61441981614b5f565b840191505092915050565b6000614431600a83614a70565b91507f4f776e6572204f6e6c79000000000000000000000000000000000000000000006000830152602082019050919050565b6000614471601083614a70565b91507f4e6f7420656e6f7567682066756e6473000000000000000000000000000000006000830152602082019050919050565b60006144b1601183614a70565b91507f43616e6e6f742062652043726561746f720000000000000000000000000000006000830152602082019050919050565b60006144f1600f83614a70565b91507f546f6f206d616e7920706978656c7300000000000000000000000000000000006000830152602082019050919050565b6000614531601d83614a70565b91507f436f6f7264696e6174657320617265206f7574206f6620626f756e63650000006000830152602082019050919050565b6000614571600c83614a70565b91507f43726561746f72204f6e6c7900000000000000000000000000000000000000006000830152602082019050919050565b6040820160008201516145ba6000850182614245565b5060208201516145cd602085018261469e565b50505050565b6060820160008201516145e9600085018261469e565b5060208201516145fc6020850182614245565b50604082015161460f604085018261469e565b50505050565b600060c08301600083015161462d600086018261469e565b5060208301516146406020860182614263565b5060408301516146536040860182614363565b506060830151848203606086015261466b82826143b2565b9150506080830151614680608086018261469e565b5060a083015161469360a086018261469e565b508091505092915050565b6146a781614b07565b82525050565b6146b681614b07565b82525050565b6146cd6146c882614b07565b614b53565b82525050565b60006146df8284614381565b915081905092915050565b60006146f682856146bc565b60208201915061470682846146bc565b6020820191508190509392505050565b600060208201905061472b6000830184614272565b92915050565b60006020820190506147466000830184614254565b92915050565b600060208201905081810360008301526147668184614281565b905092915050565b6000602082019050818103600083015261478881846142df565b905092915050565b60006020820190506147a56000830184614354565b92915050565b60006080820190506147c06000830187614372565b81810360208301526147d281866143eb565b90506147e160408301856146ad565b6147ee60608301846146ad565b95945050505050565b6000602082019050818103600083015261481181846143eb565b905092915050565b6000602082019050818103600083015261483281614424565b9050919050565b6000602082019050818103600083015261485281614464565b9050919050565b60006020820190508181036000830152614872816144a4565b9050919050565b60006020820190508181036000830152614892816144e4565b9050919050565b600060208201905081810360008301526148b281614524565b9050919050565b600060208201905081810360008301526148d281614564565b9050919050565b60006040820190506148ee60008301846145a4565b92915050565b600060208201905061490960008301846146ad565b92915050565b6000604051905081810181811067ffffffffffffffff8211171561493657614935614b5d565b5b8060405250919050565b600067ffffffffffffffff82111561495b5761495a614b5d565b5b602082029050602081019050919050565b600067ffffffffffffffff82111561498757614986614b5d565b5b601f19601f8301169050602081019050919050565b600067ffffffffffffffff8211156149b7576149b6614b5d565b5b601f19601f8301169050602081019050919050565b6000819050602082019050919050565b6000819050602082019050919050565b600081519050919050565b600081519050919050565b600081519050919050565b600081519050919050565b6000602082019050919050565b6000602082019050919050565b600082825260208201905092915050565b600082825260208201905092915050565b600081905092915050565b600082825260208201905092915050565b600082825260208201905092915050565b6000614a8c82614ae7565b9050919050565b6000614a9e82614ae7565b9050919050565b60008115159050919050565b6000819050919050565b60007fffffffff0000000000000000000000000000000000000000000000000000000082169050919050565b600073ffffffffffffffffffffffffffffffffffffffff82169050919050565b6000819050919050565b82818337600083830152505050565b60005b83811015614b3e578082015181840152602081019050614b23565b83811115614b4d576000848401525b50505050565b6000819050919050565bfe5b6000601f19601f8301169050919050565b614b7981614a81565b8114614b8457600080fd5b50565b614b9081614a93565b8114614b9b57600080fd5b50565b614ba781614aa5565b8114614bb257600080fd5b50565b614bbe81614ab1565b8114614bc957600080fd5b50565b614bd581614abb565b8114614be057600080fd5b50565b614bec81614b07565b8114614bf757600080fd5b5056fe456e756d657261626c655365743a20696e646578206f7574206f6620626f756e64734552433732313a207472616e7366657220746f206e6f6e20455243373231526563656976657220696d706c656d656e7465724552433732313a207472616e7366657220746f20746865207a65726f2061646472657373416464726573733a20696e73756666696369656e742062616c616e636520666f722063616c6c4552433732313a206f70657261746f7220717565727920666f72206e6f6e6578697374656e7420746f6b656e4552433732313a20617070726f76652063616c6c6572206973206e6f74206f776e6572206e6f7220617070726f76656420666f7220616c6c4552433732313a2062616c616e636520717565727920666f7220746865207a65726f20616464726573734552433732313a206f776e657220717565727920666f72206e6f6e6578697374656e7420746f6b656e456e756d657261626c654d61703a20696e646578206f7574206f6620626f756e64734552433732313a20617070726f76656420717565727920666f72206e6f6e6578697374656e7420746f6b656e4552433732313a207472616e73666572206f6620746f6b656e2074686174206973206e6f74206f776e4552433732314d657461646174613a2055524920717565727920666f72206e6f6e6578697374656e7420746f6b656e4552433732313a20617070726f76616c20746f2063757272656e74206f776e65724552433732313a207472616e736665722063616c6c6572206973206e6f74206f776e6572206e6f7220617070726f766564a26469706673582212208dc11a5dd39795a3a5b15fee3035875cd2743a4c261c1c4fe8e99d73ee7f030364736f6c63430007040033",
  "immutableReferences": {},
  "source": "pragma solidity 0.7.4;\npragma experimental ABIEncoderV2;\n\nimport \"@openzeppelin/contracts/token/ERC721/ERC721.sol\";\n\ncontract PixelToken is ERC721 {\n\n    struct Exhibit {\n        uint256 id;\n        address payable owner;\n    }\n\n    struct Pixel {\n        bytes32 id;\n        string hexColor;\n        uint256 x;\n        uint256 y;\n    }\n\n    struct Bid {\n        address payable fromAddress;\n        uint256 amount;\n    }\n\n    struct HighestBidResponse {\n        uint256 exhibitId;\n        address payable fromAddress;\n        uint256 amount;\n    }\n\n    struct PixelResponse {\n        uint256 exhibitId;\n        address owner;\n        bytes32 pixelId;\n        string hexColor;\n        uint256 x;\n        uint256 y;\n    }\n\n    address payable public owner;\n    uint256 pixelFee;\n    uint256 private _currentTokenID;\n    bytes32[] pixelIds;\n    mapping (bytes32 => Pixel) public pixelMap;\n    mapping (bytes32 => uint256) public pixelExhibit;\n    mapping (bytes32 => Exhibit) exhibitHash; \n    mapping (uint256 => Exhibit) exhibits;\n    mapping (uint256 => Bid) highestBid;\n    mapping (uint256 => Bid[]) bidHistory;\n    uint256 public maxXPixel;\n    uint256 public maxYPixel;\n    uint256 public maxPixelsPerExhibit;\n\n    modifier exhibitCreatorOnly(uint256 _id) {\n        require(exhibits[_id].owner == msg.sender, \"Creator Only\");\n        _;\n    }\n\n    modifier notExhibitCreator(uint256 _id) {\n        require(exhibits[_id].owner != msg.sender, \"Cannot be Creator\");\n        _;\n    }\n\n    modifier isContractOwner() {\n        require(msg.sender == owner, \"Owner Only\");\n        _;\n    }\n\n    constructor() ERC721(\"PixelToken\", \"PXT\") {\n        owner = 0x4606Ac07453a0eFa44cf5C9e17b17D909d1688D2;\n        maxXPixel = 9;\n        maxYPixel = 9;\n        maxPixelsPerExhibit = 6;\n    }\n\n    function getPixels() public view returns(PixelResponse[] memory) {\n        PixelResponse[] memory _pixels = new PixelResponse[](pixelIds.length);\n        for (uint256 i = 0; i < _pixels.length; i++) {\n            Pixel memory _pixel = pixelMap[pixelIds[i]];\n            Exhibit memory creator = exhibits[pixelExhibit[_pixel.id]];\n            PixelResponse memory resp = PixelResponse({\n                exhibitId: creator.id,\n                owner: creator.owner,\n                pixelId: _pixel.id,\n                hexColor: _pixel.hexColor,\n                x: _pixel.x,\n                y: _pixel.y\n            });\n             _pixels[i] = resp;\n        }\n        return _pixels;\n    }\n\n    function create(Pixel[] memory _pixels) public payable {\n        require(msg.sender.balance >= msg.value, \"Not enough funds\");\n        require(_pixels.length <= maxPixelsPerExhibit, \"Too many pixels\");\n\n        for (uint256 i = 0; i < _pixels.length; i++) {\n            Pixel memory p = _pixels[i];\n            require(p.x <= maxXPixel && p.y <= maxYPixel, \"Coordinates are out of bounce\");\n            p.id = getHashFromCords(p.x, p.y);\n            pixelMap[p.id] = p;\n            pixelExhibit[p.id] = _currentTokenID;\n            pixelIds.push(p.id);\n        }\n\n        Exhibit memory exhibit = Exhibit({\n            id: _currentTokenID,\n            owner: msg.sender\n        });\n        exhibits[_currentTokenID] = exhibit;\n        owner.transfer(msg.value);\n        _mint(msg.sender, _currentTokenID);\n        _incrementTokenTypeId();\n    }\n\n    function changePixels(uint256 _id, Pixel[] memory _pixels) public exhibitCreatorOnly(_id) {\n        for (uint256 i = 0; i < _pixels.length; i++) {\n            Pixel memory _pixel = _pixels[i];\n            require(pixelExhibit[_pixel.id] == _id);\n            Pixel memory map = pixelMap[_pixel.id];\n            map.hexColor = _pixel.hexColor;\n            pixelMap[_pixel.id] = map;\n        } \n    }\n\n    function placeBid(uint256 _id) notExhibitCreator(_id) public payable {\n        Bid memory prevHighest = highestBid[_id];\n        require(msg.value > 0 && msg.value > prevHighest.amount);\n\n        if (prevHighest.fromAddress != address(0)) {\n            prevHighest.fromAddress.transfer(prevHighest.amount);\n            bidHistory[_id].push(prevHighest);\n        }\n\n        Bid memory newHighestBidder = Bid({\n            amount: msg.value,\n            fromAddress: msg.sender\n        });\n        highestBid[_id] = newHighestBidder;\n    }\n\n    function acceptBid(uint256 _id) exhibitCreatorOnly(_id) public payable {\n        Exhibit memory c = exhibits[_id];\n        c.owner.transfer(highestBid[_id].amount);\n        safeTransferFrom(c.owner, highestBid[_id].fromAddress, _id);\n        c.owner = highestBid[_id].fromAddress;\n        exhibits[_id] = c;\n\n        bidHistory[_id].push(highestBid[_id]);\n        delete highestBid[_id];\n    }\n\n    function getBid(uint256 _id) public view returns(Bid memory) {\n        return highestBid[_id];\n    }\n\n    function getAllHighestBids() public view returns(HighestBidResponse[] memory) {\n        HighestBidResponse[] memory highestBids = new HighestBidResponse[](_currentTokenID);\n        uint256 index = 0;\n        for (uint256 i = 0; i < _currentTokenID; i++) {\n            if (highestBid[i].amount != 0) {\n                Bid memory _bid = highestBid[i];\n                HighestBidResponse memory resp = HighestBidResponse({\n                    exhibitId: i,\n                    fromAddress: _bid.fromAddress,\n                    amount: _bid.amount\n                });\n                highestBids[index] = resp;\n                index++;\n            }\n        }\n        return highestBids;\n    }\n\n    function _incrementTokenTypeId() private  {\n        _currentTokenID++;\n    }\n\n    function getHashFromCords(uint256 x, uint256 y) internal pure returns (bytes32) {\n        return sha256(abi.encodePacked(x, y));\n   }\n\n    // Admin\n    function changeContactOwner(address payable _owner) public isContractOwner {\n        owner = _owner;\n    }\n\n    function changeMaxXYPixel(uint256 _maxX, uint256 _maxY) public isContractOwner {\n        require(_maxX > maxXPixel && _maxY > maxYPixel);\n        maxXPixel = _maxX;\n        maxYPixel = _maxY;\n    }\n\n    function changePixelFee(uint256 _pixelFee) public isContractOwner {\n        pixelFee = _pixelFee;\n    }\n}",
  "sourcePath": "/Users/adamgeiger/git/DAPP/contracts/PixelToken.sol",
  "compiler": {
    "name": "solc",
    "version": "0.7.4+commit.3f05b770.Emscripten.clang"
  },
  "schemaVersion": "3.3.3",
  "updatedAt": "2021-03-09T01:31:32.665Z",
  "networkType": "ethereum",
  "devdoc": {
    "kind": "dev",
    "methods": {
      "approve(address,uint256)": {
        "details": "See {IERC721-approve}."
      },
      "balanceOf(address)": {
        "details": "See {IERC721-balanceOf}."
      },
      "baseURI()": {
        "details": "Returns the base URI set via {_setBaseURI}. This will be automatically added as a prefix in {tokenURI} to each token's URI, or to the token ID if no specific URI is set for that token ID."
      },
      "getApproved(uint256)": {
        "details": "See {IERC721-getApproved}."
      },
      "isApprovedForAll(address,address)": {
        "details": "See {IERC721-isApprovedForAll}."
      },
      "name()": {
        "details": "See {IERC721Metadata-name}."
      },
      "ownerOf(uint256)": {
        "details": "See {IERC721-ownerOf}."
      },
      "safeTransferFrom(address,address,uint256)": {
        "details": "See {IERC721-safeTransferFrom}."
      },
      "safeTransferFrom(address,address,uint256,bytes)": {
        "details": "See {IERC721-safeTransferFrom}."
      },
      "setApprovalForAll(address,bool)": {
        "details": "See {IERC721-setApprovalForAll}."
      },
      "supportsInterface(bytes4)": {
        "details": "See {IERC165-supportsInterface}. Time complexity O(1), guaranteed to always use less than 30 000 gas."
      },
      "symbol()": {
        "details": "See {IERC721Metadata-symbol}."
      },
      "tokenByIndex(uint256)": {
        "details": "See {IERC721Enumerable-tokenByIndex}."
      },
      "tokenOfOwnerByIndex(address,uint256)": {
        "details": "See {IERC721Enumerable-tokenOfOwnerByIndex}."
      },
      "tokenURI(uint256)": {
        "details": "See {IERC721Metadata-tokenURI}."
      },
      "totalSupply()": {
        "details": "See {IERC721Enumerable-totalSupply}."
      },
      "transferFrom(address,address,uint256)": {
        "details": "See {IERC721-transferFrom}."
      }
    },
    "version": 1
  },
  "userdoc": {
    "kind": "user",
    "methods": {},
    "version": 1
  }
}