{
  "contractName": "PixelToken",
  "abi": [
    {
      "inputs": [
        {
          "internalType": "address payable",
          "name": "_owner",
          "type": "address"
        },
        {
          "internalType": "uint256",
          "name": "_maxCoords",
          "type": "uint256"
        },
        {
          "internalType": "uint256",
          "name": "_maxPixels",
          "type": "uint256"
        },
        {
          "internalType": "uint256",
          "name": "_pixelfee",
          "type": "uint256"
        }
      ],
      "stateMutability": "nonpayable",
      "type": "constructor"
    },
    {
      "anonymous": false,
      "inputs": [
        {
          "indexed": true,
          "internalType": "address",
          "name": "owner",
          "type": "address"
        },
        {
          "indexed": true,
          "internalType": "address",
          "name": "approved",
          "type": "address"
        },
        {
          "indexed": true,
          "internalType": "uint256",
          "name": "tokenId",
          "type": "uint256"
        }
      ],
      "name": "Approval",
      "type": "event"
    },
    {
      "anonymous": false,
      "inputs": [
        {
          "indexed": true,
          "internalType": "address",
          "name": "owner",
          "type": "address"
        },
        {
          "indexed": true,
          "internalType": "address",
          "name": "operator",
          "type": "address"
        },
        {
          "indexed": false,
          "internalType": "bool",
          "name": "approved",
          "type": "bool"
        }
      ],
      "name": "ApprovalForAll",
      "type": "event"
    },
    {
      "anonymous": false,
      "inputs": [
        {
          "indexed": true,
          "internalType": "address",
          "name": "from",
          "type": "address"
        },
        {
          "indexed": true,
          "internalType": "address",
          "name": "to",
          "type": "address"
        },
        {
          "indexed": true,
          "internalType": "uint256",
          "name": "tokenId",
          "type": "uint256"
        }
      ],
      "name": "Transfer",
      "type": "event"
    },
    {
      "inputs": [
        {
          "internalType": "address",
          "name": "to",
          "type": "address"
        },
        {
          "internalType": "uint256",
          "name": "tokenId",
          "type": "uint256"
        }
      ],
      "name": "approve",
      "outputs": [],
      "stateMutability": "nonpayable",
      "type": "function"
    },
    {
      "inputs": [
        {
          "internalType": "address",
          "name": "owner",
          "type": "address"
        }
      ],
      "name": "balanceOf",
      "outputs": [
        {
          "internalType": "uint256",
          "name": "",
          "type": "uint256"
        }
      ],
      "stateMutability": "view",
      "type": "function",
      "constant": true
    },
    {
      "inputs": [],
      "name": "baseURI",
      "outputs": [
        {
          "internalType": "string",
          "name": "",
          "type": "string"
        }
      ],
      "stateMutability": "view",
      "type": "function",
      "constant": true
    },
    {
      "inputs": [
        {
          "internalType": "uint256",
          "name": "tokenId",
          "type": "uint256"
        }
      ],
      "name": "getApproved",
      "outputs": [
        {
          "internalType": "address",
          "name": "",
          "type": "address"
        }
      ],
      "stateMutability": "view",
      "type": "function",
      "constant": true
    },
    {
      "inputs": [
        {
          "internalType": "address",
          "name": "owner",
          "type": "address"
        },
        {
          "internalType": "address",
          "name": "operator",
          "type": "address"
        }
      ],
      "name": "isApprovedForAll",
      "outputs": [
        {
          "internalType": "bool",
          "name": "",
          "type": "bool"
        }
      ],
      "stateMutability": "view",
      "type": "function",
      "constant": true
    },
    {
      "inputs": [],
      "name": "maxPixelsPerExhibit",
      "outputs": [
        {
          "internalType": "uint256",
          "name": "",
          "type": "uint256"
        }
      ],
      "stateMutability": "view",
      "type": "function",
      "constant": true
    },
    {
      "inputs": [],
      "name": "maxXPixel",
      "outputs": [
        {
          "internalType": "uint256",
          "name": "",
          "type": "uint256"
        }
      ],
      "stateMutability": "view",
      "type": "function",
      "constant": true
    },
    {
      "inputs": [],
      "name": "maxYPixel",
      "outputs": [
        {
          "internalType": "uint256",
          "name": "",
          "type": "uint256"
        }
      ],
      "stateMutability": "view",
      "type": "function",
      "constant": true
    },
    {
      "inputs": [],
      "name": "name",
      "outputs": [
        {
          "internalType": "string",
          "name": "",
          "type": "string"
        }
      ],
      "stateMutability": "view",
      "type": "function",
      "constant": true
    },
    {
      "inputs": [
        {
          "internalType": "uint256",
          "name": "tokenId",
          "type": "uint256"
        }
      ],
      "name": "ownerOf",
      "outputs": [
        {
          "internalType": "address",
          "name": "",
          "type": "address"
        }
      ],
      "stateMutability": "view",
      "type": "function",
      "constant": true
    },
    {
      "inputs": [
        {
          "internalType": "bytes32",
          "name": "",
          "type": "bytes32"
        }
      ],
      "name": "pixelExhibit",
      "outputs": [
        {
          "internalType": "uint256",
          "name": "",
          "type": "uint256"
        }
      ],
      "stateMutability": "view",
      "type": "function",
      "constant": true
    },
    {
      "inputs": [],
      "name": "pixelFee",
      "outputs": [
        {
          "internalType": "uint256",
          "name": "",
          "type": "uint256"
        }
      ],
      "stateMutability": "view",
      "type": "function",
      "constant": true
    },
    {
      "inputs": [
        {
          "internalType": "bytes32",
          "name": "",
          "type": "bytes32"
        }
      ],
      "name": "pixelMap",
      "outputs": [
        {
          "internalType": "bytes32",
          "name": "id",
          "type": "bytes32"
        },
        {
          "internalType": "string",
          "name": "hexColor",
          "type": "string"
        },
        {
          "internalType": "uint256",
          "name": "x",
          "type": "uint256"
        },
        {
          "internalType": "uint256",
          "name": "y",
          "type": "uint256"
        }
      ],
      "stateMutability": "view",
      "type": "function",
      "constant": true
    },
    {
      "inputs": [
        {
          "internalType": "address",
          "name": "from",
          "type": "address"
        },
        {
          "internalType": "address",
          "name": "to",
          "type": "address"
        },
        {
          "internalType": "uint256",
          "name": "tokenId",
          "type": "uint256"
        }
      ],
      "name": "safeTransferFrom",
      "outputs": [],
      "stateMutability": "nonpayable",
      "type": "function"
    },
    {
      "inputs": [
        {
          "internalType": "address",
          "name": "from",
          "type": "address"
        },
        {
          "internalType": "address",
          "name": "to",
          "type": "address"
        },
        {
          "internalType": "uint256",
          "name": "tokenId",
          "type": "uint256"
        },
        {
          "internalType": "bytes",
          "name": "_data",
          "type": "bytes"
        }
      ],
      "name": "safeTransferFrom",
      "outputs": [],
      "stateMutability": "nonpayable",
      "type": "function"
    },
    {
      "inputs": [
        {
          "internalType": "address",
          "name": "operator",
          "type": "address"
        },
        {
          "internalType": "bool",
          "name": "approved",
          "type": "bool"
        }
      ],
      "name": "setApprovalForAll",
      "outputs": [],
      "stateMutability": "nonpayable",
      "type": "function"
    },
    {
      "inputs": [
        {
          "internalType": "bytes4",
          "name": "interfaceId",
          "type": "bytes4"
        }
      ],
      "name": "supportsInterface",
      "outputs": [
        {
          "internalType": "bool",
          "name": "",
          "type": "bool"
        }
      ],
      "stateMutability": "view",
      "type": "function",
      "constant": true
    },
    {
      "inputs": [],
      "name": "symbol",
      "outputs": [
        {
          "internalType": "string",
          "name": "",
          "type": "string"
        }
      ],
      "stateMutability": "view",
      "type": "function",
      "constant": true
    },
    {
      "inputs": [
        {
          "internalType": "uint256",
          "name": "index",
          "type": "uint256"
        }
      ],
      "name": "tokenByIndex",
      "outputs": [
        {
          "internalType": "uint256",
          "name": "",
          "type": "uint256"
        }
      ],
      "stateMutability": "view",
      "type": "function",
      "constant": true
    },
    {
      "inputs": [
        {
          "internalType": "address",
          "name": "owner",
          "type": "address"
        },
        {
          "internalType": "uint256",
          "name": "index",
          "type": "uint256"
        }
      ],
      "name": "tokenOfOwnerByIndex",
      "outputs": [
        {
          "internalType": "uint256",
          "name": "",
          "type": "uint256"
        }
      ],
      "stateMutability": "view",
      "type": "function",
      "constant": true
    },
    {
      "inputs": [
        {
          "internalType": "uint256",
          "name": "tokenId",
          "type": "uint256"
        }
      ],
      "name": "tokenURI",
      "outputs": [
        {
          "internalType": "string",
          "name": "",
          "type": "string"
        }
      ],
      "stateMutability": "view",
      "type": "function",
      "constant": true
    },
    {
      "inputs": [],
      "name": "totalSupply",
      "outputs": [
        {
          "internalType": "uint256",
          "name": "",
          "type": "uint256"
        }
      ],
      "stateMutability": "view",
      "type": "function",
      "constant": true
    },
    {
      "inputs": [
        {
          "internalType": "address",
          "name": "from",
          "type": "address"
        },
        {
          "internalType": "address",
          "name": "to",
          "type": "address"
        },
        {
          "internalType": "uint256",
          "name": "tokenId",
          "type": "uint256"
        }
      ],
      "name": "transferFrom",
      "outputs": [],
      "stateMutability": "nonpayable",
      "type": "function"
    },
    {
      "inputs": [],
      "name": "getPixels",
      "outputs": [
        {
          "components": [
            {
              "internalType": "uint256",
              "name": "exhibitId",
              "type": "uint256"
            },
            {
              "internalType": "address",
              "name": "owner",
              "type": "address"
            },
            {
              "internalType": "bytes32",
              "name": "pixelId",
              "type": "bytes32"
            },
            {
              "internalType": "string",
              "name": "hexColor",
              "type": "string"
            },
            {
              "internalType": "uint256",
              "name": "x",
              "type": "uint256"
            },
            {
              "internalType": "uint256",
              "name": "y",
              "type": "uint256"
            }
          ],
          "internalType": "struct PixelToken.PixelResponse[]",
          "name": "",
          "type": "tuple[]"
        }
      ],
      "stateMutability": "view",
      "type": "function",
      "constant": true
    },
    {
      "inputs": [
        {
          "components": [
            {
              "internalType": "bytes32",
              "name": "id",
              "type": "bytes32"
            },
            {
              "internalType": "string",
              "name": "hexColor",
              "type": "string"
            },
            {
              "internalType": "uint256",
              "name": "x",
              "type": "uint256"
            },
            {
              "internalType": "uint256",
              "name": "y",
              "type": "uint256"
            }
          ],
          "internalType": "struct PixelToken.Pixel[]",
          "name": "_pixels",
          "type": "tuple[]"
        }
      ],
      "name": "create",
      "outputs": [],
      "stateMutability": "payable",
      "type": "function",
      "payable": true
    },
    {
      "inputs": [
        {
          "internalType": "uint256",
          "name": "_id",
          "type": "uint256"
        },
        {
          "components": [
            {
              "internalType": "bytes32",
              "name": "id",
              "type": "bytes32"
            },
            {
              "internalType": "string",
              "name": "hexColor",
              "type": "string"
            },
            {
              "internalType": "uint256",
              "name": "x",
              "type": "uint256"
            },
            {
              "internalType": "uint256",
              "name": "y",
              "type": "uint256"
            }
          ],
          "internalType": "struct PixelToken.Pixel[]",
          "name": "_pixels",
          "type": "tuple[]"
        }
      ],
      "name": "changePixels",
      "outputs": [],
      "stateMutability": "nonpayable",
      "type": "function"
    },
    {
      "inputs": [
        {
          "internalType": "uint256",
          "name": "_id",
          "type": "uint256"
        }
      ],
      "name": "placeBid",
      "outputs": [],
      "stateMutability": "payable",
      "type": "function",
      "payable": true
    },
    {
      "inputs": [
        {
          "internalType": "uint256",
          "name": "_id",
          "type": "uint256"
        }
      ],
      "name": "acceptBid",
      "outputs": [],
      "stateMutability": "payable",
      "type": "function",
      "payable": true
    },
    {
      "inputs": [
        {
          "internalType": "uint256",
          "name": "_id",
          "type": "uint256"
        }
      ],
      "name": "getBid",
      "outputs": [
        {
          "components": [
            {
              "internalType": "address payable",
              "name": "fromAddress",
              "type": "address"
            },
            {
              "internalType": "uint256",
              "name": "amount",
              "type": "uint256"
            }
          ],
          "internalType": "struct PixelToken.Bid",
          "name": "",
          "type": "tuple"
        }
      ],
      "stateMutability": "view",
      "type": "function",
      "constant": true
    },
    {
      "inputs": [
        {
          "internalType": "uint256",
          "name": "_id",
          "type": "uint256"
        }
      ],
      "name": "getBidHistoryForExhibit",
      "outputs": [
        {
          "components": [
            {
              "internalType": "address payable",
              "name": "fromAddress",
              "type": "address"
            },
            {
              "internalType": "uint256",
              "name": "amount",
              "type": "uint256"
            }
          ],
          "internalType": "struct PixelToken.Bid[]",
          "name": "",
          "type": "tuple[]"
        }
      ],
      "stateMutability": "view",
      "type": "function",
      "constant": true
    },
    {
      "inputs": [],
      "name": "getAllHighestBids",
      "outputs": [
        {
          "components": [
            {
              "internalType": "uint256",
              "name": "exhibitId",
              "type": "uint256"
            },
            {
              "internalType": "address",
              "name": "fromAddress",
              "type": "address"
            },
            {
              "internalType": "uint256",
              "name": "amount",
              "type": "uint256"
            }
          ],
          "internalType": "struct PixelToken.HighestBidResponse[]",
          "name": "",
          "type": "tuple[]"
        }
      ],
      "stateMutability": "view",
      "type": "function",
      "constant": true
    },
    {
      "inputs": [
        {
          "internalType": "address payable",
          "name": "_owner",
          "type": "address"
        }
      ],
      "name": "changeContactOwner",
      "outputs": [],
      "stateMutability": "nonpayable",
      "type": "function"
    },
    {
      "inputs": [
        {
          "internalType": "uint256",
          "name": "_maxX",
          "type": "uint256"
        },
        {
          "internalType": "uint256",
          "name": "_maxY",
          "type": "uint256"
        }
      ],
      "name": "changeMaxXYPixel",
      "outputs": [],
      "stateMutability": "nonpayable",
      "type": "function"
    },
    {
      "inputs": [
        {
          "internalType": "uint256",
          "name": "_pixelFee",
          "type": "uint256"
        }
      ],
      "name": "changePixelFee",
      "outputs": [],
      "stateMutability": "nonpayable",
      "type": "function"
    },
    {
      "inputs": [
        {
          "internalType": "uint256",
          "name": "_max",
          "type": "uint256"
        }
      ],
      "name": "changeMaxPixelsPerExhibit",
      "outputs": [],
      "stateMutability": "nonpayable",
      "type": "function"
    }
  ],
  "bytecode": "0x60806040523480156200001157600080fd5b50604051620058923803806200589283398181016040528101906200003791906200038b565b6040518060400160405280600781526020017f45786869626974000000000000000000000000000000000000000000000000008152506040518060400160405280600381526020017f5842540000000000000000000000000000000000000000000000000000000000815250620000bb6301ffc9a760e01b6200019e60201b60201c565b8160069080519060200190620000d3929190620002a7565b508060079080519060200190620000ec929190620002a7565b50620001056380ac58cd60e01b6200019e60201b60201c565b6200011d635b5e139f60e01b6200019e60201b60201c565b6200013563780e9d6360e01b6200019e60201b60201c565b505083600a60006101000a81548173ffffffffffffffffffffffffffffffffffffffff021916908373ffffffffffffffffffffffffffffffffffffffff16021790555082601381905550826014819055508160158190555080600b819055505050505062000469565b63ffffffff60e01b817bffffffffffffffffffffffffffffffffffffffffffffffffffffffff191614156200023b576040517f08c379a000000000000000000000000000000000000000000000000000000000815260040180806020018281038252601c8152602001807f4552433136353a20696e76616c696420696e746572666163652069640000000081525060200191505060405180910390fd5b6001600080837bffffffffffffffffffffffffffffffffffffffffffffffffffffffff19167bffffffffffffffffffffffffffffffffffffffffffffffffffffffff1916815260200190815260200160002060006101000a81548160ff02191690831515021790555050565b828054600181600116156101000203166002900490600052602060002090601f016020900481019282620002df57600085556200032b565b82601f10620002fa57805160ff19168380011785556200032b565b828001600101855582156200032b579182015b828111156200032a5782518255916020019190600101906200030d565b5b5090506200033a91906200033e565b5090565b5b80821115620003595760008160009055506001016200033f565b5090565b6000815190506200036e8162000435565b92915050565b60008151905062000385816200044f565b92915050565b60008060008060808587031215620003a257600080fd5b6000620003b2878288016200035d565b9450506020620003c58782880162000374565b9350506040620003d88782880162000374565b9250506060620003eb8782880162000374565b91505092959194509250565b600062000404826200040b565b9050919050565b600073ffffffffffffffffffffffffffffffffffffffff82169050919050565b6000819050919050565b6200044081620003f7565b81146200044c57600080fd5b50565b6200045a816200042b565b81146200046657600080fd5b50565b61541980620004796000396000f3fe6080604052600436106102045760003560e01c80636c0360eb11610118578063c87b56dd116100a0578063e678bed11161006f578063e678bed114610788578063e985e9c5146107b3578063ef958720146107f0578063fc033d7614610819578063feeac6191461085957610204565b8063c87b56dd146106db578063dc042d1b14610718578063ddf4190a14610741578063dee5d9b81461075d57610204565b80639979ef45116100e75780639979ef4514610619578063a22cb46514610635578063a62f204e1461065e578063b88d4fde14610687578063bb3c358c146106b057610204565b80636c0360eb1461055b57806370a0823114610586578063935cd960146105c357806395d89b41146105ee57610204565b8063281fe1d91161019b57806342842e0e1161016a57806342842e0e146104525780634f6ccce71461047b5780636352211e146104b85780636b0e4d3a146104f55780636b4e23851461051e57610204565b8063281fe1d9146103915780632b1fd58a146103bc5780632f745c59146103d85780633c889e6f1461041557610204565b8063095ea7b3116101d7578063095ea7b3146102d757806318160ddd1461030057806322ea7e4c1461032b57806323b872dd1461036857610204565b806301ffc9a714610209578063044977da1461024657806306fdde031461026f578063081812fc1461029a575b600080fd5b34801561021557600080fd5b50610230600480360381019061022b919061453d565b610884565b60405161023d9190614cb3565b60405180910390f35b34801561025257600080fd5b5061026d60048036038101906102689190614566565b6108eb565b005b34801561027b57600080fd5b50610284610985565b6040516102919190614d1a565b60405180910390f35b3480156102a657600080fd5b506102c160048036038101906102bc9190614566565b610a27565b6040516102ce9190614c32565b60405180910390f35b3480156102e357600080fd5b506102fe60048036038101906102f9919061446e565b610ac2565b005b34801561030c57600080fd5b50610315610c06565b6040516103229190614e57565b60405180910390f35b34801561033757600080fd5b50610352600480360381019061034d9190614566565b610c17565b60405161035f9190614c4d565b60405180910390f35b34801561037457600080fd5b5061038f600480360381019061038a9190614368565b610ce9565b005b34801561039d57600080fd5b506103a6610d5f565b6040516103b39190614c6f565b60405180910390f35b6103d660048036038101906103d19190614566565b610ee8565b005b3480156103e457600080fd5b506103ff60048036038101906103fa919061446e565b61129d565b60405161040c9190614e57565b60405180910390f35b34801561042157600080fd5b5061043c60048036038101906104379190614566565b6112f8565b6040516104499190614e3c565b60405180910390f35b34801561045e57600080fd5b5061047960048036038101906104749190614368565b611385565b005b34801561048757600080fd5b506104a2600480360381019061049d9190614566565b6113a5565b6040516104af9190614e57565b60405180910390f35b3480156104c457600080fd5b506104df60048036038101906104da9190614566565b6113c8565b6040516104ec9190614c32565b60405180910390f35b34801561050157600080fd5b5061051c6004803603810190610517919061458f565b6113ff565b005b34801561052a57600080fd5b50610545600480360381019061054091906144eb565b611655565b6040516105529190614e57565b60405180910390f35b34801561056757600080fd5b5061057061166d565b60405161057d9190614d1a565b60405180910390f35b34801561059257600080fd5b506105ad60048036038101906105a891906142da565b61170f565b6040516105ba9190614e57565b60405180910390f35b3480156105cf57600080fd5b506105d86117e4565b6040516105e59190614e57565b60405180910390f35b3480156105fa57600080fd5b506106036117ea565b6040516106109190614d1a565b60405180910390f35b610633600480360381019061062e9190614566565b61188c565b005b34801561064157600080fd5b5061065c60048036038101906106579190614432565b611bb5565b005b34801561066a57600080fd5b5061068560048036038101906106809190614303565b611d6b565b005b34801561069357600080fd5b506106ae60048036038101906106a991906143b7565b611e3f565b005b3480156106bc57600080fd5b506106c5611eb7565b6040516106d29190614e57565b60405180910390f35b3480156106e757600080fd5b5061070260048036038101906106fd9190614566565b611ebd565b60405161070f9190614d1a565b60405180910390f35b34801561072457600080fd5b5061073f600480360381019061073a91906145e3565b61218e565b005b61075b600480360381019061075691906144aa565b61224b565b005b34801561076957600080fd5b5061077261262b565b60405161077f9190614e57565b60405180910390f35b34801561079457600080fd5b5061079d612631565b6040516107aa9190614e57565b60405180910390f35b3480156107bf57600080fd5b506107da60048036038101906107d5919061432c565b612637565b6040516107e79190614cb3565b60405180910390f35b3480156107fc57600080fd5b5061081760048036038101906108129190614566565b6126cb565b005b34801561082557600080fd5b50610840600480360381019061083b91906144eb565b612765565b6040516108509493929190614cce565b60405180910390f35b34801561086557600080fd5b5061086e61282d565b60405161087b9190614c91565b60405180910390f35b6000806000837bffffffffffffffffffffffffffffffffffffffffffffffffffffffff19167bffffffffffffffffffffffffffffffffffffffffffffffffffffffff1916815260200190815260200160002060009054906101000a900460ff169050919050565b600a60009054906101000a900473ffffffffffffffffffffffffffffffffffffffff1673ffffffffffffffffffffffffffffffffffffffff163373ffffffffffffffffffffffffffffffffffffffff161461097b576040517f08c379a000000000000000000000000000000000000000000000000000000000815260040161097290614d5c565b60405180910390fd5b8060158190555050565b606060068054600181600116156101000203166002900480601f016020809104026020016040519081016040528092919081815260200182805460018160011615610100020316600290048015610a1d5780601f106109f257610100808354040283529160200191610a1d565b820191906000526020600020905b815481529060010190602001808311610a0057829003601f168201915b5050505050905090565b6000610a3282612ac8565b610a87576040517f08c379a000000000000000000000000000000000000000000000000000000000815260040180806020018281038252602c81526020018061530e602c913960400191505060405180910390fd5b6004600083815260200190815260200160002060009054906101000a900473ffffffffffffffffffffffffffffffffffffffff169050919050565b6000610acd826113c8565b90508073ffffffffffffffffffffffffffffffffffffffff168373ffffffffffffffffffffffffffffffffffffffff161415610b54576040517f08c379a00000000000000000000000000000000000000000000000000000000081526004018080602001828103825260218152602001806153926021913960400191505060405180910390fd5b8073ffffffffffffffffffffffffffffffffffffffff16610b73612ae5565b73ffffffffffffffffffffffffffffffffffffffff161480610ba25750610ba181610b9c612ae5565b612637565b5b610bf7576040517f08c379a00000000000000000000000000000000000000000000000000000000081526004018080602001828103825260388152602001806152616038913960400191505060405180910390fd5b610c018383612aed565b505050565b6000610c126002612ba6565b905090565b606060126000838152602001908152602001600020805480602002602001604051908101604052809291908181526020016000905b82821015610cde57838290600052602060002090600202016040518060400160405290816000820160009054906101000a900473ffffffffffffffffffffffffffffffffffffffff1673ffffffffffffffffffffffffffffffffffffffff1673ffffffffffffffffffffffffffffffffffffffff16815260200160018201548152505081526020019060010190610c4c565b505050509050919050565b610cfa610cf4612ae5565b82612bbb565b610d4f576040517f08c379a00000000000000000000000000000000000000000000000000000000081526004018080602001828103825260318152602001806153b36031913960400191505060405180910390fd5b610d5a838383612caf565b505050565b606080600c5467ffffffffffffffff81118015610d7b57600080fd5b50604051908082528060200260200182016040528015610db557816020015b610da2613ee3565b815260200190600190039081610d9a5790505b5090506000805b600c54811015610edf576000601160008381526020019081526020016000206001015414610ed257610dec613f1a565b601160008381526020019081526020016000206040518060400160405290816000820160009054906101000a900473ffffffffffffffffffffffffffffffffffffffff1673ffffffffffffffffffffffffffffffffffffffff1673ffffffffffffffffffffffffffffffffffffffff1681526020016001820154815250509050610e74613ee3565b6040518060600160405280848152602001836000015173ffffffffffffffffffffffffffffffffffffffff1681526020018360200151815250905080858581518110610ebc57fe5b6020026020010181905250838060010194505050505b8080600101915050610dbc565b50819250505090565b803373ffffffffffffffffffffffffffffffffffffffff166010600083815260200190815260200160002060010160009054906101000a900473ffffffffffffffffffffffffffffffffffffffff1673ffffffffffffffffffffffffffffffffffffffff1614610f8d576040517f08c379a0000000000000000000000000000000000000000000000000000000008152600401610f8490614e1c565b60405180910390fd5b610f95613f4a565b60106000848152602001908152602001600020604051806040016040529081600082015481526020016001820160009054906101000a900473ffffffffffffffffffffffffffffffffffffffff1673ffffffffffffffffffffffffffffffffffffffff1673ffffffffffffffffffffffffffffffffffffffff16815250509050806020015173ffffffffffffffffffffffffffffffffffffffff166108fc60116000868152602001908152602001600020600101549081150290604051600060405180830381858888f19350505050158015611075573d6000803e3d6000fd5b506110bb81602001516011600086815260200190815260200160002060000160009054906101000a900473ffffffffffffffffffffffffffffffffffffffff1685611385565b6011600084815260200190815260200160002060000160009054906101000a900473ffffffffffffffffffffffffffffffffffffffff16816020019073ffffffffffffffffffffffffffffffffffffffff16908173ffffffffffffffffffffffffffffffffffffffff168152505080601060008581526020019081526020016000206000820151816000015560208201518160010160006101000a81548173ffffffffffffffffffffffffffffffffffffffff021916908373ffffffffffffffffffffffffffffffffffffffff160217905550905050601260008481526020019081526020016000206011600085815260200190815260200160002090806001815401808255809150506001900390600052602060002090600202016000909190919091506000820160009054906101000a900473ffffffffffffffffffffffffffffffffffffffff168160000160006101000a81548173ffffffffffffffffffffffffffffffffffffffff021916908373ffffffffffffffffffffffffffffffffffffffff16021790555060018201548160010155505060116000848152602001908152602001600020600080820160006101000a81549073ffffffffffffffffffffffffffffffffffffffff021916905560018201600090555050505050565b60006112f082600160008673ffffffffffffffffffffffffffffffffffffffff1673ffffffffffffffffffffffffffffffffffffffff168152602001908152602001600020612ef290919063ffffffff16565b905092915050565b611300613f1a565b601160008381526020019081526020016000206040518060400160405290816000820160009054906101000a900473ffffffffffffffffffffffffffffffffffffffff1673ffffffffffffffffffffffffffffffffffffffff1673ffffffffffffffffffffffffffffffffffffffff1681526020016001820154815250509050919050565b6113a083838360405180602001604052806000815250611e3f565b505050565b6000806113bc836002612f0c90919063ffffffff16565b50905080915050919050565b60006113f8826040518060600160405280602981526020016152c3602991396002612f389092919063ffffffff16565b9050919050565b813373ffffffffffffffffffffffffffffffffffffffff166010600083815260200190815260200160002060010160009054906101000a900473ffffffffffffffffffffffffffffffffffffffff1673ffffffffffffffffffffffffffffffffffffffff16146114a4576040517f08c379a000000000000000000000000000000000000000000000000000000000815260040161149b90614e1c565b60405180910390fd5b60005b825181101561164f576114b8613f7a565b8382815181106114c457fe5b6020026020010151905084600f60008360000151815260200190815260200160002054146114f157600080fd5b6114f9613f7a565b600e60008360000151815260200190815260200160002060405180608001604052908160008201548152602001600182018054600181600116156101000203166002900480601f0160208091040260200160405190810160405280929190818152602001828054600181600116156101000203166002900480156115be5780601f10611593576101008083540402835291602001916115be565b820191906000526020600020905b8154815290600101906020018083116115a157829003601f168201915b505050505081526020016002820154815260200160038201548152505090508160200151816020018190525080600e600084600001518152602001908152602001600020600082015181600001556020820151816001019080519060200190611628929190613fa5565b506040820151816002015560608201518160030155905050505080806001019150506114a7565b50505050565b600f6020528060005260406000206000915090505481565b606060098054600181600116156101000203166002900480601f0160208091040260200160405190810160405280929190818152602001828054600181600116156101000203166002900480156117055780601f106116da57610100808354040283529160200191611705565b820191906000526020600020905b8154815290600101906020018083116116e857829003601f168201915b5050505050905090565b60008073ffffffffffffffffffffffffffffffffffffffff168273ffffffffffffffffffffffffffffffffffffffff161415611796576040517f08c379a000000000000000000000000000000000000000000000000000000000815260040180806020018281038252602a815260200180615299602a913960400191505060405180910390fd5b6117dd600160008473ffffffffffffffffffffffffffffffffffffffff1673ffffffffffffffffffffffffffffffffffffffff168152602001908152602001600020612f57565b9050919050565b60155481565b606060078054600181600116156101000203166002900480601f0160208091040260200160405190810160405280929190818152602001828054600181600116156101000203166002900480156118825780601f1061185757610100808354040283529160200191611882565b820191906000526020600020905b81548152906001019060200180831161186557829003601f168201915b5050505050905090565b803373ffffffffffffffffffffffffffffffffffffffff166010600083815260200190815260200160002060010160009054906101000a900473ffffffffffffffffffffffffffffffffffffffff1673ffffffffffffffffffffffffffffffffffffffff161415611932576040517f08c379a000000000000000000000000000000000000000000000000000000000815260040161192990614dbc565b60405180910390fd5b61193a613f1a565b601160008481526020019081526020016000206040518060400160405290816000820160009054906101000a900473ffffffffffffffffffffffffffffffffffffffff1673ffffffffffffffffffffffffffffffffffffffff1673ffffffffffffffffffffffffffffffffffffffff1681526020016001820154815250509050343373ffffffffffffffffffffffffffffffffffffffff163110156119de57600080fd5b6000341180156119f15750806020015134115b6119fa57600080fd5b600073ffffffffffffffffffffffffffffffffffffffff16816000015173ffffffffffffffffffffffffffffffffffffffff1614611b1257806000015173ffffffffffffffffffffffffffffffffffffffff166108fc82602001519081150290604051600060405180830381858888f19350505050158015611a80573d6000803e3d6000fd5b506012600084815260200190815260200160002081908060018154018082558091505060019003906000526020600020906002020160009091909190915060008201518160000160006101000a81548173ffffffffffffffffffffffffffffffffffffffff021916908373ffffffffffffffffffffffffffffffffffffffff1602179055506020820151816001015550505b611b1a613f1a565b60405180604001604052803373ffffffffffffffffffffffffffffffffffffffff168152602001348152509050806011600086815260200190815260200160002060008201518160000160006101000a81548173ffffffffffffffffffffffffffffffffffffffff021916908373ffffffffffffffffffffffffffffffffffffffff1602179055506020820151816001015590505050505050565b611bbd612ae5565b73ffffffffffffffffffffffffffffffffffffffff168273ffffffffffffffffffffffffffffffffffffffff161415611c5e576040517f08c379a00000000000000000000000000000000000000000000000000000000081526004018080602001828103825260198152602001807f4552433732313a20617070726f766520746f2063616c6c65720000000000000081525060200191505060405180910390fd5b8060056000611c6b612ae5565b73ffffffffffffffffffffffffffffffffffffffff1673ffffffffffffffffffffffffffffffffffffffff16815260200190815260200160002060008473ffffffffffffffffffffffffffffffffffffffff1673ffffffffffffffffffffffffffffffffffffffff16815260200190815260200160002060006101000a81548160ff0219169083151502179055508173ffffffffffffffffffffffffffffffffffffffff16611d18612ae5565b73ffffffffffffffffffffffffffffffffffffffff167f17307eab39ab6107e8899845ad3d59bd9653f200f220920489ca2b5937696c318360405180821515815260200191505060405180910390a35050565b600a60009054906101000a900473ffffffffffffffffffffffffffffffffffffffff1673ffffffffffffffffffffffffffffffffffffffff163373ffffffffffffffffffffffffffffffffffffffff1614611dfb576040517f08c379a0000000000000000000000000000000000000000000000000000000008152600401611df290614d5c565b60405180910390fd5b80600a60006101000a81548173ffffffffffffffffffffffffffffffffffffffff021916908373ffffffffffffffffffffffffffffffffffffffff16021790555050565b611e50611e4a612ae5565b83612bbb565b611ea5576040517f08c379a00000000000000000000000000000000000000000000000000000000081526004018080602001828103825260318152602001806153b36031913960400191505060405180910390fd5b611eb184848484612f6c565b50505050565b600b5481565b6060611ec882612ac8565b611f1d576040517f08c379a000000000000000000000000000000000000000000000000000000000815260040180806020018281038252602f815260200180615363602f913960400191505060405180910390fd5b6060600860008481526020019081526020016000208054600181600116156101000203166002900480601f016020809104026020016040519081016040528092919081815260200182805460018160011615610100020316600290048015611fc65780601f10611f9b57610100808354040283529160200191611fc6565b820191906000526020600020905b815481529060010190602001808311611fa957829003601f168201915b505050505090506060611fd761166d565b9050600081511415611fed578192505050612189565b6000825111156120be5780826040516020018083805190602001908083835b6020831061202f578051825260208201915060208101905060208303925061200c565b6001836020036101000a03801982511681845116808217855250505050505090500182805190602001908083835b60208310612080578051825260208201915060208101905060208303925061205d565b6001836020036101000a0380198251168184511680821785525050505050509050019250505060405160208183030381529060405292505050612189565b806120c885612fde565b6040516020018083805190602001908083835b602083106120fe57805182526020820191506020810190506020830392506120db565b6001836020036101000a03801982511681845116808217855250505050505090500182805190602001908083835b6020831061214f578051825260208201915060208101905060208303925061212c565b6001836020036101000a03801982511681845116808217855250505050505090500192505050604051602081830303815290604052925050505b919050565b600a60009054906101000a900473ffffffffffffffffffffffffffffffffffffffff1673ffffffffffffffffffffffffffffffffffffffff163373ffffffffffffffffffffffffffffffffffffffff161461221e576040517f08c379a000000000000000000000000000000000000000000000000000000000815260040161221590614d5c565b60405180910390fd5b60135482118015612230575060145481115b61223957600080fd5b81601381905550806014819055505050565b343373ffffffffffffffffffffffffffffffffffffffff163110156122a5576040517f08c379a000000000000000000000000000000000000000000000000000000000815260040161229c90614d9c565b60405180910390fd5b601554815111156122eb576040517f08c379a00000000000000000000000000000000000000000000000000000000081526004016122e290614ddc565b60405180910390fd5b6122f481613125565b612333576040517f08c379a000000000000000000000000000000000000000000000000000000000815260040161232a90614d7c565b60405180910390fd5b60005b815181101561250857612347613f7a565b82828151811061235357fe5b602002602001015190506013548160400151111580156123795750601454816060015111155b6123b8576040517f08c379a00000000000000000000000000000000000000000000000000000000081526004016123af90614dfc565b60405180910390fd5b6123ca81604001518260600151613271565b8160000181815250506000801b600e6000836000015181526020019081526020016000206000015414612432576040517f08c379a000000000000000000000000000000000000000000000000000000000815260040161242990614d3c565b60405180910390fd5b601660008260000151815260200190815260200160002060006101000a81549060ff021916905580600e600083600001518152602001908152602001600020600082015181600001556020820151816001019080519060200190612497929190613fa5565b506040820151816002015560608201518160030155905050600c54600f60008360000151815260200190815260200160002081905550600d81600001519080600181540180825580915050600190039060005260206000200160009091909190915055508080600101915050612336565b50612511613f4a565b6040518060400160405280600c5481526020013373ffffffffffffffffffffffffffffffffffffffff1681525090508060106000600c5481526020019081526020016000206000820151816000015560208201518160010160006101000a81548173ffffffffffffffffffffffffffffffffffffffff021916908373ffffffffffffffffffffffffffffffffffffffff160217905550905050600a60009054906101000a900473ffffffffffffffffffffffffffffffffffffffff1673ffffffffffffffffffffffffffffffffffffffff166108fc349081150290604051600060405180830381858888f19350505050158015612612573d6000803e3d6000fd5b5061261f33600c546132ec565b6126276134e0565b5050565b60145481565b60135481565b6000600560008473ffffffffffffffffffffffffffffffffffffffff1673ffffffffffffffffffffffffffffffffffffffff16815260200190815260200160002060008373ffffffffffffffffffffffffffffffffffffffff1673ffffffffffffffffffffffffffffffffffffffff16815260200190815260200160002060009054906101000a900460ff16905092915050565b600a60009054906101000a900473ffffffffffffffffffffffffffffffffffffffff1673ffffffffffffffffffffffffffffffffffffffff163373ffffffffffffffffffffffffffffffffffffffff161461275b576040517f08c379a000000000000000000000000000000000000000000000000000000000815260040161275290614d5c565b60405180910390fd5b80600b8190555050565b600e602052806000526040600020600091509050806000015490806001018054600181600116156101000203166002900480601f0160208091040260200160405190810160405280929190818152602001828054600181600116156101000203166002900480156128175780601f106127ec57610100808354040283529160200191612817565b820191906000526020600020905b8154815290600101906020018083116127fa57829003601f168201915b5050505050908060020154908060030154905084565b606080600d8054905067ffffffffffffffff8111801561284c57600080fd5b5060405190808252806020026020018201604052801561288657816020015b612873614033565b81526020019060019003908161286b5790505b50905060005b8151811015612ac05761289d613f7a565b600e6000600d84815481106128ae57fe5b9060005260206000200154815260200190815260200160002060405180608001604052908160008201548152602001600182018054600181600116156101000203166002900480601f0160208091040260200160405190810160405280929190818152602001828054600181600116156101000203166002900480156129755780601f1061294a57610100808354040283529160200191612975565b820191906000526020600020905b81548152906001019060200180831161295857829003601f168201915b5050505050815260200160028201548152602001600382015481525050905061299c613f4a565b60106000600f600085600001518152602001908152602001600020548152602001908152602001600020604051806040016040529081600082015481526020016001820160009054906101000a900473ffffffffffffffffffffffffffffffffffffffff1673ffffffffffffffffffffffffffffffffffffffff1673ffffffffffffffffffffffffffffffffffffffff16815250509050612a3b614033565b6040518060c0016040528083600001518152602001836020015173ffffffffffffffffffffffffffffffffffffffff1681526020018460000151815260200184602001518152602001846040015181526020018460600151815250905080858581518110612aa557fe5b6020026020010181905250505050808060010191505061288c565b508091505090565b6000612ade8260026134f490919063ffffffff16565b9050919050565b600033905090565b816004600083815260200190815260200160002060006101000a81548173ffffffffffffffffffffffffffffffffffffffff021916908373ffffffffffffffffffffffffffffffffffffffff160217905550808273ffffffffffffffffffffffffffffffffffffffff16612b60836113c8565b73ffffffffffffffffffffffffffffffffffffffff167f8c5be1e5ebec7d5bd14f71427d1e84f3dd0314c0f7b2291e5b200ac8c7c3b92560405160405180910390a45050565b6000612bb48260000161350e565b9050919050565b6000612bc682612ac8565b612c1b576040517f08c379a000000000000000000000000000000000000000000000000000000000815260040180806020018281038252602c815260200180615235602c913960400191505060405180910390fd5b6000612c26836113c8565b90508073ffffffffffffffffffffffffffffffffffffffff168473ffffffffffffffffffffffffffffffffffffffff161480612c9557508373ffffffffffffffffffffffffffffffffffffffff16612c7d84610a27565b73ffffffffffffffffffffffffffffffffffffffff16145b80612ca65750612ca58185612637565b5b91505092915050565b8273ffffffffffffffffffffffffffffffffffffffff16612ccf826113c8565b73ffffffffffffffffffffffffffffffffffffffff1614612d3b576040517f08c379a000000000000000000000000000000000000000000000000000000000815260040180806020018281038252602981526020018061533a6029913960400191505060405180910390fd5b600073ffffffffffffffffffffffffffffffffffffffff168273ffffffffffffffffffffffffffffffffffffffff161415612dc1576040517f08c379a00000000000000000000000000000000000000000000000000000000081526004018080602001828103825260248152602001806151eb6024913960400191505060405180910390fd5b612dcc83838361351f565b612dd7600082612aed565b612e2881600160008673ffffffffffffffffffffffffffffffffffffffff1673ffffffffffffffffffffffffffffffffffffffff16815260200190815260200160002061352490919063ffffffff16565b50612e7a81600160008573ffffffffffffffffffffffffffffffffffffffff1673ffffffffffffffffffffffffffffffffffffffff16815260200190815260200160002061353e90919063ffffffff16565b50612e91818360026135589092919063ffffffff16565b50808273ffffffffffffffffffffffffffffffffffffffff168473ffffffffffffffffffffffffffffffffffffffff167fddf252ad1be2c89b69c2b068fc378daa952ba7f163c4a11628f55a4df523b3ef60405160405180910390a4505050565b6000612f01836000018361358d565b60001c905092915050565b600080600080612f1f8660000186613610565b915091508160001c8160001c9350935050509250929050565b6000612f4b846000018460001b846136a9565b60001c90509392505050565b6000612f658260000161379f565b9050919050565b612f77848484612caf565b612f83848484846137b0565b612fd8576040517f08c379a00000000000000000000000000000000000000000000000000000000081526004018080602001828103825260328152602001806151b96032913960400191505060405180910390fd5b50505050565b60606000821415613026576040518060400160405280600181526020017f30000000000000000000000000000000000000000000000000000000000000008152509050613120565b600082905060005b60008214613050578080600101915050600a828161304857fe5b04915061302e565b60608167ffffffffffffffff8111801561306957600080fd5b506040519080825280601f01601f19166020018201604052801561309c5781602001600182028036833780820191505090505b50905060006001830390508593505b6000841461311857600a84816130bd57fe5b0660300160f81b828280600190039350815181106130d757fe5b60200101907effffffffffffffffffffffffffffffffffffffffffffffffffffffffffffff1916908160001a905350600a848161311057fe5b0493506130ab565b819450505050505b919050565b6000806000905060008060135490506000601454905060005b86518110156132405761314f613f7a565b87828151811061315b57fe5b60200260200101519050858160400151111561317957806040015195505b848160600151111561318d57806060015194505b83816040015110156131a157806040015193505b82816060015110156131b557806060015192505b60006131c982604001518360600151613271565b90506016600082815260200190815260200160002060009054906101000a900460ff166132215760016016600083815260200190815260200160002060006101000a81548160ff021916908315150217905550613231565b600097505050505050505061326c565b5050808060010191505061313e565b50600181840301600183860301028651101561326357600094505050505061326c565b60019450505050505b919050565b600060028383604051602001613288929190614c06565b6040516020818303038152906040526040516132a49190614bef565b602060405180830381855afa1580156132c1573d6000803e3d6000fd5b5050506040513d601f19601f820116820180604052508101906132e49190614514565b905092915050565b600073ffffffffffffffffffffffffffffffffffffffff168273ffffffffffffffffffffffffffffffffffffffff16141561338f576040517f08c379a00000000000000000000000000000000000000000000000000000000081526004018080602001828103825260208152602001807f4552433732313a206d696e7420746f20746865207a65726f206164647265737381525060200191505060405180910390fd5b61339881612ac8565b1561340b576040517f08c379a000000000000000000000000000000000000000000000000000000000815260040180806020018281038252601c8152602001807f4552433732313a20746f6b656e20616c7265616479206d696e7465640000000081525060200191505060405180910390fd5b6134176000838361351f565b61346881600160008573ffffffffffffffffffffffffffffffffffffffff1673ffffffffffffffffffffffffffffffffffffffff16815260200190815260200160002061353e90919063ffffffff16565b5061347f818360026135589092919063ffffffff16565b50808273ffffffffffffffffffffffffffffffffffffffff16600073ffffffffffffffffffffffffffffffffffffffff167fddf252ad1be2c89b69c2b068fc378daa952ba7f163c4a11628f55a4df523b3ef60405160405180910390a45050565b600c60008154809291906001019190505550565b6000613506836000018360001b6139c9565b905092915050565b600081600001805490509050919050565b505050565b6000613536836000018360001b6139ec565b905092915050565b6000613550836000018360001b613ad4565b905092915050565b6000613584846000018460001b8473ffffffffffffffffffffffffffffffffffffffff1660001b613b44565b90509392505050565b6000818360000180549050116135ee576040517f08c379a00000000000000000000000000000000000000000000000000000000081526004018080602001828103825260228152602001806151976022913960400191505060405180910390fd5b8260000182815481106135fd57fe5b9060005260206000200154905092915050565b60008082846000018054905011613672576040517f08c379a00000000000000000000000000000000000000000000000000000000081526004018080602001828103825260228152602001806152ec6022913960400191505060405180910390fd5b600084600001848154811061368357fe5b906000526020600020906002020190508060000154816001015492509250509250929050565b60008084600101600085815260200190815260200160002054905060008114158390613770576040517f08c379a00000000000000000000000000000000000000000000000000000000081526004018080602001828103825283818151815260200191508051906020019080838360005b8381101561373557808201518184015260208101905061371a565b50505050905090810190601f1680156137625780820380516001836020036101000a031916815260200191505b509250505060405180910390fd5b5084600001600182038154811061378357fe5b9060005260206000209060020201600101549150509392505050565b600081600001805490509050919050565b60006137d18473ffffffffffffffffffffffffffffffffffffffff16613c20565b6137de57600190506139c1565b606061394863150b7a0260e01b6137f3612ae5565b888787604051602401808573ffffffffffffffffffffffffffffffffffffffff1681526020018473ffffffffffffffffffffffffffffffffffffffff16815260200183815260200180602001828103825283818151815260200191508051906020019080838360005b8381101561387757808201518184015260208101905061385c565b50505050905090810190601f1680156138a45780820380516001836020036101000a031916815260200191505b5095505050505050604051602081830303815290604052907bffffffffffffffffffffffffffffffffffffffffffffffffffffffff19166020820180517bffffffffffffffffffffffffffffffffffffffffffffffffffffffff83818316178352505050506040518060600160405280603281526020016151b9603291398773ffffffffffffffffffffffffffffffffffffffff16613c339092919063ffffffff16565b9050600081806020019051602081101561396157600080fd5b8101908080519060200190929190505050905063150b7a0260e01b7bffffffffffffffffffffffffffffffffffffffffffffffffffffffff1916817bffffffffffffffffffffffffffffffffffffffffffffffffffffffff191614925050505b949350505050565b600080836001016000848152602001908152602001600020541415905092915050565b60008083600101600084815260200190815260200160002054905060008114613ac85760006001820390506000600186600001805490500390506000866000018281548110613a3757fe5b9060005260206000200154905080876000018481548110613a5457fe5b9060005260206000200181905550600183018760010160008381526020019081526020016000208190555086600001805480613a8c57fe5b60019003818190600052602060002001600090559055866001016000878152602001908152602001600020600090556001945050505050613ace565b60009150505b92915050565b6000613ae08383613c4b565b613b39578260000182908060018154018082558091505060019003906000526020600020016000909190919091505582600001805490508360010160008481526020019081526020016000208190555060019050613b3e565b600090505b92915050565b6000808460010160008581526020019081526020016000205490506000811415613beb57846000016040518060400160405280868152602001858152509080600181540180825580915050600190039060005260206000209060020201600090919091909150600082015181600001556020820151816001015550508460000180549050856001016000868152602001908152602001600020819055506001915050613c19565b82856000016001830381548110613bfe57fe5b90600052602060002090600202016001018190555060009150505b9392505050565b600080823b905060008111915050919050565b6060613c428484600085613c6e565b90509392505050565b600080836001016000848152602001908152602001600020541415905092915050565b606082471015613cc9576040517f08c379a000000000000000000000000000000000000000000000000000000000815260040180806020018281038252602681526020018061520f6026913960400191505060405180910390fd5b613cd285613c20565b613d44576040517f08c379a000000000000000000000000000000000000000000000000000000000815260040180806020018281038252601d8152602001807f416464726573733a2063616c6c20746f206e6f6e2d636f6e747261637400000081525060200191505060405180910390fd5b600060608673ffffffffffffffffffffffffffffffffffffffff1685876040518082805190602001908083835b60208310613d945780518252602082019150602081019050602083039250613d71565b6001836020036101000a03801982511681845116808217855250505050505090500191505060006040518083038185875af1925050503d8060008114613df6576040519150601f19603f3d011682016040523d82523d6000602084013e613dfb565b606091505b5091509150613e0b828286613e17565b92505050949350505050565b60608315613e2757829050613edc565b600083511115613e3a5782518084602001fd5b816040517f08c379a00000000000000000000000000000000000000000000000000000000081526004018080602001828103825283818151815260200191508051906020019080838360005b83811015613ea1578082015181840152602081019050613e86565b50505050905090810190601f168015613ece5780820380516001836020036101000a031916815260200191505b509250505060405180910390fd5b9392505050565b604051806060016040528060008152602001600073ffffffffffffffffffffffffffffffffffffffff168152602001600081525090565b6040518060400160405280600073ffffffffffffffffffffffffffffffffffffffff168152602001600081525090565b604051806040016040528060008152602001600073ffffffffffffffffffffffffffffffffffffffff1681525090565b6040518060800160405280600080191681526020016060815260200160008152602001600081525090565b828054600181600116156101000203166002900490600052602060002090601f016020900481019282613fdb5760008555614022565b82601f10613ff457805160ff1916838001178555614022565b82800160010185558215614022579182015b82811115614021578251825591602001919060010190614006565b5b50905061402f9190614082565b5090565b6040518060c0016040528060008152602001600073ffffffffffffffffffffffffffffffffffffffff168152602001600080191681526020016060815260200160008152602001600081525090565b5b8082111561409b576000816000905550600101614083565b5090565b6000813590506140ae8161510c565b92915050565b6000813590506140c381615123565b92915050565b600082601f8301126140da57600080fd5b81356140ed6140e882614ea3565b614e72565b9150818183526020840193506020810190508360005b8381101561413357813586016141198882614239565b845260208401935060208301925050600181019050614103565b5050505092915050565b60008135905061414c8161513a565b92915050565b60008135905061416181615151565b92915050565b60008151905061417681615151565b92915050565b60008135905061418b81615168565b92915050565b600082601f8301126141a257600080fd5b81356141b56141b082614ecf565b614e72565b915080825260208301602083018583830111156141d157600080fd5b6141dc8382846150ad565b50505092915050565b600082601f8301126141f657600080fd5b813561420961420482614eff565b614e72565b9150808252602083016020830185838301111561422557600080fd5b6142308382846150ad565b50505092915050565b60006080828403121561424b57600080fd5b6142556080614e72565b9050600061426584828501614152565b600083015250602082013567ffffffffffffffff81111561428557600080fd5b614291848285016141e5565b60208301525060406142a5848285016142c5565b60408301525060606142b9848285016142c5565b60608301525092915050565b6000813590506142d48161517f565b92915050565b6000602082840312156142ec57600080fd5b60006142fa8482850161409f565b91505092915050565b60006020828403121561431557600080fd5b6000614323848285016140b4565b91505092915050565b6000806040838503121561433f57600080fd5b600061434d8582860161409f565b925050602061435e8582860161409f565b9150509250929050565b60008060006060848603121561437d57600080fd5b600061438b8682870161409f565b935050602061439c8682870161409f565b92505060406143ad868287016142c5565b9150509250925092565b600080600080608085870312156143cd57600080fd5b60006143db8782880161409f565b94505060206143ec8782880161409f565b93505060406143fd878288016142c5565b925050606085013567ffffffffffffffff81111561441a57600080fd5b61442687828801614191565b91505092959194509250565b6000806040838503121561444557600080fd5b60006144538582860161409f565b92505060206144648582860161413d565b9150509250929050565b6000806040838503121561448157600080fd5b600061448f8582860161409f565b92505060206144a0858286016142c5565b9150509250929050565b6000602082840312156144bc57600080fd5b600082013567ffffffffffffffff8111156144d657600080fd5b6144e2848285016140c9565b91505092915050565b6000602082840312156144fd57600080fd5b600061450b84828501614152565b91505092915050565b60006020828403121561452657600080fd5b600061453484828501614167565b91505092915050565b60006020828403121561454f57600080fd5b600061455d8482850161417c565b91505092915050565b60006020828403121561457857600080fd5b6000614586848285016142c5565b91505092915050565b600080604083850312156145a257600080fd5b60006145b0858286016142c5565b925050602083013567ffffffffffffffff8111156145cd57600080fd5b6145d9858286016140c9565b9150509250929050565b600080604083850312156145f657600080fd5b6000614604858286016142c5565b9250506020614615858286016142c5565b9150509250929050565b600061462b8383614a91565b60408301905092915050565b60006146438383614aef565b60608301905092915050565b600061465b8383614b31565b905092915050565b61466c8161502f565b82525050565b61467b8161501d565b82525050565b61468a8161501d565b82525050565b600061469b82614f5f565b6146a58185614fbd565b93506146b083614f2f565b8060005b838110156146e15781516146c8888261461f565b97506146d383614f96565b9250506001810190506146b4565b5085935050505092915050565b60006146f982614f6a565b6147038185614fce565b935061470e83614f3f565b8060005b8381101561473f5781516147268882614637565b975061473183614fa3565b925050600181019050614712565b5085935050505092915050565b600061475782614f75565b6147618185614fdf565b93508360208202850161477385614f4f565b8060005b858110156147af5784840389528151614790858261464f565b945061479b83614fb0565b925060208a01995050600181019050614777565b50829750879550505050505092915050565b6147ca81615041565b82525050565b6147d98161504d565b82525050565b6147e88161504d565b82525050565b60006147f982614f80565b6148038185614ff0565b93506148138185602086016150bc565b80840191505092915050565b600061482a82614f8b565b6148348185614ffb565b93506148448185602086016150bc565b61484d816150fb565b840191505092915050565b600061486382614f8b565b61486d818561500c565b935061487d8185602086016150bc565b614886816150fb565b840191505092915050565b600061489e60138361500c565b91507f506978656c20616c72656164792074616b656e000000000000000000000000006000830152602082019050919050565b60006148de600a8361500c565b91507f4f776e6572204f6e6c79000000000000000000000000000000000000000000006000830152602082019050919050565b600061491e60118361500c565b91507f496e76616c69642072656374616e676c650000000000000000000000000000006000830152602082019050919050565b600061495e60108361500c565b91507f4e6f7420656e6f7567682066756e6473000000000000000000000000000000006000830152602082019050919050565b600061499e60118361500c565b91507f43616e6e6f742062652043726561746f720000000000000000000000000000006000830152602082019050919050565b60006149de600f8361500c565b91507f546f6f206d616e7920706978656c7300000000000000000000000000000000006000830152602082019050919050565b6000614a1e601d8361500c565b91507f436f6f7264696e6174657320617265206f7574206f6620626f756e63650000006000830152602082019050919050565b6000614a5e600c8361500c565b91507f43726561746f72204f6e6c7900000000000000000000000000000000000000006000830152602082019050919050565b604082016000820151614aa76000850182614663565b506020820151614aba6020850182614bba565b50505050565b604082016000820151614ad66000850182614663565b506020820151614ae96020850182614bba565b50505050565b606082016000820151614b056000850182614bba565b506020820151614b186020850182614672565b506040820151614b2b6040850182614bba565b50505050565b600060c083016000830151614b496000860182614bba565b506020830151614b5c6020860182614672565b506040830151614b6f60408601826147d0565b5060608301518482036060860152614b87828261481f565b9150506080830151614b9c6080860182614bba565b5060a0830151614baf60a0860182614bba565b508091505092915050565b614bc3816150a3565b82525050565b614bd2816150a3565b82525050565b614be9614be4826150a3565b6150ef565b82525050565b6000614bfb82846147ee565b915081905092915050565b6000614c128285614bd8565b602082019150614c228284614bd8565b6020820191508190509392505050565b6000602082019050614c476000830184614681565b92915050565b60006020820190508181036000830152614c678184614690565b905092915050565b60006020820190508181036000830152614c8981846146ee565b905092915050565b60006020820190508181036000830152614cab818461474c565b905092915050565b6000602082019050614cc860008301846147c1565b92915050565b6000608082019050614ce360008301876147df565b8181036020830152614cf58186614858565b9050614d046040830185614bc9565b614d116060830184614bc9565b95945050505050565b60006020820190508181036000830152614d348184614858565b905092915050565b60006020820190508181036000830152614d5581614891565b9050919050565b60006020820190508181036000830152614d75816148d1565b9050919050565b60006020820190508181036000830152614d9581614911565b9050919050565b60006020820190508181036000830152614db581614951565b9050919050565b60006020820190508181036000830152614dd581614991565b9050919050565b60006020820190508181036000830152614df5816149d1565b9050919050565b60006020820190508181036000830152614e1581614a11565b9050919050565b60006020820190508181036000830152614e3581614a51565b9050919050565b6000604082019050614e516000830184614ac0565b92915050565b6000602082019050614e6c6000830184614bc9565b92915050565b6000604051905081810181811067ffffffffffffffff82111715614e9957614e986150f9565b5b8060405250919050565b600067ffffffffffffffff821115614ebe57614ebd6150f9565b5b602082029050602081019050919050565b600067ffffffffffffffff821115614eea57614ee96150f9565b5b601f19601f8301169050602081019050919050565b600067ffffffffffffffff821115614f1a57614f196150f9565b5b601f19601f8301169050602081019050919050565b6000819050602082019050919050565b6000819050602082019050919050565b6000819050602082019050919050565b600081519050919050565b600081519050919050565b600081519050919050565b600081519050919050565b600081519050919050565b6000602082019050919050565b6000602082019050919050565b6000602082019050919050565b600082825260208201905092915050565b600082825260208201905092915050565b600082825260208201905092915050565b600081905092915050565b600082825260208201905092915050565b600082825260208201905092915050565b600061502882615083565b9050919050565b600061503a82615083565b9050919050565b60008115159050919050565b6000819050919050565b60007fffffffff0000000000000000000000000000000000000000000000000000000082169050919050565b600073ffffffffffffffffffffffffffffffffffffffff82169050919050565b6000819050919050565b82818337600083830152505050565b60005b838110156150da5780820151818401526020810190506150bf565b838111156150e9576000848401525b50505050565b6000819050919050565bfe5b6000601f19601f8301169050919050565b6151158161501d565b811461512057600080fd5b50565b61512c8161502f565b811461513757600080fd5b50565b61514381615041565b811461514e57600080fd5b50565b61515a8161504d565b811461516557600080fd5b50565b61517181615057565b811461517c57600080fd5b50565b615188816150a3565b811461519357600080fd5b5056fe456e756d657261626c655365743a20696e646578206f7574206f6620626f756e64734552433732313a207472616e7366657220746f206e6f6e20455243373231526563656976657220696d706c656d656e7465724552433732313a207472616e7366657220746f20746865207a65726f2061646472657373416464726573733a20696e73756666696369656e742062616c616e636520666f722063616c6c4552433732313a206f70657261746f7220717565727920666f72206e6f6e6578697374656e7420746f6b656e4552433732313a20617070726f76652063616c6c6572206973206e6f74206f776e6572206e6f7220617070726f76656420666f7220616c6c4552433732313a2062616c616e636520717565727920666f7220746865207a65726f20616464726573734552433732313a206f776e657220717565727920666f72206e6f6e6578697374656e7420746f6b656e456e756d657261626c654d61703a20696e646578206f7574206f6620626f756e64734552433732313a20617070726f76656420717565727920666f72206e6f6e6578697374656e7420746f6b656e4552433732313a207472616e73666572206f6620746f6b656e2074686174206973206e6f74206f776e4552433732314d657461646174613a2055524920717565727920666f72206e6f6e6578697374656e7420746f6b656e4552433732313a20617070726f76616c20746f2063757272656e74206f776e65724552433732313a207472616e736665722063616c6c6572206973206e6f74206f776e6572206e6f7220617070726f766564a2646970667358221220cfa6105a0aaea1d9e82e9477d18b05de2a9d9349ea78723d1a44fd2f0411ccaa64736f6c63430007040033",
  "immutableReferences": {},
  "source": "pragma solidity 0.7.4;\npragma experimental ABIEncoderV2;\n\nimport \"@openzeppelin/contracts/token/ERC721/ERC721.sol\";\n\ncontract PixelToken is ERC721 {\n\n    struct Exhibit {\n        uint256 id;\n        address payable owner;\n    }\n\n    struct Pixel {\n        bytes32 id;\n        string hexColor;\n        uint256 x;\n        uint256 y;\n    }\n\n    struct Bid {\n        address payable fromAddress;\n        uint256 amount;\n    }\n\n    struct HighestBidResponse {\n        uint256 exhibitId;\n        address fromAddress;\n        uint256 amount;\n    }\n\n    struct PixelResponse {\n        uint256 exhibitId;\n        address owner;\n        bytes32 pixelId;\n        string hexColor;\n        uint256 x;\n        uint256 y;\n    }\n\n    address payable owner;\n    uint256 public pixelFee;\n    uint256 private _currentTokenID;\n    bytes32[] pixelIds;\n    mapping (bytes32 => Pixel) public pixelMap;\n    mapping (bytes32 => uint256) public pixelExhibit;\n    mapping (uint256 => Exhibit) exhibits;\n    mapping (uint256 => Bid) highestBid;\n    mapping (uint256 => Bid[]) bidHistory;\n    uint256 public maxXPixel;\n    uint256 public maxYPixel;\n    uint256 public maxPixelsPerExhibit;\n    \n    mapping (bytes32 => bool) tempPixelMap;\n\n    modifier exhibitCreatorOnly(uint256 _id) {\n        require(exhibits[_id].owner == msg.sender, \"Creator Only\");\n        _;\n    }\n\n    modifier notExhibitCreator(uint256 _id) {\n        require(exhibits[_id].owner != msg.sender, \"Cannot be Creator\");\n        _;\n    }\n\n    modifier isContractOwner() {\n        require(msg.sender == owner, \"Owner Only\");\n        _;\n    }\n\n    constructor(address payable _owner, uint256 _maxCoords, \n                uint256 _maxPixels, uint256 _pixelfee) ERC721(\"Exhibit\", \"XBT\") {\n        owner = _owner;\n        maxXPixel = _maxCoords;\n        maxYPixel = _maxCoords;\n        maxPixelsPerExhibit = _maxPixels;\n        pixelFee = _pixelfee;\n    }\n\n    function getPixels() public view returns(PixelResponse[] memory) {\n        PixelResponse[] memory _pixels = new PixelResponse[](pixelIds.length);\n        for (uint256 i = 0; i < _pixels.length; i++) {\n            Pixel memory _pixel = pixelMap[pixelIds[i]];\n            Exhibit memory creator = exhibits[pixelExhibit[_pixel.id]];\n            PixelResponse memory resp = PixelResponse({\n                exhibitId: creator.id,\n                owner: creator.owner,\n                pixelId: _pixel.id,\n                hexColor: _pixel.hexColor,\n                x: _pixel.x,\n                y: _pixel.y\n            });\n             _pixels[i] = resp;\n        }\n        return _pixels;\n    }\n\n    function create(Pixel[] memory _pixels) public payable {\n        require(msg.sender.balance >= msg.value, \"Not enough funds\");\n        require(_pixels.length <= maxPixelsPerExhibit, \"Too many pixels\");\n        require(isFullRect(_pixels), \"Invalid rectangle\");\n        for (uint256 i = 0; i < _pixels.length; i++) {\n            Pixel memory p = _pixels[i];\n            require(p.x <= maxXPixel && p.y <= maxYPixel, \"Coordinates are out of bounce\");\n            p.id = getHashFromCords(p.x, p.y);\n            require(pixelMap[p.id].id == 0, \"Pixel already taken\");\n            // Remove from tempPixelMap as it is only\n            // used for full rect validation\n            delete tempPixelMap[p.id];\n            pixelMap[p.id] = p;\n            pixelExhibit[p.id] = _currentTokenID;\n            pixelIds.push(p.id);\n        }\n\n        Exhibit memory exhibit = Exhibit({\n            id: _currentTokenID,\n            owner: msg.sender\n        });\n        exhibits[_currentTokenID] = exhibit;\n        owner.transfer(msg.value);\n        _mint(msg.sender, _currentTokenID);\n        _incrementTokenTypeId();\n    }\n\n    function changePixels(uint256 _id, Pixel[] memory _pixels) public exhibitCreatorOnly(_id) {\n        for (uint256 i = 0; i < _pixels.length; i++) {\n            Pixel memory _pixel = _pixels[i];\n            require(pixelExhibit[_pixel.id] == _id);\n            Pixel memory map = pixelMap[_pixel.id];\n            map.hexColor = _pixel.hexColor;\n            pixelMap[_pixel.id] = map;\n        } \n    }\n\n    function placeBid(uint256 _id) notExhibitCreator(_id) public payable {\n        Bid memory prevHighest = highestBid[_id];\n        require(msg.sender.balance >= msg.value);\n        require(msg.value > 0 && msg.value > prevHighest.amount);\n\n        if (prevHighest.fromAddress != address(0)) {\n            prevHighest.fromAddress.transfer(prevHighest.amount);\n            bidHistory[_id].push(prevHighest);\n        }\n\n        Bid memory newHighestBidder = Bid({\n            amount: msg.value,\n            fromAddress: msg.sender\n        });\n        highestBid[_id] = newHighestBidder;\n    }\n\n    function acceptBid(uint256 _id) exhibitCreatorOnly(_id) public payable {\n        Exhibit memory c = exhibits[_id];\n        c.owner.transfer(highestBid[_id].amount);\n        safeTransferFrom(c.owner, highestBid[_id].fromAddress, _id);\n        c.owner = highestBid[_id].fromAddress;\n        exhibits[_id] = c;\n        bidHistory[_id].push(highestBid[_id]);\n        delete highestBid[_id];\n    }\n\n    function getBid(uint256 _id) public view returns(Bid memory) {\n        return highestBid[_id];\n    }\n\n    function getBidHistoryForExhibit(uint256 _id) public view returns(Bid[] memory) {\n        return bidHistory[_id];\n    }\n\n    function getAllHighestBids() public view returns(HighestBidResponse[] memory) {\n        HighestBidResponse[] memory highestBids = new HighestBidResponse[](_currentTokenID);\n        uint256 index = 0;\n        for (uint256 i = 0; i < _currentTokenID; i++) {\n            if (highestBid[i].amount != 0) {\n                Bid memory _bid = highestBid[i];\n                HighestBidResponse memory resp = HighestBidResponse({\n                    exhibitId: i,\n                    fromAddress: _bid.fromAddress,\n                    amount: _bid.amount\n                });\n                highestBids[index] = resp;\n                index++;\n            }\n        }\n        return highestBids;\n    }\n\n    function _incrementTokenTypeId() private  {\n        _currentTokenID++;\n    }\n\n    function getHashFromCords(uint256 x, uint256 y) internal pure returns (bytes32) {\n        return sha256(abi.encodePacked(x, y));\n   }\n\n   function isFullRect(Pixel[] memory _pixels) internal returns(bool) {\n        uint256 xMax = 0;\n        uint256 yMax = 0;\n        uint256 xMin = maxXPixel;\n        uint256 yMin = maxYPixel;\n        \n        for (uint256 i = 0; i < _pixels.length; i++) {\n            Pixel memory _pixel = _pixels[i];\n            if (_pixel.x > xMax) {\n                xMax = _pixel.x;\n            }\n            if (_pixel.y > yMax) {\n                yMax = _pixel.y;\n            }\n            if (_pixel.x < xMin) {\n                xMin = _pixel.x;\n            }\n            if (_pixel.y < yMin) {\n                yMin = _pixel.y;\n            }\n            bytes32 _id = getHashFromCords(_pixel.x, _pixel.y);\n            if (!tempPixelMap[_id]) {\n                tempPixelMap[_id] = true;\n            } else {\n                return false;\n            }\n        }\n        if (_pixels.length < (xMax - xMin + 1) * (yMax - yMin + 1)) {\n            return false;\n        }\n        return true;\n   }\n\n\n    // Admin\n    function changeContactOwner(address payable _owner) public isContractOwner {\n        owner = _owner;\n    }\n\n    function changeMaxXYPixel(uint256 _maxX, uint256 _maxY) public isContractOwner {\n        require(_maxX > maxXPixel && _maxY > maxYPixel);\n        maxXPixel = _maxX;\n        maxYPixel = _maxY;\n    }\n\n    function changePixelFee(uint256 _pixelFee) public isContractOwner {\n        pixelFee = _pixelFee;\n        // $0.50 / pixel; Use chainlink to update pixelFee as the price of ETH changes\n    }\n\n    function changeMaxPixelsPerExhibit(uint256 _max) public isContractOwner {\n        maxPixelsPerExhibit = _max;\n    }\n}",
  "sourcePath": "/Users/matthewruddy/Projects/DAPP/contracts/PixelToken.sol",
  "compiler": {
    "name": "solc",
    "version": "0.7.4+commit.3f05b770.Emscripten.clang"
  },
  "schemaVersion": "3.2.5",
  "updatedAt": "2021-03-13T21:24:07.862Z",
  "networkType": "ethereum",
  "devdoc": {
    "kind": "dev",
    "methods": {
      "approve(address,uint256)": {
        "details": "See {IERC721-approve}."
      },
      "balanceOf(address)": {
        "details": "See {IERC721-balanceOf}."
      },
      "baseURI()": {
        "details": "Returns the base URI set via {_setBaseURI}. This will be automatically added as a prefix in {tokenURI} to each token's URI, or to the token ID if no specific URI is set for that token ID."
      },
      "getApproved(uint256)": {
        "details": "See {IERC721-getApproved}."
      },
      "isApprovedForAll(address,address)": {
        "details": "See {IERC721-isApprovedForAll}."
      },
      "name()": {
        "details": "See {IERC721Metadata-name}."
      },
      "ownerOf(uint256)": {
        "details": "See {IERC721-ownerOf}."
      },
      "safeTransferFrom(address,address,uint256)": {
        "details": "See {IERC721-safeTransferFrom}."
      },
      "safeTransferFrom(address,address,uint256,bytes)": {
        "details": "See {IERC721-safeTransferFrom}."
      },
      "setApprovalForAll(address,bool)": {
        "details": "See {IERC721-setApprovalForAll}."
      },
      "supportsInterface(bytes4)": {
        "details": "See {IERC165-supportsInterface}. Time complexity O(1), guaranteed to always use less than 30 000 gas."
      },
      "symbol()": {
        "details": "See {IERC721Metadata-symbol}."
      },
      "tokenByIndex(uint256)": {
        "details": "See {IERC721Enumerable-tokenByIndex}."
      },
      "tokenOfOwnerByIndex(address,uint256)": {
        "details": "See {IERC721Enumerable-tokenOfOwnerByIndex}."
      },
      "tokenURI(uint256)": {
        "details": "See {IERC721Metadata-tokenURI}."
      },
      "totalSupply()": {
        "details": "See {IERC721Enumerable-totalSupply}."
      },
      "transferFrom(address,address,uint256)": {
        "details": "See {IERC721-transferFrom}."
      }
    },
    "version": 1
  },
  "userdoc": {
    "kind": "user",
    "methods": {},
    "version": 1
  }
}