{
  "contractName": "ProxyRegistry",
  "abi": [
    {
      "inputs": [
        {
          "internalType": "address",
          "name": "",
          "type": "address"
        }
      ],
      "name": "proxies",
      "outputs": [
        {
          "internalType": "contract OwnableDelegateProxy",
          "name": "",
          "type": "address"
        }
      ],
      "stateMutability": "view",
      "type": "function"
    }
  ],
  "bytecode": "0x608060405234801561001057600080fd5b5061019e806100206000396000f3fe608060405234801561001057600080fd5b506004361061002b5760003560e01c8063c455279114610030575b600080fd5b61004a600480360381019061004591906100a8565b610060565b60405161005791906100e0565b60405180910390f35b60006020528060005260406000206000915054906101000a900473ffffffffffffffffffffffffffffffffffffffff1681565b6000813590506100a281610151565b92915050565b6000602082840312156100ba57600080fd5b60006100c884828501610093565b91505092915050565b6100da8161012d565b82525050565b60006020820190506100f560008301846100d1565b92915050565b60006101068261010d565b9050919050565b600073ffffffffffffffffffffffffffffffffffffffff82169050919050565b60006101388261013f565b9050919050565b600061014a8261010d565b9050919050565b61015a816100fb565b811461016557600080fd5b5056fea26469706673582212209647b3880edd08b1b2cd9d1c6df4bce4971e22753f4fd7cfe65d1b16e37adb6164736f6c63430007040033",
  "immutableReferences": {},
  "source": "// SPDX-License-Identifier: MIT\npragma solidity 0.7.4;\npragma experimental ABIEncoderV2;\n\nimport { ERC721 } from \"@openzeppelin/contracts/token/ERC721/ERC721.sol\";\nimport { RectMath } from \"./utils/RectMath.sol\";\nimport { CustomStructs } from \"./utils/CustomStructs.sol\";\nimport { Ownable } from \"@openzeppelin/contracts/access/Ownable.sol\";\n\ncontract OwnableDelegateProxy {}\n\ncontract ProxyRegistry {\n    mapping(address => OwnableDelegateProxy) public proxies;\n}\n\ncontract DARToken is ERC721, Ownable {\n\n    address payable contractOwner;\n    address proxyRegistryAddress;\n    uint256 private _currentTokenID;\n    uint256 public maxPixelsPerExhibit;\n    uint256 public fee;\n    mapping (uint256 => CustomStructs.DartMeta) dartMeta;\n\n    constructor(address payable _owner, uint256 _fee, address _proxyRegistryAddress) ERC721(\"DecentralizedArt\", \"DRT\") {\n        contractOwner = _owner;\n        fee = _fee;\n        proxyRegistryAddress = _proxyRegistryAddress;\n    }\n\n    function getDarts() public view returns(CustomStructs.DartResp[] memory) {\n        CustomStructs.DartResp[] memory _darts = new CustomStructs.DartResp[](_currentTokenID);\n        for (uint16 i = 0; i < _currentTokenID; i++) {\n            CustomStructs.DartMeta memory _meta = dartMeta[i];\n            CustomStructs.DartResp memory resp = CustomStructs.DartResp({\n                dartId: i,\n                owner: ownerOf(i),\n                name: _meta.name,\n                rgbaArray: _meta.rgbaArray,\n                dimensions: _meta.dimensions\n            });\n             _darts[i] = resp;\n        }\n        return _darts;\n    }\n\n    function getDart(uint256 _tokenId) public view returns(CustomStructs.DartResp memory) {\n        CustomStructs.DartMeta memory _meta = dartMeta[_tokenId];\n        return CustomStructs.DartResp({\n            dartId: _tokenId,\n            name: _meta.name,\n            owner: ownerOf(_tokenId),\n            rgbaArray: _meta.rgbaArray,\n            dimensions: _meta.dimensions\n        });\n    }\n\n    function createDart(uint8[] memory _pixels, CustomStructs.Dimensions memory _dimensions, bytes32 _name) public payable \n                                                                    isValidLength(uint256((_pixels.length / 4)), _dimensions) \n                                                                    isPixelsValid(_pixels) { \n\n        require(msg.sender.balance >= msg.value, \"Not enough funds\");\n\n        CustomStructs.DartMeta memory _meta = CustomStructs.DartMeta({\n            rgbaArray: _pixels,\n            name: _name,\n            dimensions: _dimensions\n        });\n        dartMeta[_currentTokenID] = _meta;\n        contractOwner.transfer(msg.value);\n        _mint(msg.sender, _currentTokenID);\n        _incrementTokenId();\n    }\n\n    // Helpers\n    function _incrementTokenId() internal {\n        _currentTokenID++;\n    }\n\n    function getHashFromCords(uint256 x, uint256 y) internal pure returns (bytes32) {\n        return sha256(abi.encodePacked(x, y));\n   }\n\n    // Admin\n    function changeContactOwner(address payable _owner) public isContractOwner {\n        contractOwner = _owner;\n    }\n\n    function changeMaxPixelsPerExhibit(uint16 _max) public isContractOwner {\n        maxPixelsPerExhibit = _max;\n    }\n\n    modifier isContractOwner() {\n        require(msg.sender == contractOwner, \"Owner Only\");\n        _;\n    }\n\n    modifier isValidLength(uint256 length, CustomStructs.Dimensions memory _dimensions) {\n        require(RectMath.validLength(length, _dimensions), \"Invalid pixel dimensions\");\n        _;\n    }\n\n    modifier isPixelsValid(uint8[] memory _pixels) {\n        require(_pixels.length <= maxPixelsPerExhibit * 4, \"Too many pixels\");\n        _;\n    }\n\n    // Overrides\n    function isApprovedForAll(address owner, address operator) public view override returns (bool) {\n        ProxyRegistry proxyRegistry = ProxyRegistry(proxyRegistryAddress);\n        if (address(proxyRegistry.proxies(owner)) == operator) {\n            return true;\n        }\n        return super.isApprovedForAll(owner, operator);\n    }\n}",
  "sourcePath": "/Users/matthewruddy/Desktop/Projects/DAPP/contracts/DARToken.sol",
  "compiler": {
    "name": "solc",
    "version": "0.7.4+commit.3f05b770.Emscripten.clang"
  },
  "schemaVersion": "3.3.4",
  "updatedAt": "2021-03-21T19:14:28.552Z",
  "devdoc": {
    "kind": "dev",
    "methods": {},
    "version": 1
  },
  "userdoc": {
    "kind": "user",
    "methods": {},
    "version": 1
  }
}